{
  "transactions": [
    {
      "hash": "0x4dcd6ea17b10e1084eadb26240b69672955496f16041a3e9233a71c2e23fc006",
      "transactionType": "CALL",
      "contractName": null,
      "contractAddress": "0x9628c83b4988d0cc7dc13e227b2114cb3cf39d53",
      "function": "addMembers(address[])",
      "arguments": [
        "[0x78F5852E1DA3e82658f5f9B1fE6b67F5573090A1]"
      ],
      "transaction": {
        "from": "0xff9179199903a10283e19d86de8c09f2718073da",
        "to": "0x9628c83b4988d0cc7dc13e227b2114cb3cf39d53",
        "gas": "0x16d54",
        "value": "0x0",
        "input": "0x6f4d469b0000000000000000000000000000000000000000000000000000000000000020000000000000000000000000000000000000000000000000000000000000000100000000000000000000000078f5852e1da3e82658f5f9b1fe6b67f5573090a1",
        "nonce": "0x7e",
        "chainId": "0xaa36a7"
      },
      "additionalContracts": [],
      "isFixedGasLimit": false
    },
    {
      "hash": "0xbaa0380abc7024a7447ea10f2f29e7f79300faa451c14ec9664cead17717ed8c",
      "transactionType": "CALL",
      "contractName": null,
      "contractAddress": "0x9628c83b4988d0cc7dc13e227b2114cb3cf39d53",
      "function": "propose(string,(string,bytes)[])",
      "arguments": [
        "\"QmStEMeSBhmakCDyKQDYuTcRCMveCMmA5C5kwmXLBbr8YD\"",
        "[]"
      ],
      "transaction": {
        "from": "0xff9179199903a10283e19d86de8c09f2718073da",
        "to": "0x9628c83b4988d0cc7dc13e227b2114cb3cf39d53",
        "gas": "0x67611",
        "value": "0x0",
        "input": "0xd13da0bd000000000000000000000000000000000000000000000000000000000000004000000000000000000000000000000000000000000000000000000000000000a0000000000000000000000000000000000000000000000000000000000000002e516d5374454d655342686d616b4344794b51445975546352434d7665434d6d413543356b776d584c4262723859440000000000000000000000000000000000000000000000000000000000000000000000000000000000000000000000000000",
        "nonce": "0x7f",
        "chainId": "0xaa36a7"
      },
      "additionalContracts": [],
      "isFixedGasLimit": false
    },
    {
      "hash": "0x466d72144f61fd7c8d42eb5d76aa3cf4e4742777bafbb8a0f969563a0eb7e77d",
      "transactionType": "CALL",
      "contractName": null,
      "contractAddress": "0x9628c83b4988d0cc7dc13e227b2114cb3cf39d53",
      "function": "fork(uint256,string,(string,bytes)[])",
      "arguments": [
        "0",
        "\"forkedProposalURI\"",
        "[(\"memberJoin(uint256,(address,string)[])\", 0x0000000000000000000000000000000000000000000000000000000000000000000000000000000000000000000000000000000000000000000000000000004000000000000000000000000000000000000000000000000000000000000000010000000000000000000000000000000000000000000000000000000000000020000000000000000000000000000000000000000000000000000000000000000000000000000000000000000000000000000000000000000000000000000000400000000000000000000000000000000000000000000000000000000000000000)]"
      ],
      "transaction": {
        "from": "0xff9179199903a10283e19d86de8c09f2718073da",
        "to": "0x9628c83b4988d0cc7dc13e227b2114cb3cf39d53",
        "gas": "0x6519b",
        "value": "0x0",
        "input": "0x71cb2ee50000000000000000000000000000000000000000000000000000000000000000000000000000000000000000000000000000000000000000000000000000006000000000000000000000000000000000000000000000000000000000000000a00000000000000000000000000000000000000000000000000000000000000011666f726b656450726f706f73616c55524900000000000000000000000000000000000000000000000000000000000000000000000000000000000000000000010000000000000000000000000000000000000000000000000000000000000020000000000000000000000000000000000000000000000000000000000000004000000000000000000000000000000000000000000000000000000000000000a000000000000000000000000000000000000000000000000000000000000000266d656d6265724a6f696e2875696e743235362c28616464726573732c737472696e67295b5d29000000000000000000000000000000000000000000000000000000000000000000000000000000000000000000000000000000000000000000e00000000000000000000000000000000000000000000000000000000000000000000000000000000000000000000000000000000000000000000000000000004000000000000000000000000000000000000000000000000000000000000000010000000000000000000000000000000000000000000000000000000000000020000000000000000000000000000000000000000000000000000000000000000000000000000000000000000000000000000000000000000000000000000000400000000000000000000000000000000000000000000000000000000000000000",
        "nonce": "0x80",
        "chainId": "0xaa36a7"
      },
      "additionalContracts": [],
      "isFixedGasLimit": false
    },
    {
      "hash": "0x2c95fbe29bdeb44eaf4455110d9452585ba7ea984fdb3ed0703c6571d9a58db2",
      "transactionType": "CALL",
      "contractName": null,
      "contractAddress": "0x9628c83b4988d0cc7dc13e227b2114cb3cf39d53",
      "function": "vote(uint256,(uint256[3],uint256[3]))",
      "arguments": [
        "0",
        "([1, 2, 0], [1, 0, 0])"
      ],
      "transaction": {
        "from": "0xff9179199903a10283e19d86de8c09f2718073da",
        "to": "0x9628c83b4988d0cc7dc13e227b2114cb3cf39d53",
        "gas": "0x2a02b",
        "value": "0x0",
        "input": "0x0c68678c0000000000000000000000000000000000000000000000000000000000000000000000000000000000000000000000000000000000000000000000000000000100000000000000000000000000000000000000000000000000000000000000020000000000000000000000000000000000000000000000000000000000000000000000000000000000000000000000000000000000000000000000000000000100000000000000000000000000000000000000000000000000000000000000000000000000000000000000000000000000000000000000000000000000000000",
        "nonce": "0x81",
        "chainId": "0xaa36a7"
      },
      "additionalContracts": [],
      "isFixedGasLimit": false
    },
    {
      "hash": "0x015f0802f4fb1dd3fe1f4280479420ba66ab93395ef246233ba1bb0316d114e2",
      "transactionType": "CALL",
      "contractName": null,
      "contractAddress": "0x9628c83b4988d0cc7dc13e227b2114cb3cf39d53",
      "function": "vote(uint256,(uint256[3],uint256[3]))",
      "arguments": [
        "0",
        "([2, 1, 0], [1, 0, 0])"
      ],
      "transaction": {
        "from": "0x78f5852e1da3e82658f5f9b1fe6b67f5573090a1",
        "to": "0x9628c83b4988d0cc7dc13e227b2114cb3cf39d53",
        "gas": "0x2d5eb",
        "value": "0x0",
        "input": "0x0c68678c0000000000000000000000000000000000000000000000000000000000000000000000000000000000000000000000000000000000000000000000000000000200000000000000000000000000000000000000000000000000000000000000010000000000000000000000000000000000000000000000000000000000000000000000000000000000000000000000000000000000000000000000000000000100000000000000000000000000000000000000000000000000000000000000000000000000000000000000000000000000000000000000000000000000000000",
        "nonce": "0x4",
        "chainId": "0xaa36a7"
      },
      "additionalContracts": [],
      "isFixedGasLimit": false
    },
    {
      "hash": "0x99d5277ebfaeed1efb68d363c34bbb8677e7daf7abffa7bd41535fa001dbb6ae",
      "transactionType": "CALL",
      "contractName": null,
      "contractAddress": "0x9628c83b4988d0cc7dc13e227b2114cb3cf39d53",
      "function": "forceTally(uint256)",
      "arguments": [
        "0"
      ],
      "transaction": {
        "from": "0xff9179199903a10283e19d86de8c09f2718073da",
        "to": "0x9628c83b4988d0cc7dc13e227b2114cb3cf39d53",
        "gas": "0x27311",
        "value": "0x0",
        "input": "0xed82e4710000000000000000000000000000000000000000000000000000000000000000",
        "nonce": "0x82",
        "chainId": "0xaa36a7"
      },
      "additionalContracts": [],
      "isFixedGasLimit": false
    },
    {
      "hash": "0x6821231324e9180933f1869b1e765dbb272dcab63e426d4b36ce197f742e0a59",
      "transactionType": "CALL",
      "contractName": null,
      "contractAddress": "0x9628c83b4988d0cc7dc13e227b2114cb3cf39d53",
      "function": "vote(uint256,(uint256[3],uint256[3]))",
      "arguments": [
        "0",
        "([1, 2, 0], [1, 0, 0])"
      ],
      "transaction": {
        "from": "0x78f5852e1da3e82658f5f9b1fe6b67f5573090a1",
        "to": "0x9628c83b4988d0cc7dc13e227b2114cb3cf39d53",
        "gas": "0x189b1",
        "value": "0x0",
        "input": "0x0c68678c0000000000000000000000000000000000000000000000000000000000000000000000000000000000000000000000000000000000000000000000000000000100000000000000000000000000000000000000000000000000000000000000020000000000000000000000000000000000000000000000000000000000000000000000000000000000000000000000000000000000000000000000000000000100000000000000000000000000000000000000000000000000000000000000000000000000000000000000000000000000000000000000000000000000000000",
        "nonce": "0x5",
        "chainId": "0xaa36a7"
      },
      "additionalContracts": [],
      "isFixedGasLimit": false
    },
    {
      "hash": "0xa9dcf7d87d3b5d208db8cd2d992e050bd2c4a9b844c13dd84a4c364c378753c9",
      "transactionType": "CALL",
      "contractName": null,
      "contractAddress": "0x9628c83b4988d0cc7dc13e227b2114cb3cf39d53",
      "function": "forceTally(uint256)",
      "arguments": [
        "0"
      ],
      "transaction": {
        "from": "0xff9179199903a10283e19d86de8c09f2718073da",
        "to": "0x9628c83b4988d0cc7dc13e227b2114cb3cf39d53",
        "gas": "0x2e360",
        "value": "0x0",
        "input": "0xed82e4710000000000000000000000000000000000000000000000000000000000000000",
        "nonce": "0x83",
        "chainId": "0xaa36a7"
      },
      "additionalContracts": [],
      "isFixedGasLimit": false
    }
  ],
  "receipts": [
    {
      "status": "0x1",
      "cumulativeGasUsed": "0xc56ade",
      "logs": [
        {
          "address": "0x9628c83b4988d0cc7dc13e227b2114cb3cf39d53",
          "topics": [
            "0x479e555f6c2b410f9bea0faf0392342851e2103c9c7a9b61f8f087b47331d0eb"
          ],
          "data": "0x000000000000000000000000000000000000000000000000000000000000000100000000000000000000000078f5852e1da3e82658f5f9b1fe6b67f5573090a100000000000000000000000000000000000000000000000000000000000000600000000000000000000000000000000000000000000000000000000000000000",
          "blockHash": "0xa3ffa610cc1a36223968cdff842f9572a407159d0b72dd9d6c14d7498d259803",
          "blockNumber": "0x614ab7",
          "transactionHash": "0x4dcd6ea17b10e1084eadb26240b69672955496f16041a3e9233a71c2e23fc006",
          "transactionIndex": "0x75",
          "logIndex": "0xa0",
          "removed": false
        }
      ],
      "logsBloom": "0x00000000000000001000000000000000000000000000000000000000000000000000000000000000000000000000000000000000000000000000000000000000800000000000000000000000000000000000000000000000000000000000000000000000000000000000000000000000000000000000000000000000000000000000000000000020000000000000000000000000000000000000000000000000000000000000000000000001000000000000000000000100000000000000000000000000000000000000000000000000000000000000000000000000100000000000000000000000000000000000000000000000000000000000000000000000",
      "type": "0x2",
      "transactionHash": "0x4dcd6ea17b10e1084eadb26240b69672955496f16041a3e9233a71c2e23fc006",
      "transactionIndex": "0x75",
      "blockHash": "0xa3ffa610cc1a36223968cdff842f9572a407159d0b72dd9d6c14d7498d259803",
      "blockNumber": "0x614ab7",
      "gasUsed": "0x1087f",
      "effectiveGasPrice": "0x2a66730",
      "from": "0xff9179199903a10283e19d86de8c09f2718073da",
      "to": "0x9628c83b4988d0cc7dc13e227b2114cb3cf39d53",
      "contractAddress": null
    },
    {
      "status": "0x1",
      "cumulativeGasUsed": "0x6b2c22",
      "logs": [
        {
          "address": "0x9628c83b4988d0cc7dc13e227b2114cb3cf39d53",
          "topics": [
            "0x878ba0197bd5955755d380c08df83d10ead659e03fcc3b3a903472ac34d932ef"
          ],
          "data": "0x00000000000000000000000000000000000000000000000000000000000000000000000000000000000000000000000000000000000000000000000000000040000000000000000000000000000000000000000000000000000000000000002e516d5374454d655342686d616b4344794b51445975546352434d7665434d6d413543356b776d584c426272385944000000000000000000000000000000000000",
          "blockHash": "0xff1ada8adc2d5ccf9480018dc66505f2597dec53778cff15f90af5e94a9bd471",
          "blockNumber": "0x614ab8",
          "transactionHash": "0xbaa0380abc7024a7447ea10f2f29e7f79300faa451c14ec9664cead17717ed8c",
          "transactionIndex": "0x40",
          "logIndex": "0x77",
          "removed": false
        },
        {
          "address": "0x9628c83b4988d0cc7dc13e227b2114cb3cf39d53",
          "topics": [
            "0xa6c20d3d23e1987f797b7d6df82e3e885eadb06674faf0ae16ab200a87358897"
          ],
          "data": "0x000000000000000000000000000000000000000000000000000000000000000000000000000000000000000000000000000000000000000000000000000000400000000000000000000000000000000000000000000000000000000000000002000000000000000000000000ff9179199903a10283e19d86de8c09f2718073da00000000000000000000000078f5852e1da3e82658f5f9b1fe6b67f5573090a1",
          "blockHash": "0xff1ada8adc2d5ccf9480018dc66505f2597dec53778cff15f90af5e94a9bd471",
          "blockNumber": "0x614ab8",
          "transactionHash": "0xbaa0380abc7024a7447ea10f2f29e7f79300faa451c14ec9664cead17717ed8c",
          "transactionIndex": "0x40",
          "logIndex": "0x78",
          "removed": false
        },
        {
          "address": "0x9628c83b4988d0cc7dc13e227b2114cb3cf39d53",
          "topics": [
            "0x21f7580aa2b5b07069e9a68b5bd444ccf128366ccf5044afe7267a9e9dce7e9e"
          ],
          "data": "0x0000000000000000000000000000000000000000000000000000000000000000000000000000000000000000ff9179199903a10283e19d86de8c09f2718073da0000000000000000000000000000000000000000000000000000000066a2e730",
          "blockHash": "0xff1ada8adc2d5ccf9480018dc66505f2597dec53778cff15f90af5e94a9bd471",
          "blockNumber": "0x614ab8",
          "transactionHash": "0xbaa0380abc7024a7447ea10f2f29e7f79300faa451c14ec9664cead17717ed8c",
          "transactionIndex": "0x40",
          "logIndex": "0x79",
          "removed": false
        }
      ],
      "logsBloom": "0x00000000000000000000000000000000000000000000000000000000000000000000000000000000000000002000000000000000000000000000000000000000800000000000000000000000000000000000000000000000000000000000000020000000000000000000000000000000000000000200000000000000000000000000000000000030800000000000000000000000000000000000000000000000000000000000000000001000000000000000000000000000000000000000000000000000000000000000000000000000000000000000000000000000100000000000000000000000000000000404004000000000000000000000000000000000",
      "type": "0x2",
      "transactionHash": "0xbaa0380abc7024a7447ea10f2f29e7f79300faa451c14ec9664cead17717ed8c",
      "transactionIndex": "0x40",
      "blockHash": "0xff1ada8adc2d5ccf9480018dc66505f2597dec53778cff15f90af5e94a9bd471",
      "blockNumber": "0x614ab8",
      "gasUsed": "0x4ad84",
      "effectiveGasPrice": "0x2a74065",
      "from": "0xff9179199903a10283e19d86de8c09f2718073da",
      "to": "0x9628c83b4988d0cc7dc13e227b2114cb3cf39d53",
      "contractAddress": null
    },
    {
      "status": "0x1",
      "cumulativeGasUsed": "0x1972d00",
      "logs": [
        {
          "address": "0x9628c83b4988d0cc7dc13e227b2114cb3cf39d53",
          "topics": [
            "0x2cad6e61a629ebac72455ccdfef2cc23db1225b43d125970cdad960c0ede9f5a"
          ],
          "data": "0x000000000000000000000000000000000000000000000000000000000000000000000000000000000000000000000000000000000000000000000000000000400000000000000000000000000000000000000000000000000000000000000011666f726b656450726f706f73616c555249000000000000000000000000000000",
          "blockHash": "0x08dab8caa632a7597dad1a25ab072b6a04715e96a66dca68605611be06a427d7",
          "blockNumber": "0x614ab9",
          "transactionHash": "0x466d72144f61fd7c8d42eb5d76aa3cf4e4742777bafbb8a0f969563a0eb7e77d",
          "transactionIndex": "0xb5",
          "logIndex": "0xc1",
          "removed": false
        },
        {
          "address": "0x9628c83b4988d0cc7dc13e227b2114cb3cf39d53",
          "topics": [
            "0xad6f17ad8bd04c8256e0aa6f8fe8d9a62f6dc2bc9d5d06149d252d9083e979a1"
          ],
          "data": "0x0000000000000000000000000000000000000000000000000000000000000000000000000000000000000000000000000000000000000000000000000000004000000000000000000000000000000000000000000000000000000000000000010000000000000000000000000000000000000000000000000000000000000020000000000000000000000000000000000000000000000000000000000000004000000000000000000000000000000000000000000000000000000000000000a000000000000000000000000000000000000000000000000000000000000000266d656d6265724a6f696e2875696e743235362c28616464726573732c737472696e67295b5d29000000000000000000000000000000000000000000000000000000000000000000000000000000000000000000000000000000000000000000e00000000000000000000000000000000000000000000000000000000000000000000000000000000000000000000000000000000000000000000000000000004000000000000000000000000000000000000000000000000000000000000000010000000000000000000000000000000000000000000000000000000000000020000000000000000000000000000000000000000000000000000000000000000000000000000000000000000000000000000000000000000000000000000000400000000000000000000000000000000000000000000000000000000000000000",
          "blockHash": "0x08dab8caa632a7597dad1a25ab072b6a04715e96a66dca68605611be06a427d7",
          "blockNumber": "0x614ab9",
          "transactionHash": "0x466d72144f61fd7c8d42eb5d76aa3cf4e4742777bafbb8a0f969563a0eb7e77d",
          "transactionIndex": "0xb5",
          "logIndex": "0xc2",
          "removed": false
        }
      ],
      "logsBloom": "0x00010000000000000000000000000000000000000000000000100000000000000000000000000000400000000000000000000000000000000000000000000000800000000000000000000000000000000000000000000000000000000000000000000800000000000000000000000000000000000000000000000000000000000000000000000020001000000000000000000000000000001000000000000000000000000000000000000000000000000000000000000000000000000000000000000000000000000000000000000000000000000000000000000000100000000000000000000000000000000000000000000000000000000000000000000000",
      "type": "0x2",
      "transactionHash": "0x466d72144f61fd7c8d42eb5d76aa3cf4e4742777bafbb8a0f969563a0eb7e77d",
      "transactionIndex": "0xb5",
      "blockHash": "0x08dab8caa632a7597dad1a25ab072b6a04715e96a66dca68605611be06a427d7",
      "blockNumber": "0x614ab9",
      "gasUsed": "0x4931f",
      "effectiveGasPrice": "0x2a6d947",
      "from": "0xff9179199903a10283e19d86de8c09f2718073da",
      "to": "0x9628c83b4988d0cc7dc13e227b2114cb3cf39d53",
      "contractAddress": null
    },
    {
      "status": "0x1",
      "cumulativeGasUsed": "0xd9e700",
      "logs": [
        {
          "address": "0x9628c83b4988d0cc7dc13e227b2114cb3cf39d53",
          "topics": [
            "0x7e0f0fda26edb240992ed8159adabdb6eb6fcc6da10cf38c46e856f484209c73"
          ],
          "data": "0x0000000000000000000000000000000000000000000000000000000000000000000000000000000000000000ff9179199903a10283e19d86de8c09f2718073da000000000000000000000000000000000000000000000000000000000000000100000000000000000000000000000000000000000000000000000000000000020000000000000000000000000000000000000000000000000000000000000000000000000000000000000000000000000000000000000000000000000000000100000000000000000000000000000000000000000000000000000000000000000000000000000000000000000000000000000000000000000000000000000000",
          "blockHash": "0x13d63c19792801a6a1ec9a528e985c4f0c9725e95cd277a2e49aa4f181a8fb23",
          "blockNumber": "0x614aba",
          "transactionHash": "0x2c95fbe29bdeb44eaf4455110d9452585ba7ea984fdb3ed0703c6571d9a58db2",
          "transactionIndex": "0x5e",
          "logIndex": "0x80",
          "removed": false
        }
      ],
      "logsBloom": "0x00000000000000000000000000000000000000000000000000000000000000000000000000000000000000000000000000000000000000000000000000000000800000000000000000000000000000000000000000000000000000000000000000000000000000000000000000000000000000000000000000000000000000000000000000000020000000000000000000000000000000000000000008000000000000000000000000000000000000000000000000000000000000000000000010000000000001000000000000000000000000000000000000000000100000000000000000000000000000000000000000000000000000000000000000000000",
      "type": "0x2",
      "transactionHash": "0x2c95fbe29bdeb44eaf4455110d9452585ba7ea984fdb3ed0703c6571d9a58db2",
      "transactionIndex": "0x5e",
      "blockHash": "0x13d63c19792801a6a1ec9a528e985c4f0c9725e95cd277a2e49aa4f181a8fb23",
      "blockNumber": "0x614aba",
      "gasUsed": "0x1e6a4",
      "effectiveGasPrice": "0x2a8748b",
      "from": "0xff9179199903a10283e19d86de8c09f2718073da",
      "to": "0x9628c83b4988d0cc7dc13e227b2114cb3cf39d53",
      "contractAddress": null
    },
    {
      "status": "0x1",
      "cumulativeGasUsed": "0x8414de",
      "logs": [
        {
          "address": "0x9628c83b4988d0cc7dc13e227b2114cb3cf39d53",
          "topics": [
            "0x7e0f0fda26edb240992ed8159adabdb6eb6fcc6da10cf38c46e856f484209c73"
          ],
          "data": "0x000000000000000000000000000000000000000000000000000000000000000000000000000000000000000078f5852e1da3e82658f5f9b1fe6b67f5573090a1000000000000000000000000000000000000000000000000000000000000000200000000000000000000000000000000000000000000000000000000000000010000000000000000000000000000000000000000000000000000000000000000000000000000000000000000000000000000000000000000000000000000000100000000000000000000000000000000000000000000000000000000000000000000000000000000000000000000000000000000000000000000000000000000",
          "blockHash": "0xbf9a794f5e30e1f8f641abae012ca60e5c77f297df66f3086e1c2bc96f2d9b1e",
          "blockNumber": "0x614abb",
          "transactionHash": "0x015f0802f4fb1dd3fe1f4280479420ba66ab93395ef246233ba1bb0316d114e2",
          "transactionIndex": "0x48",
          "logIndex": "0x5e",
          "removed": false
        }
      ],
      "logsBloom": "0x00000000000000000000000000000000000000000000000000000000000000000000000000000000000000000000000000000000000000000000000000000000800000000000000000000000000000000000000000000000000000000000000000000000000000000000000000000000000000000000000000000000000000000000000000000020000000000000000000000000000000000000000008000000000000000000000000000000000000000000000000000000000000000000000010000000000001000000000000000000000000000000000000000000100000000000000000000000000000000000000000000000000000000000000000000000",
      "type": "0x2",
      "transactionHash": "0x015f0802f4fb1dd3fe1f4280479420ba66ab93395ef246233ba1bb0316d114e2",
      "transactionIndex": "0x48",
      "blockHash": "0xbf9a794f5e30e1f8f641abae012ca60e5c77f297df66f3086e1c2bc96f2d9b1e",
      "blockNumber": "0x614abb",
      "gasUsed": "0x1f05b",
      "effectiveGasPrice": "0x2a9ac10",
      "from": "0x78f5852e1da3e82658f5f9b1fe6b67f5573090a1",
      "to": "0x9628c83b4988d0cc7dc13e227b2114cb3cf39d53",
      "contractAddress": null
    },
    {
      "status": "0x1",
      "cumulativeGasUsed": "0xd7f357",
      "logs": [
        {
          "address": "0x9628c83b4988d0cc7dc13e227b2114cb3cf39d53",
          "topics": [
            "0xd40e423db79bb42cc61a6a79d4af5b9ce09e66f1738cb4bbb4bbb9fe373367da"
          ],
          "data": "0x0000000000000000000000000000000000000000000000000000000000000000",
          "blockHash": "0x2ecad152886df9e654ac2cf955479d4c38950cdef61f5b865bab8487f2995d69",
          "blockNumber": "0x614abc",
          "transactionHash": "0x99d5277ebfaeed1efb68d363c34bbb8677e7daf7abffa7bd41535fa001dbb6ae",
          "transactionIndex": "0x5a",
          "logIndex": "0x6c",
          "removed": false
        },
        {
          "address": "0x9628c83b4988d0cc7dc13e227b2114cb3cf39d53",
          "topics": [
            "0xe44f8c75311d127aeb3cf702cf02a0b55ecae2d1f1962d9922f5683d51803eff"
          ],
          "data": "0x0000000000000000000000000000000000000000000000000000000000000000",
          "blockHash": "0x2ecad152886df9e654ac2cf955479d4c38950cdef61f5b865bab8487f2995d69",
          "blockNumber": "0x614abc",
          "transactionHash": "0x99d5277ebfaeed1efb68d363c34bbb8677e7daf7abffa7bd41535fa001dbb6ae",
          "transactionIndex": "0x5a",
          "logIndex": "0x6d",
          "removed": false
        },
        {
          "address": "0x9628c83b4988d0cc7dc13e227b2114cb3cf39d53",
          "topics": [
            "0xe44f8c75311d127aeb3cf702cf02a0b55ecae2d1f1962d9922f5683d51803eff"
          ],
          "data": "0x0000000000000000000000000000000000000000000000000000000000000000",
          "blockHash": "0x2ecad152886df9e654ac2cf955479d4c38950cdef61f5b865bab8487f2995d69",
          "blockNumber": "0x614abc",
          "transactionHash": "0x99d5277ebfaeed1efb68d363c34bbb8677e7daf7abffa7bd41535fa001dbb6ae",
          "transactionIndex": "0x5a",
          "logIndex": "0x6e",
          "removed": false
        },
        {
          "address": "0x9628c83b4988d0cc7dc13e227b2114cb3cf39d53",
          "topics": [
            "0xd40e423db79bb42cc61a6a79d4af5b9ce09e66f1738cb4bbb4bbb9fe373367da"
          ],
          "data": "0x0000000000000000000000000000000000000000000000000000000000000000",
          "blockHash": "0x2ecad152886df9e654ac2cf955479d4c38950cdef61f5b865bab8487f2995d69",
          "blockNumber": "0x614abc",
          "transactionHash": "0x99d5277ebfaeed1efb68d363c34bbb8677e7daf7abffa7bd41535fa001dbb6ae",
          "transactionIndex": "0x5a",
          "logIndex": "0x6f",
          "removed": false
        },
        {
          "address": "0x9628c83b4988d0cc7dc13e227b2114cb3cf39d53",
          "topics": [
            "0xe44f8c75311d127aeb3cf702cf02a0b55ecae2d1f1962d9922f5683d51803eff"
          ],
          "data": "0x0000000000000000000000000000000000000000000000000000000000000000",
          "blockHash": "0x2ecad152886df9e654ac2cf955479d4c38950cdef61f5b865bab8487f2995d69",
          "blockNumber": "0x614abc",
          "transactionHash": "0x99d5277ebfaeed1efb68d363c34bbb8677e7daf7abffa7bd41535fa001dbb6ae",
          "transactionIndex": "0x5a",
          "logIndex": "0x70",
          "removed": false
        },
        {
          "address": "0x9628c83b4988d0cc7dc13e227b2114cb3cf39d53",
          "topics": [
            "0xe44f8c75311d127aeb3cf702cf02a0b55ecae2d1f1962d9922f5683d51803eff"
          ],
          "data": "0x0000000000000000000000000000000000000000000000000000000000000000",
          "blockHash": "0x2ecad152886df9e654ac2cf955479d4c38950cdef61f5b865bab8487f2995d69",
          "blockNumber": "0x614abc",
          "transactionHash": "0x99d5277ebfaeed1efb68d363c34bbb8677e7daf7abffa7bd41535fa001dbb6ae",
          "transactionIndex": "0x5a",
          "logIndex": "0x71",
          "removed": false
        },
        {
          "address": "0x9628c83b4988d0cc7dc13e227b2114cb3cf39d53",
          "topics": [
            "0x482b8eea33a6bacd9c96efe787921a6f164295f5d28492bf9fb06b325cf4be10"
          ],
          "data": "0x0000000000000000000000000000000000000000000000000000000000000000000000000000000000000000000000000000000000000000000000000000006000000000000000000000000000000000000000000000000000000000000000c000000000000000000000000000000000000000000000000000000000000000020000000000000000000000000000000000000000000000000000000000000001000000000000000000000000000000000000000000000000000000000000000200000000000000000000000000000000000000000000000000000000000000010000000000000000000000000000000000000000000000000000000000000001",
          "blockHash": "0x2ecad152886df9e654ac2cf955479d4c38950cdef61f5b865bab8487f2995d69",
          "blockNumber": "0x614abc",
          "transactionHash": "0x99d5277ebfaeed1efb68d363c34bbb8677e7daf7abffa7bd41535fa001dbb6ae",
          "transactionIndex": "0x5a",
          "logIndex": "0x72",
          "removed": false
        }
      ],
      "logsBloom": "0x00000000000000000000000000000000000000000000000820000200000000000000000000000040000000000000000000000000000000000000000000000000800000000000000000000000000000000000000000000000000000000000000000000000000000000000000000000000000000000000000000000000000000000000000000000030000000000000008000000000000000000000000000000000000000000000000000000000000000000000000000000000000000000000000000000000000000000000000000000000000000000000000000000000100000000000000000000000000001100000000000000000000000000000001000000000",
      "type": "0x2",
      "transactionHash": "0x99d5277ebfaeed1efb68d363c34bbb8677e7daf7abffa7bd41535fa001dbb6ae",
      "transactionIndex": "0x5a",
      "blockHash": "0x2ecad152886df9e654ac2cf955479d4c38950cdef61f5b865bab8487f2995d69",
      "blockNumber": "0x614abc",
      "gasUsed": "0x1c5fd",
      "effectiveGasPrice": "0x2a9196d",
      "from": "0xff9179199903a10283e19d86de8c09f2718073da",
      "to": "0x9628c83b4988d0cc7dc13e227b2114cb3cf39d53",
      "contractAddress": null
    },
    {
      "status": "0x1",
      "cumulativeGasUsed": "0x8bc059",
      "logs": [
        {
          "address": "0x9628c83b4988d0cc7dc13e227b2114cb3cf39d53",
          "topics": [
            "0x7e0f0fda26edb240992ed8159adabdb6eb6fcc6da10cf38c46e856f484209c73"
          ],
          "data": "0x000000000000000000000000000000000000000000000000000000000000000000000000000000000000000078f5852e1da3e82658f5f9b1fe6b67f5573090a1000000000000000000000000000000000000000000000000000000000000000100000000000000000000000000000000000000000000000000000000000000020000000000000000000000000000000000000000000000000000000000000000000000000000000000000000000000000000000000000000000000000000000100000000000000000000000000000000000000000000000000000000000000000000000000000000000000000000000000000000000000000000000000000000",
          "blockHash": "0x06483456c630c1fe4843d3ecde0583cd0f530fb2da6e2059251b20ea7e23d02b",
          "blockNumber": "0x614abe",
          "transactionHash": "0x6821231324e9180933f1869b1e765dbb272dcab63e426d4b36ce197f742e0a59",
          "transactionIndex": "0x55",
          "logIndex": "0x86",
          "removed": false
        }
      ],
      "logsBloom": "0x00000000000000000000000000000000000000000000000000000000000000000000000000000000000000000000000000000000000000000000000000000000800000000000000000000000000000000000000000000000000000000000000000000000000000000000000000000000000000000000000000000000000000000000000000000020000000000000000000000000000000000000000008000000000000000000000000000000000000000000000000000000000000000000000010000000000001000000000000000000000000000000000000000000100000000000000000000000000000000000000000000000000000000000000000000000",
      "type": "0x2",
      "transactionHash": "0x6821231324e9180933f1869b1e765dbb272dcab63e426d4b36ce197f742e0a59",
      "transactionIndex": "0x55",
      "blockHash": "0x06483456c630c1fe4843d3ecde0583cd0f530fb2da6e2059251b20ea7e23d02b",
      "blockNumber": "0x614abe",
      "gasUsed": "0x11d07",
      "effectiveGasPrice": "0x2a82d3e",
      "from": "0x78f5852e1da3e82658f5f9b1fe6b67f5573090a1",
      "to": "0x9628c83b4988d0cc7dc13e227b2114cb3cf39d53",
      "contractAddress": null
    },
    {
      "status": "0x1",
      "cumulativeGasUsed": "0x51a46a",
      "logs": [
        {
          "address": "0x9628c83b4988d0cc7dc13e227b2114cb3cf39d53",
          "topics": [
            "0xd40e423db79bb42cc61a6a79d4af5b9ce09e66f1738cb4bbb4bbb9fe373367da"
          ],
          "data": "0x0000000000000000000000000000000000000000000000000000000000000000",
          "blockHash": "0x4945b1bb94fe409c810eacafaa31274afa97d44a756b401cf0a6eefbdbfeba0c",
          "blockNumber": "0x614abf",
          "transactionHash": "0xa9dcf7d87d3b5d208db8cd2d992e050bd2c4a9b844c13dd84a4c364c378753c9",
          "transactionIndex": "0x3f",
          "logIndex": "0x42",
          "removed": false
        },
        {
          "address": "0x9628c83b4988d0cc7dc13e227b2114cb3cf39d53",
          "topics": [
            "0xe44f8c75311d127aeb3cf702cf02a0b55ecae2d1f1962d9922f5683d51803eff"
          ],
          "data": "0x0000000000000000000000000000000000000000000000000000000000000000",
          "blockHash": "0x4945b1bb94fe409c810eacafaa31274afa97d44a756b401cf0a6eefbdbfeba0c",
          "blockNumber": "0x614abf",
          "transactionHash": "0xa9dcf7d87d3b5d208db8cd2d992e050bd2c4a9b844c13dd84a4c364c378753c9",
          "transactionIndex": "0x3f",
          "logIndex": "0x43",
          "removed": false
        },
        {
          "address": "0x9628c83b4988d0cc7dc13e227b2114cb3cf39d53",
          "topics": [
            "0xe44f8c75311d127aeb3cf702cf02a0b55ecae2d1f1962d9922f5683d51803eff"
          ],
          "data": "0x0000000000000000000000000000000000000000000000000000000000000000",
          "blockHash": "0x4945b1bb94fe409c810eacafaa31274afa97d44a756b401cf0a6eefbdbfeba0c",
          "blockNumber": "0x614abf",
          "transactionHash": "0xa9dcf7d87d3b5d208db8cd2d992e050bd2c4a9b844c13dd84a4c364c378753c9",
          "transactionIndex": "0x3f",
          "logIndex": "0x44",
          "removed": false
        },
        {
          "address": "0x9628c83b4988d0cc7dc13e227b2114cb3cf39d53",
          "topics": [
            "0xd40e423db79bb42cc61a6a79d4af5b9ce09e66f1738cb4bbb4bbb9fe373367da"
          ],
          "data": "0x0000000000000000000000000000000000000000000000000000000000000000",
          "blockHash": "0x4945b1bb94fe409c810eacafaa31274afa97d44a756b401cf0a6eefbdbfeba0c",
          "blockNumber": "0x614abf",
          "transactionHash": "0xa9dcf7d87d3b5d208db8cd2d992e050bd2c4a9b844c13dd84a4c364c378753c9",
          "transactionIndex": "0x3f",
          "logIndex": "0x45",
          "removed": false
        },
        {
          "address": "0x9628c83b4988d0cc7dc13e227b2114cb3cf39d53",
          "topics": [
            "0xe44f8c75311d127aeb3cf702cf02a0b55ecae2d1f1962d9922f5683d51803eff"
          ],
          "data": "0x0000000000000000000000000000000000000000000000000000000000000000",
          "blockHash": "0x4945b1bb94fe409c810eacafaa31274afa97d44a756b401cf0a6eefbdbfeba0c",
          "blockNumber": "0x614abf",
          "transactionHash": "0xa9dcf7d87d3b5d208db8cd2d992e050bd2c4a9b844c13dd84a4c364c378753c9",
          "transactionIndex": "0x3f",
          "logIndex": "0x46",
          "removed": false
        },
        {
          "address": "0x9628c83b4988d0cc7dc13e227b2114cb3cf39d53",
          "topics": [
            "0xe44f8c75311d127aeb3cf702cf02a0b55ecae2d1f1962d9922f5683d51803eff"
          ],
          "data": "0x0000000000000000000000000000000000000000000000000000000000000000",
          "blockHash": "0x4945b1bb94fe409c810eacafaa31274afa97d44a756b401cf0a6eefbdbfeba0c",
          "blockNumber": "0x614abf",
          "transactionHash": "0xa9dcf7d87d3b5d208db8cd2d992e050bd2c4a9b844c13dd84a4c364c378753c9",
          "transactionIndex": "0x3f",
          "logIndex": "0x47",
          "removed": false
        },
        {
          "address": "0x9628c83b4988d0cc7dc13e227b2114cb3cf39d53",
          "topics": [
            "0x22d7ff694ee2b21efdc8f0620ce8981ffe587da1939f9bafed3686101b070e70"
          ],
          "data": "0x000000000000000000000000000000000000000000000000000000000000000000000000000000000000000000000000000000000000000000000000000000010000000000000000000000000000000000000000000000000000000000000001",
          "blockHash": "0x4945b1bb94fe409c810eacafaa31274afa97d44a756b401cf0a6eefbdbfeba0c",
          "blockNumber": "0x614abf",
          "transactionHash": "0xa9dcf7d87d3b5d208db8cd2d992e050bd2c4a9b844c13dd84a4c364c378753c9",
          "transactionIndex": "0x3f",
          "logIndex": "0x48",
          "removed": false
        }
      ],
      "logsBloom": "0x00000000000000000000000000000000000000000000000820000200000000000000000000000000000400000000000000000000000000000000000000000000800000000000000000000000000000000000000000000000000000000000000000000000000000000000000000000000000000000000000000000400000000000000000000000020000100000000008000000000000000000000000000000000000000000000000000000000000000000000000000000000000000000000000000000000000000000000000000000000000000000000000000000000100000000000000000000000000001000000000000000000000000000000001000000000",
      "type": "0x2",
      "transactionHash": "0xa9dcf7d87d3b5d208db8cd2d992e050bd2c4a9b844c13dd84a4c364c378753c9",
      "transactionIndex": "0x3f",
      "blockHash": "0x4945b1bb94fe409c810eacafaa31274afa97d44a756b401cf0a6eefbdbfeba0c",
      "blockNumber": "0x614abf",
      "gasUsed": "0x2174c",
      "effectiveGasPrice": "0x2a7c644",
      "from": "0xff9179199903a10283e19d86de8c09f2718073da",
      "to": "0x9628c83b4988d0cc7dc13e227b2114cb3cf39d53",
      "contractAddress": null
    }
  ],
  "libraries": [],
  "pending": [],
  "returns": {},
  "timestamp": 1721952171,
  "chain": 11155111,
  "commit": "c0162cf"
}