{
  "transactions": [
    {
      "hash": "0xc72db993a33b26951d4a2e47110fa2b20ca2029f0a3dd3728a92a6a789da6d41",
      "transactionType": "CREATE",
      "contractName": "SaveTextProtected",
      "contractAddress": "0x9d97c92a4066a3f26b726cb3b30ff3647fb9d92c",
      "function": null,
      "arguments": null,
      "transaction": {
        "from": "0xff9179199903a10283e19d86de8c09f2718073da",
        "gas": "0xf4ec2",
        "value": "0x0",
        "input": "0x608060405234801561001057600080fd5b50610d01806100206000396000f3fe608060405234801561001057600080fd5b50600436106100415760003560e01c806302d232f414610046578063d0f7c3161461005b578063d5c8d4f11461006e575b600080fd5b610059610054366004610932565b610093565b005b6100596100693660046109f7565b6103e5565b61008161007c366004610a47565b610629565b60405190815260200160405180910390f35b8160006100c2827f51e64ee84f491aad402ff73401b25fa2058a87e9d027403050c951c19bbb78005b90610851565b905060008160020160030154905060008260010182815481106100e7576100e7610a8e565b90600052602060002001905060008036604051610105929190610aa4565b604051908190039020825490915060005b818110156103cb57600084600001828154811061013557610135610a8e565b906000526020600020906002020190508361027e8260405180604001604052908160008201805461016590610ab4565b80601f016020809104026020016040519081016040528092919081815260200182805461019190610ab4565b80156101de5780601f106101b3576101008083540402835291602001916101de565b820191906000526020600020905b8154815290600101906020018083116101c157829003601f168201915b505050505081526020016001820180546101f790610ab4565b80601f016020809104026020016040519081016040528092919081815260200182805461022390610ab4565b80156102705780601f1061024557610100808354040283529160200191610270565b820191906000526020600020905b81548152906001019060200180831161025357829003601f168201915b5050505050815250506108a0565b80519060200120036103c157600082815260068801602052604090205460ff1660028160028111156102b2576102b2610aee565b036102be5750506103c3565b60018160028111156102d2576102d2610aee565b146102f057604051631dea3b2960e21b815260040160405180910390fd5b600080516020610cac833981519152548a1061032757604051630d63b67360e01b8152600481018b90526024015b60405180910390fd5b600080516020610cac83398151915280548b90811061034857610348610a8e565b600091825260208220019061035d82826108dc565b5050604080518c8152602081018c90527f7c584f69a8909f696701ad7bd900308d19267fdfdb48a3c9b7168b975d739db2910160405180910390a15050600090815260069590950160205250506040909220805460ff191660021790555050505050565b505b600101610116565b5060405163073ec13d60e31b815260040160405180910390fd5b826000610412827f51e64ee84f491aad402ff73401b25fa2058a87e9d027403050c951c19bbb78006100bc565b9050600081600201600301549050600082600101828154811061043757610437610a8e565b90600052602060002001905060008036604051610455929190610aa4565b604051908190039020825490915060005b818110156103cb57600084600001828154811061048557610485610a8e565b90600052602060002090600202019050836104b58260405180604001604052908160008201805461016590610ab4565b805190602001200361061957600082815260068801602052604090205460ff1660028160028111156104e9576104e9610aee565b036104f557505061061b565b600181600281111561050957610509610aee565b1461052757604051631dea3b2960e21b815260040160405180910390fd5b600080516020610cac833981519152548b1061055957604051630d63b67360e01b8152600481018c905260240161031e565b895160000361057b576040516324befe6560e11b815260040160405180910390fd5b89600080516020610cac83398151915280548d90811061059d5761059d610a8e565b6000918252602090912001906105b39082610b55565b507fc1c6f28b4facb6fcea1e15d57883c6742397d7af079f6865a14f6a99bd9fd9208c8c8c6040516105e793929190610c39565b60405180910390a15050600090815260069590950160205250506040909220805460ff19166002179055506106239050565b505b600101610466565b50505050565b60008281610657827f51e64ee84f491aad402ff73401b25fa2058a87e9d027403050c951c19bbb78006100bc565b9050600081600201600301549050600082600101828154811061067c5761067c610a8e565b9060005260206000200190506000803660405161069a929190610aa4565b604051908190039020825490915060005b818110156103cb5760008460000182815481106106ca576106ca610a8e565b90600052602060002090600202019050836106fa8260405180604001604052908160008201805461016590610ab4565b805190602001200361084057600082815260068801602052604090205460ff16600281600281111561072e5761072e610aee565b0361073a575050610842565b600181600281111561074e5761074e610aee565b1461076c57604051631dea3b2960e21b815260040160405180910390fd5b8a5160000361078e576040516324befe6560e11b815260040160405180910390fd5b600080516020610cac833981519152805460018101825560009190915299507fb02e01727b4711bf1ba50f43bc6b86fefe1dc12499b9490cdcd3d03bc0eafb638a016107da8c82610b55565b507f0b7b90c6bed09279de3c7de3c9311ea1a02a9824b7a8b1d40c20c3252389137a8c8b8d60405161080e93929190610c39565b60405180910390a15050600090815260069590950160205250506040909220805460ff191660021790555061084a9050565b505b6001016106ab565b5092915050565b815460009082106108755760405163635e873760e01b815260040160405180910390fd5b82600001828154811061088a5761088a610a8e565b90600052602060002090600d0201905092915050565b60606108b28251805160209091012090565b6020808401516040516108c6939201610c7a565b6040516020818303038152906040529050919050565b5080546108e890610ab4565b6000825580601f106108f8575050565b601f0160209004906000526020600020908101906109169190610919565b50565b5b8082111561092e576000815560010161091a565b5090565b6000806040838503121561094557600080fd5b50508035926020909101359150565b634e487b7160e01b600052604160045260246000fd5b600082601f83011261097b57600080fd5b813567ffffffffffffffff8082111561099657610996610954565b604051601f8301601f19908116603f011681019082821181831017156109be576109be610954565b816040528381528660208588010111156109d757600080fd5b836020870160208301376000602085830101528094505050505092915050565b600080600060608486031215610a0c57600080fd5b8335925060208401359150604084013567ffffffffffffffff811115610a3157600080fd5b610a3d8682870161096a565b9150509250925092565b60008060408385031215610a5a57600080fd5b82359150602083013567ffffffffffffffff811115610a7857600080fd5b610a848582860161096a565b9150509250929050565b634e487b7160e01b600052603260045260246000fd5b8183823760009101908152919050565b600181811c90821680610ac857607f821691505b602082108103610ae857634e487b7160e01b600052602260045260246000fd5b50919050565b634e487b7160e01b600052602160045260246000fd5b601f821115610b50576000816000526020600020601f850160051c81016020861015610b2d5750805b601f850160051c820191505b81811015610b4c57828155600101610b39565b5050505b505050565b815167ffffffffffffffff811115610b6f57610b6f610954565b610b8381610b7d8454610ab4565b84610b04565b602080601f831160018114610bb85760008415610ba05750858301515b600019600386901b1c1916600185901b178555610b4c565b600085815260208120601f198616915b82811015610be757888601518255948401946001909101908401610bc8565b5085821015610c055787850151600019600388901b60f8161c191681555b5050505050600190811b01905550565b60005b83811015610c30578181015183820152602001610c18565b50506000910152565b8381528260208201526060604082015260008251806060840152610c64816080850160208701610c15565b601f01601f191691909101608001949350505050565b6001600160e01b0319831681528151600090610c9d816004850160208701610c15565b91909101600401939250505056fe1936e448f24d50cf45d061362b8b2abea6f76fd415e7ceb5fe96d540deb60400a26469706673582212200abf8b4f9c15ff7420bd6daf1af97f1ce61cfa709a6b818ca8bc555ea42c476664736f6c63430008180033",
        "nonce": "0x75",
        "chainId": "0x4268"
      },
      "additionalContracts": [],
      "isFixedGasLimit": false
    },
    {
      "hash": "0xe7b79c17f3b749641cc4f77244f34b5c71946f55c5744a78f8e100bd154268bb",
      "transactionType": "CALL",
      "contractName": null,
      "contractAddress": "0xf16a47a7aacf0aa2af16b467887faa7376b04df4",
      "function": "setImplementation(bytes4,address)",
      "arguments": [
        "0xd5c8d4f100000000000000000000000000000000000000000000000000000000",
        "0x9d97C92A4066a3F26b726cb3b30ff3647FB9d92c"
      ],
      "transaction": {
        "from": "0xff9179199903a10283e19d86de8c09f2718073da",
        "to": "0xf16a47a7aacf0aa2af16b467887faa7376b04df4",
        "gas": "0xf244",
        "value": "0x0",
        "input": "0x0815f6fdd5c8d4f1000000000000000000000000000000000000000000000000000000000000000000000000000000009d97c92a4066a3f26b726cb3b30ff3647fb9d92c",
        "nonce": "0x76",
        "chainId": "0x4268"
      },
      "additionalContracts": [],
      "isFixedGasLimit": false
    },
    {
      "hash": "0x0aeb4e8b88a470b3e450a82048919b61587f22784ca29f6a48d3553e8be7ed9a",
      "transactionType": "CALL",
      "contractName": null,
      "contractAddress": "0xf16a47a7aacf0aa2af16b467887faa7376b04df4",
      "function": "setImplementation(bytes4,address)",
      "arguments": [
        "0xd0f7c31600000000000000000000000000000000000000000000000000000000",
        "0x9d97C92A4066a3F26b726cb3b30ff3647FB9d92c"
      ],
      "transaction": {
        "from": "0xff9179199903a10283e19d86de8c09f2718073da",
        "to": "0xf16a47a7aacf0aa2af16b467887faa7376b04df4",
        "gas": "0xf58e",
        "value": "0x0",
        "input": "0x0815f6fdd0f7c316000000000000000000000000000000000000000000000000000000000000000000000000000000009d97c92a4066a3f26b726cb3b30ff3647fb9d92c",
        "nonce": "0x77",
        "chainId": "0x4268"
      },
      "additionalContracts": [],
      "isFixedGasLimit": false
    },
    {
      "hash": "0x3e910a3a4efc6d39a03bff77fae42290d374c22f53a25e9aa5632f52b54bb6f9",
      "transactionType": "CALL",
      "contractName": null,
      "contractAddress": "0xf16a47a7aacf0aa2af16b467887faa7376b04df4",
      "function": "setImplementation(bytes4,address)",
      "arguments": [
        "0x02d232f400000000000000000000000000000000000000000000000000000000",
        "0x9d97C92A4066a3F26b726cb3b30ff3647FB9d92c"
      ],
      "transaction": {
        "from": "0xff9179199903a10283e19d86de8c09f2718073da",
        "to": "0xf16a47a7aacf0aa2af16b467887faa7376b04df4",
        "gas": "0x1077d",
        "value": "0x0",
        "input": "0x0815f6fd02d232f4000000000000000000000000000000000000000000000000000000000000000000000000000000009d97c92a4066a3f26b726cb3b30ff3647fb9d92c",
        "nonce": "0x78",
        "chainId": "0x4268"
      },
      "additionalContracts": [],
      "isFixedGasLimit": false
    },
    {
      "hash": "0x8fba9724380e82a42a2811c0be75b33a321050e18bcebd79fb380309b5424ebe",
      "transactionType": "CREATE",
      "contractName": "MemberJoinProtected",
      "contractAddress": "0x62d3f057f54f770a4b162a48dc0588da643f73ab",
      "function": null,
      "arguments": null,
      "transaction": {
        "from": "0xff9179199903a10283e19d86de8c09f2718073da",
        "gas": "0xa979e",
        "value": "0x0",
        "input": "0x608060405234801561001057600080fd5b506108b3806100206000396000f3fe608060405234801561001057600080fd5b506004361061002b5760003560e01c8063abf5089014610030575b600080fd5b61004361003e3660046104dd565b610045565b005b8160006100727f51e64ee84f491aad402ff73401b25fa2058a87e9d027403050c951c19bbb7800836103e2565b9050600081600201600301549050600082600101828154811061009757610097610651565b906000526020600020019050600080366040516100b5929190610667565b604051908190039020825490915060005b818110156103c85760008460000182815481106100e5576100e5610651565b906000526020600020906002020190508361022e8260405180604001604052908160008201805461011590610677565b80601f016020809104026020016040519081016040528092919081815260200182805461014190610677565b801561018e5780601f106101635761010080835404028352916020019161018e565b820191906000526020600020905b81548152906001019060200180831161017157829003601f168201915b505050505081526020016001820180546101a790610677565b80601f01602080910402602001604051908101604052809291908181526020018280546101d390610677565b80156102205780601f106101f557610100808354040283529160200191610220565b820191906000526020600020905b81548152906001019060200180831161020357829003601f168201915b505050505081525050610431565b80519060200120036103be57600082815260068801602052604090205460ff166002816002811115610262576102626106b1565b0361026e5750506103c0565b6001816002811115610282576102826106b1565b146102a057604051631dea3b2960e21b815260040160405180910390fd5b7f8972abadfc8727f472fb0b6beb8d30155bd57415f49dc6c94e9cecdec0ed920060005b8b518110156103935781548c516000908e90849081106102e6576102e6610651565b6020908102919091018101518554600180820188556000888152849020835160029093020180546001600160a01b0319166001600160a01b039093169290921782559282015191935083929091908201906103419082610718565b5050507f929337ad2900bb9ae0123c5baeaf7a05e1d68c3d1779bc3bb93c9808da9c5ee98f838360000151846020015160405161038194939291906107fc565b60405180910390a150506001016102c4565b50505060009182525060069590950160205250506040909220805460ff191660021790555050505050565b505b6001016100c6565b5060405163073ec13d60e31b815260040160405180910390fd5b815460009082106104065760405163635e873760e01b815260040160405180910390fd5b82600001828154811061041b5761041b610651565b90600052602060002090600d0201905092915050565b60606104438251805160209091012090565b60208084015160405161045793920161084c565b6040516020818303038152906040529050919050565b634e487b7160e01b600052604160045260246000fd5b6040805190810167ffffffffffffffff811182821017156104a6576104a661046d565b60405290565b604051601f8201601f1916810167ffffffffffffffff811182821017156104d5576104d561046d565b604052919050565b600080604083850312156104f057600080fd5b8235915060208084013567ffffffffffffffff8082111561051057600080fd5b818601915086601f83011261052457600080fd5b8135818111156105365761053661046d565b8060051b6105458582016104ac565b918252838101850191858101908a84111561055f57600080fd5b86860192505b838310156106405782358581111561057c57600080fd5b8601601f196040828e038201121561059357600080fd5b61059b610483565b828a01356001600160a01b03811681146105b457600080fd5b81526040830135888111156105c857600080fd5b8084019350508d603f8401126105dd57600080fd5b89830135888111156105f1576105f161046d565b6106018b84601f840116016104ac565b92508083528e604082860101111561061857600080fd5b80604085018c85013760009083018b0152808a01919091528352509186019190860190610565565b809750505050505050509250929050565b634e487b7160e01b600052603260045260246000fd5b8183823760009101908152919050565b600181811c9082168061068b57607f821691505b6020821081036106ab57634e487b7160e01b600052602260045260246000fd5b50919050565b634e487b7160e01b600052602160045260246000fd5b601f821115610713576000816000526020600020601f850160051c810160208610156106f05750805b601f850160051c820191505b8181101561070f578281556001016106fc565b5050505b505050565b815167ffffffffffffffff8111156107325761073261046d565b610746816107408454610677565b846106c7565b602080601f83116001811461077b57600084156107635750858301515b600019600386901b1c1916600185901b17855561070f565b600085815260208120601f198616915b828110156107aa5788860151825594840194600190910190840161078b565b50858210156107c85787850151600019600388901b60f8161c191681555b5050505050600190811b01905550565b60005b838110156107f35781810151838201526020016107db565b50506000910152565b84815283602082015260018060a01b038316604082015260806060820152600082518060808401526108358160a08501602087016107d8565b601f01601f19169190910160a00195945050505050565b6001600160e01b031983168152815160009061086f8160048501602087016107d8565b91909101600401939250505056fea2646970667358221220bab5fecabf808afeafffc576ca9118fd4c91460f6243e6400566f39565d3323664736f6c63430008180033",
        "nonce": "0x79",
        "chainId": "0x4268"
      },
      "additionalContracts": [],
      "isFixedGasLimit": false
    },
    {
      "hash": "0x63765e5501b08dfc795a4768e40b7f640837f9a55f61f97d292a934c31b54cc0",
      "transactionType": "CALL",
      "contractName": null,
      "contractAddress": "0xf16a47a7aacf0aa2af16b467887faa7376b04df4",
      "function": "setImplementation(bytes4,address)",
      "arguments": [
        "0xabf5089000000000000000000000000000000000000000000000000000000000",
        "0x62d3f057F54F770a4B162A48dc0588da643F73AB"
      ],
      "transaction": {
        "from": "0xff9179199903a10283e19d86de8c09f2718073da",
        "to": "0xf16a47a7aacf0aa2af16b467887faa7376b04df4",
        "gas": "0xe474",
        "value": "0x0",
        "input": "0x0815f6fdabf508900000000000000000000000000000000000000000000000000000000000000000000000000000000062d3f057f54f770a4b162a48dc0588da643f73ab",
        "nonce": "0x7a",
        "chainId": "0x4268"
      },
      "additionalContracts": [],
      "isFixedGasLimit": false
    },
    {
      "hash": "0x933f8cfa7a498c484dbb73c8bf8af26ebebbf851a98882992cdd116a3013d46d",
      "transactionType": "CREATE",
      "contractName": "SetConfigsProtected",
      "contractAddress": "0x3287b26196f68167530ad60fa5fe057f75ab3790",
      "function": null,
      "arguments": null,
      "transaction": {
        "from": "0xff9179199903a10283e19d86de8c09f2718073da",
        "gas": "0x103a0d",
        "value": "0x0",
        "input": "0x608060405234801561001057600080fd5b50610dd8806100206000396000f3fe608060405234801561001057600080fd5b50600436106100415760003560e01c80635ebf4de31461004657806369c30f0e1461006d578063a33032d914610080575b600080fd5b610059610054366004610aee565b610095565b604051901515815260200160405180910390f35b61005961007b366004610bb4565b61047b565b61009361008e366004610bf5565b6107b2565b005b600082816100c5827f51e64ee84f491aad402ff73401b25fa2058a87e9d027403050c951c19bbb78005b90610a21565b905060008160020160030154905060008260010182815481106100ea576100ea610c2d565b90600052602060002001905060008036604051610108929190610c43565b604051908190039020825490915060005b8181101561045a57600084600001828154811061013857610138610c2d565b90600052602060002090600202019050836102818260405180604001604052908160008201805461016890610c53565b80601f016020809104026020016040519081016040528092919081815260200182805461019490610c53565b80156101e15780601f106101b6576101008083540402835291602001916101e1565b820191906000526020600020905b8154815290600101906020018083116101c457829003601f168201915b505050505081526020016001820180546101fa90610c53565b80601f016020809104026020016040519081016040528092919081815260200182805461022690610c53565b80156102735780601f1061024857610100808354040283529160200191610273565b820191906000526020600020905b81548152906001019060200180831161025657829003601f168201915b505050505081525050610a70565b805190602001200361045057600082815260068801602052604090205460ff1660028160028111156102b5576102b5610c8d565b036102c1575050610452565b60018160028111156102d5576102d5610c8d565b146102f357604051631dea3b2960e21b815260040160405180910390fd5b60007fbacc45d94f3c311c83de7e11ee1a81c3735ba264fe339411bbcc7be5e4317d0090508b600001518160020160000160006101000a8154816001600160a01b0302191690836001600160a01b031602179055508b6020015181600201600101819055508b604001518160020160020160006101000a81548163ffffffff021916908363ffffffff1602179055508b606001518160020160020160046101000a81548161ffff021916908361ffff1602179055508b608001518160020160020160066101000a81548163ffffffff021916908363ffffffff1602179055508b60a0015181600201600201600a6101000a8154816001600160a01b0302191690836001600160a01b0316021790555050600288600201600401600085815260200190815260200160002060006101000a81548160ff0219169083600281111561043e5761043e610c8d565b02179055505050505050505050610474565b505b600101610119565b5060405163073ec13d60e31b815260040160405180910390fd5b5092915050565b600082816104a9827f51e64ee84f491aad402ff73401b25fa2058a87e9d027403050c951c19bbb78006100bf565b905060008160020160030154905060008260010182815481106104ce576104ce610c2d565b906000526020600020019050600080366040516104ec929190610c43565b604051908190039020825490915060005b8181101561045a57600084600001828154811061051c5761051c610c2d565b906000526020600020906002020190508361054c8260405180604001604052908160008201805461016890610c53565b80519060200120036107a857600082815260068801602052604090205460ff16600281600281111561058057610580610c8d565b0361058c5750506107aa565b60018160028111156105a0576105a0610c8d565b146105be57604051631dea3b2960e21b815260040160405180910390fd5b7fbacc45d94f3c311c83de7e11ee1a81c3735ba264fe339411bbcc7be5e4317d02546040805163288688f960e21b815290517fbacc45d94f3c311c83de7e11ee1a81c3735ba264fe339411bbcc7be5e4317d00926001600160a01b03169163a21a23e491600480830192602092919082900301816000875af1158015610648573d6000803e3d6000fd5b505050506040513d601f19601f8201168201806040525081019061066c9190610ca3565b8160010160006101000a81548167ffffffffffffffff021916908367ffffffffffffffff16021790555080600201600201600a9054906101000a90046001600160a01b03166001600160a01b0316634000aea08260020160000160009054906101000a90046001600160a01b03168e8460010160009054906101000a900467ffffffffffffffff16604051602001610714919067ffffffffffffffff91909116815260200190565b6040516020818303038152906040526040518463ffffffff1660e01b815260040161074193929190610cf8565b6020604051808303816000875af1158015610760573d6000803e3d6000fd5b505050506040513d601f19601f820116820180604052508101906107849190610d4f565b50506000838152600689016020526040902080546002919060ff191660018361043e565b505b6001016104fd565b8160006107df827f51e64ee84f491aad402ff73401b25fa2058a87e9d027403050c951c19bbb78006100bf565b9050600081600201600301549050600082600101828154811061080457610804610c2d565b90600052602060002001905060008036604051610822929190610c43565b604051908190039020825490915060005b8181101561045a57600084600001828154811061085257610852610c2d565b90600052602060002090600202019050836108828260405180604001604052908160008201805461016890610c53565b8051906020012003610a1757600082815260068801602052604090205460ff1660028160028111156108b6576108b6610c8d565b036108c2575050610a19565b60018160028111156108d6576108d6610c8d565b146108f457604051631dea3b2960e21b815260040160405180910390fd5b89357f51e64ee84f491aad402ff73401b25fa2058a87e9d027403050c951c19bbb780190815560208b01357f51e64ee84f491aad402ff73401b25fa2058a87e9d027403050c951c19bbb78025560408b01357f51e64ee84f491aad402ff73401b25fa2058a87e9d027403050c951c19bbb78035560608b01357f51e64ee84f491aad402ff73401b25fa2058a87e9d027403050c951c19bbb7804558a905050604080518c81528b356020808301919091528c013581830152908b01356060808301919091528b013560808201527f85fb72ba85678e42b5a2ee3ad58b6e3ddae20e792952406790eab087f0dccf079060a00160405180910390a15050600090815260069590950160205250506040909220805460ff191660021790555050505050565b505b600101610833565b81546000908210610a455760405163635e873760e01b815260040160405180910390fd5b826000018281548110610a5a57610a5a610c2d565b90600052602060002090600d0201905092915050565b6060610a828251805160209091012090565b602080840151604051610a96939201610d71565b6040516020818303038152906040529050919050565b80356001600160a01b0381168114610ac357600080fd5b919050565b803563ffffffff81168114610ac357600080fd5b803561ffff81168114610ac357600080fd5b60008082840360e0811215610b0257600080fd5b8335925060c0601f1982011215610b1857600080fd5b5060405160c0810181811067ffffffffffffffff82111715610b4a57634e487b7160e01b600052604160045260246000fd5b604052610b5960208501610aac565b815260408401356020820152610b7160608501610ac8565b6040820152610b8260808501610adc565b6060820152610b9360a08501610ac8565b6080820152610ba460c08501610aac565b60a0820152809150509250929050565b60008060408385031215610bc757600080fd5b8235915060208301356bffffffffffffffffffffffff81168114610bea57600080fd5b809150509250929050565b60008082840360a0811215610c0957600080fd5b833592506080601f1982011215610c1f57600080fd5b506020830190509250929050565b634e487b7160e01b600052603260045260246000fd5b8183823760009101908152919050565b600181811c90821680610c6757607f821691505b602082108103610c8757634e487b7160e01b600052602260045260246000fd5b50919050565b634e487b7160e01b600052602160045260246000fd5b600060208284031215610cb557600080fd5b815167ffffffffffffffff81168114610ccd57600080fd5b9392505050565b60005b83811015610cef578181015183820152602001610cd7565b50506000910152565b60018060a01b03841681526bffffffffffffffffffffffff831660208201526060604082015260008251806060840152610d39816080850160208701610cd4565b601f01601f191691909101608001949350505050565b600060208284031215610d6157600080fd5b81518015158114610ccd57600080fd5b6001600160e01b0319831681528151600090610d94816004850160208701610cd4565b91909101600401939250505056fea2646970667358221220e93545234cb58b1d39da448717c4ff8e4e8392fd63e1855aeb08654020b1d4c264736f6c63430008180033",
        "nonce": "0x7b",
        "chainId": "0x4268"
      },
      "additionalContracts": [],
      "isFixedGasLimit": false
    },
    {
      "hash": "0xa5c4eb949751a885049bc74f3a931d1bae5fc467fd631bfc26064537d05a9f80",
      "transactionType": "CALL",
      "contractName": null,
      "contractAddress": "0xf16a47a7aacf0aa2af16b467887faa7376b04df4",
      "function": "setImplementation(bytes4,address)",
      "arguments": [
        "0xa33032d900000000000000000000000000000000000000000000000000000000",
        "0x3287B26196f68167530aD60fa5fe057f75AB3790"
      ],
      "transaction": {
        "from": "0xff9179199903a10283e19d86de8c09f2718073da",
        "to": "0xf16a47a7aacf0aa2af16b467887faa7376b04df4",
        "gas": "0x1be1d",
        "value": "0x0",
        "input": "0x0815f6fda33032d9000000000000000000000000000000000000000000000000000000000000000000000000000000003287b26196f68167530ad60fa5fe057f75ab3790",
        "nonce": "0x7c",
        "chainId": "0x4268"
      },
      "additionalContracts": [],
      "isFixedGasLimit": false
    },
    {
      "hash": "0x1746934464018a928728c54de146090874c0c3a1c5398c8d4c59ac73f9eb569d",
      "transactionType": "CREATE",
      "contractName": "TextDAOWithCheatsFacade",
      "contractAddress": "0x6c8c15629e6eb619d8d1cbdd13f760aa6101e9dd",
      "function": null,
      "arguments": null,
      "transaction": {
        "from": "0xff9179199903a10283e19d86de8c09f2718073da",
        "gas": "0x9a3e3",
        "value": "0x0",
        "input": "0x608060405234801561001057600080fd5b506107d5806100206000396000f3fe608060405234801561001057600080fd5b50600436106101215760003560e01c80638e5ed9c4116100ad578063d5c8d4f111610071578063d5c8d4f114610220578063ed82e4711461022e578063ed8b6b311461022e578063fe0d94c11461022e578063fec77ae51461022e57600080fd5b80638e5ed9c4146101c2578063932c30b5146101d0578063abf50890146101de578063d0f7c316146101ec578063d13da0bd146101fa57600080fd5b8063490022cb116100f4578063490022cb146101485780636f4d469b1461015b57806371cb2ee51461016c57806375829def146101815780638ca89f771461018f57600080fd5b806302d232f4146101265780630c68678c1461013a57806339134355146101485780633d0950a81461015b575b600080fd5b61013861013436600461023c565b5050565b005b61013861013436600461025e565b610138610156366004610296565b505050565b610138610169366004610325565b50565b61013861017a366004610460565b5050505050565b6101386101693660046104da565b6101a561019d3660046104fc565b600092915050565b6040516001600160a01b0390911681526020015b60405180910390f35b610138610156366004610556565b6101386101693660046105ab565b6101386101563660046105c7565b610138610156366004610683565b6102126102083660046106d3565b6000949350505050565b6040519081526020016101b9565b61021261019d36600461073f565b610138610169366004610786565b6000806040838503121561024f57600080fd5b50508035926020909101359150565b60008082840360e081121561027257600080fd5b8335925060c0601f198201121561028857600080fd5b506020830190509250929050565b6000806000606084860312156102ab57600080fd5b505081359360208301359350604090920135919050565b634e487b7160e01b600052604160045260246000fd5b604051601f8201601f1916810167ffffffffffffffff81118282101715610301576103016102c2565b604052919050565b80356001600160a01b038116811461032057600080fd5b919050565b6000602080838503121561033857600080fd5b823567ffffffffffffffff8082111561035057600080fd5b818501915085601f83011261036457600080fd5b813581811115610376576103766102c2565b8060051b91506103878483016102d8565b81815291830184019184810190888411156103a157600080fd5b938501935b838510156103c6576103b785610309565b825293850193908501906103a6565b98975050505050505050565b60008083601f8401126103e457600080fd5b50813567ffffffffffffffff8111156103fc57600080fd5b60208301915083602082850101111561041457600080fd5b9250929050565b60008083601f84011261042d57600080fd5b50813567ffffffffffffffff81111561044557600080fd5b6020830191508360208260051b850101111561041457600080fd5b60008060008060006060868803121561047857600080fd5b85359450602086013567ffffffffffffffff8082111561049757600080fd5b6104a389838a016103d2565b909650945060408801359150808211156104bc57600080fd5b506104c98882890161041b565b969995985093965092949392505050565b6000602082840312156104ec57600080fd5b6104f582610309565b9392505050565b6000806020838503121561050f57600080fd5b823567ffffffffffffffff81111561052657600080fd5b610532858286016103d2565b90969095509350505050565b60006080828403121561055057600080fd5b50919050565b600080600060a0848603121561056b57600080fd5b833567ffffffffffffffff81111561058257600080fd5b61058e8682870161041b565b90945092506105a29050856020860161053e565b90509250925092565b6000608082840312156105bd57600080fd5b6104f5838361053e565b6000806000604084860312156105dc57600080fd5b83359250602084013567ffffffffffffffff8111156105fa57600080fd5b6106068682870161041b565b9497909650939450505050565b600082601f83011261062457600080fd5b813567ffffffffffffffff81111561063e5761063e6102c2565b610651601f8201601f19166020016102d8565b81815284602083860101111561066657600080fd5b816020850160208301376000918101602001919091529392505050565b60008060006060848603121561069857600080fd5b8335925060208401359150604084013567ffffffffffffffff8111156106bd57600080fd5b6106c986828701610613565b9150509250925092565b600080600080604085870312156106e957600080fd5b843567ffffffffffffffff8082111561070157600080fd5b61070d888389016103d2565b9096509450602087013591508082111561072657600080fd5b506107338782880161041b565b95989497509550505050565b6000806040838503121561075257600080fd5b82359150602083013567ffffffffffffffff81111561077057600080fd5b61077c85828601610613565b9150509250929050565b60006020828403121561079857600080fd5b503591905056fea26469706673582212206f5669504512c7aa0979bb0c732a45392c332902cac0684ab9c44f238646c46b64736f6c63430008180033",
        "nonce": "0x7d",
        "chainId": "0x4268"
      },
      "additionalContracts": [],
      "isFixedGasLimit": false
    },
    {
      "hash": "0x62855478d7b036488db1fe944627c4564f7d872ae708d48746c8d416f0ed51c6",
      "transactionType": "CALL",
      "contractName": null,
      "contractAddress": "0xf16a47a7aacf0aa2af16b467887faa7376b04df4",
      "function": "upgradeFacade(address)",
      "arguments": [
        "0x6c8c15629e6EB619D8d1cbDD13F760aA6101e9dD"
      ],
      "transaction": {
        "from": "0xff9179199903a10283e19d86de8c09f2718073da",
        "to": "0xf16a47a7aacf0aa2af16b467887faa7376b04df4",
        "gas": "0xa27e",
        "value": "0x0",
        "input": "0x651dc03d0000000000000000000000006c8c15629e6eb619d8d1cbdd13f760aa6101e9dd",
        "nonce": "0x7e",
        "chainId": "0x4268"
      },
      "additionalContracts": [],
      "isFixedGasLimit": false
    }
  ],
  "receipts": [
    {
      "status": "0x1",
      "cumulativeGasUsed": "0x917e60",
      "logs": [],
      "logsBloom": "0x00000000000000000000000000000000000000000000000000000000000000000000000000000000000000000000000000000000000000000000000000000000000000000000000000000000000000000000000000000000000000000000000000000000000000000000000000000000000000000000000000000000000000000000000000000000000000000000000000000000000000000000000000000000000000000000000000000000000000000000000000000000000000000000000000000000000000000000000000000000000000000000000000000000000000000000000000000000000000000000000000000000000000000000000000000000",
      "type": "0x2",
      "transactionHash": "0xc72db993a33b26951d4a2e47110fa2b20ca2029f0a3dd3728a92a6a789da6d41",
      "transactionIndex": "0x29",
      "blockHash": "0xe38ce3c968c81d2b44bdc9087e1a7bf24e69cc4e2c2f7a1ed0f86698196ceb0b",
      "blockNumber": "0x1faf2f",
      "gasUsed": "0xbc742",
      "effectiveGasPrice": "0xb5aec7",
      "from": "0xff9179199903a10283e19d86de8c09f2718073da",
      "to": null,
      "contractAddress": "0x9d97c92a4066a3f26b726cb3b30ff3647fb9d92c"
    },
    {
      "status": "0x1",
      "cumulativeGasUsed": "0x922dc6",
      "logs": [
        {
          "address": "0xf16a47a7aacf0aa2af16b467887faa7376b04df4",
          "topics": [
            "0xda3c8142b3c1d27633026f55bfcb4eeb0b5b8db0daa0a3e10c2213a441722ad1"
          ],
          "data": "0xd5c8d4f1000000000000000000000000000000000000000000000000000000000000000000000000000000009d97c92a4066a3f26b726cb3b30ff3647fb9d92c",
          "blockHash": "0xe38ce3c968c81d2b44bdc9087e1a7bf24e69cc4e2c2f7a1ed0f86698196ceb0b",
          "blockNumber": "0x1faf2f",
          "transactionHash": "0xe7b79c17f3b749641cc4f77244f34b5c71946f55c5744a78f8e100bd154268bb",
          "transactionIndex": "0x2a",
          "logIndex": "0x46",
          "removed": false
        }
      ],
      "logsBloom": "0x00000000000000000000000000000000000000000000000000000000000000080000000000000000000000000000000000000000000000000000000000000000000000000000000000000000000000000000000000000000000000000000000000000000000000000000000000000000000000000000000010000000000000000000000000000000000000000000100000000000000000000000000000000000000000000000000000000000000000000000000000000000000000000000000000000000000000000000000000000000000000080000000000080000000000000000100000000000000000000000000000000000000000000000000000000000",
      "type": "0x2",
      "transactionHash": "0xe7b79c17f3b749641cc4f77244f34b5c71946f55c5744a78f8e100bd154268bb",
      "transactionIndex": "0x2a",
      "blockHash": "0xe38ce3c968c81d2b44bdc9087e1a7bf24e69cc4e2c2f7a1ed0f86698196ceb0b",
      "blockNumber": "0x1faf2f",
      "gasUsed": "0xaf66",
      "effectiveGasPrice": "0xb5aec7",
      "from": "0xff9179199903a10283e19d86de8c09f2718073da",
      "to": "0xf16a47a7aacf0aa2af16b467887faa7376b04df4",
      "contractAddress": null
    },
    {
      "status": "0x1",
      "cumulativeGasUsed": "0x92df8e",
      "logs": [
        {
          "address": "0xf16a47a7aacf0aa2af16b467887faa7376b04df4",
          "topics": [
            "0xda3c8142b3c1d27633026f55bfcb4eeb0b5b8db0daa0a3e10c2213a441722ad1"
          ],
          "data": "0xd0f7c316000000000000000000000000000000000000000000000000000000000000000000000000000000009d97c92a4066a3f26b726cb3b30ff3647fb9d92c",
          "blockHash": "0xe38ce3c968c81d2b44bdc9087e1a7bf24e69cc4e2c2f7a1ed0f86698196ceb0b",
          "blockNumber": "0x1faf2f",
          "transactionHash": "0x0aeb4e8b88a470b3e450a82048919b61587f22784ca29f6a48d3553e8be7ed9a",
          "transactionIndex": "0x2b",
          "logIndex": "0x47",
          "removed": false
        }
      ],
      "logsBloom": "0x00000000000000000000000000000000000000000000000000000000000000080000000000000000000000000000000000000000000000000000000000000000000000000000000000000000000000000000000000000000000000000000000000000000000000000000000000000000000000000000000010000000000000000000000000000000000000000000100000000000000000000000000000000000000000000000000000000000000000000000000000000000000000000000000000000000000000000000000000000000000000080000000000080000000000000000100000000000000000000000000000000000000000000000000000000000",
      "type": "0x2",
      "transactionHash": "0x0aeb4e8b88a470b3e450a82048919b61587f22784ca29f6a48d3553e8be7ed9a",
      "transactionIndex": "0x2b",
      "blockHash": "0xe38ce3c968c81d2b44bdc9087e1a7bf24e69cc4e2c2f7a1ed0f86698196ceb0b",
      "blockNumber": "0x1faf2f",
      "gasUsed": "0xb1c8",
      "effectiveGasPrice": "0xb5aec7",
      "from": "0xff9179199903a10283e19d86de8c09f2718073da",
      "to": "0xf16a47a7aacf0aa2af16b467887faa7376b04df4",
      "contractAddress": null
    },
    {
      "status": "0x1",
      "cumulativeGasUsed": "0x9393b8",
      "logs": [
        {
          "address": "0xf16a47a7aacf0aa2af16b467887faa7376b04df4",
          "topics": [
            "0xda3c8142b3c1d27633026f55bfcb4eeb0b5b8db0daa0a3e10c2213a441722ad1"
          ],
          "data": "0x02d232f4000000000000000000000000000000000000000000000000000000000000000000000000000000009d97c92a4066a3f26b726cb3b30ff3647fb9d92c",
          "blockHash": "0xe38ce3c968c81d2b44bdc9087e1a7bf24e69cc4e2c2f7a1ed0f86698196ceb0b",
          "blockNumber": "0x1faf2f",
          "transactionHash": "0x3e910a3a4efc6d39a03bff77fae42290d374c22f53a25e9aa5632f52b54bb6f9",
          "transactionIndex": "0x2c",
          "logIndex": "0x48",
          "removed": false
        }
      ],
      "logsBloom": "0x00000000000000000000000000000000000000000000000000000000000000080000000000000000000000000000000000000000000000000000000000000000000000000000000000000000000000000000000000000000000000000000000000000000000000000000000000000000000000000000000010000000000000000000000000000000000000000000100000000000000000000000000000000000000000000000000000000000000000000000000000000000000000000000000000000000000000000000000000000000000000080000000000080000000000000000100000000000000000000000000000000000000000000000000000000000",
      "type": "0x2",
      "transactionHash": "0x3e910a3a4efc6d39a03bff77fae42290d374c22f53a25e9aa5632f52b54bb6f9",
      "transactionIndex": "0x2c",
      "blockHash": "0xe38ce3c968c81d2b44bdc9087e1a7bf24e69cc4e2c2f7a1ed0f86698196ceb0b",
      "blockNumber": "0x1faf2f",
      "gasUsed": "0xb42a",
      "effectiveGasPrice": "0xb5aec7",
      "from": "0xff9179199903a10283e19d86de8c09f2718073da",
      "to": "0xf16a47a7aacf0aa2af16b467887faa7376b04df4",
      "contractAddress": null
    },
    {
      "status": "0x1",
      "cumulativeGasUsed": "0x9bba22",
      "logs": [],
      "logsBloom": "0x00000000000000000000000000000000000000000000000000000000000000000000000000000000000000000000000000000000000000000000000000000000000000000000000000000000000000000000000000000000000000000000000000000000000000000000000000000000000000000000000000000000000000000000000000000000000000000000000000000000000000000000000000000000000000000000000000000000000000000000000000000000000000000000000000000000000000000000000000000000000000000000000000000000000000000000000000000000000000000000000000000000000000000000000000000000",
      "type": "0x2",
      "transactionHash": "0x8fba9724380e82a42a2811c0be75b33a321050e18bcebd79fb380309b5424ebe",
      "transactionIndex": "0x2d",
      "blockHash": "0xe38ce3c968c81d2b44bdc9087e1a7bf24e69cc4e2c2f7a1ed0f86698196ceb0b",
      "blockNumber": "0x1faf2f",
      "gasUsed": "0x8266a",
      "effectiveGasPrice": "0xb5aec7",
      "from": "0xff9179199903a10283e19d86de8c09f2718073da",
      "to": null,
      "contractAddress": "0x62d3f057f54f770a4b162a48dc0588da643f73ab"
    },
    {
      "status": "0x1",
      "cumulativeGasUsed": "0x9c5f88",
      "logs": [
        {
          "address": "0xf16a47a7aacf0aa2af16b467887faa7376b04df4",
          "topics": [
            "0xda3c8142b3c1d27633026f55bfcb4eeb0b5b8db0daa0a3e10c2213a441722ad1"
          ],
          "data": "0xabf508900000000000000000000000000000000000000000000000000000000000000000000000000000000062d3f057f54f770a4b162a48dc0588da643f73ab",
          "blockHash": "0xe38ce3c968c81d2b44bdc9087e1a7bf24e69cc4e2c2f7a1ed0f86698196ceb0b",
          "blockNumber": "0x1faf2f",
          "transactionHash": "0x63765e5501b08dfc795a4768e40b7f640837f9a55f61f97d292a934c31b54cc0",
          "transactionIndex": "0x2e",
          "logIndex": "0x49",
          "removed": false
        }
      ],
      "logsBloom": "0x00000000000000000000000000000000000000000000000000000000000000080000000000000000000000000000000000000000000000000000000000000000000000000000000000000000000000000000000000000000000000000000000000000000000000000000000000000000000000000000000010000000000000000000000000000000000000000000100000000000000000000000000000000000000000000000000000000000000000000000000000000000000000000000000000000000000000000000000000000000000000080000000000080000000000000000100000000000000000000000000000000000000000000000000000000000",
      "type": "0x2",
      "transactionHash": "0x63765e5501b08dfc795a4768e40b7f640837f9a55f61f97d292a934c31b54cc0",
      "transactionIndex": "0x2e",
      "blockHash": "0xe38ce3c968c81d2b44bdc9087e1a7bf24e69cc4e2c2f7a1ed0f86698196ceb0b",
      "blockNumber": "0x1faf2f",
      "gasUsed": "0xa566",
      "effectiveGasPrice": "0xb5aec7",
      "from": "0xff9179199903a10283e19d86de8c09f2718073da",
      "to": "0xf16a47a7aacf0aa2af16b467887faa7376b04df4",
      "contractAddress": null
    },
    {
      "status": "0x1",
      "cumulativeGasUsed": "0xa8dbd5",
      "logs": [],
      "logsBloom": "0x00000000000000000000000000000000000000000000000000000000000000000000000000000000000000000000000000000000000000000000000000000000000000000000000000000000000000000000000000000000000000000000000000000000000000000000000000000000000000000000000000000000000000000000000000000000000000000000000000000000000000000000000000000000000000000000000000000000000000000000000000000000000000000000000000000000000000000000000000000000000000000000000000000000000000000000000000000000000000000000000000000000000000000000000000000000",
      "type": "0x2",
      "transactionHash": "0x933f8cfa7a498c484dbb73c8bf8af26ebebbf851a98882992cdd116a3013d46d",
      "transactionIndex": "0x2f",
      "blockHash": "0xe38ce3c968c81d2b44bdc9087e1a7bf24e69cc4e2c2f7a1ed0f86698196ceb0b",
      "blockNumber": "0x1faf2f",
      "gasUsed": "0xc7c4d",
      "effectiveGasPrice": "0xb5aec7",
      "from": "0xff9179199903a10283e19d86de8c09f2718073da",
      "to": null,
      "contractAddress": "0x3287b26196f68167530ad60fa5fe057f75ab3790"
    },
    {
      "status": "0x1",
      "cumulativeGasUsed": "0xaa0cde",
      "logs": [
        {
          "address": "0xf16a47a7aacf0aa2af16b467887faa7376b04df4",
          "topics": [
            "0xbe533f538959a17d76f1b09e966e741ee3b1183099682f96216c93d21feaecba"
          ],
          "data": "0xa33032d900000000000000000000000000000000000000000000000000000000",
          "blockHash": "0xe38ce3c968c81d2b44bdc9087e1a7bf24e69cc4e2c2f7a1ed0f86698196ceb0b",
          "blockNumber": "0x1faf2f",
          "transactionHash": "0xa5c4eb949751a885049bc74f3a931d1bae5fc467fd631bfc26064537d05a9f80",
          "transactionIndex": "0x30",
          "logIndex": "0x4a",
          "removed": false
        },
        {
          "address": "0xf16a47a7aacf0aa2af16b467887faa7376b04df4",
          "topics": [
            "0xda3c8142b3c1d27633026f55bfcb4eeb0b5b8db0daa0a3e10c2213a441722ad1"
          ],
          "data": "0xa33032d9000000000000000000000000000000000000000000000000000000000000000000000000000000003287b26196f68167530ad60fa5fe057f75ab3790",
          "blockHash": "0xe38ce3c968c81d2b44bdc9087e1a7bf24e69cc4e2c2f7a1ed0f86698196ceb0b",
          "blockNumber": "0x1faf2f",
          "transactionHash": "0xa5c4eb949751a885049bc74f3a931d1bae5fc467fd631bfc26064537d05a9f80",
          "transactionIndex": "0x30",
          "logIndex": "0x4b",
          "removed": false
        }
      ],
      "logsBloom": "0x00000000000000000000000000000000000000000000000000000000000000080000000000000000000000000000000000000000000000000000000000000000000000000000000000000000000000000000000000000000000000000000000000000000000000000000200000000000000000000000000010000000000000000000000000000000000000000000100000000000000000000000000000000000000000000000000000004000080000000000000000000000000000000000000000000000000000000000000000000000000000080000000000080000000000000000100000000000000000000000000000000000000000000000000000000000",
      "type": "0x2",
      "transactionHash": "0xa5c4eb949751a885049bc74f3a931d1bae5fc467fd631bfc26064537d05a9f80",
      "transactionIndex": "0x30",
      "blockHash": "0xe38ce3c968c81d2b44bdc9087e1a7bf24e69cc4e2c2f7a1ed0f86698196ceb0b",
      "blockNumber": "0x1faf2f",
      "gasUsed": "0x13109",
      "effectiveGasPrice": "0xb5aec7",
      "from": "0xff9179199903a10283e19d86de8c09f2718073da",
      "to": "0xf16a47a7aacf0aa2af16b467887faa7376b04df4",
      "contractAddress": null
    },
    {
      "status": "0x1",
      "cumulativeGasUsed": "0xb177be",
      "logs": [],
      "logsBloom": "0x00000000000000000000000000000000000000000000000000000000000000000000000000000000000000000000000000000000000000000000000000000000000000000000000000000000000000000000000000000000000000000000000000000000000000000000000000000000000000000000000000000000000000000000000000000000000000000000000000000000000000000000000000000000000000000000000000000000000000000000000000000000000000000000000000000000000000000000000000000000000000000000000000000000000000000000000000000000000000000000000000000000000000000000000000000000",
      "type": "0x2",
      "transactionHash": "0x1746934464018a928728c54de146090874c0c3a1c5398c8d4c59ac73f9eb569d",
      "transactionIndex": "0x31",
      "blockHash": "0xe38ce3c968c81d2b44bdc9087e1a7bf24e69cc4e2c2f7a1ed0f86698196ceb0b",
      "blockNumber": "0x1faf2f",
      "gasUsed": "0x76ae0",
      "effectiveGasPrice": "0xb5aec7",
      "from": "0xff9179199903a10283e19d86de8c09f2718073da",
      "to": null,
      "contractAddress": "0x6c8c15629e6eb619d8d1cbdd13f760aa6101e9dd"
    },
    {
      "status": "0x1",
      "cumulativeGasUsed": "0xb1ed63",
      "logs": [
        {
          "address": "0xf16a47a7aacf0aa2af16b467887faa7376b04df4",
          "topics": [
            "0x159f10d3da077d18f228d52be447d552e7d1892d10f7af8f615658160e374729"
          ],
          "data": "0x0000000000000000000000006c8c15629e6eb619d8d1cbdd13f760aa6101e9dd",
          "blockHash": "0xe38ce3c968c81d2b44bdc9087e1a7bf24e69cc4e2c2f7a1ed0f86698196ceb0b",
          "blockNumber": "0x1faf2f",
          "transactionHash": "0x62855478d7b036488db1fe944627c4564f7d872ae708d48746c8d416f0ed51c6",
          "transactionIndex": "0x32",
          "logIndex": "0x4c",
          "removed": false
        }
      ],
      "logsBloom": "0x00000000000000080000000000000000000000000000000000000000000000000000000000000000000000000200000000000000000000000000000000000000000000000000000000000000000000000000000000000000000000000000000000000000000000000000000000000000000000000000000000000000000000000000000000000000000000000000000000000000000000000000000000000000000000000000000000000000000000000000000000000000000000000000000000000000000000000000000000000000000000080000000000080000000000000000100000000000000000000010000000000000000000000000000000000000",
      "type": "0x2",
      "transactionHash": "0x62855478d7b036488db1fe944627c4564f7d872ae708d48746c8d416f0ed51c6",
      "transactionIndex": "0x32",
      "blockHash": "0xe38ce3c968c81d2b44bdc9087e1a7bf24e69cc4e2c2f7a1ed0f86698196ceb0b",
      "blockNumber": "0x1faf2f",
      "gasUsed": "0x75a5",
      "effectiveGasPrice": "0xb5aec7",
      "from": "0xff9179199903a10283e19d86de8c09f2718073da",
      "to": "0xf16a47a7aacf0aa2af16b467887faa7376b04df4",
      "contractAddress": null
    }
  ],
  "libraries": [],
  "pending": [],
  "returns": {},
  "timestamp": 1722914030,
  "chain": 17000,
  "commit": "7fc479a"
}