{
  "transactions": [
    {
      "hash": "0xd50a4317eaf18b028aa83ffb3996968fd25f45f2ff469ba1074c80ee3bf9136e",
      "transactionType": "CREATE",
      "contractName": "OnlyAdminCheats",
      "contractAddress": "0x588eaaa9b66da5b64b0f658d14adc122fc103bf3",
      "function": null,
      "arguments": null,
      "transaction": {
        "from": "0xff9179199903a10283e19d86de8c09f2718073da",
        "gas": "0x13fd5b",
        "value": "0x0",
        "input": "0x608060405234801561001057600080fd5b50611144806100206000396000f3fe608060405234801561001057600080fd5b506004361061004c5760003560e01c80636f4d469b1461005157806375829def14610066578063932c30b514610079578063ed82e4711461008c575b600080fd5b61006461005f366004610da9565b61009f565b005b610064610074366004610e6e565b6101bc565b610064610087366004610e89565b610266565b61006461009a366004610ea1565b61035d565b336000805160206110ef83398151915280546000906100c0576100c0610eba565b60009182526020909120600290910201546001600160a01b0316146101005760405162461bcd60e51b81526004016100f790610ed0565b60405180910390fd5b60005b81518110156101b8576000805160206110ef833981519152600001604051806040016040528084848151811061013b5761013b610eba565b6020908102919091018101516001600160a01b0390811683526040805180840190915260008082529383015284546001808201875595845292829020845160029094020180546001600160a01b0319169390911692909217825582015191929091908201906101aa9082610f7b565b505050806001019050610103565b5050565b336000805160206110ef83398151915280546000906101dd576101dd610eba565b60009182526020909120600290910201546001600160a01b0316146102145760405162461bcd60e51b81526004016100f790610ed0565b806000805160206110ef833981519152805460009061023557610235610eba565b6000918252602090912060029091020180546001600160a01b0319166001600160a01b039290921691909117905550565b336000805160206110ef833981519152805460009061028757610287610eba565b60009182526020909120600290910201546001600160a01b0316146102be5760405162461bcd60e51b81526004016100f790610ed0565b80357f51e64ee84f491aad402ff73401b25fa2058a87e9d027403050c951c19bbb78015560208101357f51e64ee84f491aad402ff73401b25fa2058a87e9d027403050c951c19bbb78025560408101357f51e64ee84f491aad402ff73401b25fa2058a87e9d027403050c951c19bbb780355606001357f51e64ee84f491aad402ff73401b25fa2058a87e9d027403050c951c19bbb780455565b505050565b336000805160206110ef833981519152805460009061037e5761037e610eba565b60009182526020909120600290910201546001600160a01b0316146103b55760405162461bcd60e51b81526004016100f790610ed0565b60006103e17f51e64ee84f491aad402ff73401b25fa2058a87e9d027403050c951c19bbb780083610598565b90506000806103ef836105e8565b9150915060006103fe83610b2d565b9050600061040b83610b2d565b905081516000148061041c57508051155b80610428575060018251115b80610434575060018151115b156104b5577f51e64ee84f491aad402ff73401b25fa2058a87e9d027403050c951c19bbb78015460088601805460009061046f908490611051565b90915550506040517f482b8eea33a6bacd9c96efe787921a6f164295f5d28492bf9fb06b325cf4be10906104a8908890859085906110a0565b60405180910390a1610590565b6104e2826000815181106104cb576104cb610eba565b602002602001015186610c9690919063ffffffff16565b61050f816000815181106104f8576104f8610eba565b602002602001015186610ccc90919063ffffffff16565b7f22d7ff694ee2b21efdc8f0620ce8981ffe587da1939f9bafed3686101b070e70868360008151811061054457610544610eba565b60200260200101518360008151811061055f5761055f610eba565b6020026020010151604051610587939291909283526020830191909152604082015260600190565b60405180910390a15b505050505050565b815460009082106105bc5760405163635e873760e01b815260040160405180910390fd5b8260000182815481106105d1576105d1610eba565b90600052602060002090600d020190505b92915050565b8054606090819067ffffffffffffffff81111561060757610607610d77565b604051908082528060200260200182016040528015610630578160200160208202803683370190505b50600184015490925067ffffffffffffffff81111561065157610651610d77565b60405190808252806020026020018201604052801561067a578160200160208202803683370190505b50905060005b6002840154811015610b275760008460020160010160008660020160000184815481106106af576106af610eba565b60009182526020808320909101546001600160a01b031683528201929092526040908101909120815160a08101835291829081018260038282826020028201915b8154815260200190600101908083116106f05750505091835250506040805160608101918290526020909201919060038481019182845b8154815260200190600101908083116107275750505091909252505081518051602082015160409092015188519495509093919250906107678482610d5f565b6107a3576040518481527fd40e423db79bb42cc61a6a79d4af5b9ce09e66f1738cb4bbb4bbb9fe373367da9060200160405180910390a16107cf565b60038885815181106107b7576107b7610eba565b602002602001018181516107cb9190611051565b9052505b6107d98382610d5f565b610816576040518381527fd40e423db79bb42cc61a6a79d4af5b9ce09e66f1738cb4bbb4bbb9fe373367da906020015b60405180910390a1610879565b83830361084d576040518381527f273e8bda82f2832d14b80b1a1167e3a7b6e1c9c4a987db544a51abf0f45d986690602001610809565b600288848151811061086157610861610eba565b602002602001018181516108759190611051565b9052505b6108838282610d5f565b6108c0576040518281527fd40e423db79bb42cc61a6a79d4af5b9ce09e66f1738cb4bbb4bbb9fe373367da906020015b60405180910390a161092e565b838214806108cd57508282145b15610902576040518281527f273e8bda82f2832d14b80b1a1167e3a7b6e1c9c4a987db544a51abf0f45d9866906020016108b3565b600188838151811061091657610916610eba565b6020026020010181815161092a9190611051565b9052505b6020858101518051918101516040909101518a5161094c8482610d5f565b610988576040518481527fe44f8c75311d127aeb3cf702cf02a0b55ecae2d1f1962d9922f5683d51803eff9060200160405180910390a16109b4565b60038b858151811061099c5761099c610eba565b602002602001018181516109b09190611051565b9052505b6109be8382610d5f565b6109fb576040518381527fe44f8c75311d127aeb3cf702cf02a0b55ecae2d1f1962d9922f5683d51803eff906020015b60405180910390a1610a5e565b838303610a32576040518381527f90451f73e96f4399935aa9624a2512e9f3d028c95195cbe957a0376f2f15bda4906020016109ee565b60028b8481518110610a4657610a46610eba565b60200260200101818151610a5a9190611051565b9052505b610a688282610d5f565b610aa5576040518281527fe44f8c75311d127aeb3cf702cf02a0b55ecae2d1f1962d9922f5683d51803eff906020015b60405180910390a1610b13565b83821480610ab257508282145b15610ae7576040518281527f90451f73e96f4399935aa9624a2512e9f3d028c95195cbe957a0376f2f15bda490602001610a98565b60018b8381518110610afb57610afb610eba565b60200260200101818151610b0f9190611051565b9052505b505050505050505050806001019050610680565b50915091565b606060008060005b8451811015610bc75782858281518110610b5157610b51610eba565b60200260200101511115610b8457848181518110610b7157610b71610eba565b6020026020010151925060019150610bbf565b82858281518110610b9757610b97610eba565b6020026020010151148015610bac5750600083115b15610bbf5781610bbb816110d5565b9250505b600101610b35565b5081600003610be757505060408051600081526020810190915292915050565b8067ffffffffffffffff811115610c0057610c00610d77565b604051908082528060200260200182016040528015610c29578160200160208202803683370190505b5092506000805b8551811015610c8d5783868281518110610c4c57610c4c610eba565b602002602001015103610c855780858381518110610c6c57610c6c610eba565b602090810291909101015281610c81816110d5565b9250505b600101610c30565b50505050919050565b801580610ca4575081548110155b15610cc45760405162c6600760e41b8152600481018290526024016100f7565b600490910155565b801580610cdd575060018201548110155b15610cfe57604051638bef08f560e01b8152600481018290526024016100f7565b600582018190556001820180546000919083908110610d1f57610d1f610eba565b6000918252602082200191505b8154811015610d595760008181526006850160205260409020805460ff1916600190811790915501610d2c565b50505050565b6000826000108015610d7057508183105b9392505050565b634e487b7160e01b600052604160045260246000fd5b80356001600160a01b0381168114610da457600080fd5b919050565b60006020808385031215610dbc57600080fd5b823567ffffffffffffffff80821115610dd457600080fd5b818501915085601f830112610de857600080fd5b813581811115610dfa57610dfa610d77565b8060051b604051601f19603f83011681018181108582111715610e1f57610e1f610d77565b604052918252848201925083810185019188831115610e3d57600080fd5b938501935b82851015610e6257610e5385610d8d565b84529385019392850192610e42565b98975050505050505050565b600060208284031215610e8057600080fd5b610d7082610d8d565b600060808284031215610e9b57600080fd5b50919050565b600060208284031215610eb357600080fd5b5035919050565b634e487b7160e01b600052603260045260246000fd5b6020808252601590820152742cb7ba9030b932903737ba103a34329030b236b4b760591b604082015260600190565b600181811c90821680610f1357607f821691505b602082108103610e9b57634e487b7160e01b600052602260045260246000fd5b601f821115610358576000816000526020600020601f850160051c81016020861015610f5c5750805b601f850160051c820191505b8181101561059057828155600101610f68565b815167ffffffffffffffff811115610f9557610f95610d77565b610fa981610fa38454610eff565b84610f33565b602080601f831160018114610fde5760008415610fc65750858301515b600019600386901b1c1916600185901b178555610590565b600085815260208120601f198616915b8281101561100d57888601518255948401946001909101908401610fee565b508582101561102b5787850151600019600388901b60f8161c191681555b5050505050600190811b01905550565b634e487b7160e01b600052601160045260246000fd5b808201808211156105e2576105e261103b565b60008151808452602080850194506020840160005b8381101561109557815187529582019590820190600101611079565b509495945050505050565b8381526060602082015260006110b96060830185611064565b82810360408401526110cb8185611064565b9695505050505050565b6000600182016110e7576110e761103b565b506001019056fe8972abadfc8727f472fb0b6beb8d30155bd57415f49dc6c94e9cecdec0ed9200a264697066735822122034c4e59379497cb80f94813eccda85e6047a888d94f60daf7957d5b2736279ad64736f6c63430008180033",
        "nonce": "0x63",
        "chainId": "0xaa36a7"
      },
      "additionalContracts": [],
      "isFixedGasLimit": false
    },
    {
      "hash": "0xaa8367a1527b16ec01b3aef47fd49ef0dc727969b93e24bf13b74d48aba9deea",
      "transactionType": "CALL",
      "contractName": null,
      "contractAddress": "0x96f7d1bc89bfe12b1292ef4f986feb0dd9935b69",
      "function": "setImplementation(bytes4,address)",
      "arguments": [
        "0x6f4d469b00000000000000000000000000000000000000000000000000000000",
        "0x588eAaA9b66dA5B64b0f658d14ADC122fC103Bf3"
      ],
      "transaction": {
        "from": "0xff9179199903a10283e19d86de8c09f2718073da",
        "to": "0x96f7d1bc89bfe12b1292ef4f986feb0dd9935b69",
        "gas": "0xe474",
        "value": "0x0",
        "input": "0x0815f6fd6f4d469b00000000000000000000000000000000000000000000000000000000000000000000000000000000588eaaa9b66da5b64b0f658d14adc122fc103bf3",
        "nonce": "0x64",
        "chainId": "0xaa36a7"
      },
      "additionalContracts": [],
      "isFixedGasLimit": false
    },
    {
      "hash": "0x27a835afc9511145bfb6c77cfa16e718369d32748d852e120afda1bd53811929",
      "transactionType": "CALL",
      "contractName": null,
      "contractAddress": "0x96f7d1bc89bfe12b1292ef4f986feb0dd9935b69",
      "function": "setImplementation(bytes4,address)",
      "arguments": [
        "0x932c30b500000000000000000000000000000000000000000000000000000000",
        "0x588eAaA9b66dA5B64b0f658d14ADC122fC103Bf3"
      ],
      "transaction": {
        "from": "0xff9179199903a10283e19d86de8c09f2718073da",
        "to": "0x96f7d1bc89bfe12b1292ef4f986feb0dd9935b69",
        "gas": "0x1769a",
        "value": "0x0",
        "input": "0x0815f6fd932c30b500000000000000000000000000000000000000000000000000000000000000000000000000000000588eaaa9b66da5b64b0f658d14adc122fc103bf3",
        "nonce": "0x65",
        "chainId": "0xaa36a7"
      },
      "additionalContracts": [],
      "isFixedGasLimit": false
    },
    {
      "hash": "0x1ca96233a99ecfac9fbfa3aafe83e60f7606a607bb64bbf8a6b5900cfaf7ee54",
      "transactionType": "CALL",
      "contractName": null,
      "contractAddress": "0x96f7d1bc89bfe12b1292ef4f986feb0dd9935b69",
      "function": "setImplementation(bytes4,address)",
      "arguments": [
        "0x75829def00000000000000000000000000000000000000000000000000000000",
        "0x588eAaA9b66dA5B64b0f658d14ADC122fC103Bf3"
      ],
      "transaction": {
        "from": "0xff9179199903a10283e19d86de8c09f2718073da",
        "to": "0x96f7d1bc89bfe12b1292ef4f986feb0dd9935b69",
        "gas": "0x179e4",
        "value": "0x0",
        "input": "0x0815f6fd75829def00000000000000000000000000000000000000000000000000000000000000000000000000000000588eaaa9b66da5b64b0f658d14adc122fc103bf3",
        "nonce": "0x66",
        "chainId": "0xaa36a7"
      },
      "additionalContracts": [],
      "isFixedGasLimit": false
    },
    {
      "hash": "0x9bb7fff29ae70673f43b591d64c1892f4b82cab8cf5e9aa879a2d68f1cb061f2",
      "transactionType": "CALL",
      "contractName": null,
      "contractAddress": "0x96f7d1bc89bfe12b1292ef4f986feb0dd9935b69",
      "function": "setImplementation(bytes4,address)",
      "arguments": [
        "0xed82e47100000000000000000000000000000000000000000000000000000000",
        "0x588eAaA9b66dA5B64b0f658d14ADC122fC103Bf3"
      ],
      "transaction": {
        "from": "0xff9179199903a10283e19d86de8c09f2718073da",
        "to": "0x96f7d1bc89bfe12b1292ef4f986feb0dd9935b69",
        "gas": "0x1939c",
        "value": "0x0",
        "input": "0x0815f6fded82e47100000000000000000000000000000000000000000000000000000000000000000000000000000000588eaaa9b66da5b64b0f658d14adc122fc103bf3",
        "nonce": "0x67",
        "chainId": "0xaa36a7"
      },
      "additionalContracts": [],
      "isFixedGasLimit": false
    },
    {
      "hash": "0x072ef58253d1e2bfe26969c5b635d5eed83ec7eb13c3aca7f9894b716fd1fcdb",
      "transactionType": "CREATE",
      "contractName": "TextDAOWithCheatsFacade",
      "contractAddress": "0xb7498415b9c3775148113e65c0de494586321e88",
      "function": null,
      "arguments": null,
      "transaction": {
        "from": "0xff9179199903a10283e19d86de8c09f2718073da",
        "gas": "0x93409",
        "value": "0x0",
        "input": "0x608060405234801561001057600080fd5b5061076f806100206000396000f3fe608060405234801561001057600080fd5b50600436106100f55760003560e01c8063932c30b511610097578063d5c8d4f111610066578063d5c8d4f1146101e6578063ed82e471146101f4578063ed8b6b31146101f4578063fe0d94c1146101f457600080fd5b8063932c30b514610196578063abf50890146101a4578063d0f7c316146101b2578063d13da0bd146101c057600080fd5b806371cb2ee5116100d357806371cb2ee51461012d57806375829def146101425780638ca89f77146101505780638e5ed9c41461018357600080fd5b806302d232f4146100fa5780630c68678c1461010e5780636f4d469b1461011c575b600080fd5b61010c610108366004610202565b5050565b005b61010c610108366004610224565b61010c61012a3660046102bf565b50565b61010c61013b3660046103fa565b5050505050565b61010c61012a366004610474565b61016661015e366004610496565b600092915050565b6040516001600160a01b0390911681526020015b60405180910390f35b61010c6101913660046104f0565b505050565b61010c61012a366004610545565b61010c610191366004610561565b61010c61019136600461061d565b6101d86101ce36600461066d565b6000949350505050565b60405190815260200161017a565b6101d861015e3660046106d9565b61010c61012a366004610720565b6000806040838503121561021557600080fd5b50508035926020909101359150565b60008082840360e081121561023857600080fd5b8335925060c0601f198201121561024e57600080fd5b506020830190509250929050565b634e487b7160e01b600052604160045260246000fd5b604051601f8201601f1916810167ffffffffffffffff8111828210171561029b5761029b61025c565b604052919050565b80356001600160a01b03811681146102ba57600080fd5b919050565b600060208083850312156102d257600080fd5b823567ffffffffffffffff808211156102ea57600080fd5b818501915085601f8301126102fe57600080fd5b8135818111156103105761031061025c565b8060051b9150610321848301610272565b818152918301840191848101908884111561033b57600080fd5b938501935b8385101561036057610351856102a3565b82529385019390850190610340565b98975050505050505050565b60008083601f84011261037e57600080fd5b50813567ffffffffffffffff81111561039657600080fd5b6020830191508360208285010111156103ae57600080fd5b9250929050565b60008083601f8401126103c757600080fd5b50813567ffffffffffffffff8111156103df57600080fd5b6020830191508360208260051b85010111156103ae57600080fd5b60008060008060006060868803121561041257600080fd5b85359450602086013567ffffffffffffffff8082111561043157600080fd5b61043d89838a0161036c565b9096509450604088013591508082111561045657600080fd5b50610463888289016103b5565b969995985093965092949392505050565b60006020828403121561048657600080fd5b61048f826102a3565b9392505050565b600080602083850312156104a957600080fd5b823567ffffffffffffffff8111156104c057600080fd5b6104cc8582860161036c565b90969095509350505050565b6000608082840312156104ea57600080fd5b50919050565b600080600060a0848603121561050557600080fd5b833567ffffffffffffffff81111561051c57600080fd5b610528868287016103b5565b909450925061053c905085602086016104d8565b90509250925092565b60006080828403121561055757600080fd5b61048f83836104d8565b60008060006040848603121561057657600080fd5b83359250602084013567ffffffffffffffff81111561059457600080fd5b6105a0868287016103b5565b9497909650939450505050565b600082601f8301126105be57600080fd5b813567ffffffffffffffff8111156105d8576105d861025c565b6105eb601f8201601f1916602001610272565b81815284602083860101111561060057600080fd5b816020850160208301376000918101602001919091529392505050565b60008060006060848603121561063257600080fd5b8335925060208401359150604084013567ffffffffffffffff81111561065757600080fd5b610663868287016105ad565b9150509250925092565b6000806000806040858703121561068357600080fd5b843567ffffffffffffffff8082111561069b57600080fd5b6106a78883890161036c565b909650945060208701359150808211156106c057600080fd5b506106cd878288016103b5565b95989497509550505050565b600080604083850312156106ec57600080fd5b82359150602083013567ffffffffffffffff81111561070a57600080fd5b610716858286016105ad565b9150509250929050565b60006020828403121561073257600080fd5b503591905056fea2646970667358221220de2149b08e2bed9c6044c72cd6b49e20ed298743b0e6193f0b959cb620abde9364736f6c63430008180033",
        "nonce": "0x68",
        "chainId": "0xaa36a7"
      },
      "additionalContracts": [],
      "isFixedGasLimit": false
    },
    {
      "hash": "0x921566abd3e0465f91971296d7011b27ef8da61c9fcd56ef0340a303dcac0776",
      "transactionType": "CALL",
      "contractName": null,
      "contractAddress": "0x96f7d1bc89bfe12b1292ef4f986feb0dd9935b69",
      "function": "upgradeFacade(address)",
      "arguments": [
        "0xb7498415b9C3775148113e65c0DE494586321e88"
      ],
      "transaction": {
        "from": "0xff9179199903a10283e19d86de8c09f2718073da",
        "to": "0x96f7d1bc89bfe12b1292ef4f986feb0dd9935b69",
        "gas": "0xa27e",
        "value": "0x0",
        "input": "0x651dc03d000000000000000000000000b7498415b9c3775148113e65c0de494586321e88",
        "nonce": "0x69",
        "chainId": "0xaa36a7"
      },
      "additionalContracts": [],
      "isFixedGasLimit": false
    }
  ],
  "receipts": [
    {
      "status": "0x1",
      "cumulativeGasUsed": "0x12a0582",
      "logs": [],
      "logsBloom": "0x00000000000000000000000000000000000000000000000000000000000000000000000000000000000000000000000000000000000000000000000000000000000000000000000000000000000000000000000000000000000000000000000000000000000000000000000000000000000000000000000000000000000000000000000000000000000000000000000000000000000000000000000000000000000000000000000000000000000000000000000000000000000000000000000000000000000000000000000000000000000000000000000000000000000000000000000000000000000000000000000000000000000000000000000000000000",
      "type": "0x2",
      "transactionHash": "0xd50a4317eaf18b028aa83ffb3996968fd25f45f2ff469ba1074c80ee3bf9136e",
      "transactionIndex": "0x67",
      "blockHash": "0xe9b0d554bbf85a75b9acf1b6d8378a143af75a56d533534ebe1d909394f6a412",
      "blockNumber": "0x611e7d",
      "gasUsed": "0xf6186",
      "effectiveGasPrice": "0x3b9aca67",
      "from": "0xff9179199903a10283e19d86de8c09f2718073da",
      "to": null,
      "contractAddress": "0x588eaaa9b66da5b64b0f658d14adc122fc103bf3"
    },
    {
      "status": "0x1",
      "cumulativeGasUsed": "0x12aaae8",
      "logs": [
        {
          "address": "0x96f7d1bc89bfe12b1292ef4f986feb0dd9935b69",
          "topics": [
            "0xda3c8142b3c1d27633026f55bfcb4eeb0b5b8db0daa0a3e10c2213a441722ad1"
          ],
          "data": "0x6f4d469b00000000000000000000000000000000000000000000000000000000000000000000000000000000588eaaa9b66da5b64b0f658d14adc122fc103bf3",
          "blockHash": "0xe9b0d554bbf85a75b9acf1b6d8378a143af75a56d533534ebe1d909394f6a412",
          "blockNumber": "0x611e7d",
          "transactionHash": "0xaa8367a1527b16ec01b3aef47fd49ef0dc727969b93e24bf13b74d48aba9deea",
          "transactionIndex": "0x68",
          "logIndex": "0xaf",
          "removed": false
        }
      ],
      "logsBloom": "0x00000000000000000000000400000000000000000000000000000000000000080000000000000000000000000000000000000000000000000000000000000000000000000000000000000000000100000000000000000000000000000000000000000000000000000000000000000000000000000000000010000000000000000000000000000000000000000000100000000000020000000000000000000000000000000000000000000000000000000000000000000000000000000000000000000000000000000000000000000000000000000000000000000000000000000000000000000000000000000000000000000000000000000000000000000000",
      "type": "0x2",
      "transactionHash": "0xaa8367a1527b16ec01b3aef47fd49ef0dc727969b93e24bf13b74d48aba9deea",
      "transactionIndex": "0x68",
      "blockHash": "0xe9b0d554bbf85a75b9acf1b6d8378a143af75a56d533534ebe1d909394f6a412",
      "blockNumber": "0x611e7d",
      "gasUsed": "0xa566",
      "effectiveGasPrice": "0x3b9aca67",
      "from": "0xff9179199903a10283e19d86de8c09f2718073da",
      "to": "0x96f7d1bc89bfe12b1292ef4f986feb0dd9935b69",
      "contractAddress": null
    },
    {
      "status": "0x1",
      "cumulativeGasUsed": "0x12c2215",
      "logs": [
        {
          "address": "0x96f7d1bc89bfe12b1292ef4f986feb0dd9935b69",
          "topics": [
            "0xbe533f538959a17d76f1b09e966e741ee3b1183099682f96216c93d21feaecba"
          ],
          "data": "0x932c30b500000000000000000000000000000000000000000000000000000000",
          "blockHash": "0xe9b0d554bbf85a75b9acf1b6d8378a143af75a56d533534ebe1d909394f6a412",
          "blockNumber": "0x611e7d",
          "transactionHash": "0x27a835afc9511145bfb6c77cfa16e718369d32748d852e120afda1bd53811929",
          "transactionIndex": "0x6a",
          "logIndex": "0xb0",
          "removed": false
        },
        {
          "address": "0x96f7d1bc89bfe12b1292ef4f986feb0dd9935b69",
          "topics": [
            "0xda3c8142b3c1d27633026f55bfcb4eeb0b5b8db0daa0a3e10c2213a441722ad1"
          ],
          "data": "0x932c30b500000000000000000000000000000000000000000000000000000000000000000000000000000000588eaaa9b66da5b64b0f658d14adc122fc103bf3",
          "blockHash": "0xe9b0d554bbf85a75b9acf1b6d8378a143af75a56d533534ebe1d909394f6a412",
          "blockNumber": "0x611e7d",
          "transactionHash": "0x27a835afc9511145bfb6c77cfa16e718369d32748d852e120afda1bd53811929",
          "transactionIndex": "0x6a",
          "logIndex": "0xb1",
          "removed": false
        }
      ],
      "logsBloom": "0x00000000000000000000000400000000000000000000000000000000000000080000000000000000000000000000000000000000000000000000000000000000000000000000000000000000000100000000000000000000000000000000000000000000000000000000200000000000000000000000000010000000000000000000000000000000000000000000100000000000020000000000000000000000000000000000000000004000080000000000000000000000000000000000000000000000000000000000000000000000000000000000000000000000000000000000000000000000000000000000000000000000000000000000000000000000",
      "type": "0x2",
      "transactionHash": "0x27a835afc9511145bfb6c77cfa16e718369d32748d852e120afda1bd53811929",
      "transactionIndex": "0x6a",
      "blockHash": "0xe9b0d554bbf85a75b9acf1b6d8378a143af75a56d533534ebe1d909394f6a412",
      "blockNumber": "0x611e7d",
      "gasUsed": "0x10f35",
      "effectiveGasPrice": "0x3b9aca67",
      "from": "0xff9179199903a10283e19d86de8c09f2718073da",
      "to": "0x96f7d1bc89bfe12b1292ef4f986feb0dd9935b69",
      "contractAddress": null
    },
    {
      "status": "0x1",
      "cumulativeGasUsed": "0x12d33ac",
      "logs": [
        {
          "address": "0x96f7d1bc89bfe12b1292ef4f986feb0dd9935b69",
          "topics": [
            "0xbe533f538959a17d76f1b09e966e741ee3b1183099682f96216c93d21feaecba"
          ],
          "data": "0x75829def00000000000000000000000000000000000000000000000000000000",
          "blockHash": "0xe9b0d554bbf85a75b9acf1b6d8378a143af75a56d533534ebe1d909394f6a412",
          "blockNumber": "0x611e7d",
          "transactionHash": "0x1ca96233a99ecfac9fbfa3aafe83e60f7606a607bb64bbf8a6b5900cfaf7ee54",
          "transactionIndex": "0x6b",
          "logIndex": "0xb2",
          "removed": false
        },
        {
          "address": "0x96f7d1bc89bfe12b1292ef4f986feb0dd9935b69",
          "topics": [
            "0xda3c8142b3c1d27633026f55bfcb4eeb0b5b8db0daa0a3e10c2213a441722ad1"
          ],
          "data": "0x75829def00000000000000000000000000000000000000000000000000000000000000000000000000000000588eaaa9b66da5b64b0f658d14adc122fc103bf3",
          "blockHash": "0xe9b0d554bbf85a75b9acf1b6d8378a143af75a56d533534ebe1d909394f6a412",
          "blockNumber": "0x611e7d",
          "transactionHash": "0x1ca96233a99ecfac9fbfa3aafe83e60f7606a607bb64bbf8a6b5900cfaf7ee54",
          "transactionIndex": "0x6b",
          "logIndex": "0xb3",
          "removed": false
        }
      ],
      "logsBloom": "0x00000000000000000000000400000000000000000000000000000000000000080000000000000000000000000000000000000000000000000000000000000000000000000000000000000000000100000000000000000000000000000000000000000000000000000000200000000000000000000000000010000000000000000000000000000000000000000000100000000000020000000000000000000000000000000000000000004000080000000000000000000000000000000000000000000000000000000000000000000000000000000000000000000000000000000000000000000000000000000000000000000000000000000000000000000000",
      "type": "0x2",
      "transactionHash": "0x1ca96233a99ecfac9fbfa3aafe83e60f7606a607bb64bbf8a6b5900cfaf7ee54",
      "transactionIndex": "0x6b",
      "blockHash": "0xe9b0d554bbf85a75b9acf1b6d8378a143af75a56d533534ebe1d909394f6a412",
      "blockNumber": "0x611e7d",
      "gasUsed": "0x11197",
      "effectiveGasPrice": "0x3b9aca67",
      "from": "0xff9179199903a10283e19d86de8c09f2718073da",
      "to": "0x96f7d1bc89bfe12b1292ef4f986feb0dd9935b69",
      "contractAddress": null
    },
    {
      "status": "0x1",
      "cumulativeGasUsed": "0x12e47a5",
      "logs": [
        {
          "address": "0x96f7d1bc89bfe12b1292ef4f986feb0dd9935b69",
          "topics": [
            "0xbe533f538959a17d76f1b09e966e741ee3b1183099682f96216c93d21feaecba"
          ],
          "data": "0xed82e47100000000000000000000000000000000000000000000000000000000",
          "blockHash": "0xe9b0d554bbf85a75b9acf1b6d8378a143af75a56d533534ebe1d909394f6a412",
          "blockNumber": "0x611e7d",
          "transactionHash": "0x9bb7fff29ae70673f43b591d64c1892f4b82cab8cf5e9aa879a2d68f1cb061f2",
          "transactionIndex": "0x6c",
          "logIndex": "0xb4",
          "removed": false
        },
        {
          "address": "0x96f7d1bc89bfe12b1292ef4f986feb0dd9935b69",
          "topics": [
            "0xda3c8142b3c1d27633026f55bfcb4eeb0b5b8db0daa0a3e10c2213a441722ad1"
          ],
          "data": "0xed82e47100000000000000000000000000000000000000000000000000000000000000000000000000000000588eaaa9b66da5b64b0f658d14adc122fc103bf3",
          "blockHash": "0xe9b0d554bbf85a75b9acf1b6d8378a143af75a56d533534ebe1d909394f6a412",
          "blockNumber": "0x611e7d",
          "transactionHash": "0x9bb7fff29ae70673f43b591d64c1892f4b82cab8cf5e9aa879a2d68f1cb061f2",
          "transactionIndex": "0x6c",
          "logIndex": "0xb5",
          "removed": false
        }
      ],
      "logsBloom": "0x00000000000000000000000400000000000000000000000000000000000000080000000000000000000000000000000000000000000000000000000000000000000000000000000000000000000100000000000000000000000000000000000000000000000000000000200000000000000000000000000010000000000000000000000000000000000000000000100000000000020000000000000000000000000000000000000000004000080000000000000000000000000000000000000000000000000000000000000000000000000000000000000000000000000000000000000000000000000000000000000000000000000000000000000000000000",
      "type": "0x2",
      "transactionHash": "0x9bb7fff29ae70673f43b591d64c1892f4b82cab8cf5e9aa879a2d68f1cb061f2",
      "transactionIndex": "0x6c",
      "blockHash": "0xe9b0d554bbf85a75b9acf1b6d8378a143af75a56d533534ebe1d909394f6a412",
      "blockNumber": "0x611e7d",
      "gasUsed": "0x113f9",
      "effectiveGasPrice": "0x3b9aca67",
      "from": "0xff9179199903a10283e19d86de8c09f2718073da",
      "to": "0x96f7d1bc89bfe12b1292ef4f986feb0dd9935b69",
      "contractAddress": null
    },
    {
      "status": "0x1",
      "cumulativeGasUsed": "0x1355c75",
      "logs": [],
      "logsBloom": "0x00000000000000000000000000000000000000000000000000000000000000000000000000000000000000000000000000000000000000000000000000000000000000000000000000000000000000000000000000000000000000000000000000000000000000000000000000000000000000000000000000000000000000000000000000000000000000000000000000000000000000000000000000000000000000000000000000000000000000000000000000000000000000000000000000000000000000000000000000000000000000000000000000000000000000000000000000000000000000000000000000000000000000000000000000000000",
      "type": "0x2",
      "transactionHash": "0x072ef58253d1e2bfe26969c5b635d5eed83ec7eb13c3aca7f9894b716fd1fcdb",
      "transactionIndex": "0x6d",
      "blockHash": "0xe9b0d554bbf85a75b9acf1b6d8378a143af75a56d533534ebe1d909394f6a412",
      "blockNumber": "0x611e7d",
      "gasUsed": "0x714d0",
      "effectiveGasPrice": "0x3b9aca67",
      "from": "0xff9179199903a10283e19d86de8c09f2718073da",
      "to": null,
      "contractAddress": "0xb7498415b9c3775148113e65c0de494586321e88"
    },
    {
      "status": "0x1",
      "cumulativeGasUsed": "0x135d21a",
      "logs": [
        {
          "address": "0x96f7d1bc89bfe12b1292ef4f986feb0dd9935b69",
          "topics": [
            "0x159f10d3da077d18f228d52be447d552e7d1892d10f7af8f615658160e374729"
          ],
          "data": "0x000000000000000000000000b7498415b9c3775148113e65c0de494586321e88",
          "blockHash": "0xe9b0d554bbf85a75b9acf1b6d8378a143af75a56d533534ebe1d909394f6a412",
          "blockNumber": "0x611e7d",
          "transactionHash": "0x921566abd3e0465f91971296d7011b27ef8da61c9fcd56ef0340a303dcac0776",
          "transactionIndex": "0x6e",
          "logIndex": "0xb6",
          "removed": false
        }
      ],
      "logsBloom": "0x00000000000000080000000400000000000000000000000000000000000000000000000000000000000000000200000000000000000000000000000000000000000000000000000000000000000100000000000000000000000000000000000000000000000000000000000000000000000000000000000000000000000000000000000000000000000000000000000000000000020000000000000000000000000000000000000000000000000000000000000000000000000000000000000000000000000000000000000000000000000000000000000000000000000000000000000000000000000000000010000000000000000000000000000000000000",
      "type": "0x2",
      "transactionHash": "0x921566abd3e0465f91971296d7011b27ef8da61c9fcd56ef0340a303dcac0776",
      "transactionIndex": "0x6e",
      "blockHash": "0xe9b0d554bbf85a75b9acf1b6d8378a143af75a56d533534ebe1d909394f6a412",
      "blockNumber": "0x611e7d",
      "gasUsed": "0x75a5",
      "effectiveGasPrice": "0x3b9aca67",
      "from": "0xff9179199903a10283e19d86de8c09f2718073da",
      "to": "0x96f7d1bc89bfe12b1292ef4f986feb0dd9935b69",
      "contractAddress": null
    }
  ],
  "libraries": [],
  "pending": [],
  "returns": {},
  "timestamp": 1721781749,
  "chain": 11155111,
  "commit": "8b946e4"
}