{
  "transactions": [
    {
      "hash": "0xb2dde90019c25ed68178d468c43ee2980cc3ad0a267e0cc7b8d542d09573a443",
      "transactionType": "CREATE",
      "contractName": "MembershipManagementProtected",
      "contractAddress": "0x060f3310a21c6b3bdfc5df2e94796aba198ccd7f",
      "function": null,
      "arguments": null,
      "transaction": {
        "from": "0xff9179199903a10283e19d86de8c09f2718073da",
        "gas": "0x110366",
        "value": "0x0",
        "input": "0x608060405234801561001057600080fd5b50610e8f806100206000396000f3fe608060405234801561001057600080fd5b506004361061004c5760003560e01c80633e0b8fa41461005157806341ee2a82146100665780635cb2384c1461007957806362f725ff1461008c575b600080fd5b61006461005f366004610a23565b61009f565b005b610064610074366004610a6a565b61018b565b610064610087366004610a83565b610270565b61006461009a366004610aa5565b610611565b81600080516020610e3a8339815191528054829081106100c1576100c1610bc7565b60009182526020909120600290910201546001600160a01b031633146100fa576040516361efa44760e01b815260040160405180910390fd5b6000600080516020610e3a83398151915280548590811061011d5761011d610bc7565b906000526020600020906002020190508281600101908161013e9190610c68565b5080546040517f357ac66405b24ee07965d221cbbb70cf07818df65bf681957c2e97a7832088219161017d9187916001600160a01b0316908790610d78565b60405180910390a150505050565b80600080516020610e3a8339815191528054829081106101ad576101ad610bc7565b60009182526020909120600290910201546001600160a01b031633146101e6576040516361efa44760e01b815260040160405180910390fd5b600080516020610e3a83398151915280548390811061020757610207610bc7565b60009182526020822060029091020180546001600160a01b03191681559061023260018301826108ed565b5050604080518381523360208201527f1c4c9d2e56d0635d11bc47c997c6909a0d7061f55cbb8f4b27386db37553191c910160405180910390a15050565b81600061029f827f51e64ee84f491aad402ff73401b25fa2058a87e9d027403050c951c19bbb78005b90610862565b905060008160020160030154905060008260010182815481106102c4576102c4610bc7565b906000526020600020019050600080366040516102e2929190610dab565b604051908190039020825490915060005b818110156105f757600084600001828154811061031257610312610bc7565b906000526020600020906002020190508361045b8260405180604001604052908160008201805461034290610bdd565b80601f016020809104026020016040519081016040528092919081815260200182805461036e90610bdd565b80156103bb5780601f10610390576101008083540402835291602001916103bb565b820191906000526020600020905b81548152906001019060200180831161039e57829003601f168201915b505050505081526020016001820180546103d490610bdd565b80601f016020809104026020016040519081016040528092919081815260200182805461040090610bdd565b801561044d5780601f106104225761010080835404028352916020019161044d565b820191906000526020600020905b81548152906001019060200180831161043057829003601f168201915b5050505050815250506108b1565b80519060200120036105ed57600082815260068801602052604090205460ff16600281600281111561048f5761048f610dbb565b0361049b5750506105ef565b60018160028111156104af576104af610dbb565b146104cd57604051631dea3b2960e21b815260040160405180910390fd5b600080516020610e3a833981519152805460009082908d9081106104f3576104f3610bc7565b60009182526020909120600290910201546001600160a01b031690508061053457604051637250865560e01b8152600481018d905260240160405180910390fd5b818c8154811061054657610546610bc7565b60009182526020822060029091020180546001600160a01b03191681559061057160018301826108ed565b5050604080518e8152602081018e90526001600160a01b0383168183015290517fd12f238fd6e7a31febd7bd8b5be317baf5d97f801a5829982412e19c23e839e99181900360600190a150506000838152600689016020526040902080546002919060ff19166001835b02179055505050505050505050505050565b505b6001016102f3565b5060405163073ec13d60e31b815260040160405180910390fd5b81600061063e827f51e64ee84f491aad402ff73401b25fa2058a87e9d027403050c951c19bbb7800610299565b9050600081600201600301549050600082600101828154811061066357610663610bc7565b90600052602060002001905060008036604051610681929190610dab565b604051908190039020825490915060005b818110156105f75760008460000182815481106106b1576106b1610bc7565b90600052602060002090600202019050836106e18260405180604001604052908160008201805461034290610bdd565b805190602001200361085857600082815260068801602052604090205460ff16600281600281111561071557610715610dbb565b0361072157505061085a565b600181600281111561073557610735610dbb565b1461075357604051631dea3b2960e21b815260040160405180910390fd5b600080516020610e3a83398151915260005b8b518110156108345781548c516000908e908490811061078757610787610bc7565b6020908102919091018101518554600180820188556000888152849020835160029093020180546001600160a01b0319166001600160a01b039093169290921782559282015191935083929091908201906107e29082610c68565b5050507f929337ad2900bb9ae0123c5baeaf7a05e1d68c3d1779bc3bb93c9808da9c5ee98f83836000015184602001516040516108229493929190610dd1565b60405180910390a15050600101610765565b50506000838152600689016020526040902080546002919060ff19166001836105db565b505b600101610692565b815460009082106108865760405163635e873760e01b815260040160405180910390fd5b82600001828154811061089b5761089b610bc7565b90600052602060002090600d0201905092915050565b60606108c38251805160209091012090565b6020808401516040516108d7939201610e08565b6040516020818303038152906040529050919050565b5080546108f990610bdd565b6000825580601f10610909575050565b601f016020900490600052602060002090810190610927919061092a565b50565b5b8082111561093f576000815560010161092b565b5090565b634e487b7160e01b600052604160045260246000fd5b6040805190810167ffffffffffffffff8111828210171561097c5761097c610943565b60405290565b604051601f8201601f1916810167ffffffffffffffff811182821017156109ab576109ab610943565b604052919050565b600082601f8301126109c457600080fd5b813567ffffffffffffffff8111156109de576109de610943565b6109f1601f8201601f1916602001610982565b818152846020838601011115610a0657600080fd5b816020850160208301376000918101602001919091529392505050565b60008060408385031215610a3657600080fd5b82359150602083013567ffffffffffffffff811115610a5457600080fd5b610a60858286016109b3565b9150509250929050565b600060208284031215610a7c57600080fd5b5035919050565b60008060408385031215610a9657600080fd5b50508035926020909101359150565b6000806040808486031215610ab957600080fd5b8335925060208085013567ffffffffffffffff80821115610ad957600080fd5b818701915087601f830112610aed57600080fd5b813581811115610aff57610aff610943565b8060051b610b0e858201610982565b918252838101850191858101908b841115610b2857600080fd5b86860192505b83831015610bb557823585811115610b465760008081fd5b8601808d03601f1901891315610b5c5760008081fd5b610b64610959565b818901356001600160a01b0381168114610b7e5760008081fd5b8152818a013587811115610b925760008081fd5b610ba08f8b838601016109b3565b828b0152508352509186019190860190610b2e565b80985050505050505050509250929050565b634e487b7160e01b600052603260045260246000fd5b600181811c90821680610bf157607f821691505b602082108103610c1157634e487b7160e01b600052602260045260246000fd5b50919050565b601f821115610c63576000816000526020600020601f850160051c81016020861015610c405750805b601f850160051c820191505b81811015610c5f57828155600101610c4c565b5050505b505050565b815167ffffffffffffffff811115610c8257610c82610943565b610c9681610c908454610bdd565b84610c17565b602080601f831160018114610ccb5760008415610cb35750858301515b600019600386901b1c1916600185901b178555610c5f565b600085815260208120601f198616915b82811015610cfa57888601518255948401946001909101908401610cdb565b5085821015610d185787850151600019600388901b60f8161c191681555b5050505050600190811b01905550565b60005b83811015610d43578181015183820152602001610d2b565b50506000910152565b60008151808452610d64816020860160208601610d28565b601f01601f19169290920160200192915050565b8381526001600160a01b0383166020820152606060408201819052600090610da290830184610d4c565b95945050505050565b8183823760009101908152919050565b634e487b7160e01b600052602160045260246000fd5b84815283602082015260018060a01b0383166040820152608060608201526000610dfe6080830184610d4c565b9695505050505050565b6001600160e01b0319831681528151600090610e2b816004850160208701610d28565b91909101600401939250505056fe8972abadfc8727f472fb0b6beb8d30155bd57415f49dc6c94e9cecdec0ed9200a26469706673582212208caed78589519b1efb8ce41ef8deb1a2910c048c604e899566184721259708ff64736f6c63430008180033",
        "nonce": "0x84",
        "chainId": "0x4268"
      },
      "additionalContracts": [],
      "isFixedGasLimit": false
    },
    {
      "hash": "0xfab09e843cca388f9d3aaa1bc5554e999d96731d3929291eed84f72737271c2e",
      "transactionType": "CALL",
      "contractName": null,
      "contractAddress": "0xf16a47a7aacf0aa2af16b467887faa7376b04df4",
      "function": "setImplementation(bytes4,address)",
      "arguments": [
        "0x62f725ff00000000000000000000000000000000000000000000000000000000",
        "0x060F3310a21c6B3BDfC5DF2E94796aba198CCD7F"
      ],
      "transaction": {
        "from": "0xff9179199903a10283e19d86de8c09f2718073da",
        "to": "0xf16a47a7aacf0aa2af16b467887faa7376b04df4",
        "gas": "0x1c198",
        "value": "0x0",
        "input": "0x0815f6fd62f725ff00000000000000000000000000000000000000000000000000000000000000000000000000000000060f3310a21c6b3bdfc5df2e94796aba198ccd7f",
        "nonce": "0x85",
        "chainId": "0x4268"
      },
      "additionalContracts": [],
      "isFixedGasLimit": false
    },
    {
      "hash": "0x90b9b4e306a112e15277b4cff2f3a205bba1fdfbff6b5fc58b830928af578ecc",
      "transactionType": "CALL",
      "contractName": null,
      "contractAddress": "0xf16a47a7aacf0aa2af16b467887faa7376b04df4",
      "function": "setImplementation(bytes4,address)",
      "arguments": [
        "0x3e0b8fa400000000000000000000000000000000000000000000000000000000",
        "0x060F3310a21c6B3BDfC5DF2E94796aba198CCD7F"
      ],
      "transaction": {
        "from": "0xff9179199903a10283e19d86de8c09f2718073da",
        "to": "0xf16a47a7aacf0aa2af16b467887faa7376b04df4",
        "gas": "0x1abe8",
        "value": "0x0",
        "input": "0x0815f6fd3e0b8fa400000000000000000000000000000000000000000000000000000000000000000000000000000000060f3310a21c6b3bdfc5df2e94796aba198ccd7f",
        "nonce": "0x86",
        "chainId": "0x4268"
      },
      "additionalContracts": [],
      "isFixedGasLimit": false
    },
    {
      "hash": "0xe07cb21227ee8c8fe0e160a49f416acf59c34648b92de85ca377d937d0362412",
      "transactionType": "CALL",
      "contractName": null,
      "contractAddress": "0xf16a47a7aacf0aa2af16b467887faa7376b04df4",
      "function": "setImplementation(bytes4,address)",
      "arguments": [
        "0x5cb2384c00000000000000000000000000000000000000000000000000000000",
        "0x060F3310a21c6B3BDfC5DF2E94796aba198CCD7F"
      ],
      "transaction": {
        "from": "0xff9179199903a10283e19d86de8c09f2718073da",
        "to": "0xf16a47a7aacf0aa2af16b467887faa7376b04df4",
        "gas": "0x1af32",
        "value": "0x0",
        "input": "0x0815f6fd5cb2384c00000000000000000000000000000000000000000000000000000000000000000000000000000000060f3310a21c6b3bdfc5df2e94796aba198ccd7f",
        "nonce": "0x87",
        "chainId": "0x4268"
      },
      "additionalContracts": [],
      "isFixedGasLimit": false
    },
    {
      "hash": "0x67f838e7ae2af83ccf75a9e4a54230a3f638c80801d19576555742036eb172c7",
      "transactionType": "CALL",
      "contractName": null,
      "contractAddress": "0xf16a47a7aacf0aa2af16b467887faa7376b04df4",
      "function": "setImplementation(bytes4,address)",
      "arguments": [
        "0x41ee2a8200000000000000000000000000000000000000000000000000000000",
        "0x060F3310a21c6B3BDfC5DF2E94796aba198CCD7F"
      ],
      "transaction": {
        "from": "0xff9179199903a10283e19d86de8c09f2718073da",
        "to": "0xf16a47a7aacf0aa2af16b467887faa7376b04df4",
        "gas": "0x238e1",
        "value": "0x0",
        "input": "0x0815f6fd41ee2a8200000000000000000000000000000000000000000000000000000000000000000000000000000000060f3310a21c6b3bdfc5df2e94796aba198ccd7f",
        "nonce": "0x88",
        "chainId": "0x4268"
      },
      "additionalContracts": [],
      "isFixedGasLimit": false
    },
    {
      "hash": "0x098d51f3351f135a50e23d0fe6571f85bf28b5c30005479958342cf20e33d84b",
      "transactionType": "CREATE",
      "contractName": "TextDAOWithCheatsFacade",
      "contractAddress": "0x72a50377acc27baaecd86e1ff28fba8113e42e30",
      "function": null,
      "arguments": null,
      "transaction": {
        "from": "0xff9179199903a10283e19d86de8c09f2718073da",
        "gas": "0x9f0ac",
        "value": "0x0",
        "input": "0x608060405234801561001057600080fd5b5061081b806100206000396000f3fe608060405234801561001057600080fd5b506004361061012c5760003560e01c8063932c30b5116100ad578063d5c8d4f111610071578063d5c8d4f114610239578063ed82e47114610247578063ed8b6b3114610247578063fe0d94c114610247578063fec77ae51461024757600080fd5b8063932c30b5146101db578063a33032d9146101e9578063abf50890146101f7578063d0f7c31614610205578063d13da0bd1461021357600080fd5b80636f4d469b116100f45780636f4d469b1461016657806371cb2ee51461017757806375829def1461018c5780638ca89f771461019a5780638e5ed9c4146101cd57600080fd5b806302d232f4146101315780630c68678c1461014557806339134355146101535780633d0950a814610166578063490022cb14610153575b600080fd5b61014361013f366004610255565b5050565b005b61014361013f366004610277565b6101436101613660046102af565b505050565b61014361017436600461033e565b50565b610143610185366004610479565b5050505050565b6101436101743660046104f3565b6101b06101a8366004610515565b600092915050565b6040516001600160a01b0390911681526020015b60405180910390f35b61014361016136600461056f565b6101436101743660046105c4565b61014361013f3660046105e0565b61014361016136600461060d565b6101436101613660046106c9565b61022b610221366004610719565b6000949350505050565b6040519081526020016101c4565b61022b6101a8366004610785565b6101436101743660046107cc565b6000806040838503121561026857600080fd5b50508035926020909101359150565b60008082840360e081121561028b57600080fd5b8335925060c0601f19820112156102a157600080fd5b506020830190509250929050565b6000806000606084860312156102c457600080fd5b505081359360208301359350604090920135919050565b634e487b7160e01b600052604160045260246000fd5b604051601f8201601f1916810167ffffffffffffffff8111828210171561031a5761031a6102db565b604052919050565b80356001600160a01b038116811461033957600080fd5b919050565b6000602080838503121561035157600080fd5b823567ffffffffffffffff8082111561036957600080fd5b818501915085601f83011261037d57600080fd5b81358181111561038f5761038f6102db565b8060051b91506103a08483016102f1565b81815291830184019184810190888411156103ba57600080fd5b938501935b838510156103df576103d085610322565b825293850193908501906103bf565b98975050505050505050565b60008083601f8401126103fd57600080fd5b50813567ffffffffffffffff81111561041557600080fd5b60208301915083602082850101111561042d57600080fd5b9250929050565b60008083601f84011261044657600080fd5b50813567ffffffffffffffff81111561045e57600080fd5b6020830191508360208260051b850101111561042d57600080fd5b60008060008060006060868803121561049157600080fd5b85359450602086013567ffffffffffffffff808211156104b057600080fd5b6104bc89838a016103eb565b909650945060408801359150808211156104d557600080fd5b506104e288828901610434565b969995985093965092949392505050565b60006020828403121561050557600080fd5b61050e82610322565b9392505050565b6000806020838503121561052857600080fd5b823567ffffffffffffffff81111561053f57600080fd5b61054b858286016103eb565b90969095509350505050565b60006080828403121561056957600080fd5b50919050565b600080600060a0848603121561058457600080fd5b833567ffffffffffffffff81111561059b57600080fd5b6105a786828701610434565b90945092506105bb90508560208601610557565b90509250925092565b6000608082840312156105d657600080fd5b61050e8383610557565b60008060a083850312156105f357600080fd5b823591506106048460208501610557565b90509250929050565b60008060006040848603121561062257600080fd5b83359250602084013567ffffffffffffffff81111561064057600080fd5b61064c86828701610434565b9497909650939450505050565b600082601f83011261066a57600080fd5b813567ffffffffffffffff811115610684576106846102db565b610697601f8201601f19166020016102f1565b8181528460208386010111156106ac57600080fd5b816020850160208301376000918101602001919091529392505050565b6000806000606084860312156106de57600080fd5b8335925060208401359150604084013567ffffffffffffffff81111561070357600080fd5b61070f86828701610659565b9150509250925092565b6000806000806040858703121561072f57600080fd5b843567ffffffffffffffff8082111561074757600080fd5b610753888389016103eb565b9096509450602087013591508082111561076c57600080fd5b5061077987828801610434565b95989497509550505050565b6000806040838503121561079857600080fd5b82359150602083013567ffffffffffffffff8111156107b657600080fd5b6107c285828601610659565b9150509250929050565b6000602082840312156107de57600080fd5b503591905056fea2646970667358221220528cb1a05916f27d8e8af789ed754f1bb3666a6a278f84408e49e50bc7864cc964736f6c63430008180033",
        "nonce": "0x89",
        "chainId": "0x4268"
      },
      "additionalContracts": [],
      "isFixedGasLimit": false
    },
    {
      "hash": "0xf08d676d221ff9bb319c442d82dcc919547306f267b433990884d09bc5ec918b",
      "transactionType": "CALL",
      "contractName": null,
      "contractAddress": "0xf16a47a7aacf0aa2af16b467887faa7376b04df4",
      "function": "upgradeFacade(address)",
      "arguments": [
        "0x72a50377acC27baAECD86E1FF28fBa8113e42e30"
      ],
      "transaction": {
        "from": "0xff9179199903a10283e19d86de8c09f2718073da",
        "to": "0xf16a47a7aacf0aa2af16b467887faa7376b04df4",
        "gas": "0xa27e",
        "value": "0x0",
        "input": "0x651dc03d00000000000000000000000072a50377acc27baaecd86e1ff28fba8113e42e30",
        "nonce": "0x8a",
        "chainId": "0x4268"
      },
      "additionalContracts": [],
      "isFixedGasLimit": false
    }
  ],
  "receipts": [
    {
      "status": "0x1",
      "cumulativeGasUsed": "0x961b92",
      "logs": [],
      "logsBloom": "0x00000000000000000000000000000000000000000000000000000000000000000000000000000000000000000000000000000000000000000000000000000000000000000000000000000000000000000000000000000000000000000000000000000000000000000000000000000000000000000000000000000000000000000000000000000000000000000000000000000000000000000000000000000000000000000000000000000000000000000000000000000000000000000000000000000000000000000000000000000000000000000000000000000000000000000000000000000000000000000000000000000000000000000000000000000000",
      "type": "0x2",
      "transactionHash": "0xb2dde90019c25ed68178d468c43ee2980cc3ad0a267e0cc7b8d542d09573a443",
      "transactionIndex": "0x30",
      "blockHash": "0xa8e7cc84475b5c709c60ef5a21ee3999d35fbae30cbb3d18d7dddf012e4a3946",
      "blockNumber": "0x1fe6cc",
      "gasUsed": "0xd173b",
      "effectiveGasPrice": "0xb7cf",
      "from": "0xff9179199903a10283e19d86de8c09f2718073da",
      "to": null,
      "contractAddress": "0x060f3310a21c6b3bdfc5df2e94796aba198ccd7f"
    },
    {
      "status": "0x1",
      "cumulativeGasUsed": "0x974efd",
      "logs": [
        {
          "address": "0xf16a47a7aacf0aa2af16b467887faa7376b04df4",
          "topics": [
            "0xbe533f538959a17d76f1b09e966e741ee3b1183099682f96216c93d21feaecba"
          ],
          "data": "0x62f725ff00000000000000000000000000000000000000000000000000000000",
          "blockHash": "0xa8e7cc84475b5c709c60ef5a21ee3999d35fbae30cbb3d18d7dddf012e4a3946",
          "blockNumber": "0x1fe6cc",
          "transactionHash": "0xfab09e843cca388f9d3aaa1bc5554e999d96731d3929291eed84f72737271c2e",
          "transactionIndex": "0x31",
          "logIndex": "0x40",
          "removed": false
        },
        {
          "address": "0xf16a47a7aacf0aa2af16b467887faa7376b04df4",
          "topics": [
            "0xda3c8142b3c1d27633026f55bfcb4eeb0b5b8db0daa0a3e10c2213a441722ad1"
          ],
          "data": "0x62f725ff00000000000000000000000000000000000000000000000000000000000000000000000000000000060f3310a21c6b3bdfc5df2e94796aba198ccd7f",
          "blockHash": "0xa8e7cc84475b5c709c60ef5a21ee3999d35fbae30cbb3d18d7dddf012e4a3946",
          "blockNumber": "0x1fe6cc",
          "transactionHash": "0xfab09e843cca388f9d3aaa1bc5554e999d96731d3929291eed84f72737271c2e",
          "transactionIndex": "0x31",
          "logIndex": "0x41",
          "removed": false
        }
      ],
      "logsBloom": "0x00000000000000000000000000000000000000000000000000000000000000080000000000000000000000000000000000000000000000000000000000000000000000000000000000000000000000000000000000000000000000000000000000000000000000000000200000000000000000000000000010000000000000000000000000000000000000000000100000000000000000000000000000000000000000000000000000004000080000000000000000000000000000000000000000000000000000000000000000000000000000080000000000080000000000000000100000000000000000000000000000000000000000000000000000000000",
      "type": "0x2",
      "transactionHash": "0xfab09e843cca388f9d3aaa1bc5554e999d96731d3929291eed84f72737271c2e",
      "transactionIndex": "0x31",
      "blockHash": "0xa8e7cc84475b5c709c60ef5a21ee3999d35fbae30cbb3d18d7dddf012e4a3946",
      "blockNumber": "0x1fe6cc",
      "gasUsed": "0x1336b",
      "effectiveGasPrice": "0xb7cf",
      "from": "0xff9179199903a10283e19d86de8c09f2718073da",
      "to": "0xf16a47a7aacf0aa2af16b467887faa7376b04df4",
      "contractAddress": null
    },
    {
      "status": "0x1",
      "cumulativeGasUsed": "0x9884ca",
      "logs": [
        {
          "address": "0xf16a47a7aacf0aa2af16b467887faa7376b04df4",
          "topics": [
            "0xbe533f538959a17d76f1b09e966e741ee3b1183099682f96216c93d21feaecba"
          ],
          "data": "0x3e0b8fa400000000000000000000000000000000000000000000000000000000",
          "blockHash": "0xa8e7cc84475b5c709c60ef5a21ee3999d35fbae30cbb3d18d7dddf012e4a3946",
          "blockNumber": "0x1fe6cc",
          "transactionHash": "0x90b9b4e306a112e15277b4cff2f3a205bba1fdfbff6b5fc58b830928af578ecc",
          "transactionIndex": "0x32",
          "logIndex": "0x42",
          "removed": false
        },
        {
          "address": "0xf16a47a7aacf0aa2af16b467887faa7376b04df4",
          "topics": [
            "0xda3c8142b3c1d27633026f55bfcb4eeb0b5b8db0daa0a3e10c2213a441722ad1"
          ],
          "data": "0x3e0b8fa400000000000000000000000000000000000000000000000000000000000000000000000000000000060f3310a21c6b3bdfc5df2e94796aba198ccd7f",
          "blockHash": "0xa8e7cc84475b5c709c60ef5a21ee3999d35fbae30cbb3d18d7dddf012e4a3946",
          "blockNumber": "0x1fe6cc",
          "transactionHash": "0x90b9b4e306a112e15277b4cff2f3a205bba1fdfbff6b5fc58b830928af578ecc",
          "transactionIndex": "0x32",
          "logIndex": "0x43",
          "removed": false
        }
      ],
      "logsBloom": "0x00000000000000000000000000000000000000000000000000000000000000080000000000000000000000000000000000000000000000000000000000000000000000000000000000000000000000000000000000000000000000000000000000000000000000000000200000000000000000000000000010000000000000000000000000000000000000000000100000000000000000000000000000000000000000000000000000004000080000000000000000000000000000000000000000000000000000000000000000000000000000080000000000080000000000000000100000000000000000000000000000000000000000000000000000000000",
      "type": "0x2",
      "transactionHash": "0x90b9b4e306a112e15277b4cff2f3a205bba1fdfbff6b5fc58b830928af578ecc",
      "transactionIndex": "0x32",
      "blockHash": "0xa8e7cc84475b5c709c60ef5a21ee3999d35fbae30cbb3d18d7dddf012e4a3946",
      "blockNumber": "0x1fe6cc",
      "gasUsed": "0x135cd",
      "effectiveGasPrice": "0xb7cf",
      "from": "0xff9179199903a10283e19d86de8c09f2718073da",
      "to": "0xf16a47a7aacf0aa2af16b467887faa7376b04df4",
      "contractAddress": null
    },
    {
      "status": "0x1",
      "cumulativeGasUsed": "0x99bcf9",
      "logs": [
        {
          "address": "0xf16a47a7aacf0aa2af16b467887faa7376b04df4",
          "topics": [
            "0xbe533f538959a17d76f1b09e966e741ee3b1183099682f96216c93d21feaecba"
          ],
          "data": "0x5cb2384c00000000000000000000000000000000000000000000000000000000",
          "blockHash": "0xa8e7cc84475b5c709c60ef5a21ee3999d35fbae30cbb3d18d7dddf012e4a3946",
          "blockNumber": "0x1fe6cc",
          "transactionHash": "0xe07cb21227ee8c8fe0e160a49f416acf59c34648b92de85ca377d937d0362412",
          "transactionIndex": "0x33",
          "logIndex": "0x44",
          "removed": false
        },
        {
          "address": "0xf16a47a7aacf0aa2af16b467887faa7376b04df4",
          "topics": [
            "0xda3c8142b3c1d27633026f55bfcb4eeb0b5b8db0daa0a3e10c2213a441722ad1"
          ],
          "data": "0x5cb2384c00000000000000000000000000000000000000000000000000000000000000000000000000000000060f3310a21c6b3bdfc5df2e94796aba198ccd7f",
          "blockHash": "0xa8e7cc84475b5c709c60ef5a21ee3999d35fbae30cbb3d18d7dddf012e4a3946",
          "blockNumber": "0x1fe6cc",
          "transactionHash": "0xe07cb21227ee8c8fe0e160a49f416acf59c34648b92de85ca377d937d0362412",
          "transactionIndex": "0x33",
          "logIndex": "0x45",
          "removed": false
        }
      ],
      "logsBloom": "0x00000000000000000000000000000000000000000000000000000000000000080000000000000000000000000000000000000000000000000000000000000000000000000000000000000000000000000000000000000000000000000000000000000000000000000000200000000000000000000000000010000000000000000000000000000000000000000000100000000000000000000000000000000000000000000000000000004000080000000000000000000000000000000000000000000000000000000000000000000000000000080000000000080000000000000000100000000000000000000000000000000000000000000000000000000000",
      "type": "0x2",
      "transactionHash": "0xe07cb21227ee8c8fe0e160a49f416acf59c34648b92de85ca377d937d0362412",
      "transactionIndex": "0x33",
      "blockHash": "0xa8e7cc84475b5c709c60ef5a21ee3999d35fbae30cbb3d18d7dddf012e4a3946",
      "blockNumber": "0x1fe6cc",
      "gasUsed": "0x1382f",
      "effectiveGasPrice": "0xb7cf",
      "from": "0xff9179199903a10283e19d86de8c09f2718073da",
      "to": "0xf16a47a7aacf0aa2af16b467887faa7376b04df4",
      "contractAddress": null
    },
    {
      "status": "0x1",
      "cumulativeGasUsed": "0x9b41f4",
      "logs": [
        {
          "address": "0xf16a47a7aacf0aa2af16b467887faa7376b04df4",
          "topics": [
            "0xbe533f538959a17d76f1b09e966e741ee3b1183099682f96216c93d21feaecba"
          ],
          "data": "0x41ee2a8200000000000000000000000000000000000000000000000000000000",
          "blockHash": "0xa8e7cc84475b5c709c60ef5a21ee3999d35fbae30cbb3d18d7dddf012e4a3946",
          "blockNumber": "0x1fe6cc",
          "transactionHash": "0x67f838e7ae2af83ccf75a9e4a54230a3f638c80801d19576555742036eb172c7",
          "transactionIndex": "0x34",
          "logIndex": "0x46",
          "removed": false
        },
        {
          "address": "0xf16a47a7aacf0aa2af16b467887faa7376b04df4",
          "topics": [
            "0xda3c8142b3c1d27633026f55bfcb4eeb0b5b8db0daa0a3e10c2213a441722ad1"
          ],
          "data": "0x41ee2a8200000000000000000000000000000000000000000000000000000000000000000000000000000000060f3310a21c6b3bdfc5df2e94796aba198ccd7f",
          "blockHash": "0xa8e7cc84475b5c709c60ef5a21ee3999d35fbae30cbb3d18d7dddf012e4a3946",
          "blockNumber": "0x1fe6cc",
          "transactionHash": "0x67f838e7ae2af83ccf75a9e4a54230a3f638c80801d19576555742036eb172c7",
          "transactionIndex": "0x34",
          "logIndex": "0x47",
          "removed": false
        }
      ],
      "logsBloom": "0x00000000000000000000000000000000000000000000000000000000000000080000000000000000000000000000000000000000000000000000000000000000000000000000000000000000000000000000000000000000000000000000000000000000000000000000200000000000000000000000000010000000000000000000000000000000000000000000100000000000000000000000000000000000000000000000000000004000080000000000000000000000000000000000000000000000000000000000000000000000000000080000000000080000000000000000100000000000000000000000000000000000000000000000000000000000",
      "type": "0x2",
      "transactionHash": "0x67f838e7ae2af83ccf75a9e4a54230a3f638c80801d19576555742036eb172c7",
      "transactionIndex": "0x34",
      "blockHash": "0xa8e7cc84475b5c709c60ef5a21ee3999d35fbae30cbb3d18d7dddf012e4a3946",
      "blockNumber": "0x1fe6cc",
      "gasUsed": "0x184fb",
      "effectiveGasPrice": "0xb7cf",
      "from": "0xff9179199903a10283e19d86de8c09f2718073da",
      "to": "0xf16a47a7aacf0aa2af16b467887faa7376b04df4",
      "contractAddress": null
    },
    {
      "status": "0x1",
      "cumulativeGasUsed": "0xa2e7e9",
      "logs": [],
      "logsBloom": "0x00000000000000000000000000000000000000000000000000000000000000000000000000000000000000000000000000000000000000000000000000000000000000000000000000000000000000000000000000000000000000000000000000000000000000000000000000000000000000000000000000000000000000000000000000000000000000000000000000000000000000000000000000000000000000000000000000000000000000000000000000000000000000000000000000000000000000000000000000000000000000000000000000000000000000000000000000000000000000000000000000000000000000000000000000000000",
      "type": "0x2",
      "transactionHash": "0x098d51f3351f135a50e23d0fe6571f85bf28b5c30005479958342cf20e33d84b",
      "transactionIndex": "0x35",
      "blockHash": "0xa8e7cc84475b5c709c60ef5a21ee3999d35fbae30cbb3d18d7dddf012e4a3946",
      "blockNumber": "0x1fe6cc",
      "gasUsed": "0x7a5f5",
      "effectiveGasPrice": "0xb7cf",
      "from": "0xff9179199903a10283e19d86de8c09f2718073da",
      "to": null,
      "contractAddress": "0x72a50377acc27baaecd86e1ff28fba8113e42e30"
    },
    {
      "status": "0x1",
      "cumulativeGasUsed": "0xa35d8e",
      "logs": [
        {
          "address": "0xf16a47a7aacf0aa2af16b467887faa7376b04df4",
          "topics": [
            "0x159f10d3da077d18f228d52be447d552e7d1892d10f7af8f615658160e374729"
          ],
          "data": "0x00000000000000000000000072a50377acc27baaecd86e1ff28fba8113e42e30",
          "blockHash": "0xa8e7cc84475b5c709c60ef5a21ee3999d35fbae30cbb3d18d7dddf012e4a3946",
          "blockNumber": "0x1fe6cc",
          "transactionHash": "0xf08d676d221ff9bb319c442d82dcc919547306f267b433990884d09bc5ec918b",
          "transactionIndex": "0x36",
          "logIndex": "0x48",
          "removed": false
        }
      ],
      "logsBloom": "0x00000000000000080000000000000000000000000000000000000000000000000000000000000000000000000200000000000000000000000000000000000000000000000000000000000000000000000000000000000000000000000000000000000000000000000000000000000000000000000000000000000000000000000000000000000000000000000000000000000000000000000000000000000000000000000000000000000000000000000000000000000000000000000000000000000000000000000000000000000000000000080000000000080000000000000000100000000000000000000010000000000000000000000000000000000000",
      "type": "0x2",
      "transactionHash": "0xf08d676d221ff9bb319c442d82dcc919547306f267b433990884d09bc5ec918b",
      "transactionIndex": "0x36",
      "blockHash": "0xa8e7cc84475b5c709c60ef5a21ee3999d35fbae30cbb3d18d7dddf012e4a3946",
      "blockNumber": "0x1fe6cc",
      "gasUsed": "0x75a5",
      "effectiveGasPrice": "0xb7cf",
      "from": "0xff9179199903a10283e19d86de8c09f2718073da",
      "to": "0xf16a47a7aacf0aa2af16b467887faa7376b04df4",
      "contractAddress": null
    }
  ],
  "libraries": [],
  "pending": [],
  "returns": {},
  "timestamp": 1723098772,
  "chain": 17000,
  "commit": "71a457e"
}