{
  "transactions": [
    {
      "hash": "0xedeece59ab0a67555c4a3764f45db9aaef3045f8c8e173f93f5baaddf3197970",
      "transactionType": "CREATE",
      "contractName": "OnlyAdminCheats",
      "contractAddress": "0xeeffd683197b500dc034d6b65f1b38bc94a345e3",
      "function": null,
      "arguments": null,
      "transaction": {
        "from": "0xff9179199903a10283e19d86de8c09f2718073da",
        "gas": "0x189bbd",
        "value": "0x0",
        "input": "0x608060405234801561001057600080fd5b5061157a806100206000396000f3fe608060405234801561001057600080fd5b50600436106100625760003560e01c80636f4d469b1461006757806375829def1461007c57806388273fd01461008f578063932c30b5146100df5780639c54df64146100f2578063ed82e47114610105575b600080fd5b61007a6100753660046110c2565b610118565b005b61007a61008a366004611187565b610237565b61007a61009d366004611187565b6000805160206115258339815191528054600181018255600091825260209091200180546001600160a01b0319166001600160a01b0392909216919091179055565b61007a6100ed3660046111a2565b61035f565b61007a6101003660046110c2565b610489565b61007a6101133660046111ba565b610584565b6000805b6000805160206115258339815191525481101561018057600080516020611525833981519152805482908110610154576101546111d3565b6000918252602090912001546001600160a01b031633036101785760019150610180565b60010161011c565b50806101a75760405162461bcd60e51b815260040161019e906111e9565b60405180910390fd5b60005b82518110156102325761022960405180604001604052808584815181106101d3576101d36111d3565b60200260200101516001600160a01b03168152602001604051806020016040528060008152508152506102237f8972abadfc8727f472fb0b6beb8d30155bd57415f49dc6c94e9cecdec0ed920090565b906107f4565b506001016101aa565b505050565b6000805b6000805160206115258339815191525481101561029f57600080516020611525833981519152805482908110610273576102736111d3565b6000918252602090912001546001600160a01b03163303610297576001915061029f565b60010161023b565b50806102bd5760405162461bcd60e51b815260040161019e906111e9565b60007f8972abadfc8727f472fb0b6beb8d30155bd57415f49dc6c94e9cecdec0ed920080546000906102f1576102f16111d3565b6000918252602082206002919091020180546001600160a01b0319166001600160a01b0386161781556040519092507f357ac66405b24ee07965d221cbbb70cf07818df65bf681957c2e97a78320882191610352918690600186019061124c565b60405180910390a1505050565b6000805b600080516020611525833981519152548110156103c75760008051602061152583398151915280548290811061039b5761039b6111d3565b6000918252602090912001546001600160a01b031633036103bf57600191506103c7565b600101610363565b50806103e55760405162461bcd60e51b815260040161019e906111e9565b81357f51e64ee84f491aad402ff73401b25fa2058a87e9d027403050c951c19bbb780190815560208301357f51e64ee84f491aad402ff73401b25fa2058a87e9d027403050c951c19bbb78025560408301357f51e64ee84f491aad402ff73401b25fa2058a87e9d027403050c951c19bbb78035560608301357f51e64ee84f491aad402ff73401b25fa2058a87e9d027403050c951c19bbb78045582905b50505050565b6000805b600080516020611525833981519152548110156104f1576000805160206115258339815191528054829081106104c5576104c56111d3565b6000918252602090912001546001600160a01b031633036104e957600191506104f1565b60010161048d565b508061050f5760405162461bcd60e51b815260040161019e906111e9565b60005b82518110156102325760008051602061152583398151915260000183828151811061053f5761053f6111d3565b60209081029190910181015182546001808201855560009485529290932090920180546001600160a01b0319166001600160a01b039093169290921790915501610512565b6000805b600080516020611525833981519152548110156105ec576000805160206115258339815191528054829081106105c0576105c06111d3565b6000918252602090912001546001600160a01b031633036105e457600191506105ec565b600101610588565b508061060a5760405162461bcd60e51b815260040161019e906111e9565b60006106367f51e64ee84f491aad402ff73401b25fa2058a87e9d027403050c951c19bbb7800846108b8565b905060008061064483610907565b91509150600061065383610e4c565b9050600061066083610e4c565b905081516000148061067157508051155b8061067d575060018251115b80610689575060018151115b15610710577f51e64ee84f491aad402ff73401b25fa2058a87e9d027403050c951c19bbb7801546008860180546000906106c4908490611309565b909155505060088501546040517fae21bbcc2c6a4a78d5c4ef7f9e1981a07bf3d3e17834b89ef22e24d81396d97691610703918a918691869190611358565b60405180910390a16107eb565b61073d82600081518110610726576107266111d3565b602002602001015186610fb590919063ffffffff16565b61076a81600081518110610753576107536111d3565b602002602001015186610feb90919063ffffffff16565b7f22d7ff694ee2b21efdc8f0620ce8981ffe587da1939f9bafed3686101b070e70878360008151811061079f5761079f6111d3565b6020026020010151836000815181106107ba576107ba6111d3565b60200260200101516040516107e2939291909283526020830191909152604082015260600190565b60405180910390a15b50505050505050565b6000807f8972abadfc8727f472fb0b6beb8d30155bd57415f49dc6c94e9cecdec0ed92005484546001808201875560008781526020808220885160029095020180546001600160a01b0319166001600160a01b039095169490941784558701519394509286929182019061086890826113e5565b50855160208701516040519294507f479e555f6c2b410f9bea0faf0392342851e2103c9c7a9b61f8f087b47331d0eb93506108a692869291906114a5565b60405180910390a19150505b92915050565b815460009082106108dc5760405163635e873760e01b815260040160405180910390fd5b8260000182815481106108f1576108f16111d3565b90600052602060002090600d0201905092915050565b8054606090819067ffffffffffffffff81111561092657610926611090565b60405190808252806020026020018201604052801561094f578160200160208202803683370190505b50600184015490925067ffffffffffffffff81111561097057610970611090565b604051908082528060200260200182016040528015610999578160200160208202803683370190505b50905060005b6002840154811015610e465760008460020160010160008660020160000184815481106109ce576109ce6111d3565b60009182526020808320909101546001600160a01b031683528201929092526040908101909120815160a08101835291829081018260038282826020028201915b815481526020019060010190808311610a0f5750505091835250506040805160608101918290526020909201919060038481019182845b815481526020019060010190808311610a46575050509190925250508151805160208201516040909201518851949550909391925090610a868482611078565b610ac2576040518481527fd40e423db79bb42cc61a6a79d4af5b9ce09e66f1738cb4bbb4bbb9fe373367da9060200160405180910390a1610aee565b6003888581518110610ad657610ad66111d3565b60200260200101818151610aea9190611309565b9052505b610af88382611078565b610b35576040518381527fd40e423db79bb42cc61a6a79d4af5b9ce09e66f1738cb4bbb4bbb9fe373367da906020015b60405180910390a1610b98565b838303610b6c576040518381527f273e8bda82f2832d14b80b1a1167e3a7b6e1c9c4a987db544a51abf0f45d986690602001610b28565b6002888481518110610b8057610b806111d3565b60200260200101818151610b949190611309565b9052505b610ba28282611078565b610bdf576040518281527fd40e423db79bb42cc61a6a79d4af5b9ce09e66f1738cb4bbb4bbb9fe373367da906020015b60405180910390a1610c4d565b83821480610bec57508282145b15610c21576040518281527f273e8bda82f2832d14b80b1a1167e3a7b6e1c9c4a987db544a51abf0f45d986690602001610bd2565b6001888381518110610c3557610c356111d3565b60200260200101818151610c499190611309565b9052505b6020858101518051918101516040909101518a51610c6b8482611078565b610ca7576040518481527fe44f8c75311d127aeb3cf702cf02a0b55ecae2d1f1962d9922f5683d51803eff9060200160405180910390a1610cd3565b60038b8581518110610cbb57610cbb6111d3565b60200260200101818151610ccf9190611309565b9052505b610cdd8382611078565b610d1a576040518381527fe44f8c75311d127aeb3cf702cf02a0b55ecae2d1f1962d9922f5683d51803eff906020015b60405180910390a1610d7d565b838303610d51576040518381527f90451f73e96f4399935aa9624a2512e9f3d028c95195cbe957a0376f2f15bda490602001610d0d565b60028b8481518110610d6557610d656111d3565b60200260200101818151610d799190611309565b9052505b610d878282611078565b610dc4576040518281527fe44f8c75311d127aeb3cf702cf02a0b55ecae2d1f1962d9922f5683d51803eff906020015b60405180910390a1610e32565b83821480610dd157508282145b15610e06576040518281527f90451f73e96f4399935aa9624a2512e9f3d028c95195cbe957a0376f2f15bda490602001610db7565b60018b8381518110610e1a57610e1a6111d3565b60200260200101818151610e2e9190611309565b9052505b50505050505050505080600101905061099f565b50915091565b606060008060005b8451811015610ee65782858281518110610e7057610e706111d3565b60200260200101511115610ea357848181518110610e9057610e906111d3565b6020026020010151925060019150610ede565b82858281518110610eb657610eb66111d3565b6020026020010151148015610ecb5750600083115b15610ede5781610eda8161150b565b9250505b600101610e54565b5081600003610f0657505060408051600081526020810190915292915050565b8067ffffffffffffffff811115610f1f57610f1f611090565b604051908082528060200260200182016040528015610f48578160200160208202803683370190505b5092506000805b8551811015610fac5783868281518110610f6b57610f6b6111d3565b602002602001015103610fa45780858381518110610f8b57610f8b6111d3565b602090810291909101015281610fa08161150b565b9250505b600101610f4f565b50505050919050565b801580610fc3575081548110155b15610fe35760405162c6600760e41b81526004810182905260240161019e565b600490910155565b801580610ffc575060018201548110155b1561101d57604051638bef08f560e01b81526004810182905260240161019e565b60058201819055600182018054600091908390811061103e5761103e6111d3565b6000918252602082200191505b81548110156104835760008181526006850160205260409020805460ff191660019081179091550161104b565b600082600010801561108957508183105b9392505050565b634e487b7160e01b600052604160045260246000fd5b80356001600160a01b03811681146110bd57600080fd5b919050565b600060208083850312156110d557600080fd5b823567ffffffffffffffff808211156110ed57600080fd5b818501915085601f83011261110157600080fd5b81358181111561111357611113611090565b8060051b604051601f19603f8301168101818110858211171561113857611138611090565b60405291825284820192508381018501918883111561115657600080fd5b938501935b8285101561117b5761116c856110a6565b8452938501939285019261115b565b98975050505050505050565b60006020828403121561119957600080fd5b611089826110a6565b6000608082840312156111b457600080fd5b50919050565b6000602082840312156111cc57600080fd5b5035919050565b634e487b7160e01b600052603260045260246000fd5b6020808252601590820152742cb7ba9030b932903737ba103a34329030b236b4b760591b604082015260600190565b600181811c9082168061122c57607f821691505b6020821081036111b457634e487b7160e01b600052602260045260246000fd5b8381526000602060018060a01b0385166020840152606060408401526000845461127581611218565b806060870152608060018084166000811461129757600181146112b3576112e3565b60ff19851660808a0152608084151560051b8a010195506112e3565b89600052602060002060005b858110156112da5781548b82018601529083019088016112bf565b8a016080019650505b50939a9950505050505050505050565b634e487b7160e01b600052601160045260246000fd5b808201808211156108b2576108b26112f3565b60008151808452602080850194506020840160005b8381101561134d57815187529582019590820190600101611331565b509495945050505050565b848152608060208201526000611371608083018661131c565b8281036040840152611383818661131c565b91505082606083015295945050505050565b601f821115610232576000816000526020600020601f850160051c810160208610156113be5750805b601f850160051c820191505b818110156113dd578281556001016113ca565b505050505050565b815167ffffffffffffffff8111156113ff576113ff611090565b6114138161140d8454611218565b84611395565b602080601f83116001811461144857600084156114305750858301515b600019600386901b1c1916600185901b1785556113dd565b600085815260208120601f198616915b8281101561147757888601518255948401946001909101908401611458565b50858210156114955787850151600019600388901b60f8161c191681555b5050505050600190811b01905550565b8381526000602060018060a01b038516602084015260606040840152835180606085015260005b818110156114e8578581018301518582016080015282016114cc565b506000608082860101526080601f19601f83011685010192505050949350505050565b60006001820161151d5761151d6112f3565b506001019056fe387f08a4d0e0130a3ca98fab372b91a0ab6b963ffc2d7347ad12a532b88a0500a2646970667358221220c3381b6893b92cbbc197e400f439be12b9abfa2380abd142db12c7f012cb321c64736f6c63430008180033",
        "nonce": "0x4a",
        "chainId": "0x4268"
      },
      "additionalContracts": [],
      "isFixedGasLimit": false
    },
    {
      "hash": "0x8136a23d44a6156018c572a5e2f2e45ed2bdf50ba85254b5acab98310a3c445d",
      "transactionType": "CALL",
      "contractName": null,
      "contractAddress": "0xf16a47a7aacf0aa2af16b467887faa7376b04df4",
      "function": "setImplementation(bytes4,address)",
      "arguments": [
        "0x9c54df6400000000000000000000000000000000000000000000000000000000",
        "0xeEffD683197b500DC034D6B65f1b38Bc94a345e3"
      ],
      "transaction": {
        "from": "0xff9179199903a10283e19d86de8c09f2718073da",
        "to": "0xf16a47a7aacf0aa2af16b467887faa7376b04df4",
        "gas": "0x1a18c",
        "value": "0x0",
        "input": "0x0815f6fd9c54df6400000000000000000000000000000000000000000000000000000000000000000000000000000000eeffd683197b500dc034d6b65f1b38bc94a345e3",
        "nonce": "0x4b",
        "chainId": "0x4268"
      },
      "additionalContracts": [],
      "isFixedGasLimit": false
    },
    {
      "hash": "0xa99a830d2cdde464cb8d17dca4305379fea872870d242775e5ed1df28dd03a5c",
      "transactionType": "CALL",
      "contractName": null,
      "contractAddress": "0xf16a47a7aacf0aa2af16b467887faa7376b04df4",
      "function": "setImplementation(bytes4,address)",
      "arguments": [
        "0x88273fd000000000000000000000000000000000000000000000000000000000",
        "0xeEffD683197b500DC034D6B65f1b38Bc94a345e3"
      ],
      "transaction": {
        "from": "0xff9179199903a10283e19d86de8c09f2718073da",
        "to": "0xf16a47a7aacf0aa2af16b467887faa7376b04df4",
        "gas": "0x1f46c",
        "value": "0x0",
        "input": "0x0815f6fd88273fd000000000000000000000000000000000000000000000000000000000000000000000000000000000eeffd683197b500dc034d6b65f1b38bc94a345e3",
        "nonce": "0x4c",
        "chainId": "0x4268"
      },
      "additionalContracts": [],
      "isFixedGasLimit": false
    },
    {
      "hash": "0x322cd34c7892303e923c229503392e62d8cb4474b14de72644978a6b92bba3d6",
      "transactionType": "CALL",
      "contractName": null,
      "contractAddress": "0x7f5acc2e4e2b5330497a76836dfed766929d70d7",
      "function": "forceAddAdmin(address)",
      "arguments": [
        "0xFf9179199903A10283e19D86DE8C09F2718073DA"
      ],
      "transaction": {
        "from": "0xff9179199903a10283e19d86de8c09f2718073da",
        "to": "0x7f5acc2e4e2b5330497a76836dfed766929d70d7",
        "gas": "0x19d8c",
        "value": "0x0",
        "input": "0x88273fd0000000000000000000000000ff9179199903a10283e19d86de8c09f2718073da",
        "nonce": "0x4d",
        "chainId": "0x4268"
      },
      "additionalContracts": [],
      "isFixedGasLimit": false
    },
    {
      "hash": "0x59686c40ee6326dfd4bdcfb33beca36b9b1a6f2f572dc822fc2b8e57ed21200c",
      "transactionType": "CALL",
      "contractName": null,
      "contractAddress": "0x7f5acc2e4e2b5330497a76836dfed766929d70d7",
      "function": "forceAddAdmin(address)",
      "arguments": [
        "0x82911187eAA5230f6831A301bE88ef55158f4625"
      ],
      "transaction": {
        "from": "0xff9179199903a10283e19d86de8c09f2718073da",
        "to": "0x7f5acc2e4e2b5330497a76836dfed766929d70d7",
        "gas": "0x1542f",
        "value": "0x0",
        "input": "0x88273fd000000000000000000000000082911187eaa5230f6831a301be88ef55158f4625",
        "nonce": "0x4e",
        "chainId": "0x4268"
      },
      "additionalContracts": [],
      "isFixedGasLimit": false
    },
    {
      "hash": "0x58eaef39b2cfb8ad3e5be73e71a27a06f370c6ba11831df2b7dc7294e6e058b7",
      "transactionType": "CALL",
      "contractName": null,
      "contractAddress": "0xf16a47a7aacf0aa2af16b467887faa7376b04df4",
      "function": "setImplementation(bytes4,address)",
      "arguments": [
        "0x6f4d469b00000000000000000000000000000000000000000000000000000000",
        "0xeEffD683197b500DC034D6B65f1b38Bc94a345e3"
      ],
      "transaction": {
        "from": "0xff9179199903a10283e19d86de8c09f2718073da",
        "to": "0xf16a47a7aacf0aa2af16b467887faa7376b04df4",
        "gas": "0xfc23",
        "value": "0x0",
        "input": "0x0815f6fd6f4d469b00000000000000000000000000000000000000000000000000000000000000000000000000000000eeffd683197b500dc034d6b65f1b38bc94a345e3",
        "nonce": "0x4f",
        "chainId": "0x4268"
      },
      "additionalContracts": [],
      "isFixedGasLimit": false
    },
    {
      "hash": "0xe1292ae34246f57ceecd2fa2d02649669a057b2560f9b663255835dfddbb6de8",
      "transactionType": "CALL",
      "contractName": null,
      "contractAddress": "0xf16a47a7aacf0aa2af16b467887faa7376b04df4",
      "function": "setImplementation(bytes4,address)",
      "arguments": [
        "0x932c30b500000000000000000000000000000000000000000000000000000000",
        "0xeEffD683197b500DC034D6B65f1b38Bc94a345e3"
      ],
      "transaction": {
        "from": "0xff9179199903a10283e19d86de8c09f2718073da",
        "to": "0xf16a47a7aacf0aa2af16b467887faa7376b04df4",
        "gas": "0xff6e",
        "value": "0x0",
        "input": "0x0815f6fd932c30b500000000000000000000000000000000000000000000000000000000000000000000000000000000eeffd683197b500dc034d6b65f1b38bc94a345e3",
        "nonce": "0x50",
        "chainId": "0x4268"
      },
      "additionalContracts": [],
      "isFixedGasLimit": false
    },
    {
      "hash": "0x8197d61a154e4ccd951d8fa3bb195b12e2f873e84e93facff61b953d58433441",
      "transactionType": "CALL",
      "contractName": null,
      "contractAddress": "0xf16a47a7aacf0aa2af16b467887faa7376b04df4",
      "function": "setImplementation(bytes4,address)",
      "arguments": [
        "0x75829def00000000000000000000000000000000000000000000000000000000",
        "0xeEffD683197b500DC034D6B65f1b38Bc94a345e3"
      ],
      "transaction": {
        "from": "0xff9179199903a10283e19d86de8c09f2718073da",
        "to": "0xf16a47a7aacf0aa2af16b467887faa7376b04df4",
        "gas": "0x102b9",
        "value": "0x0",
        "input": "0x0815f6fd75829def00000000000000000000000000000000000000000000000000000000000000000000000000000000eeffd683197b500dc034d6b65f1b38bc94a345e3",
        "nonce": "0x51",
        "chainId": "0x4268"
      },
      "additionalContracts": [],
      "isFixedGasLimit": false
    },
    {
      "hash": "0x0110a4196a6c77b0f40a8e55cc7a1b5124e94fa862154e8765eb291835bebb89",
      "transactionType": "CALL",
      "contractName": null,
      "contractAddress": "0xf16a47a7aacf0aa2af16b467887faa7376b04df4",
      "function": "setImplementation(bytes4,address)",
      "arguments": [
        "0xed82e47100000000000000000000000000000000000000000000000000000000",
        "0xeEffD683197b500DC034D6B65f1b38Bc94a345e3"
      ],
      "transaction": {
        "from": "0xff9179199903a10283e19d86de8c09f2718073da",
        "to": "0xf16a47a7aacf0aa2af16b467887faa7376b04df4",
        "gas": "0x1156d",
        "value": "0x0",
        "input": "0x0815f6fded82e47100000000000000000000000000000000000000000000000000000000000000000000000000000000eeffd683197b500dc034d6b65f1b38bc94a345e3",
        "nonce": "0x52",
        "chainId": "0x4268"
      },
      "additionalContracts": [],
      "isFixedGasLimit": false
    },
    {
      "hash": "0x7bd72ddc22c7f983a2a98d23b675115ae20951e80e2ce4b429aace55fffb0fe5",
      "transactionType": "CREATE",
      "contractName": "TextDAOWithCheatsFacade",
      "contractAddress": "0x6ccb4a69f2f03c801d1cb7b49464af5e1244d802",
      "function": null,
      "arguments": null,
      "transaction": {
        "from": "0xff9179199903a10283e19d86de8c09f2718073da",
        "gas": "0x94039",
        "value": "0x0",
        "input": "0x608060405234801561001057600080fd5b5061077a806100206000396000f3fe608060405234801561001057600080fd5b50600436106101005760003560e01c8063932c30b511610097578063d5c8d4f111610066578063d5c8d4f1146101f1578063ed82e471146101ff578063ed8b6b31146101ff578063fe0d94c1146101ff57600080fd5b8063932c30b5146101a1578063abf50890146101af578063d0f7c316146101bd578063d13da0bd146101cb57600080fd5b806371cb2ee5116100d357806371cb2ee51461013857806375829def1461014d5780638ca89f771461015b5780638e5ed9c41461018e57600080fd5b806302d232f4146101055780630c68678c146101195780633d0950a8146101275780636f4d469b14610127575b600080fd5b61011761011336600461020d565b5050565b005b61011761011336600461022f565b6101176101353660046102ca565b50565b610117610146366004610405565b5050505050565b61011761013536600461047f565b6101716101693660046104a1565b600092915050565b6040516001600160a01b0390911681526020015b60405180910390f35b61011761019c3660046104fb565b505050565b610117610135366004610550565b61011761019c36600461056c565b61011761019c366004610628565b6101e36101d9366004610678565b6000949350505050565b604051908152602001610185565b6101e36101693660046106e4565b61011761013536600461072b565b6000806040838503121561022057600080fd5b50508035926020909101359150565b60008082840360e081121561024357600080fd5b8335925060c0601f198201121561025957600080fd5b506020830190509250929050565b634e487b7160e01b600052604160045260246000fd5b604051601f8201601f1916810167ffffffffffffffff811182821017156102a6576102a6610267565b604052919050565b80356001600160a01b03811681146102c557600080fd5b919050565b600060208083850312156102dd57600080fd5b823567ffffffffffffffff808211156102f557600080fd5b818501915085601f83011261030957600080fd5b81358181111561031b5761031b610267565b8060051b915061032c84830161027d565b818152918301840191848101908884111561034657600080fd5b938501935b8385101561036b5761035c856102ae565b8252938501939085019061034b565b98975050505050505050565b60008083601f84011261038957600080fd5b50813567ffffffffffffffff8111156103a157600080fd5b6020830191508360208285010111156103b957600080fd5b9250929050565b60008083601f8401126103d257600080fd5b50813567ffffffffffffffff8111156103ea57600080fd5b6020830191508360208260051b85010111156103b957600080fd5b60008060008060006060868803121561041d57600080fd5b85359450602086013567ffffffffffffffff8082111561043c57600080fd5b61044889838a01610377565b9096509450604088013591508082111561046157600080fd5b5061046e888289016103c0565b969995985093965092949392505050565b60006020828403121561049157600080fd5b61049a826102ae565b9392505050565b600080602083850312156104b457600080fd5b823567ffffffffffffffff8111156104cb57600080fd5b6104d785828601610377565b90969095509350505050565b6000608082840312156104f557600080fd5b50919050565b600080600060a0848603121561051057600080fd5b833567ffffffffffffffff81111561052757600080fd5b610533868287016103c0565b9094509250610547905085602086016104e3565b90509250925092565b60006080828403121561056257600080fd5b61049a83836104e3565b60008060006040848603121561058157600080fd5b83359250602084013567ffffffffffffffff81111561059f57600080fd5b6105ab868287016103c0565b9497909650939450505050565b600082601f8301126105c957600080fd5b813567ffffffffffffffff8111156105e3576105e3610267565b6105f6601f8201601f191660200161027d565b81815284602083860101111561060b57600080fd5b816020850160208301376000918101602001919091529392505050565b60008060006060848603121561063d57600080fd5b8335925060208401359150604084013567ffffffffffffffff81111561066257600080fd5b61066e868287016105b8565b9150509250925092565b6000806000806040858703121561068e57600080fd5b843567ffffffffffffffff808211156106a657600080fd5b6106b288838901610377565b909650945060208701359150808211156106cb57600080fd5b506106d8878288016103c0565b95989497509550505050565b600080604083850312156106f757600080fd5b82359150602083013567ffffffffffffffff81111561071557600080fd5b610721858286016105b8565b9150509250929050565b60006020828403121561073d57600080fd5b503591905056fea2646970667358221220fa3319f09f10928662b2cf6048e96916d939f62f1018ea0fd608879802cdd1c564736f6c63430008180033",
        "nonce": "0x53",
        "chainId": "0x4268"
      },
      "additionalContracts": [],
      "isFixedGasLimit": false
    },
    {
      "hash": "0x875d16ccb81e59ceefec28d6fdfbb4ecd0e69d6a8c56b58c2797c2ae00e479aa",
      "transactionType": "CALL",
      "contractName": null,
      "contractAddress": "0xf16a47a7aacf0aa2af16b467887faa7376b04df4",
      "function": "upgradeFacade(address)",
      "arguments": [
        "0x6cCB4A69f2f03c801d1CB7b49464aF5e1244D802"
      ],
      "transaction": {
        "from": "0xff9179199903a10283e19d86de8c09f2718073da",
        "to": "0xf16a47a7aacf0aa2af16b467887faa7376b04df4",
        "gas": "0xa27e",
        "value": "0x0",
        "input": "0x651dc03d0000000000000000000000006ccb4a69f2f03c801d1cb7b49464af5e1244d802",
        "nonce": "0x54",
        "chainId": "0x4268"
      },
      "additionalContracts": [],
      "isFixedGasLimit": false
    }
  ],
  "receipts": [
    {
      "status": "0x1",
      "cumulativeGasUsed": "0x3dfc21",
      "logs": [],
      "logsBloom": "0x00000000000000000000000000000000000000000000000000000000000000000000000000000000000000000000000000000000000000000000000000000000000000000000000000000000000000000000000000000000000000000000000000000000000000000000000000000000000000000000000000000000000000000000000000000000000000000000000000000000000000000000000000000000000000000000000000000000000000000000000000000000000000000000000000000000000000000000000000000000000000000000000000000000000000000000000000000000000000000000000000000000000000000000000000000000",
      "type": "0x2",
      "transactionHash": "0xedeece59ab0a67555c4a3764f45db9aaef3045f8c8e173f93f5baaddf3197970",
      "transactionIndex": "0x9",
      "blockHash": "0xd69b559c7aa2fae71557a69d430d74e0cc308974deebcdf4ae16ddafca7237cf",
      "blockNumber": "0x1eec5f",
      "gasUsed": "0x12ef4e",
      "effectiveGasPrice": "0x26e97dbb",
      "from": "0xff9179199903a10283e19d86de8c09f2718073da",
      "to": null,
      "contractAddress": "0xeeffd683197b500dc034d6b65f1b38bc94a345e3"
    },
    {
      "status": "0x1",
      "cumulativeGasUsed": "0x3f19a2",
      "logs": [
        {
          "address": "0xf16a47a7aacf0aa2af16b467887faa7376b04df4",
          "topics": [
            "0xbe533f538959a17d76f1b09e966e741ee3b1183099682f96216c93d21feaecba"
          ],
          "data": "0x9c54df6400000000000000000000000000000000000000000000000000000000",
          "blockHash": "0xd69b559c7aa2fae71557a69d430d74e0cc308974deebcdf4ae16ddafca7237cf",
          "blockNumber": "0x1eec5f",
          "transactionHash": "0x8136a23d44a6156018c572a5e2f2e45ed2bdf50ba85254b5acab98310a3c445d",
          "transactionIndex": "0xa",
          "logIndex": "0xf",
          "removed": false
        },
        {
          "address": "0xf16a47a7aacf0aa2af16b467887faa7376b04df4",
          "topics": [
            "0xda3c8142b3c1d27633026f55bfcb4eeb0b5b8db0daa0a3e10c2213a441722ad1"
          ],
          "data": "0x9c54df6400000000000000000000000000000000000000000000000000000000000000000000000000000000eeffd683197b500dc034d6b65f1b38bc94a345e3",
          "blockHash": "0xd69b559c7aa2fae71557a69d430d74e0cc308974deebcdf4ae16ddafca7237cf",
          "blockNumber": "0x1eec5f",
          "transactionHash": "0x8136a23d44a6156018c572a5e2f2e45ed2bdf50ba85254b5acab98310a3c445d",
          "transactionIndex": "0xa",
          "logIndex": "0x10",
          "removed": false
        }
      ],
      "logsBloom": "0x00000000000000000000000000000000000000000000000000000000000000080000000000000000000000000000000000000000000000000000000000000000000000000000000000000000000000000000000000000000000000000000000000000000000000000000200000000000000000000000000010000000000000000000000000000000000000000000100000000000000000000000000000000000000000000000000000004000080000000000000000000000000000000000000000000000000000000000000000000000000000080000000000080000000000000000100000000000000000000000000000000000000000000000000000000000",
      "type": "0x2",
      "transactionHash": "0x8136a23d44a6156018c572a5e2f2e45ed2bdf50ba85254b5acab98310a3c445d",
      "transactionIndex": "0xa",
      "blockHash": "0xd69b559c7aa2fae71557a69d430d74e0cc308974deebcdf4ae16ddafca7237cf",
      "blockNumber": "0x1eec5f",
      "gasUsed": "0x11d81",
      "effectiveGasPrice": "0x26e97dbb",
      "from": "0xff9179199903a10283e19d86de8c09f2718073da",
      "to": "0xf16a47a7aacf0aa2af16b467887faa7376b04df4",
      "contractAddress": null
    },
    {
      "status": "0x1",
      "cumulativeGasUsed": "0x4083ef",
      "logs": [
        {
          "address": "0xf16a47a7aacf0aa2af16b467887faa7376b04df4",
          "topics": [
            "0xbe533f538959a17d76f1b09e966e741ee3b1183099682f96216c93d21feaecba"
          ],
          "data": "0x88273fd000000000000000000000000000000000000000000000000000000000",
          "blockHash": "0xd69b559c7aa2fae71557a69d430d74e0cc308974deebcdf4ae16ddafca7237cf",
          "blockNumber": "0x1eec5f",
          "transactionHash": "0xa99a830d2cdde464cb8d17dca4305379fea872870d242775e5ed1df28dd03a5c",
          "transactionIndex": "0xb",
          "logIndex": "0x11",
          "removed": false
        },
        {
          "address": "0xf16a47a7aacf0aa2af16b467887faa7376b04df4",
          "topics": [
            "0xda3c8142b3c1d27633026f55bfcb4eeb0b5b8db0daa0a3e10c2213a441722ad1"
          ],
          "data": "0x88273fd000000000000000000000000000000000000000000000000000000000000000000000000000000000eeffd683197b500dc034d6b65f1b38bc94a345e3",
          "blockHash": "0xd69b559c7aa2fae71557a69d430d74e0cc308974deebcdf4ae16ddafca7237cf",
          "blockNumber": "0x1eec5f",
          "transactionHash": "0xa99a830d2cdde464cb8d17dca4305379fea872870d242775e5ed1df28dd03a5c",
          "transactionIndex": "0xb",
          "logIndex": "0x12",
          "removed": false
        }
      ],
      "logsBloom": "0x00000000000000000000000000000000000000000000000000000000000000080000000000000000000000000000000000000000000000000000000000000000000000000000000000000000000000000000000000000000000000000000000000000000000000000000200000000000000000000000000010000000000000000000000000000000000000000000100000000000000000000000000000000000000000000000000000004000080000000000000000000000000000000000000000000000000000000000000000000000000000080000000000080000000000000000100000000000000000000000000000000000000000000000000000000000",
      "type": "0x2",
      "transactionHash": "0xa99a830d2cdde464cb8d17dca4305379fea872870d242775e5ed1df28dd03a5c",
      "transactionIndex": "0xb",
      "blockHash": "0xd69b559c7aa2fae71557a69d430d74e0cc308974deebcdf4ae16ddafca7237cf",
      "blockNumber": "0x1eec5f",
      "gasUsed": "0x16a4d",
      "effectiveGasPrice": "0x26e97dbb",
      "from": "0xff9179199903a10283e19d86de8c09f2718073da",
      "to": "0xf16a47a7aacf0aa2af16b467887faa7376b04df4",
      "contractAddress": null
    },
    {
      "status": "0x1",
      "cumulativeGasUsed": "0x41af56",
      "logs": [],
      "logsBloom": "0x00000000000000000000000000000000000000000000000000000000000000000000000000000000000000000000000000000000000000000000000000000000000000000000000000000000000000000000000000000000000000000000000000000000000000000000000000000000000000000000000000000000000000000000000000000000000000000000000000000000000000000000000000000000000000000000000000000000000000000000000000000000000000000000000000000000000000000000000000000000000000000000000000000000000000000000000000000000000000000000000000000000000000000000000000000000",
      "type": "0x2",
      "transactionHash": "0x322cd34c7892303e923c229503392e62d8cb4474b14de72644978a6b92bba3d6",
      "transactionIndex": "0xc",
      "blockHash": "0xd69b559c7aa2fae71557a69d430d74e0cc308974deebcdf4ae16ddafca7237cf",
      "blockNumber": "0x1eec5f",
      "gasUsed": "0x12b67",
      "effectiveGasPrice": "0x26e97dbb",
      "from": "0xff9179199903a10283e19d86de8c09f2718073da",
      "to": "0x7f5acc2e4e2b5330497a76836dfed766929d70d7",
      "contractAddress": null
    },
    {
      "status": "0x1",
      "cumulativeGasUsed": "0x4297f1",
      "logs": [],
      "logsBloom": "0x00000000000000000000000000000000000000000000000000000000000000000000000000000000000000000000000000000000000000000000000000000000000000000000000000000000000000000000000000000000000000000000000000000000000000000000000000000000000000000000000000000000000000000000000000000000000000000000000000000000000000000000000000000000000000000000000000000000000000000000000000000000000000000000000000000000000000000000000000000000000000000000000000000000000000000000000000000000000000000000000000000000000000000000000000000000",
      "type": "0x2",
      "transactionHash": "0x59686c40ee6326dfd4bdcfb33beca36b9b1a6f2f572dc822fc2b8e57ed21200c",
      "transactionIndex": "0xd",
      "blockHash": "0xd69b559c7aa2fae71557a69d430d74e0cc308974deebcdf4ae16ddafca7237cf",
      "blockNumber": "0x1eec5f",
      "gasUsed": "0xe89b",
      "effectiveGasPrice": "0x26e97dbb",
      "from": "0xff9179199903a10283e19d86de8c09f2718073da",
      "to": "0x7f5acc2e4e2b5330497a76836dfed766929d70d7",
      "contractAddress": null
    },
    {
      "status": "0x1",
      "cumulativeGasUsed": "0x434e7d",
      "logs": [
        {
          "address": "0xf16a47a7aacf0aa2af16b467887faa7376b04df4",
          "topics": [
            "0xda3c8142b3c1d27633026f55bfcb4eeb0b5b8db0daa0a3e10c2213a441722ad1"
          ],
          "data": "0x6f4d469b00000000000000000000000000000000000000000000000000000000000000000000000000000000eeffd683197b500dc034d6b65f1b38bc94a345e3",
          "blockHash": "0xd69b559c7aa2fae71557a69d430d74e0cc308974deebcdf4ae16ddafca7237cf",
          "blockNumber": "0x1eec5f",
          "transactionHash": "0x58eaef39b2cfb8ad3e5be73e71a27a06f370c6ba11831df2b7dc7294e6e058b7",
          "transactionIndex": "0xe",
          "logIndex": "0x13",
          "removed": false
        }
      ],
      "logsBloom": "0x00000000000000000000000000000000000000000000000000000000000000080000000000000000000000000000000000000000000000000000000000000000000000000000000000000000000000000000000000000000000000000000000000000000000000000000000000000000000000000000000010000000000000000000000000000000000000000000100000000000000000000000000000000000000000000000000000000000000000000000000000000000000000000000000000000000000000000000000000000000000000080000000000080000000000000000100000000000000000000000000000000000000000000000000000000000",
      "type": "0x2",
      "transactionHash": "0x58eaef39b2cfb8ad3e5be73e71a27a06f370c6ba11831df2b7dc7294e6e058b7",
      "transactionIndex": "0xe",
      "blockHash": "0xd69b559c7aa2fae71557a69d430d74e0cc308974deebcdf4ae16ddafca7237cf",
      "blockNumber": "0x1eec5f",
      "gasUsed": "0xb68c",
      "effectiveGasPrice": "0x26e97dbb",
      "from": "0xff9179199903a10283e19d86de8c09f2718073da",
      "to": "0xf16a47a7aacf0aa2af16b467887faa7376b04df4",
      "contractAddress": null
    },
    {
      "status": "0x1",
      "cumulativeGasUsed": "0x13b94a",
      "logs": [
        {
          "address": "0xf16a47a7aacf0aa2af16b467887faa7376b04df4",
          "topics": [
            "0xda3c8142b3c1d27633026f55bfcb4eeb0b5b8db0daa0a3e10c2213a441722ad1"
          ],
          "data": "0x932c30b500000000000000000000000000000000000000000000000000000000000000000000000000000000eeffd683197b500dc034d6b65f1b38bc94a345e3",
          "blockHash": "0x8c47b72261a8fd857b151df78582f62bc7bea5a4557a5a408a6eb3ce51f844ab",
          "blockNumber": "0x1eec60",
          "transactionHash": "0xe1292ae34246f57ceecd2fa2d02649669a057b2560f9b663255835dfddbb6de8",
          "transactionIndex": "0xb",
          "logIndex": "0x14",
          "removed": false
        }
      ],
      "logsBloom": "0x00000000000000000000000000000000000000000000000000000000000000080000000000000000000000000000000000000000000000000000000000000000000000000000000000000000000000000000000000000000000000000000000000000000000000000000000000000000000000000000000010000000000000000000000000000000000000000000100000000000000000000000000000000000000000000000000000000000000000000000000000000000000000000000000000000000000000000000000000000000000000080000000000080000000000000000100000000000000000000000000000000000000000000000000000000000",
      "type": "0x2",
      "transactionHash": "0xe1292ae34246f57ceecd2fa2d02649669a057b2560f9b663255835dfddbb6de8",
      "transactionIndex": "0xb",
      "blockHash": "0x8c47b72261a8fd857b151df78582f62bc7bea5a4557a5a408a6eb3ce51f844ab",
      "blockNumber": "0x1eec60",
      "gasUsed": "0xb8ee",
      "effectiveGasPrice": "0x26e97dbb",
      "from": "0xff9179199903a10283e19d86de8c09f2718073da",
      "to": "0xf16a47a7aacf0aa2af16b467887faa7376b04df4",
      "contractAddress": null
    },
    {
      "status": "0x1",
      "cumulativeGasUsed": "0x14749a",
      "logs": [
        {
          "address": "0xf16a47a7aacf0aa2af16b467887faa7376b04df4",
          "topics": [
            "0xda3c8142b3c1d27633026f55bfcb4eeb0b5b8db0daa0a3e10c2213a441722ad1"
          ],
          "data": "0x75829def00000000000000000000000000000000000000000000000000000000000000000000000000000000eeffd683197b500dc034d6b65f1b38bc94a345e3",
          "blockHash": "0x8c47b72261a8fd857b151df78582f62bc7bea5a4557a5a408a6eb3ce51f844ab",
          "blockNumber": "0x1eec60",
          "transactionHash": "0x8197d61a154e4ccd951d8fa3bb195b12e2f873e84e93facff61b953d58433441",
          "transactionIndex": "0xc",
          "logIndex": "0x15",
          "removed": false
        }
      ],
      "logsBloom": "0x00000000000000000000000000000000000000000000000000000000000000080000000000000000000000000000000000000000000000000000000000000000000000000000000000000000000000000000000000000000000000000000000000000000000000000000000000000000000000000000000010000000000000000000000000000000000000000000100000000000000000000000000000000000000000000000000000000000000000000000000000000000000000000000000000000000000000000000000000000000000000080000000000080000000000000000100000000000000000000000000000000000000000000000000000000000",
      "type": "0x2",
      "transactionHash": "0x8197d61a154e4ccd951d8fa3bb195b12e2f873e84e93facff61b953d58433441",
      "transactionIndex": "0xc",
      "blockHash": "0x8c47b72261a8fd857b151df78582f62bc7bea5a4557a5a408a6eb3ce51f844ab",
      "blockNumber": "0x1eec60",
      "gasUsed": "0xbb50",
      "effectiveGasPrice": "0x26e97dbb",
      "from": "0xff9179199903a10283e19d86de8c09f2718073da",
      "to": "0xf16a47a7aacf0aa2af16b467887faa7376b04df4",
      "contractAddress": null
    },
    {
      "status": "0x1",
      "cumulativeGasUsed": "0x15324c",
      "logs": [
        {
          "address": "0xf16a47a7aacf0aa2af16b467887faa7376b04df4",
          "topics": [
            "0xda3c8142b3c1d27633026f55bfcb4eeb0b5b8db0daa0a3e10c2213a441722ad1"
          ],
          "data": "0xed82e47100000000000000000000000000000000000000000000000000000000000000000000000000000000eeffd683197b500dc034d6b65f1b38bc94a345e3",
          "blockHash": "0x8c47b72261a8fd857b151df78582f62bc7bea5a4557a5a408a6eb3ce51f844ab",
          "blockNumber": "0x1eec60",
          "transactionHash": "0x0110a4196a6c77b0f40a8e55cc7a1b5124e94fa862154e8765eb291835bebb89",
          "transactionIndex": "0xd",
          "logIndex": "0x16",
          "removed": false
        }
      ],
      "logsBloom": "0x00000000000000000000000000000000000000000000000000000000000000080000000000000000000000000000000000000000000000000000000000000000000000000000000000000000000000000000000000000000000000000000000000000000000000000000000000000000000000000000000010000000000000000000000000000000000000000000100000000000000000000000000000000000000000000000000000000000000000000000000000000000000000000000000000000000000000000000000000000000000000080000000000080000000000000000100000000000000000000000000000000000000000000000000000000000",
      "type": "0x2",
      "transactionHash": "0x0110a4196a6c77b0f40a8e55cc7a1b5124e94fa862154e8765eb291835bebb89",
      "transactionIndex": "0xd",
      "blockHash": "0x8c47b72261a8fd857b151df78582f62bc7bea5a4557a5a408a6eb3ce51f844ab",
      "blockNumber": "0x1eec60",
      "gasUsed": "0xbdb2",
      "effectiveGasPrice": "0x26e97dbb",
      "from": "0xff9179199903a10283e19d86de8c09f2718073da",
      "to": "0xf16a47a7aacf0aa2af16b467887faa7376b04df4",
      "contractAddress": null
    },
    {
      "status": "0x1",
      "cumulativeGasUsed": "0x1c507c",
      "logs": [],
      "logsBloom": "0x00000000000000000000000000000000000000000000000000000000000000000000000000000000000000000000000000000000000000000000000000000000000000000000000000000000000000000000000000000000000000000000000000000000000000000000000000000000000000000000000000000000000000000000000000000000000000000000000000000000000000000000000000000000000000000000000000000000000000000000000000000000000000000000000000000000000000000000000000000000000000000000000000000000000000000000000000000000000000000000000000000000000000000000000000000000",
      "type": "0x2",
      "transactionHash": "0x7bd72ddc22c7f983a2a98d23b675115ae20951e80e2ce4b429aace55fffb0fe5",
      "transactionIndex": "0xe",
      "blockHash": "0x8c47b72261a8fd857b151df78582f62bc7bea5a4557a5a408a6eb3ce51f844ab",
      "blockNumber": "0x1eec60",
      "gasUsed": "0x71e30",
      "effectiveGasPrice": "0x26e97dbb",
      "from": "0xff9179199903a10283e19d86de8c09f2718073da",
      "to": null,
      "contractAddress": "0x6ccb4a69f2f03c801d1cb7b49464af5e1244d802"
    },
    {
      "status": "0x1",
      "cumulativeGasUsed": "0x1cc621",
      "logs": [
        {
          "address": "0xf16a47a7aacf0aa2af16b467887faa7376b04df4",
          "topics": [
            "0x159f10d3da077d18f228d52be447d552e7d1892d10f7af8f615658160e374729"
          ],
          "data": "0x0000000000000000000000006ccb4a69f2f03c801d1cb7b49464af5e1244d802",
          "blockHash": "0x8c47b72261a8fd857b151df78582f62bc7bea5a4557a5a408a6eb3ce51f844ab",
          "blockNumber": "0x1eec60",
          "transactionHash": "0x875d16ccb81e59ceefec28d6fdfbb4ecd0e69d6a8c56b58c2797c2ae00e479aa",
          "transactionIndex": "0xf",
          "logIndex": "0x17",
          "removed": false
        }
      ],
      "logsBloom": "0x00000000000000080000000000000000000000000000000000000000000000000000000000000000000000000200000000000000000000000000000000000000000000000000000000000000000000000000000000000000000000000000000000000000000000000000000000000000000000000000000000000000000000000000000000000000000000000000000000000000000000000000000000000000000000000000000000000000000000000000000000000000000000000000000000000000000000000000000000000000000000080000000000080000000000000000100000000000000000000010000000000000000000000000000000000000",
      "type": "0x2",
      "transactionHash": "0x875d16ccb81e59ceefec28d6fdfbb4ecd0e69d6a8c56b58c2797c2ae00e479aa",
      "transactionIndex": "0xf",
      "blockHash": "0x8c47b72261a8fd857b151df78582f62bc7bea5a4557a5a408a6eb3ce51f844ab",
      "blockNumber": "0x1eec60",
      "gasUsed": "0x75a5",
      "effectiveGasPrice": "0x26e97dbb",
      "from": "0xff9179199903a10283e19d86de8c09f2718073da",
      "to": "0xf16a47a7aacf0aa2af16b467887faa7376b04df4",
      "contractAddress": null
    }
  ],
  "libraries": [],
  "pending": [],
  "returns": {},
  "timestamp": 1722268278,
  "chain": 17000,
  "commit": "4186f6a"
}