{
  "transactions": [
    {
      "hash": "0xdfea1365b521e5a980ae9d1ebdbefe8a5545a7cda3f8fc1864d4b401711df426",
      "transactionType": "CALL",
      "contractName": null,
      "contractAddress": "0x7f5acc2e4e2b5330497a76836dfed766929d70d7",
      "function": "addMembers(address[])",
      "arguments": [
        "[0x78F5852E1DA3e82658f5f9B1fE6b67F5573090A1]"
      ],
      "transaction": {
        "from": "0xff9179199903a10283e19d86de8c09f2718073da",
        "to": "0x7f5acc2e4e2b5330497a76836dfed766929d70d7",
        "gas": "0x16d54",
        "value": "0x0",
        "input": "0x6f4d469b0000000000000000000000000000000000000000000000000000000000000020000000000000000000000000000000000000000000000000000000000000000100000000000000000000000078f5852e1da3e82658f5f9b1fe6b67f5573090a1",
        "nonce": "0x42",
        "chainId": "0x4268"
      },
      "additionalContracts": [],
      "isFixedGasLimit": false
    },
    {
      "hash": "0x5b7497b20eaf009aa27df19881aa2a50922d1717b6af31f818c58820f6ea9cbc",
      "transactionType": "CALL",
      "contractName": null,
      "contractAddress": "0x7f5acc2e4e2b5330497a76836dfed766929d70d7",
      "function": "propose(string,(string,bytes)[])",
      "arguments": [
        "\"QmS2gdi4CRx4bXeaZgchp9SNs3B5oFaxjyDEVYTcdcfgzE\"",
        "[]"
      ],
      "transaction": {
        "from": "0xff9179199903a10283e19d86de8c09f2718073da",
        "to": "0x7f5acc2e4e2b5330497a76836dfed766929d70d7",
        "gas": "0x6d17f",
        "value": "0x0",
        "input": "0xd13da0bd000000000000000000000000000000000000000000000000000000000000004000000000000000000000000000000000000000000000000000000000000000a0000000000000000000000000000000000000000000000000000000000000002e516d53326764693443527834625865615a6763687039534e733342356f4661786a79444556595463646366677a450000000000000000000000000000000000000000000000000000000000000000000000000000000000000000000000000000",
        "nonce": "0x43",
        "chainId": "0x4268"
      },
      "additionalContracts": [],
      "isFixedGasLimit": false
    },
    {
      "hash": "0x58f07c9e7e96acc2213ec5a0f1ba0fd40433e1a6f4bd53b898d5cc4bd6e08848",
      "transactionType": "CALL",
      "contractName": null,
      "contractAddress": "0x7f5acc2e4e2b5330497a76836dfed766929d70d7",
      "function": "fork(uint256,string,(string,bytes)[])",
      "arguments": [
        "0",
        "\"Qmeo92GcxD6mamU5YbTiWAYJJRGrk8phUwcM4tMENLsBsC\"",
        "[(\"createText(uint256,string)\", 0x00000000000000000000000000000000000000000000000000000000000000000000000000000000000000000000000000000000000000000000000000000040000000000000000000000000000000000000000000000000000000000000002e516d51454a335444457747315053684a753150326677355735417032416d50694c6d6133424a4a32786b546d6657000000000000000000000000000000000000), (\"memberJoin(uint256,(address,string)[])\", 0x00000000000000000000000000000000000000000000000000000000000000000000000000000000000000000000000000000000000000000000000000000040000000000000000000000000000000000000000000000000000000000000000100000000000000000000000000000000000000000000000000000000000000200000000000000000000000005b73c5498c1e3b4dba84de0f1833c4a029d905190000000000000000000000000000000000000000000000000000000000000040000000000000000000000000000000000000000000000000000000000000002e516d634c66566f4a387769393573796d56505a54764b697a6a517356374246635442524c784c3870727a464a7253000000000000000000000000000000000000)]"
      ],
      "transaction": {
        "from": "0xff9179199903a10283e19d86de8c09f2718073da",
        "to": "0x7f5acc2e4e2b5330497a76836dfed766929d70d7",
        "gas": "0xcbb8d",
        "value": "0x0",
        "input": "0x71cb2ee50000000000000000000000000000000000000000000000000000000000000000000000000000000000000000000000000000000000000000000000000000006000000000000000000000000000000000000000000000000000000000000000c0000000000000000000000000000000000000000000000000000000000000002e516d656f393247637844366d616d5535596254695741594a4a5247726b3870685577634d34744d454e4c7342734300000000000000000000000000000000000000000000000000000000000000000000000000000000000000000000000000020000000000000000000000000000000000000000000000000000000000000040000000000000000000000000000000000000000000000000000000000000018000000000000000000000000000000000000000000000000000000000000000400000000000000000000000000000000000000000000000000000000000000080000000000000000000000000000000000000000000000000000000000000001a637265617465546578742875696e743235362c737472696e672900000000000000000000000000000000000000000000000000000000000000000000000000a000000000000000000000000000000000000000000000000000000000000000000000000000000000000000000000000000000000000000000000000000000040000000000000000000000000000000000000000000000000000000000000002e516d51454a335444457747315053684a753150326677355735417032416d50694c6d6133424a4a32786b546d6657000000000000000000000000000000000000000000000000000000000000000000000000000000000000000000000000004000000000000000000000000000000000000000000000000000000000000000a000000000000000000000000000000000000000000000000000000000000000266d656d6265724a6f696e2875696e743235362c28616464726573732c737472696e67295b5d290000000000000000000000000000000000000000000000000000000000000000000000000000000000000000000000000000000000000000012000000000000000000000000000000000000000000000000000000000000000000000000000000000000000000000000000000000000000000000000000000040000000000000000000000000000000000000000000000000000000000000000100000000000000000000000000000000000000000000000000000000000000200000000000000000000000005b73c5498c1e3b4dba84de0f1833c4a029d905190000000000000000000000000000000000000000000000000000000000000040000000000000000000000000000000000000000000000000000000000000002e516d634c66566f4a387769393573796d56505a54764b697a6a517356374246635442524c784c3870727a464a7253000000000000000000000000000000000000",
        "nonce": "0x44",
        "chainId": "0x4268"
      },
      "additionalContracts": [],
      "isFixedGasLimit": false
    },
    {
      "hash": "0x8ab97d0f21f5b6f089b1b02843fef0ea4d94190640c9692adc62d958de4a16cb",
      "transactionType": "CALL",
      "contractName": null,
      "contractAddress": "0x7f5acc2e4e2b5330497a76836dfed766929d70d7",
      "function": "vote(uint256,(uint256[3],uint256[3]))",
      "arguments": [
        "0",
        "([1, 2, 0], [1, 0, 0])"
      ],
      "transaction": {
        "from": "0xff9179199903a10283e19d86de8c09f2718073da",
        "to": "0x7f5acc2e4e2b5330497a76836dfed766929d70d7",
        "gas": "0x2a02b",
        "value": "0x0",
        "input": "0x0c68678c0000000000000000000000000000000000000000000000000000000000000000000000000000000000000000000000000000000000000000000000000000000100000000000000000000000000000000000000000000000000000000000000020000000000000000000000000000000000000000000000000000000000000000000000000000000000000000000000000000000000000000000000000000000100000000000000000000000000000000000000000000000000000000000000000000000000000000000000000000000000000000000000000000000000000000",
        "nonce": "0x45",
        "chainId": "0x4268"
      },
      "additionalContracts": [],
      "isFixedGasLimit": false
    },
    {
      "hash": "0xd5d41a2edfd62a141731a0a1a6da14eb9b8266e348d15bf4fc63370aa8b8708f",
      "transactionType": "CALL",
      "contractName": null,
      "contractAddress": "0x7f5acc2e4e2b5330497a76836dfed766929d70d7",
      "function": "vote(uint256,(uint256[3],uint256[3]))",
      "arguments": [
        "0",
        "([2, 1, 0], [1, 0, 0])"
      ],
      "transaction": {
        "from": "0x78f5852e1da3e82658f5f9b1fe6b67f5573090a1",
        "to": "0x7f5acc2e4e2b5330497a76836dfed766929d70d7",
        "gas": "0x2d5eb",
        "value": "0x0",
        "input": "0x0c68678c0000000000000000000000000000000000000000000000000000000000000000000000000000000000000000000000000000000000000000000000000000000200000000000000000000000000000000000000000000000000000000000000010000000000000000000000000000000000000000000000000000000000000000000000000000000000000000000000000000000000000000000000000000000100000000000000000000000000000000000000000000000000000000000000000000000000000000000000000000000000000000000000000000000000000000",
        "nonce": "0x2",
        "chainId": "0x4268"
      },
      "additionalContracts": [],
      "isFixedGasLimit": false
    },
    {
      "hash": "0xec0bffbd1c9ddeb05a84b70750a1227f655a69e1d40563439cdf4ad6d130a2b1",
      "transactionType": "CALL",
      "contractName": null,
      "contractAddress": "0x7f5acc2e4e2b5330497a76836dfed766929d70d7",
      "function": "forceTally(uint256)",
      "arguments": [
        "0"
      ],
      "transaction": {
        "from": "0xff9179199903a10283e19d86de8c09f2718073da",
        "to": "0x7f5acc2e4e2b5330497a76836dfed766929d70d7",
        "gas": "0x218e9",
        "value": "0x0",
        "input": "0xed82e4710000000000000000000000000000000000000000000000000000000000000000",
        "nonce": "0x46",
        "chainId": "0x4268"
      },
      "additionalContracts": [],
      "isFixedGasLimit": false
    },
    {
      "hash": "0xc25edb56216f7606d0bd5d21ec88b853efc926664df30ff29db2b2b58f60f3c4",
      "transactionType": "CALL",
      "contractName": null,
      "contractAddress": "0x7f5acc2e4e2b5330497a76836dfed766929d70d7",
      "function": "vote(uint256,(uint256[3],uint256[3]))",
      "arguments": [
        "0",
        "([1, 2, 0], [1, 0, 0])"
      ],
      "transaction": {
        "from": "0x78f5852e1da3e82658f5f9b1fe6b67f5573090a1",
        "to": "0x7f5acc2e4e2b5330497a76836dfed766929d70d7",
        "gas": "0x189b1",
        "value": "0x0",
        "input": "0x0c68678c0000000000000000000000000000000000000000000000000000000000000000000000000000000000000000000000000000000000000000000000000000000100000000000000000000000000000000000000000000000000000000000000020000000000000000000000000000000000000000000000000000000000000000000000000000000000000000000000000000000000000000000000000000000100000000000000000000000000000000000000000000000000000000000000000000000000000000000000000000000000000000000000000000000000000000",
        "nonce": "0x3",
        "chainId": "0x4268"
      },
      "additionalContracts": [],
      "isFixedGasLimit": false
    },
    {
      "hash": "0x77fbab1e57b474d3a0faca3a201834ec5a90f3c2f3457816bb9d7362d8c6663c",
      "transactionType": "CALL",
      "contractName": null,
      "contractAddress": "0x7f5acc2e4e2b5330497a76836dfed766929d70d7",
      "function": "forceTally(uint256)",
      "arguments": [
        "0"
      ],
      "transaction": {
        "from": "0xff9179199903a10283e19d86de8c09f2718073da",
        "to": "0x7f5acc2e4e2b5330497a76836dfed766929d70d7",
        "gas": "0x3d47e",
        "value": "0x0",
        "input": "0xed82e4710000000000000000000000000000000000000000000000000000000000000000",
        "nonce": "0x47",
        "chainId": "0x4268"
      },
      "additionalContracts": [],
      "isFixedGasLimit": false
    }
  ],
  "receipts": [
    {
      "status": "0x1",
      "cumulativeGasUsed": "0x1bdabd",
      "logs": [
        {
          "address": "0x7f5acc2e4e2b5330497a76836dfed766929d70d7",
          "topics": [
            "0x479e555f6c2b410f9bea0faf0392342851e2103c9c7a9b61f8f087b47331d0eb"
          ],
          "data": "0x000000000000000000000000000000000000000000000000000000000000000100000000000000000000000078f5852e1da3e82658f5f9b1fe6b67f5573090a100000000000000000000000000000000000000000000000000000000000000600000000000000000000000000000000000000000000000000000000000000000",
          "blockHash": "0xe941cbdbbf67abdc407b836db0853cb4a3401f687e01c8d793ccb2708b509d0f",
          "blockNumber": "0x1ecb8f",
          "transactionHash": "0xdfea1365b521e5a980ae9d1ebdbefe8a5545a7cda3f8fc1864d4b401711df426",
          "transactionIndex": "0x9",
          "logIndex": "0xe",
          "removed": false
        }
      ],
      "logsBloom": "0x00000000000000001000000000000000000000000000000100000000000000000000000000000000000000000000000000000000000000000000000000000000000000000000000000000000000000000000000000000000000000000000000000000000000000000000000000000000000000000000000000000000000000000000000000000000000000000000000000000000000000008000000000000000000000000000000000000001000000000000000000000100000000000000000000000000000000000000000000000000000000000000000000000000000000000000000000000000000000000004000000000000000000000000000000000000",
      "type": "0x2",
      "transactionHash": "0xdfea1365b521e5a980ae9d1ebdbefe8a5545a7cda3f8fc1864d4b401711df426",
      "transactionIndex": "0x9",
      "blockHash": "0xe941cbdbbf67abdc407b836db0853cb4a3401f687e01c8d793ccb2708b509d0f",
      "blockNumber": "0x1ecb8f",
      "gasUsed": "0x1087f",
      "effectiveGasPrice": "0x10f0f",
      "from": "0xff9179199903a10283e19d86de8c09f2718073da",
      "to": "0x7f5acc2e4e2b5330497a76836dfed766929d70d7",
      "contractAddress": null
    },
    {
      "status": "0x1",
      "cumulativeGasUsed": "0x16a59e",
      "logs": [
        {
          "address": "0x7f5acc2e4e2b5330497a76836dfed766929d70d7",
          "topics": [
            "0xb22aca7d5ab207801e44135e5fe90f9e709a218f408d841420a027d1883e1646"
          ],
          "data": "0x000000000000000000000000000000000000000000000000000000000000000000000000000000000000000000000000000000000000000000000000000000010000000000000000000000000000000000000000000000000000000000000060000000000000000000000000000000000000000000000000000000000000002e516d53326764693443527834625865615a6763687039534e733342356f4661786a79444556595463646366677a45000000000000000000000000000000000000",
          "blockHash": "0x68600fbf503112177e5e9068e62348498a832ba4336d2c9fc4e031891a3b449e",
          "blockNumber": "0x1ecb90",
          "transactionHash": "0x5b7497b20eaf009aa27df19881aa2a50922d1717b6af31f818c58820f6ea9cbc",
          "transactionIndex": "0x7",
          "logIndex": "0xd",
          "removed": false
        },
        {
          "address": "0x7f5acc2e4e2b5330497a76836dfed766929d70d7",
          "topics": [
            "0xa6c20d3d23e1987f797b7d6df82e3e885eadb06674faf0ae16ab200a87358897"
          ],
          "data": "0x000000000000000000000000000000000000000000000000000000000000000000000000000000000000000000000000000000000000000000000000000000400000000000000000000000000000000000000000000000000000000000000002000000000000000000000000ff9179199903a10283e19d86de8c09f2718073da00000000000000000000000078f5852e1da3e82658f5f9b1fe6b67f5573090a1",
          "blockHash": "0x68600fbf503112177e5e9068e62348498a832ba4336d2c9fc4e031891a3b449e",
          "blockNumber": "0x1ecb90",
          "transactionHash": "0x5b7497b20eaf009aa27df19881aa2a50922d1717b6af31f818c58820f6ea9cbc",
          "transactionIndex": "0x7",
          "logIndex": "0xe",
          "removed": false
        },
        {
          "address": "0x7f5acc2e4e2b5330497a76836dfed766929d70d7",
          "topics": [
            "0xb56e333cd6082a862942820ad6871b5a17d922a7506ff536fc0830784a46b2c6"
          ],
          "data": "0x0000000000000000000000000000000000000000000000000000000000000000000000000000000000000000ff9179199903a10283e19d86de8c09f2718073da0000000000000000000000000000000000000000000000000000000066a60f500000000000000000000000000000000000000000000000000000000066af49d0",
          "blockHash": "0x68600fbf503112177e5e9068e62348498a832ba4336d2c9fc4e031891a3b449e",
          "blockNumber": "0x1ecb90",
          "transactionHash": "0x5b7497b20eaf009aa27df19881aa2a50922d1717b6af31f818c58820f6ea9cbc",
          "transactionIndex": "0x7",
          "logIndex": "0xf",
          "removed": false
        }
      ],
      "logsBloom": "0x00000000000000000000000000000000000000000000000100000000000000000000000000000000000002002000000000000000000000000000000000000000000400000800000000000000000000000000000000000000000000000000000000000000000000000000000000000000000000000000000000000000000000000000000000000000800000000000000000000000000000008000000000000000000020000000000100000000000000000000000000000000000000000000000000000000000000000000000000000000000000000000000000000000000000000000000000000000000004000004004000000000000000000000000000000000",
      "type": "0x2",
      "transactionHash": "0x5b7497b20eaf009aa27df19881aa2a50922d1717b6af31f818c58820f6ea9cbc",
      "transactionIndex": "0x7",
      "blockHash": "0x68600fbf503112177e5e9068e62348498a832ba4336d2c9fc4e031891a3b449e",
      "blockNumber": "0x1ecb90",
      "gasUsed": "0x4a981",
      "effectiveGasPrice": "0x10f0f",
      "from": "0xff9179199903a10283e19d86de8c09f2718073da",
      "to": "0x7f5acc2e4e2b5330497a76836dfed766929d70d7",
      "contractAddress": null
    },
    {
      "status": "0x1",
      "cumulativeGasUsed": "0x1819ef",
      "logs": [
        {
          "address": "0x7f5acc2e4e2b5330497a76836dfed766929d70d7",
          "topics": [
            "0xb22aca7d5ab207801e44135e5fe90f9e709a218f408d841420a027d1883e1646"
          ],
          "data": "0x000000000000000000000000000000000000000000000000000000000000000000000000000000000000000000000000000000000000000000000000000000020000000000000000000000000000000000000000000000000000000000000060000000000000000000000000000000000000000000000000000000000000002e516d656f393247637844366d616d5535596254695741594a4a5247726b3870685577634d34744d454e4c73427343000000000000000000000000000000000000",
          "blockHash": "0xcbddd89bd449da0b02dae213c2b96308bbad12f62296298b6727ed568ded948a",
          "blockNumber": "0x1ecb92",
          "transactionHash": "0x58f07c9e7e96acc2213ec5a0f1ba0fd40433e1a6f4bd53b898d5cc4bd6e08848",
          "transactionIndex": "0x8",
          "logIndex": "0xb",
          "removed": false
        },
        {
          "address": "0x7f5acc2e4e2b5330497a76836dfed766929d70d7",
          "topics": [
            "0x0fdab9c3bcde94f0c1a1165103baf9726e17f93845a1172b7b34c283478e7ed7"
          ],
          "data": "0x00000000000000000000000000000000000000000000000000000000000000000000000000000000000000000000000000000000000000000000000000000001000000000000000000000000000000000000000000000000000000000000006000000000000000000000000000000000000000000000000000000000000000020000000000000000000000000000000000000000000000000000000000000040000000000000000000000000000000000000000000000000000000000000018000000000000000000000000000000000000000000000000000000000000000400000000000000000000000000000000000000000000000000000000000000080000000000000000000000000000000000000000000000000000000000000001a637265617465546578742875696e743235362c737472696e672900000000000000000000000000000000000000000000000000000000000000000000000000a000000000000000000000000000000000000000000000000000000000000000000000000000000000000000000000000000000000000000000000000000000040000000000000000000000000000000000000000000000000000000000000002e516d51454a335444457747315053684a753150326677355735417032416d50694c6d6133424a4a32786b546d6657000000000000000000000000000000000000000000000000000000000000000000000000000000000000000000000000004000000000000000000000000000000000000000000000000000000000000000a000000000000000000000000000000000000000000000000000000000000000266d656d6265724a6f696e2875696e743235362c28616464726573732c737472696e67295b5d290000000000000000000000000000000000000000000000000000000000000000000000000000000000000000000000000000000000000000012000000000000000000000000000000000000000000000000000000000000000000000000000000000000000000000000000000000000000000000000000000040000000000000000000000000000000000000000000000000000000000000000100000000000000000000000000000000000000000000000000000000000000200000000000000000000000005b73c5498c1e3b4dba84de0f1833c4a029d905190000000000000000000000000000000000000000000000000000000000000040000000000000000000000000000000000000000000000000000000000000002e516d634c66566f4a387769393573796d56505a54764b697a6a517356374246635442524c784c3870727a464a7253000000000000000000000000000000000000",
          "blockHash": "0xcbddd89bd449da0b02dae213c2b96308bbad12f62296298b6727ed568ded948a",
          "blockNumber": "0x1ecb92",
          "transactionHash": "0x58f07c9e7e96acc2213ec5a0f1ba0fd40433e1a6f4bd53b898d5cc4bd6e08848",
          "transactionIndex": "0x8",
          "logIndex": "0xc",
          "removed": false
        }
      ],
      "logsBloom": "0x00000000000000000000000000000000000000000000000100000000000000000008000000000000000002000000000000000000000000000000000000000000000400000000000000000000000000000000000000000000000000000000000000000000000000000000000000000000000000000000000000000000000000000000000000000000000000000000000000000000000000008000000000000000000000000000000100000000000000000080000000000000000000000000000000000000000000000000000000000000000000000000000000000000000000000000000000000000000000004004000000000000000000000000000000000000",
      "type": "0x2",
      "transactionHash": "0x58f07c9e7e96acc2213ec5a0f1ba0fd40433e1a6f4bd53b898d5cc4bd6e08848",
      "transactionIndex": "0x8",
      "blockHash": "0xcbddd89bd449da0b02dae213c2b96308bbad12f62296298b6727ed568ded948a",
      "blockNumber": "0x1ecb92",
      "gasUsed": "0x8b4c1",
      "effectiveGasPrice": "0x10f0f",
      "from": "0xff9179199903a10283e19d86de8c09f2718073da",
      "to": "0x7f5acc2e4e2b5330497a76836dfed766929d70d7",
      "contractAddress": null
    },
    {
      "status": "0x1",
      "cumulativeGasUsed": "0x8e6c1",
      "logs": [
        {
          "address": "0x7f5acc2e4e2b5330497a76836dfed766929d70d7",
          "topics": [
            "0x7e0f0fda26edb240992ed8159adabdb6eb6fcc6da10cf38c46e856f484209c73"
          ],
          "data": "0x0000000000000000000000000000000000000000000000000000000000000000000000000000000000000000ff9179199903a10283e19d86de8c09f2718073da000000000000000000000000000000000000000000000000000000000000000100000000000000000000000000000000000000000000000000000000000000020000000000000000000000000000000000000000000000000000000000000000000000000000000000000000000000000000000000000000000000000000000100000000000000000000000000000000000000000000000000000000000000000000000000000000000000000000000000000000000000000000000000000000",
          "blockHash": "0x23bae8d61090aeddb2612320cff5632677634671e6a99915c311c2a0caaf41f0",
          "blockNumber": "0x1ecb93",
          "transactionHash": "0x8ab97d0f21f5b6f089b1b02843fef0ea4d94190640c9692adc62d958de4a16cb",
          "transactionIndex": "0x5",
          "logIndex": "0x7",
          "removed": false
        }
      ],
      "logsBloom": "0x00000000000000000000000000000000000000000000000100000000000000000000000000000000000000000000000000000000000000000000000000000000000000000000000000000000000000000000000000000000000000000000000000000000000000000000000000000000000000000000000000000000000000000000000000000000000000000000000000000000000000008000000008000000000000000000000000000000000000000000000000000000000000000000000010000000000001000000000000000000000000000000000000000000000000000000000000000000000000000004000000000000000000000000000000000000",
      "type": "0x2",
      "transactionHash": "0x8ab97d0f21f5b6f089b1b02843fef0ea4d94190640c9692adc62d958de4a16cb",
      "transactionIndex": "0x5",
      "blockHash": "0x23bae8d61090aeddb2612320cff5632677634671e6a99915c311c2a0caaf41f0",
      "blockNumber": "0x1ecb93",
      "gasUsed": "0x1e6a4",
      "effectiveGasPrice": "0x10f0f",
      "from": "0xff9179199903a10283e19d86de8c09f2718073da",
      "to": "0x7f5acc2e4e2b5330497a76836dfed766929d70d7",
      "contractAddress": null
    },
    {
      "status": "0x1",
      "cumulativeGasUsed": "0x1ad5da",
      "logs": [
        {
          "address": "0x7f5acc2e4e2b5330497a76836dfed766929d70d7",
          "topics": [
            "0x7e0f0fda26edb240992ed8159adabdb6eb6fcc6da10cf38c46e856f484209c73"
          ],
          "data": "0x000000000000000000000000000000000000000000000000000000000000000000000000000000000000000078f5852e1da3e82658f5f9b1fe6b67f5573090a1000000000000000000000000000000000000000000000000000000000000000200000000000000000000000000000000000000000000000000000000000000010000000000000000000000000000000000000000000000000000000000000000000000000000000000000000000000000000000000000000000000000000000100000000000000000000000000000000000000000000000000000000000000000000000000000000000000000000000000000000000000000000000000000000",
          "blockHash": "0x00c0efcd00cdc0a16dcd1718eaf21757cefed3202480a279a3fb11488204b632",
          "blockNumber": "0x1ecb94",
          "transactionHash": "0xd5d41a2edfd62a141731a0a1a6da14eb9b8266e348d15bf4fc63370aa8b8708f",
          "transactionIndex": "0xb",
          "logIndex": "0xb",
          "removed": false
        }
      ],
      "logsBloom": "0x00000000000000000000000000000000000000000000000100000000000000000000000000000000000000000000000000000000000000000000000000000000000000000000000000000000000000000000000000000000000000000000000000000000000000000000000000000000000000000000000000000000000000000000000000000000000000000000000000000000000000008000000008000000000000000000000000000000000000000000000000000000000000000000000010000000000001000000000000000000000000000000000000000000000000000000000000000000000000000004000000000000000000000000000000000000",
      "type": "0x2",
      "transactionHash": "0xd5d41a2edfd62a141731a0a1a6da14eb9b8266e348d15bf4fc63370aa8b8708f",
      "transactionIndex": "0xb",
      "blockHash": "0x00c0efcd00cdc0a16dcd1718eaf21757cefed3202480a279a3fb11488204b632",
      "blockNumber": "0x1ecb94",
      "gasUsed": "0x1f05b",
      "effectiveGasPrice": "0x10f0f",
      "from": "0x78f5852e1da3e82658f5f9b1fe6b67f5573090a1",
      "to": "0x7f5acc2e4e2b5330497a76836dfed766929d70d7",
      "contractAddress": null
    },
    {
      "status": "0x1",
      "cumulativeGasUsed": "0x1681a6",
      "logs": [
        {
          "address": "0x7f5acc2e4e2b5330497a76836dfed766929d70d7",
          "topics": [
            "0xd40e423db79bb42cc61a6a79d4af5b9ce09e66f1738cb4bbb4bbb9fe373367da"
          ],
          "data": "0x0000000000000000000000000000000000000000000000000000000000000000",
          "blockHash": "0xadb3fd6c58ec6a024aebe2f2b9edaf005e6fb605496f4f074adc5ca6b8ffa557",
          "blockNumber": "0x1ecb95",
          "transactionHash": "0xec0bffbd1c9ddeb05a84b70750a1227f655a69e1d40563439cdf4ad6d130a2b1",
          "transactionIndex": "0x9",
          "logIndex": "0xd",
          "removed": false
        },
        {
          "address": "0x7f5acc2e4e2b5330497a76836dfed766929d70d7",
          "topics": [
            "0xe44f8c75311d127aeb3cf702cf02a0b55ecae2d1f1962d9922f5683d51803eff"
          ],
          "data": "0x0000000000000000000000000000000000000000000000000000000000000000",
          "blockHash": "0xadb3fd6c58ec6a024aebe2f2b9edaf005e6fb605496f4f074adc5ca6b8ffa557",
          "blockNumber": "0x1ecb95",
          "transactionHash": "0xec0bffbd1c9ddeb05a84b70750a1227f655a69e1d40563439cdf4ad6d130a2b1",
          "transactionIndex": "0x9",
          "logIndex": "0xe",
          "removed": false
        },
        {
          "address": "0x7f5acc2e4e2b5330497a76836dfed766929d70d7",
          "topics": [
            "0xe44f8c75311d127aeb3cf702cf02a0b55ecae2d1f1962d9922f5683d51803eff"
          ],
          "data": "0x0000000000000000000000000000000000000000000000000000000000000000",
          "blockHash": "0xadb3fd6c58ec6a024aebe2f2b9edaf005e6fb605496f4f074adc5ca6b8ffa557",
          "blockNumber": "0x1ecb95",
          "transactionHash": "0xec0bffbd1c9ddeb05a84b70750a1227f655a69e1d40563439cdf4ad6d130a2b1",
          "transactionIndex": "0x9",
          "logIndex": "0xf",
          "removed": false
        },
        {
          "address": "0x7f5acc2e4e2b5330497a76836dfed766929d70d7",
          "topics": [
            "0xd40e423db79bb42cc61a6a79d4af5b9ce09e66f1738cb4bbb4bbb9fe373367da"
          ],
          "data": "0x0000000000000000000000000000000000000000000000000000000000000000",
          "blockHash": "0xadb3fd6c58ec6a024aebe2f2b9edaf005e6fb605496f4f074adc5ca6b8ffa557",
          "blockNumber": "0x1ecb95",
          "transactionHash": "0xec0bffbd1c9ddeb05a84b70750a1227f655a69e1d40563439cdf4ad6d130a2b1",
          "transactionIndex": "0x9",
          "logIndex": "0x10",
          "removed": false
        },
        {
          "address": "0x7f5acc2e4e2b5330497a76836dfed766929d70d7",
          "topics": [
            "0xe44f8c75311d127aeb3cf702cf02a0b55ecae2d1f1962d9922f5683d51803eff"
          ],
          "data": "0x0000000000000000000000000000000000000000000000000000000000000000",
          "blockHash": "0xadb3fd6c58ec6a024aebe2f2b9edaf005e6fb605496f4f074adc5ca6b8ffa557",
          "blockNumber": "0x1ecb95",
          "transactionHash": "0xec0bffbd1c9ddeb05a84b70750a1227f655a69e1d40563439cdf4ad6d130a2b1",
          "transactionIndex": "0x9",
          "logIndex": "0x11",
          "removed": false
        },
        {
          "address": "0x7f5acc2e4e2b5330497a76836dfed766929d70d7",
          "topics": [
            "0xe44f8c75311d127aeb3cf702cf02a0b55ecae2d1f1962d9922f5683d51803eff"
          ],
          "data": "0x0000000000000000000000000000000000000000000000000000000000000000",
          "blockHash": "0xadb3fd6c58ec6a024aebe2f2b9edaf005e6fb605496f4f074adc5ca6b8ffa557",
          "blockNumber": "0x1ecb95",
          "transactionHash": "0xec0bffbd1c9ddeb05a84b70750a1227f655a69e1d40563439cdf4ad6d130a2b1",
          "transactionIndex": "0x9",
          "logIndex": "0x12",
          "removed": false
        },
        {
          "address": "0x7f5acc2e4e2b5330497a76836dfed766929d70d7",
          "topics": [
            "0xae21bbcc2c6a4a78d5c4ef7f9e1981a07bf3d3e17834b89ef22e24d81396d976"
          ],
          "data": "0x0000000000000000000000000000000000000000000000000000000000000000000000000000000000000000000000000000000000000000000000000000008000000000000000000000000000000000000000000000000000000000000000e00000000000000000000000000000000000000000000000000000000066b8845000000000000000000000000000000000000000000000000000000000000000020000000000000000000000000000000000000000000000000000000000000001000000000000000000000000000000000000000000000000000000000000000200000000000000000000000000000000000000000000000000000000000000010000000000000000000000000000000000000000000000000000000000000001",
          "blockHash": "0xadb3fd6c58ec6a024aebe2f2b9edaf005e6fb605496f4f074adc5ca6b8ffa557",
          "blockNumber": "0x1ecb95",
          "transactionHash": "0xec0bffbd1c9ddeb05a84b70750a1227f655a69e1d40563439cdf4ad6d130a2b1",
          "transactionIndex": "0x9",
          "logIndex": "0x13",
          "removed": false
        }
      ],
      "logsBloom": "0x00000000000000000000000000000000000000000000000920000200000000000000000000000000000000000000000000000000000000000000000000000000000000000000000000000000000008000000000000000000000000000000000000000000000000000000000000000000000002000001000000000000000000000000000000000000000000000000008000000000000000008000000000000000000000000000000000000000000000000000000000000000000000000000000000000000000000000000000000000000000000000000000000000000000000000000000000000000000001000004000000000000000000000000001000000000",
      "type": "0x2",
      "transactionHash": "0xec0bffbd1c9ddeb05a84b70750a1227f655a69e1d40563439cdf4ad6d130a2b1",
      "transactionIndex": "0x9",
      "blockHash": "0xadb3fd6c58ec6a024aebe2f2b9edaf005e6fb605496f4f074adc5ca6b8ffa557",
      "blockNumber": "0x1ecb95",
      "gasUsed": "0x184b7",
      "effectiveGasPrice": "0x10f0f",
      "from": "0xff9179199903a10283e19d86de8c09f2718073da",
      "to": "0x7f5acc2e4e2b5330497a76836dfed766929d70d7",
      "contractAddress": null
    },
    {
      "status": "0x1",
      "cumulativeGasUsed": "0x10f55a",
      "logs": [
        {
          "address": "0x7f5acc2e4e2b5330497a76836dfed766929d70d7",
          "topics": [
            "0x7e0f0fda26edb240992ed8159adabdb6eb6fcc6da10cf38c46e856f484209c73"
          ],
          "data": "0x000000000000000000000000000000000000000000000000000000000000000000000000000000000000000078f5852e1da3e82658f5f9b1fe6b67f5573090a1000000000000000000000000000000000000000000000000000000000000000100000000000000000000000000000000000000000000000000000000000000020000000000000000000000000000000000000000000000000000000000000000000000000000000000000000000000000000000000000000000000000000000100000000000000000000000000000000000000000000000000000000000000000000000000000000000000000000000000000000000000000000000000000000",
          "blockHash": "0xa2a5e030933c7ebbca79cd7d011c8217ef0ca52629ff74d3483f32748a9f1623",
          "blockNumber": "0x1ecb96",
          "transactionHash": "0xc25edb56216f7606d0bd5d21ec88b853efc926664df30ff29db2b2b58f60f3c4",
          "transactionIndex": "0x8",
          "logIndex": "0xe",
          "removed": false
        }
      ],
      "logsBloom": "0x00000000000000000000000000000000000000000000000100000000000000000000000000000000000000000000000000000000000000000000000000000000000000000000000000000000000000000000000000000000000000000000000000000000000000000000000000000000000000000000000000000000000000000000000000000000000000000000000000000000000000008000000008000000000000000000000000000000000000000000000000000000000000000000000010000000000001000000000000000000000000000000000000000000000000000000000000000000000000000004000000000000000000000000000000000000",
      "type": "0x2",
      "transactionHash": "0xc25edb56216f7606d0bd5d21ec88b853efc926664df30ff29db2b2b58f60f3c4",
      "transactionIndex": "0x8",
      "blockHash": "0xa2a5e030933c7ebbca79cd7d011c8217ef0ca52629ff74d3483f32748a9f1623",
      "blockNumber": "0x1ecb96",
      "gasUsed": "0x11d07",
      "effectiveGasPrice": "0x10f10",
      "from": "0x78f5852e1da3e82658f5f9b1fe6b67f5573090a1",
      "to": "0x7f5acc2e4e2b5330497a76836dfed766929d70d7",
      "contractAddress": null
    },
    {
      "status": "0x1",
      "cumulativeGasUsed": "0x11f983",
      "logs": [
        {
          "address": "0x7f5acc2e4e2b5330497a76836dfed766929d70d7",
          "topics": [
            "0xd40e423db79bb42cc61a6a79d4af5b9ce09e66f1738cb4bbb4bbb9fe373367da"
          ],
          "data": "0x0000000000000000000000000000000000000000000000000000000000000000",
          "blockHash": "0x89c4113bd8e60d5a80f6faa634aa05f9687c4fe907964c231bb62c1bd72c9b1f",
          "blockNumber": "0x1ecb97",
          "transactionHash": "0x77fbab1e57b474d3a0faca3a201834ec5a90f3c2f3457816bb9d7362d8c6663c",
          "transactionIndex": "0x8",
          "logIndex": "0x1b",
          "removed": false
        },
        {
          "address": "0x7f5acc2e4e2b5330497a76836dfed766929d70d7",
          "topics": [
            "0xe44f8c75311d127aeb3cf702cf02a0b55ecae2d1f1962d9922f5683d51803eff"
          ],
          "data": "0x0000000000000000000000000000000000000000000000000000000000000000",
          "blockHash": "0x89c4113bd8e60d5a80f6faa634aa05f9687c4fe907964c231bb62c1bd72c9b1f",
          "blockNumber": "0x1ecb97",
          "transactionHash": "0x77fbab1e57b474d3a0faca3a201834ec5a90f3c2f3457816bb9d7362d8c6663c",
          "transactionIndex": "0x8",
          "logIndex": "0x1c",
          "removed": false
        },
        {
          "address": "0x7f5acc2e4e2b5330497a76836dfed766929d70d7",
          "topics": [
            "0xe44f8c75311d127aeb3cf702cf02a0b55ecae2d1f1962d9922f5683d51803eff"
          ],
          "data": "0x0000000000000000000000000000000000000000000000000000000000000000",
          "blockHash": "0x89c4113bd8e60d5a80f6faa634aa05f9687c4fe907964c231bb62c1bd72c9b1f",
          "blockNumber": "0x1ecb97",
          "transactionHash": "0x77fbab1e57b474d3a0faca3a201834ec5a90f3c2f3457816bb9d7362d8c6663c",
          "transactionIndex": "0x8",
          "logIndex": "0x1d",
          "removed": false
        },
        {
          "address": "0x7f5acc2e4e2b5330497a76836dfed766929d70d7",
          "topics": [
            "0xd40e423db79bb42cc61a6a79d4af5b9ce09e66f1738cb4bbb4bbb9fe373367da"
          ],
          "data": "0x0000000000000000000000000000000000000000000000000000000000000000",
          "blockHash": "0x89c4113bd8e60d5a80f6faa634aa05f9687c4fe907964c231bb62c1bd72c9b1f",
          "blockNumber": "0x1ecb97",
          "transactionHash": "0x77fbab1e57b474d3a0faca3a201834ec5a90f3c2f3457816bb9d7362d8c6663c",
          "transactionIndex": "0x8",
          "logIndex": "0x1e",
          "removed": false
        },
        {
          "address": "0x7f5acc2e4e2b5330497a76836dfed766929d70d7",
          "topics": [
            "0xe44f8c75311d127aeb3cf702cf02a0b55ecae2d1f1962d9922f5683d51803eff"
          ],
          "data": "0x0000000000000000000000000000000000000000000000000000000000000000",
          "blockHash": "0x89c4113bd8e60d5a80f6faa634aa05f9687c4fe907964c231bb62c1bd72c9b1f",
          "blockNumber": "0x1ecb97",
          "transactionHash": "0x77fbab1e57b474d3a0faca3a201834ec5a90f3c2f3457816bb9d7362d8c6663c",
          "transactionIndex": "0x8",
          "logIndex": "0x1f",
          "removed": false
        },
        {
          "address": "0x7f5acc2e4e2b5330497a76836dfed766929d70d7",
          "topics": [
            "0xe44f8c75311d127aeb3cf702cf02a0b55ecae2d1f1962d9922f5683d51803eff"
          ],
          "data": "0x0000000000000000000000000000000000000000000000000000000000000000",
          "blockHash": "0x89c4113bd8e60d5a80f6faa634aa05f9687c4fe907964c231bb62c1bd72c9b1f",
          "blockNumber": "0x1ecb97",
          "transactionHash": "0x77fbab1e57b474d3a0faca3a201834ec5a90f3c2f3457816bb9d7362d8c6663c",
          "transactionIndex": "0x8",
          "logIndex": "0x20",
          "removed": false
        },
        {
          "address": "0x7f5acc2e4e2b5330497a76836dfed766929d70d7",
          "topics": [
            "0x22d7ff694ee2b21efdc8f0620ce8981ffe587da1939f9bafed3686101b070e70"
          ],
          "data": "0x000000000000000000000000000000000000000000000000000000000000000000000000000000000000000000000000000000000000000000000000000000010000000000000000000000000000000000000000000000000000000000000001",
          "blockHash": "0x89c4113bd8e60d5a80f6faa634aa05f9687c4fe907964c231bb62c1bd72c9b1f",
          "blockNumber": "0x1ecb97",
          "transactionHash": "0x77fbab1e57b474d3a0faca3a201834ec5a90f3c2f3457816bb9d7362d8c6663c",
          "transactionIndex": "0x8",
          "logIndex": "0x21",
          "removed": false
        }
      ],
      "logsBloom": "0x00000000000000000000000000000000000000000000000920000200000000000000000000000000000400000000000000000000000000000000000000000000000000000000000000000000000000000000000000000000000000000000000000000000000000000000000000000000000000000000000000000400000000000000000000000000000100000000008000000000000000008000000000000000000000000000000000000000000000000000000000000000000000000000000000000000000000000000000000000000000000000000000000000000000000000000000000000000000001000004000000000000000000000000001000000000",
      "type": "0x2",
      "transactionHash": "0x77fbab1e57b474d3a0faca3a201834ec5a90f3c2f3457816bb9d7362d8c6663c",
      "transactionIndex": "0x8",
      "blockHash": "0x89c4113bd8e60d5a80f6faa634aa05f9687c4fe907964c231bb62c1bd72c9b1f",
      "blockNumber": "0x1ecb97",
      "gasUsed": "0x2c5dd",
      "effectiveGasPrice": "0x10f10",
      "from": "0xff9179199903a10283e19d86de8c09f2718073da",
      "to": "0x7f5acc2e4e2b5330497a76836dfed766929d70d7",
      "contractAddress": null
    }
  ],
  "libraries": [],
  "pending": [],
  "returns": {},
  "timestamp": 1722159014,
  "chain": 17000,
  "commit": "9bcb787"
}