{
  "transactions": [
    {
      "hash": "0xd2abd8fe2cb2c7045b079f5d1e203bb2b281861aab61945753a13fc9c4c7c431",
      "transactionType": "CALL",
      "contractName": null,
      "contractAddress": "0x80ca951439b06451b5162415b758f256242cf92a",
      "function": "addMembers(address[])",
      "arguments": [
        "[0x78F5852E1DA3e82658f5f9B1fE6b67F5573090A1]"
      ],
      "transaction": {
        "from": "0xff9179199903a10283e19d86de8c09f2718073da",
        "to": "0x80ca951439b06451b5162415b758f256242cf92a",
        "gas": "0x16d54",
        "value": "0x0",
        "input": "0x6f4d469b0000000000000000000000000000000000000000000000000000000000000020000000000000000000000000000000000000000000000000000000000000000100000000000000000000000078f5852e1da3e82658f5f9b1fe6b67f5573090a1",
        "nonce": "0x1d",
        "chainId": "0x4268"
      },
      "additionalContracts": [],
      "isFixedGasLimit": false
    },
    {
      "hash": "0xf8205fd4ce90eb53b38f431938cc829ff887bcd97a8ba7d517bd36ed24f4e743",
      "transactionType": "CALL",
      "contractName": null,
      "contractAddress": "0x80ca951439b06451b5162415b758f256242cf92a",
      "function": "propose(string,(string,bytes)[])",
      "arguments": [
        "\"QmStEMeSBhmakCDyKQDYuTcRCMveCMmA5C5kwmXLBbr8YD\"",
        "[]"
      ],
      "transaction": {
        "from": "0xff9179199903a10283e19d86de8c09f2718073da",
        "to": "0x80ca951439b06451b5162415b758f256242cf92a",
        "gas": "0x6d17f",
        "value": "0x0",
        "input": "0xd13da0bd000000000000000000000000000000000000000000000000000000000000004000000000000000000000000000000000000000000000000000000000000000a0000000000000000000000000000000000000000000000000000000000000002e516d5374454d655342686d616b4344794b51445975546352434d7665434d6d413543356b776d584c4262723859440000000000000000000000000000000000000000000000000000000000000000000000000000000000000000000000000000",
        "nonce": "0x1e",
        "chainId": "0x4268"
      },
      "additionalContracts": [],
      "isFixedGasLimit": false
    },
    {
      "hash": "0x3c5a237bcbdc5243bf7e5295a691c96638ee72d75ae7971613ce6e599bdeb07b",
      "transactionType": "CALL",
      "contractName": null,
      "contractAddress": "0x80ca951439b06451b5162415b758f256242cf92a",
      "function": "fork(uint256,string,(string,bytes)[])",
      "arguments": [
        "0",
        "\"forkedProposalURI\"",
        "[(\"memberJoin(uint256,(address,string)[])\", 0x0000000000000000000000000000000000000000000000000000000000000000000000000000000000000000000000000000000000000000000000000000004000000000000000000000000000000000000000000000000000000000000000010000000000000000000000000000000000000000000000000000000000000020000000000000000000000000000000000000000000000000000000000000000000000000000000000000000000000000000000000000000000000000000000400000000000000000000000000000000000000000000000000000000000000000)]"
      ],
      "transaction": {
        "from": "0xff9179199903a10283e19d86de8c09f2718073da",
        "to": "0x80ca951439b06451b5162415b758f256242cf92a",
        "gas": "0x63ccb",
        "value": "0x0",
        "input": "0x71cb2ee50000000000000000000000000000000000000000000000000000000000000000000000000000000000000000000000000000000000000000000000000000006000000000000000000000000000000000000000000000000000000000000000a00000000000000000000000000000000000000000000000000000000000000011666f726b656450726f706f73616c55524900000000000000000000000000000000000000000000000000000000000000000000000000000000000000000000010000000000000000000000000000000000000000000000000000000000000020000000000000000000000000000000000000000000000000000000000000004000000000000000000000000000000000000000000000000000000000000000a000000000000000000000000000000000000000000000000000000000000000266d656d6265724a6f696e2875696e743235362c28616464726573732c737472696e67295b5d29000000000000000000000000000000000000000000000000000000000000000000000000000000000000000000000000000000000000000000e00000000000000000000000000000000000000000000000000000000000000000000000000000000000000000000000000000000000000000000000000000004000000000000000000000000000000000000000000000000000000000000000010000000000000000000000000000000000000000000000000000000000000020000000000000000000000000000000000000000000000000000000000000000000000000000000000000000000000000000000000000000000000000000000400000000000000000000000000000000000000000000000000000000000000000",
        "nonce": "0x1f",
        "chainId": "0x4268"
      },
      "additionalContracts": [],
      "isFixedGasLimit": false
    },
    {
      "hash": "0xe03456e760a4a43cb7cdd2ff76dd3e921a330b0ab991f5f8198c7e1053d52ec9",
      "transactionType": "CALL",
      "contractName": null,
      "contractAddress": "0x80ca951439b06451b5162415b758f256242cf92a",
      "function": "vote(uint256,(uint256[3],uint256[3]))",
      "arguments": [
        "0",
        "([1, 2, 0], [1, 0, 0])"
      ],
      "transaction": {
        "from": "0xff9179199903a10283e19d86de8c09f2718073da",
        "to": "0x80ca951439b06451b5162415b758f256242cf92a",
        "gas": "0x2a02b",
        "value": "0x0",
        "input": "0x0c68678c0000000000000000000000000000000000000000000000000000000000000000000000000000000000000000000000000000000000000000000000000000000100000000000000000000000000000000000000000000000000000000000000020000000000000000000000000000000000000000000000000000000000000000000000000000000000000000000000000000000000000000000000000000000100000000000000000000000000000000000000000000000000000000000000000000000000000000000000000000000000000000000000000000000000000000",
        "nonce": "0x20",
        "chainId": "0x4268"
      },
      "additionalContracts": [],
      "isFixedGasLimit": false
    },
    {
      "hash": "0x4cdb436ce4affe6cb96efd51422bf15ec707db14969b51809606e3c1e13a31fe",
      "transactionType": "CALL",
      "contractName": null,
      "contractAddress": "0x80ca951439b06451b5162415b758f256242cf92a",
      "function": "vote(uint256,(uint256[3],uint256[3]))",
      "arguments": [
        "0",
        "([2, 1, 0], [1, 0, 0])"
      ],
      "transaction": {
        "from": "0x78f5852e1da3e82658f5f9b1fe6b67f5573090a1",
        "to": "0x80ca951439b06451b5162415b758f256242cf92a",
        "gas": "0x2d5eb",
        "value": "0x0",
        "input": "0x0c68678c0000000000000000000000000000000000000000000000000000000000000000000000000000000000000000000000000000000000000000000000000000000200000000000000000000000000000000000000000000000000000000000000010000000000000000000000000000000000000000000000000000000000000000000000000000000000000000000000000000000000000000000000000000000100000000000000000000000000000000000000000000000000000000000000000000000000000000000000000000000000000000000000000000000000000000",
        "nonce": "0x0",
        "chainId": "0x4268"
      },
      "additionalContracts": [],
      "isFixedGasLimit": false
    },
    {
      "hash": "0x570af4d7fb9865a4512c9d683ac77476a5088b0f4fe7a0a3cf455d3c427c643e",
      "transactionType": "CALL",
      "contractName": null,
      "contractAddress": "0x80ca951439b06451b5162415b758f256242cf92a",
      "function": "forceTally(uint256)",
      "arguments": [
        "0"
      ],
      "transaction": {
        "from": "0xff9179199903a10283e19d86de8c09f2718073da",
        "to": "0x80ca951439b06451b5162415b758f256242cf92a",
        "gas": "0x218e9",
        "value": "0x0",
        "input": "0xed82e4710000000000000000000000000000000000000000000000000000000000000000",
        "nonce": "0x21",
        "chainId": "0x4268"
      },
      "additionalContracts": [],
      "isFixedGasLimit": false
    },
    {
      "hash": "0xb8cb605a3798af7a35194d86e134b1926c261ab436f306e66295b2c7727c012b",
      "transactionType": "CALL",
      "contractName": null,
      "contractAddress": "0x80ca951439b06451b5162415b758f256242cf92a",
      "function": "vote(uint256,(uint256[3],uint256[3]))",
      "arguments": [
        "0",
        "([1, 2, 0], [1, 0, 0])"
      ],
      "transaction": {
        "from": "0x78f5852e1da3e82658f5f9b1fe6b67f5573090a1",
        "to": "0x80ca951439b06451b5162415b758f256242cf92a",
        "gas": "0x189b1",
        "value": "0x0",
        "input": "0x0c68678c0000000000000000000000000000000000000000000000000000000000000000000000000000000000000000000000000000000000000000000000000000000100000000000000000000000000000000000000000000000000000000000000020000000000000000000000000000000000000000000000000000000000000000000000000000000000000000000000000000000000000000000000000000000100000000000000000000000000000000000000000000000000000000000000000000000000000000000000000000000000000000000000000000000000000000",
        "nonce": "0x1",
        "chainId": "0x4268"
      },
      "additionalContracts": [],
      "isFixedGasLimit": false
    },
    {
      "hash": "0x9522a2cb2f1ac306f871eafc1026cd676622c47642b18f9a46483d5e17e98a79",
      "transactionType": "CALL",
      "contractName": null,
      "contractAddress": "0x80ca951439b06451b5162415b758f256242cf92a",
      "function": "forceTally(uint256)",
      "arguments": [
        "0"
      ],
      "transaction": {
        "from": "0xff9179199903a10283e19d86de8c09f2718073da",
        "to": "0x80ca951439b06451b5162415b758f256242cf92a",
        "gas": "0x35bef",
        "value": "0x0",
        "input": "0xed82e4710000000000000000000000000000000000000000000000000000000000000000",
        "nonce": "0x22",
        "chainId": "0x4268"
      },
      "additionalContracts": [],
      "isFixedGasLimit": false
    }
  ],
  "receipts": [
    {
      "status": "0x1",
      "cumulativeGasUsed": "0x32fbea",
      "logs": [
        {
          "address": "0x80ca951439b06451b5162415b758f256242cf92a",
          "topics": [
            "0x479e555f6c2b410f9bea0faf0392342851e2103c9c7a9b61f8f087b47331d0eb"
          ],
          "data": "0x000000000000000000000000000000000000000000000000000000000000000100000000000000000000000078f5852e1da3e82658f5f9b1fe6b67f5573090a100000000000000000000000000000000000000000000000000000000000000600000000000000000000000000000000000000000000000000000000000000000",
          "blockHash": "0x53f332f7e13f58cc7d6c51472e70218ad23addc3e6fdb723e2e9c07024a0f9cf",
          "blockNumber": "0x1e9421",
          "transactionHash": "0xd2abd8fe2cb2c7045b079f5d1e203bb2b281861aab61945753a13fc9c4c7c431",
          "transactionIndex": "0x1b",
          "logIndex": "0x25",
          "removed": false
        }
      ],
      "logsBloom": "0x00000000000000001000000000000000000000000000000000000400000000000000000000000000000000000000000000000000000000000000000000000000000000000000000000000000000000000000000000000000000000000000000000000000000000000000000000000000000000000000000000000000000000000000000000000000000000000000000000000000000000000000000000000000000000000000000000000001000000000000000010000100000000000000000000000000000000000000000000000000000000000000200000000000000000000000000000000000000000000000000000000000000000000000000000000000",
      "type": "0x2",
      "transactionHash": "0xd2abd8fe2cb2c7045b079f5d1e203bb2b281861aab61945753a13fc9c4c7c431",
      "transactionIndex": "0x1b",
      "blockHash": "0x53f332f7e13f58cc7d6c51472e70218ad23addc3e6fdb723e2e9c07024a0f9cf",
      "blockNumber": "0x1e9421",
      "gasUsed": "0x1087f",
      "effectiveGasPrice": "0xac93",
      "from": "0xff9179199903a10283e19d86de8c09f2718073da",
      "to": "0x80ca951439b06451b5162415b758f256242cf92a",
      "contractAddress": null
    },
    {
      "status": "0x1",
      "cumulativeGasUsed": "0x2ecc52",
      "logs": [
        {
          "address": "0x80ca951439b06451b5162415b758f256242cf92a",
          "topics": [
            "0xb22aca7d5ab207801e44135e5fe90f9e709a218f408d841420a027d1883e1646"
          ],
          "data": "0x000000000000000000000000000000000000000000000000000000000000000000000000000000000000000000000000000000000000000000000000000000010000000000000000000000000000000000000000000000000000000000000060000000000000000000000000000000000000000000000000000000000000002e516d5374454d655342686d616b4344794b51445975546352434d7665434d6d413543356b776d584c426272385944000000000000000000000000000000000000",
          "blockHash": "0x4b531dc885d7d27e3c744fe5d9150f6c2f7f89dae210a2cf8242474abe2cf7e4",
          "blockNumber": "0x1e9422",
          "transactionHash": "0xf8205fd4ce90eb53b38f431938cc829ff887bcd97a8ba7d517bd36ed24f4e743",
          "transactionIndex": "0x1b",
          "logIndex": "0x25",
          "removed": false
        },
        {
          "address": "0x80ca951439b06451b5162415b758f256242cf92a",
          "topics": [
            "0xa6c20d3d23e1987f797b7d6df82e3e885eadb06674faf0ae16ab200a87358897"
          ],
          "data": "0x000000000000000000000000000000000000000000000000000000000000000000000000000000000000000000000000000000000000000000000000000000400000000000000000000000000000000000000000000000000000000000000002000000000000000000000000ff9179199903a10283e19d86de8c09f2718073da00000000000000000000000078f5852e1da3e82658f5f9b1fe6b67f5573090a1",
          "blockHash": "0x4b531dc885d7d27e3c744fe5d9150f6c2f7f89dae210a2cf8242474abe2cf7e4",
          "blockNumber": "0x1e9422",
          "transactionHash": "0xf8205fd4ce90eb53b38f431938cc829ff887bcd97a8ba7d517bd36ed24f4e743",
          "transactionIndex": "0x1b",
          "logIndex": "0x26",
          "removed": false
        },
        {
          "address": "0x80ca951439b06451b5162415b758f256242cf92a",
          "topics": [
            "0xb56e333cd6082a862942820ad6871b5a17d922a7506ff536fc0830784a46b2c6"
          ],
          "data": "0x0000000000000000000000000000000000000000000000000000000000000000000000000000000000000000ff9179199903a10283e19d86de8c09f2718073da0000000000000000000000000000000000000000000000000000000066a345f80000000000000000000000000000000000000000000000000000000066ac8078",
          "blockHash": "0x4b531dc885d7d27e3c744fe5d9150f6c2f7f89dae210a2cf8242474abe2cf7e4",
          "blockNumber": "0x1e9422",
          "transactionHash": "0xf8205fd4ce90eb53b38f431938cc829ff887bcd97a8ba7d517bd36ed24f4e743",
          "transactionIndex": "0x1b",
          "logIndex": "0x27",
          "removed": false
        }
      ],
      "logsBloom": "0x00000000000000000000000000000000000000000000000000000400000000000000000000000000000002002000000000000000000000000000000000000000000400000800000000000000000000000000000000000000000000000000000000000000000000000000000000000000000000000000000000000000000000000000000000000000800000000000000000000000000000000000000000000000000020000000000100000000000000000000000010000000000000000000000000000000000000000000000000000000000000000000200000000000000000000000000000000000000004000000004000000000000000000000000000000000",
      "type": "0x2",
      "transactionHash": "0xf8205fd4ce90eb53b38f431938cc829ff887bcd97a8ba7d517bd36ed24f4e743",
      "transactionIndex": "0x1b",
      "blockHash": "0x4b531dc885d7d27e3c744fe5d9150f6c2f7f89dae210a2cf8242474abe2cf7e4",
      "blockNumber": "0x1e9422",
      "gasUsed": "0x4a981",
      "effectiveGasPrice": "0xac93",
      "from": "0xff9179199903a10283e19d86de8c09f2718073da",
      "to": "0x80ca951439b06451b5162415b758f256242cf92a",
      "contractAddress": null
    },
    {
      "status": "0x1",
      "cumulativeGasUsed": "0x795d3d",
      "logs": [
        {
          "address": "0x80ca951439b06451b5162415b758f256242cf92a",
          "topics": [
            "0xb22aca7d5ab207801e44135e5fe90f9e709a218f408d841420a027d1883e1646"
          ],
          "data": "0x0000000000000000000000000000000000000000000000000000000000000000000000000000000000000000000000000000000000000000000000000000000200000000000000000000000000000000000000000000000000000000000000600000000000000000000000000000000000000000000000000000000000000011666f726b656450726f706f73616c555249000000000000000000000000000000",
          "blockHash": "0x9dde2c8191f09cdc62e29996217a9ca8fe08c11ecf227fdd9a49045a9b95e53e",
          "blockNumber": "0x1e9425",
          "transactionHash": "0x3c5a237bcbdc5243bf7e5295a691c96638ee72d75ae7971613ce6e599bdeb07b",
          "transactionIndex": "0x45",
          "logIndex": "0x52",
          "removed": false
        },
        {
          "address": "0x80ca951439b06451b5162415b758f256242cf92a",
          "topics": [
            "0x0fdab9c3bcde94f0c1a1165103baf9726e17f93845a1172b7b34c283478e7ed7"
          ],
          "data": "0x00000000000000000000000000000000000000000000000000000000000000000000000000000000000000000000000000000000000000000000000000000001000000000000000000000000000000000000000000000000000000000000006000000000000000000000000000000000000000000000000000000000000000010000000000000000000000000000000000000000000000000000000000000020000000000000000000000000000000000000000000000000000000000000004000000000000000000000000000000000000000000000000000000000000000a000000000000000000000000000000000000000000000000000000000000000266d656d6265724a6f696e2875696e743235362c28616464726573732c737472696e67295b5d29000000000000000000000000000000000000000000000000000000000000000000000000000000000000000000000000000000000000000000e00000000000000000000000000000000000000000000000000000000000000000000000000000000000000000000000000000000000000000000000000000004000000000000000000000000000000000000000000000000000000000000000010000000000000000000000000000000000000000000000000000000000000020000000000000000000000000000000000000000000000000000000000000000000000000000000000000000000000000000000000000000000000000000000400000000000000000000000000000000000000000000000000000000000000000",
          "blockHash": "0x9dde2c8191f09cdc62e29996217a9ca8fe08c11ecf227fdd9a49045a9b95e53e",
          "blockNumber": "0x1e9425",
          "transactionHash": "0x3c5a237bcbdc5243bf7e5295a691c96638ee72d75ae7971613ce6e599bdeb07b",
          "transactionIndex": "0x45",
          "logIndex": "0x53",
          "removed": false
        }
      ],
      "logsBloom": "0x00000000000000000000000000000000000000000000000000000400000000000008000000000000000002000000000000000000000000000000000000000000000400000000000000000000000000000000000000000000000000000000000000000000000000000000000000000000000000000000000000000000000000000000000000000000000000000000000000000000000000000000000000000000000000000000000100000000000000000080000010000000000000000000000000000000000000000000000000000000000000000000200000000000000000000000000000000000000000004000000000000000000000000000000000000000",
      "type": "0x2",
      "transactionHash": "0x3c5a237bcbdc5243bf7e5295a691c96638ee72d75ae7971613ce6e599bdeb07b",
      "transactionIndex": "0x45",
      "blockHash": "0x9dde2c8191f09cdc62e29996217a9ca8fe08c11ecf227fdd9a49045a9b95e53e",
      "blockNumber": "0x1e9425",
      "gasUsed": "0x4840e",
      "effectiveGasPrice": "0xac93",
      "from": "0xff9179199903a10283e19d86de8c09f2718073da",
      "to": "0x80ca951439b06451b5162415b758f256242cf92a",
      "contractAddress": null
    },
    {
      "status": "0x1",
      "cumulativeGasUsed": "0x8b4a3e",
      "logs": [
        {
          "address": "0x80ca951439b06451b5162415b758f256242cf92a",
          "topics": [
            "0x7e0f0fda26edb240992ed8159adabdb6eb6fcc6da10cf38c46e856f484209c73"
          ],
          "data": "0x0000000000000000000000000000000000000000000000000000000000000000000000000000000000000000ff9179199903a10283e19d86de8c09f2718073da000000000000000000000000000000000000000000000000000000000000000100000000000000000000000000000000000000000000000000000000000000020000000000000000000000000000000000000000000000000000000000000000000000000000000000000000000000000000000000000000000000000000000100000000000000000000000000000000000000000000000000000000000000000000000000000000000000000000000000000000000000000000000000000000",
          "blockHash": "0xf9a109647f9e679d810ef3f038cd407f8aade6d6f0f9adc539aa5c5ba74e2b1e",
          "blockNumber": "0x1e9429",
          "transactionHash": "0xe03456e760a4a43cb7cdd2ff76dd3e921a330b0ab991f5f8198c7e1053d52ec9",
          "transactionIndex": "0x40",
          "logIndex": "0x60",
          "removed": false
        }
      ],
      "logsBloom": "0x00000000000000000000000000000000000000000000000000000400000000000000000000000000000000000000000000000000000000000000000000000000000000000000000000000000000000000000000000000000000000000000000000000000000000000000000000000000000000000000000000000000000000000000000000000000000000000000000000000000000000000000000008000000000000000000000000000000000000000000000010000000000000000000000010000000000001000000000000000000000000000000200000000000000000000000000000000000000000000000000000000000000000000000000000000000",
      "type": "0x2",
      "transactionHash": "0xe03456e760a4a43cb7cdd2ff76dd3e921a330b0ab991f5f8198c7e1053d52ec9",
      "transactionIndex": "0x40",
      "blockHash": "0xf9a109647f9e679d810ef3f038cd407f8aade6d6f0f9adc539aa5c5ba74e2b1e",
      "blockNumber": "0x1e9429",
      "gasUsed": "0x1e6a4",
      "effectiveGasPrice": "0xac93",
      "from": "0xff9179199903a10283e19d86de8c09f2718073da",
      "to": "0x80ca951439b06451b5162415b758f256242cf92a",
      "contractAddress": null
    },
    {
      "status": "0x1",
      "cumulativeGasUsed": "0x65e9b2",
      "logs": [
        {
          "address": "0x80ca951439b06451b5162415b758f256242cf92a",
          "topics": [
            "0x7e0f0fda26edb240992ed8159adabdb6eb6fcc6da10cf38c46e856f484209c73"
          ],
          "data": "0x000000000000000000000000000000000000000000000000000000000000000000000000000000000000000078f5852e1da3e82658f5f9b1fe6b67f5573090a1000000000000000000000000000000000000000000000000000000000000000200000000000000000000000000000000000000000000000000000000000000010000000000000000000000000000000000000000000000000000000000000000000000000000000000000000000000000000000000000000000000000000000100000000000000000000000000000000000000000000000000000000000000000000000000000000000000000000000000000000000000000000000000000000",
          "blockHash": "0xc72218975dd7440ef7894aee3eef3a44ac9f94444b994cfab1c197e75a48e619",
          "blockNumber": "0x1e942b",
          "transactionHash": "0x4cdb436ce4affe6cb96efd51422bf15ec707db14969b51809606e3c1e13a31fe",
          "transactionIndex": "0x31",
          "logIndex": "0x56",
          "removed": false
        }
      ],
      "logsBloom": "0x00000000000000000000000000000000000000000000000000000400000000000000000000000000000000000000000000000000000000000000000000000000000000000000000000000000000000000000000000000000000000000000000000000000000000000000000000000000000000000000000000000000000000000000000000000000000000000000000000000000000000000000000008000000000000000000000000000000000000000000000010000000000000000000000010000000000001000000000000000000000000000000200000000000000000000000000000000000000000000000000000000000000000000000000000000000",
      "type": "0x2",
      "transactionHash": "0x4cdb436ce4affe6cb96efd51422bf15ec707db14969b51809606e3c1e13a31fe",
      "transactionIndex": "0x31",
      "blockHash": "0xc72218975dd7440ef7894aee3eef3a44ac9f94444b994cfab1c197e75a48e619",
      "blockNumber": "0x1e942b",
      "gasUsed": "0x1f05b",
      "effectiveGasPrice": "0xac93",
      "from": "0x78f5852e1da3e82658f5f9b1fe6b67f5573090a1",
      "to": "0x80ca951439b06451b5162415b758f256242cf92a",
      "contractAddress": null
    },
    {
      "status": "0x1",
      "cumulativeGasUsed": "0x350166",
      "logs": [
        {
          "address": "0x80ca951439b06451b5162415b758f256242cf92a",
          "topics": [
            "0xd40e423db79bb42cc61a6a79d4af5b9ce09e66f1738cb4bbb4bbb9fe373367da"
          ],
          "data": "0x0000000000000000000000000000000000000000000000000000000000000000",
          "blockHash": "0x83adf0065afccc8daee2136c1ec414d41b70fc8f257265078abb09617369958d",
          "blockNumber": "0x1e942d",
          "transactionHash": "0x570af4d7fb9865a4512c9d683ac77476a5088b0f4fe7a0a3cf455d3c427c643e",
          "transactionIndex": "0x1f",
          "logIndex": "0x28",
          "removed": false
        },
        {
          "address": "0x80ca951439b06451b5162415b758f256242cf92a",
          "topics": [
            "0xe44f8c75311d127aeb3cf702cf02a0b55ecae2d1f1962d9922f5683d51803eff"
          ],
          "data": "0x0000000000000000000000000000000000000000000000000000000000000000",
          "blockHash": "0x83adf0065afccc8daee2136c1ec414d41b70fc8f257265078abb09617369958d",
          "blockNumber": "0x1e942d",
          "transactionHash": "0x570af4d7fb9865a4512c9d683ac77476a5088b0f4fe7a0a3cf455d3c427c643e",
          "transactionIndex": "0x1f",
          "logIndex": "0x29",
          "removed": false
        },
        {
          "address": "0x80ca951439b06451b5162415b758f256242cf92a",
          "topics": [
            "0xe44f8c75311d127aeb3cf702cf02a0b55ecae2d1f1962d9922f5683d51803eff"
          ],
          "data": "0x0000000000000000000000000000000000000000000000000000000000000000",
          "blockHash": "0x83adf0065afccc8daee2136c1ec414d41b70fc8f257265078abb09617369958d",
          "blockNumber": "0x1e942d",
          "transactionHash": "0x570af4d7fb9865a4512c9d683ac77476a5088b0f4fe7a0a3cf455d3c427c643e",
          "transactionIndex": "0x1f",
          "logIndex": "0x2a",
          "removed": false
        },
        {
          "address": "0x80ca951439b06451b5162415b758f256242cf92a",
          "topics": [
            "0xd40e423db79bb42cc61a6a79d4af5b9ce09e66f1738cb4bbb4bbb9fe373367da"
          ],
          "data": "0x0000000000000000000000000000000000000000000000000000000000000000",
          "blockHash": "0x83adf0065afccc8daee2136c1ec414d41b70fc8f257265078abb09617369958d",
          "blockNumber": "0x1e942d",
          "transactionHash": "0x570af4d7fb9865a4512c9d683ac77476a5088b0f4fe7a0a3cf455d3c427c643e",
          "transactionIndex": "0x1f",
          "logIndex": "0x2b",
          "removed": false
        },
        {
          "address": "0x80ca951439b06451b5162415b758f256242cf92a",
          "topics": [
            "0xe44f8c75311d127aeb3cf702cf02a0b55ecae2d1f1962d9922f5683d51803eff"
          ],
          "data": "0x0000000000000000000000000000000000000000000000000000000000000000",
          "blockHash": "0x83adf0065afccc8daee2136c1ec414d41b70fc8f257265078abb09617369958d",
          "blockNumber": "0x1e942d",
          "transactionHash": "0x570af4d7fb9865a4512c9d683ac77476a5088b0f4fe7a0a3cf455d3c427c643e",
          "transactionIndex": "0x1f",
          "logIndex": "0x2c",
          "removed": false
        },
        {
          "address": "0x80ca951439b06451b5162415b758f256242cf92a",
          "topics": [
            "0xe44f8c75311d127aeb3cf702cf02a0b55ecae2d1f1962d9922f5683d51803eff"
          ],
          "data": "0x0000000000000000000000000000000000000000000000000000000000000000",
          "blockHash": "0x83adf0065afccc8daee2136c1ec414d41b70fc8f257265078abb09617369958d",
          "blockNumber": "0x1e942d",
          "transactionHash": "0x570af4d7fb9865a4512c9d683ac77476a5088b0f4fe7a0a3cf455d3c427c643e",
          "transactionIndex": "0x1f",
          "logIndex": "0x2d",
          "removed": false
        },
        {
          "address": "0x80ca951439b06451b5162415b758f256242cf92a",
          "topics": [
            "0xae21bbcc2c6a4a78d5c4ef7f9e1981a07bf3d3e17834b89ef22e24d81396d976"
          ],
          "data": "0x0000000000000000000000000000000000000000000000000000000000000000000000000000000000000000000000000000000000000000000000000000008000000000000000000000000000000000000000000000000000000000000000e00000000000000000000000000000000000000000000000000000000066b5baf800000000000000000000000000000000000000000000000000000000000000020000000000000000000000000000000000000000000000000000000000000001000000000000000000000000000000000000000000000000000000000000000200000000000000000000000000000000000000000000000000000000000000010000000000000000000000000000000000000000000000000000000000000001",
          "blockHash": "0x83adf0065afccc8daee2136c1ec414d41b70fc8f257265078abb09617369958d",
          "blockNumber": "0x1e942d",
          "transactionHash": "0x570af4d7fb9865a4512c9d683ac77476a5088b0f4fe7a0a3cf455d3c427c643e",
          "transactionIndex": "0x1f",
          "logIndex": "0x2e",
          "removed": false
        }
      ],
      "logsBloom": "0x00000000000000000000000000000000000000000000000820000600000000000000000000000000000000000000000000000000000000000000000000000000000000000000000000000000000008000000000000000000000000000000000000000000000000000000000000000000000002000001000000000000000000000000000000000000000000000000008000000000000000000000000000000000000000000000000000000000000000000000000010000000000000000000000000000000000000000000000000000000000000000000200000000000000000000000000000000000000001000000000000000000000000000000001000000000",
      "type": "0x2",
      "transactionHash": "0x570af4d7fb9865a4512c9d683ac77476a5088b0f4fe7a0a3cf455d3c427c643e",
      "transactionIndex": "0x1f",
      "blockHash": "0x83adf0065afccc8daee2136c1ec414d41b70fc8f257265078abb09617369958d",
      "blockNumber": "0x1e942d",
      "gasUsed": "0x184b7",
      "effectiveGasPrice": "0xac93",
      "from": "0xff9179199903a10283e19d86de8c09f2718073da",
      "to": "0x80ca951439b06451b5162415b758f256242cf92a",
      "contractAddress": null
    },
    {
      "status": "0x1",
      "cumulativeGasUsed": "0x37b037",
      "logs": [
        {
          "address": "0x80ca951439b06451b5162415b758f256242cf92a",
          "topics": [
            "0x7e0f0fda26edb240992ed8159adabdb6eb6fcc6da10cf38c46e856f484209c73"
          ],
          "data": "0x000000000000000000000000000000000000000000000000000000000000000000000000000000000000000078f5852e1da3e82658f5f9b1fe6b67f5573090a1000000000000000000000000000000000000000000000000000000000000000100000000000000000000000000000000000000000000000000000000000000020000000000000000000000000000000000000000000000000000000000000000000000000000000000000000000000000000000000000000000000000000000100000000000000000000000000000000000000000000000000000000000000000000000000000000000000000000000000000000000000000000000000000000",
          "blockHash": "0xa38cc06f63176cc9035fbb199d3c73820ddb9f03194222e17add3a8a7714dbf4",
          "blockNumber": "0x1e942e",
          "transactionHash": "0xb8cb605a3798af7a35194d86e134b1926c261ab436f306e66295b2c7727c012b",
          "transactionIndex": "0x1a",
          "logIndex": "0x2e",
          "removed": false
        }
      ],
      "logsBloom": "0x00000000000000000000000000000000000000000000000000000400000000000000000000000000000000000000000000000000000000000000000000000000000000000000000000000000000000000000000000000000000000000000000000000000000000000000000000000000000000000000000000000000000000000000000000000000000000000000000000000000000000000000000008000000000000000000000000000000000000000000000010000000000000000000000010000000000001000000000000000000000000000000200000000000000000000000000000000000000000000000000000000000000000000000000000000000",
      "type": "0x2",
      "transactionHash": "0xb8cb605a3798af7a35194d86e134b1926c261ab436f306e66295b2c7727c012b",
      "transactionIndex": "0x1a",
      "blockHash": "0xa38cc06f63176cc9035fbb199d3c73820ddb9f03194222e17add3a8a7714dbf4",
      "blockNumber": "0x1e942e",
      "gasUsed": "0x11d07",
      "effectiveGasPrice": "0xac93",
      "from": "0x78f5852e1da3e82658f5f9b1fe6b67f5573090a1",
      "to": "0x80ca951439b06451b5162415b758f256242cf92a",
      "contractAddress": null
    },
    {
      "status": "0x1",
      "cumulativeGasUsed": "0x3295c3",
      "logs": [
        {
          "address": "0x80ca951439b06451b5162415b758f256242cf92a",
          "topics": [
            "0xd40e423db79bb42cc61a6a79d4af5b9ce09e66f1738cb4bbb4bbb9fe373367da"
          ],
          "data": "0x0000000000000000000000000000000000000000000000000000000000000000",
          "blockHash": "0x8dc6514b3f144f74cb0949d7cc84fb95c3129e26da20fc9edb2f7cf9d442d40b",
          "blockNumber": "0x1e942f",
          "transactionHash": "0x9522a2cb2f1ac306f871eafc1026cd676622c47642b18f9a46483d5e17e98a79",
          "transactionIndex": "0x18",
          "logIndex": "0x21",
          "removed": false
        },
        {
          "address": "0x80ca951439b06451b5162415b758f256242cf92a",
          "topics": [
            "0xe44f8c75311d127aeb3cf702cf02a0b55ecae2d1f1962d9922f5683d51803eff"
          ],
          "data": "0x0000000000000000000000000000000000000000000000000000000000000000",
          "blockHash": "0x8dc6514b3f144f74cb0949d7cc84fb95c3129e26da20fc9edb2f7cf9d442d40b",
          "blockNumber": "0x1e942f",
          "transactionHash": "0x9522a2cb2f1ac306f871eafc1026cd676622c47642b18f9a46483d5e17e98a79",
          "transactionIndex": "0x18",
          "logIndex": "0x22",
          "removed": false
        },
        {
          "address": "0x80ca951439b06451b5162415b758f256242cf92a",
          "topics": [
            "0xe44f8c75311d127aeb3cf702cf02a0b55ecae2d1f1962d9922f5683d51803eff"
          ],
          "data": "0x0000000000000000000000000000000000000000000000000000000000000000",
          "blockHash": "0x8dc6514b3f144f74cb0949d7cc84fb95c3129e26da20fc9edb2f7cf9d442d40b",
          "blockNumber": "0x1e942f",
          "transactionHash": "0x9522a2cb2f1ac306f871eafc1026cd676622c47642b18f9a46483d5e17e98a79",
          "transactionIndex": "0x18",
          "logIndex": "0x23",
          "removed": false
        },
        {
          "address": "0x80ca951439b06451b5162415b758f256242cf92a",
          "topics": [
            "0xd40e423db79bb42cc61a6a79d4af5b9ce09e66f1738cb4bbb4bbb9fe373367da"
          ],
          "data": "0x0000000000000000000000000000000000000000000000000000000000000000",
          "blockHash": "0x8dc6514b3f144f74cb0949d7cc84fb95c3129e26da20fc9edb2f7cf9d442d40b",
          "blockNumber": "0x1e942f",
          "transactionHash": "0x9522a2cb2f1ac306f871eafc1026cd676622c47642b18f9a46483d5e17e98a79",
          "transactionIndex": "0x18",
          "logIndex": "0x24",
          "removed": false
        },
        {
          "address": "0x80ca951439b06451b5162415b758f256242cf92a",
          "topics": [
            "0xe44f8c75311d127aeb3cf702cf02a0b55ecae2d1f1962d9922f5683d51803eff"
          ],
          "data": "0x0000000000000000000000000000000000000000000000000000000000000000",
          "blockHash": "0x8dc6514b3f144f74cb0949d7cc84fb95c3129e26da20fc9edb2f7cf9d442d40b",
          "blockNumber": "0x1e942f",
          "transactionHash": "0x9522a2cb2f1ac306f871eafc1026cd676622c47642b18f9a46483d5e17e98a79",
          "transactionIndex": "0x18",
          "logIndex": "0x25",
          "removed": false
        },
        {
          "address": "0x80ca951439b06451b5162415b758f256242cf92a",
          "topics": [
            "0xe44f8c75311d127aeb3cf702cf02a0b55ecae2d1f1962d9922f5683d51803eff"
          ],
          "data": "0x0000000000000000000000000000000000000000000000000000000000000000",
          "blockHash": "0x8dc6514b3f144f74cb0949d7cc84fb95c3129e26da20fc9edb2f7cf9d442d40b",
          "blockNumber": "0x1e942f",
          "transactionHash": "0x9522a2cb2f1ac306f871eafc1026cd676622c47642b18f9a46483d5e17e98a79",
          "transactionIndex": "0x18",
          "logIndex": "0x26",
          "removed": false
        },
        {
          "address": "0x80ca951439b06451b5162415b758f256242cf92a",
          "topics": [
            "0x22d7ff694ee2b21efdc8f0620ce8981ffe587da1939f9bafed3686101b070e70"
          ],
          "data": "0x000000000000000000000000000000000000000000000000000000000000000000000000000000000000000000000000000000000000000000000000000000010000000000000000000000000000000000000000000000000000000000000001",
          "blockHash": "0x8dc6514b3f144f74cb0949d7cc84fb95c3129e26da20fc9edb2f7cf9d442d40b",
          "blockNumber": "0x1e942f",
          "transactionHash": "0x9522a2cb2f1ac306f871eafc1026cd676622c47642b18f9a46483d5e17e98a79",
          "transactionIndex": "0x18",
          "logIndex": "0x27",
          "removed": false
        }
      ],
      "logsBloom": "0x00000000000000000000000000000000000000000000000820000600000000000000000000000000000400000000000000000000000000000000000000000000000000000000000000000000000000000000000000000000000000000000000000000000000000000000000000000000000000000000000000000400000000000000000000000000000100000000008000000000000000000000000000000000000000000000000000000000000000000000000010000000000000000000000000000000000000000000000000000000000000000000200000000000000000000000000000000000000001000000000000000000000000000000001000000000",
      "type": "0x2",
      "transactionHash": "0x9522a2cb2f1ac306f871eafc1026cd676622c47642b18f9a46483d5e17e98a79",
      "transactionIndex": "0x18",
      "blockHash": "0x8dc6514b3f144f74cb0949d7cc84fb95c3129e26da20fc9edb2f7cf9d442d40b",
      "blockNumber": "0x1e942f",
      "gasUsed": "0x26e94",
      "effectiveGasPrice": "0xac93",
      "from": "0xff9179199903a10283e19d86de8c09f2718073da",
      "to": "0x80ca951439b06451b5162415b758f256242cf92a",
      "contractAddress": null
    }
  ],
  "libraries": [],
  "pending": [],
  "returns": {},
  "timestamp": 1721976499,
  "chain": 17000,
  "commit": "c0162cf"
}