{
  "transactions": [
    {
      "hash": "0x81792366593305606b32ecada2a9b960e38aefe6116b86d5f4d7cd631eb00a72",
      "transactionType": "CREATE",
      "contractName": "OnlyAdminCheats",
      "contractAddress": "0xbf938404ab1eff0b266becac20c3835d5cb1f264",
      "function": null,
      "arguments": null,
      "transaction": {
        "from": "0xff9179199903a10283e19d86de8c09f2718073da",
        "gas": "0x15f395",
        "value": "0x0",
        "input": "0x608060405234801561001057600080fd5b5061130e806100206000396000f3fe608060405234801561001057600080fd5b506004361061004c5760003560e01c80636f4d469b1461005157806375829def14610066578063932c30b514610079578063ed82e4711461008c575b600080fd5b61006461005f366004610e5e565b61009f565b005b610064610074366004610f23565b61017d565b610064610087366004610f3e565b610264565b61006461009a366004610f56565b61035b565b336000805160206112b983398151915280546000906100c0576100c0610f6f565b60009182526020909120600290910201546001600160a01b0316146101005760405162461bcd60e51b81526004016100f790610f85565b60405180910390fd5b60005b815181101561017957610170604051806040016040528084848151811061012c5761012c610f6f565b60200260200101516001600160a01b031681526020016040518060200160405280600081525081525061016a6000805160206112b983398151915290565b9061059c565b50600101610103565b5050565b336000805160206112b9833981519152805460009061019e5761019e610f6f565b60009182526020909120600290910201546001600160a01b0316146101d55760405162461bcd60e51b81526004016100f790610f85565b60006000805160206112b983398151915280546000906101f7576101f7610f6f565b6000918252602082206002919091020180546001600160a01b0319166001600160a01b0385161781556040519092507f357ac66405b24ee07965d221cbbb70cf07818df65bf681957c2e97a783208821916102589185906001860190610fe8565b60405180910390a15050565b336000805160206112b9833981519152805460009061028557610285610f6f565b60009182526020909120600290910201546001600160a01b0316146102bc5760405162461bcd60e51b81526004016100f790610f85565b80357f51e64ee84f491aad402ff73401b25fa2058a87e9d027403050c951c19bbb78015560208101357f51e64ee84f491aad402ff73401b25fa2058a87e9d027403050c951c19bbb78025560408101357f51e64ee84f491aad402ff73401b25fa2058a87e9d027403050c951c19bbb780355606001357f51e64ee84f491aad402ff73401b25fa2058a87e9d027403050c951c19bbb780455565b505050565b336000805160206112b9833981519152805460009061037c5761037c610f6f565b60009182526020909120600290910201546001600160a01b0316146103b35760405162461bcd60e51b81526004016100f790610f85565b60006103df7f51e64ee84f491aad402ff73401b25fa2058a87e9d027403050c951c19bbb78008361064e565b90506000806103ed8361069d565b9150915060006103fc83610be2565b9050600061040983610be2565b905081516000148061041a57508051155b80610426575060018251115b80610432575060018151115b156104b9577f51e64ee84f491aad402ff73401b25fa2058a87e9d027403050c951c19bbb78015460088601805460009061046d9084906110a5565b909155505060088501546040517fae21bbcc2c6a4a78d5c4ef7f9e1981a07bf3d3e17834b89ef22e24d81396d976916104ac91899186918691906110f4565b60405180910390a1610594565b6104e6826000815181106104cf576104cf610f6f565b602002602001015186610d4b90919063ffffffff16565b610513816000815181106104fc576104fc610f6f565b602002602001015186610d8190919063ffffffff16565b7f22d7ff694ee2b21efdc8f0620ce8981ffe587da1939f9bafed3686101b070e70868360008151811061054857610548610f6f565b60200260200101518360008151811061056357610563610f6f565b602002602001015160405161058b939291909283526020830191909152604082015260600190565b60405180910390a15b505050505050565b6000806000805160206112b98339815191525484546001808201875560008781526020808220885160029095020180546001600160a01b0319166001600160a01b03909516949094178455870151939450928692918201906105fe9082611179565b50855160208701516040519294507f479e555f6c2b410f9bea0faf0392342851e2103c9c7a9b61f8f087b47331d0eb935061063c9286929190611239565b60405180910390a19150505b92915050565b815460009082106106725760405163635e873760e01b815260040160405180910390fd5b82600001828154811061068757610687610f6f565b90600052602060002090600d0201905092915050565b8054606090819067ffffffffffffffff8111156106bc576106bc610e2c565b6040519080825280602002602001820160405280156106e5578160200160208202803683370190505b50600184015490925067ffffffffffffffff81111561070657610706610e2c565b60405190808252806020026020018201604052801561072f578160200160208202803683370190505b50905060005b6002840154811015610bdc57600084600201600101600086600201600001848154811061076457610764610f6f565b60009182526020808320909101546001600160a01b031683528201929092526040908101909120815160a08101835291829081018260038282826020028201915b8154815260200190600101908083116107a55750505091835250506040805160608101918290526020909201919060038481019182845b8154815260200190600101908083116107dc57505050919092525050815180516020820151604090920151885194955090939192509061081c8482610e14565b610858576040518481527fd40e423db79bb42cc61a6a79d4af5b9ce09e66f1738cb4bbb4bbb9fe373367da9060200160405180910390a1610884565b600388858151811061086c5761086c610f6f565b6020026020010181815161088091906110a5565b9052505b61088e8382610e14565b6108cb576040518381527fd40e423db79bb42cc61a6a79d4af5b9ce09e66f1738cb4bbb4bbb9fe373367da906020015b60405180910390a161092e565b838303610902576040518381527f273e8bda82f2832d14b80b1a1167e3a7b6e1c9c4a987db544a51abf0f45d9866906020016108be565b600288848151811061091657610916610f6f565b6020026020010181815161092a91906110a5565b9052505b6109388282610e14565b610975576040518281527fd40e423db79bb42cc61a6a79d4af5b9ce09e66f1738cb4bbb4bbb9fe373367da906020015b60405180910390a16109e3565b8382148061098257508282145b156109b7576040518281527f273e8bda82f2832d14b80b1a1167e3a7b6e1c9c4a987db544a51abf0f45d986690602001610968565b60018883815181106109cb576109cb610f6f565b602002602001018181516109df91906110a5565b9052505b6020858101518051918101516040909101518a51610a018482610e14565b610a3d576040518481527fe44f8c75311d127aeb3cf702cf02a0b55ecae2d1f1962d9922f5683d51803eff9060200160405180910390a1610a69565b60038b8581518110610a5157610a51610f6f565b60200260200101818151610a6591906110a5565b9052505b610a738382610e14565b610ab0576040518381527fe44f8c75311d127aeb3cf702cf02a0b55ecae2d1f1962d9922f5683d51803eff906020015b60405180910390a1610b13565b838303610ae7576040518381527f90451f73e96f4399935aa9624a2512e9f3d028c95195cbe957a0376f2f15bda490602001610aa3565b60028b8481518110610afb57610afb610f6f565b60200260200101818151610b0f91906110a5565b9052505b610b1d8282610e14565b610b5a576040518281527fe44f8c75311d127aeb3cf702cf02a0b55ecae2d1f1962d9922f5683d51803eff906020015b60405180910390a1610bc8565b83821480610b6757508282145b15610b9c576040518281527f90451f73e96f4399935aa9624a2512e9f3d028c95195cbe957a0376f2f15bda490602001610b4d565b60018b8381518110610bb057610bb0610f6f565b60200260200101818151610bc491906110a5565b9052505b505050505050505050806001019050610735565b50915091565b606060008060005b8451811015610c7c5782858281518110610c0657610c06610f6f565b60200260200101511115610c3957848181518110610c2657610c26610f6f565b6020026020010151925060019150610c74565b82858281518110610c4c57610c4c610f6f565b6020026020010151148015610c615750600083115b15610c745781610c708161129f565b9250505b600101610bea565b5081600003610c9c57505060408051600081526020810190915292915050565b8067ffffffffffffffff811115610cb557610cb5610e2c565b604051908082528060200260200182016040528015610cde578160200160208202803683370190505b5092506000805b8551811015610d425783868281518110610d0157610d01610f6f565b602002602001015103610d3a5780858381518110610d2157610d21610f6f565b602090810291909101015281610d368161129f565b9250505b600101610ce5565b50505050919050565b801580610d59575081548110155b15610d795760405162c6600760e41b8152600481018290526024016100f7565b600490910155565b801580610d92575060018201548110155b15610db357604051638bef08f560e01b8152600481018290526024016100f7565b600582018190556001820180546000919083908110610dd457610dd4610f6f565b6000918252602082200191505b8154811015610e0e5760008181526006850160205260409020805460ff1916600190811790915501610de1565b50505050565b6000826000108015610e2557508183105b9392505050565b634e487b7160e01b600052604160045260246000fd5b80356001600160a01b0381168114610e5957600080fd5b919050565b60006020808385031215610e7157600080fd5b823567ffffffffffffffff80821115610e8957600080fd5b818501915085601f830112610e9d57600080fd5b813581811115610eaf57610eaf610e2c565b8060051b604051601f19603f83011681018181108582111715610ed457610ed4610e2c565b604052918252848201925083810185019188831115610ef257600080fd5b938501935b82851015610f1757610f0885610e42565b84529385019392850192610ef7565b98975050505050505050565b600060208284031215610f3557600080fd5b610e2582610e42565b600060808284031215610f5057600080fd5b50919050565b600060208284031215610f6857600080fd5b5035919050565b634e487b7160e01b600052603260045260246000fd5b6020808252601590820152742cb7ba9030b932903737ba103a34329030b236b4b760591b604082015260600190565b600181811c90821680610fc857607f821691505b602082108103610f5057634e487b7160e01b600052602260045260246000fd5b8381526000602060018060a01b0385166020840152606060408401526000845461101181610fb4565b8060608701526080600180841660008114611033576001811461104f5761107f565b60ff19851660808a0152608084151560051b8a0101955061107f565b89600052602060002060005b858110156110765781548b820186015290830190880161105b565b8a016080019650505b50939a9950505050505050505050565b634e487b7160e01b600052601160045260246000fd5b808201808211156106485761064861108f565b60008151808452602080850194506020840160005b838110156110e9578151875295820195908201906001016110cd565b509495945050505050565b84815260806020820152600061110d60808301866110b8565b828103604084015261111f81866110b8565b91505082606083015295945050505050565b601f821115610356576000816000526020600020601f850160051c8101602086101561115a5750805b601f850160051c820191505b8181101561059457828155600101611166565b815167ffffffffffffffff81111561119357611193610e2c565b6111a7816111a18454610fb4565b84611131565b602080601f8311600181146111dc57600084156111c45750858301515b600019600386901b1c1916600185901b178555610594565b600085815260208120601f198616915b8281101561120b578886015182559484019460019091019084016111ec565b50858210156112295787850151600019600388901b60f8161c191681555b5050505050600190811b01905550565b8381526000602060018060a01b038516602084015260606040840152835180606085015260005b8181101561127c57858101830151858201608001528201611260565b506000608082860101526080601f19601f83011685010192505050949350505050565b6000600182016112b1576112b161108f565b506001019056fe8972abadfc8727f472fb0b6beb8d30155bd57415f49dc6c94e9cecdec0ed9200a2646970667358221220db87f764aa7973ac943adafc82556fd773e347ea660d36733209f15f5927ce7264736f6c63430008180033",
        "nonce": "0x73",
        "chainId": "0xaa36a7"
      },
      "additionalContracts": [],
      "isFixedGasLimit": false
    },
    {
      "hash": "0xadc56cdbfc55b0925edfca9609ec1a245e9dcc529eff1d332beaad9f2f9652e7",
      "transactionType": "CALL",
      "contractName": null,
      "contractAddress": "0x96f7d1bc89bfe12b1292ef4f986feb0dd9935b69",
      "function": "setImplementation(bytes4,address)",
      "arguments": [
        "0x6f4d469b00000000000000000000000000000000000000000000000000000000",
        "0xBf938404AB1eFF0B266bECAC20c3835d5cb1f264"
      ],
      "transaction": {
        "from": "0xff9179199903a10283e19d86de8c09f2718073da",
        "to": "0x96f7d1bc89bfe12b1292ef4f986feb0dd9935b69",
        "gas": "0xe474",
        "value": "0x0",
        "input": "0x0815f6fd6f4d469b00000000000000000000000000000000000000000000000000000000000000000000000000000000bf938404ab1eff0b266becac20c3835d5cb1f264",
        "nonce": "0x74",
        "chainId": "0xaa36a7"
      },
      "additionalContracts": [],
      "isFixedGasLimit": false
    },
    {
      "hash": "0x0f927d362d6ac8cd53577b8d74ce359ba94dd9eb5391fd457e7eaa2458c1f335",
      "transactionType": "CALL",
      "contractName": null,
      "contractAddress": "0x96f7d1bc89bfe12b1292ef4f986feb0dd9935b69",
      "function": "setImplementation(bytes4,address)",
      "arguments": [
        "0x75829def00000000000000000000000000000000000000000000000000000000",
        "0xBf938404AB1eFF0B266bECAC20c3835d5cb1f264"
      ],
      "transaction": {
        "from": "0xff9179199903a10283e19d86de8c09f2718073da",
        "to": "0x96f7d1bc89bfe12b1292ef4f986feb0dd9935b69",
        "gas": "0x1077d",
        "value": "0x0",
        "input": "0x0815f6fd75829def00000000000000000000000000000000000000000000000000000000000000000000000000000000bf938404ab1eff0b266becac20c3835d5cb1f264",
        "nonce": "0x75",
        "chainId": "0xaa36a7"
      },
      "additionalContracts": [],
      "isFixedGasLimit": false
    },
    {
      "hash": "0x3f083a6ff62140b588aab5f4a1c8fdf06136f35b2dcf74fe6e5e36bdb008726e",
      "transactionType": "CALL",
      "contractName": null,
      "contractAddress": "0x96f7d1bc89bfe12b1292ef4f986feb0dd9935b69",
      "function": "setImplementation(bytes4,address)",
      "arguments": [
        "0x932c30b500000000000000000000000000000000000000000000000000000000",
        "0xBf938404AB1eFF0B266bECAC20c3835d5cb1f264"
      ],
      "transaction": {
        "from": "0xff9179199903a10283e19d86de8c09f2718073da",
        "to": "0x96f7d1bc89bfe12b1292ef4f986feb0dd9935b69",
        "gas": "0xf58e",
        "value": "0x0",
        "input": "0x0815f6fd932c30b500000000000000000000000000000000000000000000000000000000000000000000000000000000bf938404ab1eff0b266becac20c3835d5cb1f264",
        "nonce": "0x76",
        "chainId": "0xaa36a7"
      },
      "additionalContracts": [],
      "isFixedGasLimit": false
    },
    {
      "hash": "0xace82244733f555e9d7801aeafbaeef6faf76211ca413e6ab9b1466581717f39",
      "transactionType": "CREATE",
      "contractName": "Tally",
      "contractAddress": "0x95b9edb2d192d9cfe695e7bcbc89d3f6bbbc24b5",
      "function": null,
      "arguments": null,
      "transaction": {
        "from": "0xff9179199903a10283e19d86de8c09f2718073da",
        "gas": "0x1233e6",
        "value": "0x0",
        "input": "0x608060405234801561001057600080fd5b50610fa2806100206000396000f3fe608060405234801561001057600080fd5b506004361061002b5760003560e01c8063ed8b6b3114610030575b600080fd5b61004361003e366004610df7565b610045565b005b60006100717f51e64ee84f491aad402ff73401b25fa2058a87e9d027403050c951c19bbb78008361009d565b90506100808160080154421190565b156100935761008f82826100ed565b5050565b61008f82826102cf565b815460009082106100c15760405163635e873760e01b815260040160405180910390fd5b8260000182815481106100d6576100d6610e10565b90600052602060002090600d020190505b92915050565b6100f681610366565b156101145760405163f6310c2560e01b815260040160405180910390fd5b60008061012083610380565b91509150600061012f836108c5565b9050600061013c836108c5565b905081516000148061014d57508051155b80610159575060018251115b80610165575060018151115b156101ec577f51e64ee84f491aad402ff73401b25fa2058a87e9d027403050c951c19bbb7801546008860180546000906101a0908490610e3c565b909155505060088501546040517fae21bbcc2c6a4a78d5c4ef7f9e1981a07bf3d3e17834b89ef22e24d81396d976916101df9189918691869190610e8b565b60405180910390a16102c7565b6102198260008151811061020257610202610e10565b602002602001015186610a2e90919063ffffffff16565b6102468160008151811061022f5761022f610e10565b602002602001015186610a6990919063ffffffff16565b7f22d7ff694ee2b21efdc8f0620ce8981ffe587da1939f9bafed3686101b070e70868360008151811061027b5761027b610e10565b60200260200101518360008151811061029657610296610e10565b60200260200101516040516102be939291909283526020830191909152604082015260600190565b60405180910390a15b505050505050565b6102d881610afc565b156102f657604051631660900f60e21b815260040160405180910390fd5b60008061030283610380565b91509150600061031183610b26565b9050600061031e83610b26565b905061032985610d7e565b7f0134a7a3231ab936086853b621f3c219c8caf5da163d9bfc27c27223b6b037e18661035487610db1565b84846040516102be9493929190610ec8565b60048101546000901515806100e757505060050154151590565b8054606090819067ffffffffffffffff81111561039f5761039f610f04565b6040519080825280602002602001820160405280156103c8578160200160208202803683370190505b50600184015490925067ffffffffffffffff8111156103e9576103e9610f04565b604051908082528060200260200182016040528015610412578160200160208202803683370190505b50905060005b60028401548110156108bf57600084600201600101600086600201600001848154811061044757610447610e10565b60009182526020808320909101546001600160a01b031683528201929092526040908101909120815160a08101835291829081018260038282826020028201915b8154815260200190600101908083116104885750505091835250506040805160608101918290526020909201919060038481019182845b8154815260200190600101908083116104bf5750505091909252505081518051602082015160409092015188519495509093919250906104ff8482610de5565b61053b576040518481527fd40e423db79bb42cc61a6a79d4af5b9ce09e66f1738cb4bbb4bbb9fe373367da9060200160405180910390a1610567565b600388858151811061054f5761054f610e10565b602002602001018181516105639190610e3c565b9052505b6105718382610de5565b6105ae576040518381527fd40e423db79bb42cc61a6a79d4af5b9ce09e66f1738cb4bbb4bbb9fe373367da906020015b60405180910390a1610611565b8383036105e5576040518381527f273e8bda82f2832d14b80b1a1167e3a7b6e1c9c4a987db544a51abf0f45d9866906020016105a1565b60028884815181106105f9576105f9610e10565b6020026020010181815161060d9190610e3c565b9052505b61061b8282610de5565b610658576040518281527fd40e423db79bb42cc61a6a79d4af5b9ce09e66f1738cb4bbb4bbb9fe373367da906020015b60405180910390a16106c6565b8382148061066557508282145b1561069a576040518281527f273e8bda82f2832d14b80b1a1167e3a7b6e1c9c4a987db544a51abf0f45d98669060200161064b565b60018883815181106106ae576106ae610e10565b602002602001018181516106c29190610e3c565b9052505b6020858101518051918101516040909101518a516106e48482610de5565b610720576040518481527fe44f8c75311d127aeb3cf702cf02a0b55ecae2d1f1962d9922f5683d51803eff9060200160405180910390a161074c565b60038b858151811061073457610734610e10565b602002602001018181516107489190610e3c565b9052505b6107568382610de5565b610793576040518381527fe44f8c75311d127aeb3cf702cf02a0b55ecae2d1f1962d9922f5683d51803eff906020015b60405180910390a16107f6565b8383036107ca576040518381527f90451f73e96f4399935aa9624a2512e9f3d028c95195cbe957a0376f2f15bda490602001610786565b60028b84815181106107de576107de610e10565b602002602001018181516107f29190610e3c565b9052505b6108008282610de5565b61083d576040518281527fe44f8c75311d127aeb3cf702cf02a0b55ecae2d1f1962d9922f5683d51803eff906020015b60405180910390a16108ab565b8382148061084a57508282145b1561087f576040518281527f90451f73e96f4399935aa9624a2512e9f3d028c95195cbe957a0376f2f15bda490602001610830565b60018b838151811061089357610893610e10565b602002602001018181516108a79190610e3c565b9052505b505050505050505050806001019050610418565b50915091565b606060008060005b845181101561095f57828582815181106108e9576108e9610e10565b6020026020010151111561091c5784818151811061090957610909610e10565b6020026020010151925060019150610957565b8285828151811061092f5761092f610e10565b60200260200101511480156109445750600083115b15610957578161095381610f1a565b9250505b6001016108cd565b508160000361097f57505060408051600081526020810190915292915050565b8067ffffffffffffffff81111561099857610998610f04565b6040519080825280602002602001820160405280156109c1578160200160208202803683370190505b5092506000805b8551811015610a2557838682815181106109e4576109e4610e10565b602002602001015103610a1d5780858381518110610a0457610a04610e10565b602090810291909101015281610a1981610f1a565b9250505b6001016109c8565b50505050919050565b801580610a3c575081548110155b15610a615760405162c6600760e41b8152600481018290526024015b60405180910390fd5b600490910155565b801580610a7a575060018201548110155b15610a9b57604051638bef08f560e01b815260048101829052602401610a58565b600582018190556001820180546000919083908110610abc57610abc610e10565b6000918252602082200191505b8154811015610af65760008181526006850160205260409020805460ff1916600190811790915501610ac9565b50505050565b6000600b820181610b0c84610db1565b815260208101919091526040016000205460ff1692915050565b6040805160608181018352600080835260208084018290528385018290528451808401865260001980825291810182905294850152909290805b8551811015610cf1578360026020020151868281518110610b8357610b83610e10565b60200260200101511115610ce9578360016020020151868281518110610bab57610bab610e10565b60200260200101511115610c985783518651879083908110610bcf57610bcf610e10565b60200260200101511115610c44576020808501805160408088019190915291850180519286019290925285519052835190528551869082908110610c1557610c15610e10565b602002602001015184600060038110610c3057610c30610e10565b6020020152808360005b6020020152610cd2565b60208085015160408087019190915290840151908401528551869082908110610c6f57610c6f610e10565b602002602001015184600160038110610c8a57610c8a610e10565b602002015280836001610c3a565b858181518110610caa57610caa610e10565b602002602001015184600260038110610cc557610cc5610e10565b6020020152604083018190525b6003821015610ce95781610ce581610f1a565b9250505b600101610b60565b508067ffffffffffffffff811115610d0b57610d0b610f04565b604051908082528060200260200182016040528015610d34578160200160208202803683370190505b50935060005b81811015610a2557828160038110610d5457610d54610e10565b6020020151858281518110610d6b57610d6b610e10565b6020908102919091010152600101610d3a565b6001600b82016000610d8f84610db1565b81526020810191909152604001600020805460ff191691151591909117905550565b600a810154600090808203610dc95750600192915050565b80610dd48142610f33565b610dde9190610f55565b9392505050565b6000826000108015610dde5750501190565b600060208284031215610e0957600080fd5b5035919050565b634e487b7160e01b600052603260045260246000fd5b634e487b7160e01b600052601160045260246000fd5b808201808211156100e7576100e7610e26565b60008151808452602080850194506020840160005b83811015610e8057815187529582019590820190600101610e64565b509495945050505050565b848152608060208201526000610ea46080830186610e4f565b8281036040840152610eb68186610e4f565b91505082606083015295945050505050565b848152836020820152608060408201526000610ee76080830185610e4f565b8281036060840152610ef98185610e4f565b979650505050505050565b634e487b7160e01b600052604160045260246000fd5b600060018201610f2c57610f2c610e26565b5060010190565b600082610f5057634e487b7160e01b600052601260045260246000fd5b500490565b80820281158282048414176100e7576100e7610e2656fea2646970667358221220805dc803f4c21bf2bf8a8f272dfcd74a70de487769c2199f2bc252bb8cf8b7d364736f6c63430008180033",
        "nonce": "0x77",
        "chainId": "0xaa36a7"
      },
      "additionalContracts": [],
      "isFixedGasLimit": false
    },
    {
      "hash": "0x5a8a3e6286d1a6b4fd844a17f5cd80c31b358356a192dd862e2877591f3981be",
      "transactionType": "CALL",
      "contractName": null,
      "contractAddress": "0x96f7d1bc89bfe12b1292ef4f986feb0dd9935b69",
      "function": "setImplementation(bytes4,address)",
      "arguments": [
        "0xed8b6b3100000000000000000000000000000000000000000000000000000000",
        "0x95B9EDb2D192d9cFE695e7bCbc89d3F6bbbC24b5"
      ],
      "transaction": {
        "from": "0xff9179199903a10283e19d86de8c09f2718073da",
        "to": "0x96f7d1bc89bfe12b1292ef4f986feb0dd9935b69",
        "gas": "0xeaec",
        "value": "0x0",
        "input": "0x0815f6fded8b6b310000000000000000000000000000000000000000000000000000000000000000000000000000000095b9edb2d192d9cfe695e7bcbc89d3f6bbbc24b5",
        "nonce": "0x78",
        "chainId": "0xaa36a7"
      },
      "additionalContracts": [],
      "isFixedGasLimit": false
    },
    {
      "hash": "0x4af3b945b32e3cc7ab1def190157df80d41b54fe520b238b1ce45208180ca1ed",
      "transactionType": "CREATE",
      "contractName": "Initialize",
      "contractAddress": "0x62d3f057f54f770a4b162a48dc0588da643f73ab",
      "function": null,
      "arguments": null,
      "transaction": {
        "from": "0xff9179199903a10283e19d86de8c09f2718073da",
        "gas": "0x903cc",
        "value": "0x0",
        "input": "0x608060405234801561001057600080fd5b50610742806100206000396000f3fe608060405234801561001057600080fd5b506004361061002b5760003560e01c80638e5ed9c414610030575b600080fd5b61004361003e36600461031f565b610045565b005b7ff0c57e16840df040f15088dc2f81fe391c3923bec73e23a9662efc9c229c6a008054600160401b810460ff16159067ffffffffffffffff1660008115801561008b5750825b905060008267ffffffffffffffff1660011480156100a85750303b155b9050811580156100b6575080155b156100d45760405163f92ee8a960e01b815260040160405180910390fd5b845467ffffffffffffffff1916600117855583156100fe57845460ff60401b1916600160401b1785555b61013261010b888a610421565b7f8972abadfc8727f472fb0b6beb8d30155bd57415f49dc6c94e9cecdec0ed92009061021c565b5085357f51e64ee84f491aad402ff73401b25fa2058a87e9d027403050c951c19bbb78015560208601357f51e64ee84f491aad402ff73401b25fa2058a87e9d027403050c951c19bbb78025560408601357f51e64ee84f491aad402ff73401b25fa2058a87e9d027403050c951c19bbb78035560608601357f51e64ee84f491aad402ff73401b25fa2058a87e9d027403050c951c19bbb780455831561021257845460ff60401b19168555604051600181527fc7f505b2f371ae2175ee4913f4499e1f2633a7b5936321eed1cdaeb6115181d29060200160405180910390a15b5050505050505050565b6000805b82518110156102555761024c8484838151811061023f5761023f610545565b602002602001015161025d565b50600101610220565b509192915050565b6000807f8972abadfc8727f472fb0b6beb8d30155bd57415f49dc6c94e9cecdec0ed92005484546001808201875560008781526020808220885160029095020180546001600160a01b0319166001600160a01b03909516949094178455870151939450928692918201906102d190826105e6565b50855160208701516040519294507f479e555f6c2b410f9bea0faf0392342851e2103c9c7a9b61f8f087b47331d0eb935061030f92869291906106a6565b60405180910390a1949350505050565b600080600083850360a081121561033557600080fd5b843567ffffffffffffffff8082111561034d57600080fd5b818701915087601f83011261036157600080fd5b81358181111561037057600080fd5b8860208260051b850101111561038557600080fd5b6020929092019550909350506080601f19820112156103a357600080fd5b506020840190509250925092565b634e487b7160e01b600052604160045260246000fd5b6040805190810167ffffffffffffffff811182821017156103ea576103ea6103b1565b60405290565b604051601f8201601f1916810167ffffffffffffffff81118282101715610419576104196103b1565b604052919050565b600067ffffffffffffffff8084111561043c5761043c6103b1565b8360051b602061044d8183016103f0565b86815291850191818101903684111561046557600080fd5b865b848110156105395780358681111561047f5760008081fd5b880160403682900312156104935760008081fd5b61049b6103c7565b81356001600160a01b03811681146104b35760008081fd5b815281860135888111156104c75760008081fd5b9190910190601f36818401126104dd5760008081fd5b8235898111156104ef576104ef6103b1565b610500818301601f191689016103f0565b915080825236888286010111156105175760008081fd5b8088850189840137600090820188015281870152845250918301918301610467565b50979650505050505050565b634e487b7160e01b600052603260045260246000fd5b600181811c9082168061056f57607f821691505b60208210810361058f57634e487b7160e01b600052602260045260246000fd5b50919050565b601f8211156105e1576000816000526020600020601f850160051c810160208610156105be5750805b601f850160051c820191505b818110156105dd578281556001016105ca565b5050505b505050565b815167ffffffffffffffff811115610600576106006103b1565b6106148161060e845461055b565b84610595565b602080601f83116001811461064957600084156106315750858301515b600019600386901b1c1916600185901b1785556105dd565b600085815260208120601f198616915b8281101561067857888601518255948401946001909101908401610659565b50858210156106965787850151600019600388901b60f8161c191681555b5050505050600190811b01905550565b8381526000602060018060a01b038516602084015260606040840152835180606085015260005b818110156106e9578581018301518582016080015282016106cd565b506000608082860101526080601f19601f8301168501019250505094935050505056fea264697066735822122076c80b83af435fc50140d69475ade953ee451c3cac224127e16fa6d8081632e664736f6c63430008180033",
        "nonce": "0x79",
        "chainId": "0xaa36a7"
      },
      "additionalContracts": [],
      "isFixedGasLimit": false
    },
    {
      "hash": "0x8e62b04e3461bc38561c65eeec091466da7357814b9a94cc9b449209764e960e",
      "transactionType": "CALL",
      "contractName": null,
      "contractAddress": "0x96f7d1bc89bfe12b1292ef4f986feb0dd9935b69",
      "function": "setImplementation(bytes4,address)",
      "arguments": [
        "0x8e5ed9c400000000000000000000000000000000000000000000000000000000",
        "0x62d3f057F54F770a4B162A48dc0588da643F73AB"
      ],
      "transaction": {
        "from": "0xff9179199903a10283e19d86de8c09f2718073da",
        "to": "0x96f7d1bc89bfe12b1292ef4f986feb0dd9935b69",
        "gas": "0xdcfc",
        "value": "0x0",
        "input": "0x0815f6fd8e5ed9c40000000000000000000000000000000000000000000000000000000000000000000000000000000062d3f057f54f770a4b162a48dc0588da643f73ab",
        "nonce": "0x7a",
        "chainId": "0xaa36a7"
      },
      "additionalContracts": [],
      "isFixedGasLimit": false
    },
    {
      "hash": "0xd0f3790c9c75058be0f72935d88fbc065ae2de3800414dc720fbc81bbabf9510",
      "transactionType": "CREATE",
      "contractName": "TextDAOWithCheatsFacade",
      "contractAddress": "0x3287b26196f68167530ad60fa5fe057f75ab3790",
      "function": null,
      "arguments": null,
      "transaction": {
        "from": "0xff9179199903a10283e19d86de8c09f2718073da",
        "gas": "0x933f9",
        "value": "0x0",
        "input": "0x608060405234801561001057600080fd5b5061076f806100206000396000f3fe608060405234801561001057600080fd5b50600436106100f55760003560e01c8063932c30b511610097578063d5c8d4f111610066578063d5c8d4f1146101e6578063ed82e471146101f4578063ed8b6b31146101f4578063fe0d94c1146101f457600080fd5b8063932c30b514610196578063abf50890146101a4578063d0f7c316146101b2578063d13da0bd146101c057600080fd5b806371cb2ee5116100d357806371cb2ee51461012d57806375829def146101425780638ca89f77146101505780638e5ed9c41461018357600080fd5b806302d232f4146100fa5780630c68678c1461010e5780636f4d469b1461011c575b600080fd5b61010c610108366004610202565b5050565b005b61010c610108366004610224565b61010c61012a3660046102bf565b50565b61010c61013b3660046103fa565b5050505050565b61010c61012a366004610474565b61016661015e366004610496565b600092915050565b6040516001600160a01b0390911681526020015b60405180910390f35b61010c6101913660046104f0565b505050565b61010c61012a366004610545565b61010c610191366004610561565b61010c61019136600461061d565b6101d86101ce36600461066d565b6000949350505050565b60405190815260200161017a565b6101d861015e3660046106d9565b61010c61012a366004610720565b6000806040838503121561021557600080fd5b50508035926020909101359150565b60008082840360e081121561023857600080fd5b8335925060c0601f198201121561024e57600080fd5b506020830190509250929050565b634e487b7160e01b600052604160045260246000fd5b604051601f8201601f1916810167ffffffffffffffff8111828210171561029b5761029b61025c565b604052919050565b80356001600160a01b03811681146102ba57600080fd5b919050565b600060208083850312156102d257600080fd5b823567ffffffffffffffff808211156102ea57600080fd5b818501915085601f8301126102fe57600080fd5b8135818111156103105761031061025c565b8060051b9150610321848301610272565b818152918301840191848101908884111561033b57600080fd5b938501935b8385101561036057610351856102a3565b82529385019390850190610340565b98975050505050505050565b60008083601f84011261037e57600080fd5b50813567ffffffffffffffff81111561039657600080fd5b6020830191508360208285010111156103ae57600080fd5b9250929050565b60008083601f8401126103c757600080fd5b50813567ffffffffffffffff8111156103df57600080fd5b6020830191508360208260051b85010111156103ae57600080fd5b60008060008060006060868803121561041257600080fd5b85359450602086013567ffffffffffffffff8082111561043157600080fd5b61043d89838a0161036c565b9096509450604088013591508082111561045657600080fd5b50610463888289016103b5565b969995985093965092949392505050565b60006020828403121561048657600080fd5b61048f826102a3565b9392505050565b600080602083850312156104a957600080fd5b823567ffffffffffffffff8111156104c057600080fd5b6104cc8582860161036c565b90969095509350505050565b6000608082840312156104ea57600080fd5b50919050565b600080600060a0848603121561050557600080fd5b833567ffffffffffffffff81111561051c57600080fd5b610528868287016103b5565b909450925061053c905085602086016104d8565b90509250925092565b60006080828403121561055757600080fd5b61048f83836104d8565b60008060006040848603121561057657600080fd5b83359250602084013567ffffffffffffffff81111561059457600080fd5b6105a0868287016103b5565b9497909650939450505050565b600082601f8301126105be57600080fd5b813567ffffffffffffffff8111156105d8576105d861025c565b6105eb601f8201601f1916602001610272565b81815284602083860101111561060057600080fd5b816020850160208301376000918101602001919091529392505050565b60008060006060848603121561063257600080fd5b8335925060208401359150604084013567ffffffffffffffff81111561065757600080fd5b610663868287016105ad565b9150509250925092565b6000806000806040858703121561068357600080fd5b843567ffffffffffffffff8082111561069b57600080fd5b6106a78883890161036c565b909650945060208701359150808211156106c057600080fd5b506106cd878288016103b5565b95989497509550505050565b600080604083850312156106ec57600080fd5b82359150602083013567ffffffffffffffff81111561070a57600080fd5b610716858286016105ad565b9150509250929050565b60006020828403121561073257600080fd5b503591905056fea26469706673582212200be22d00ca849b074e402bdf72e672823e9409ddda5a56fb04cf2a762e7e6d5464736f6c63430008180033",
        "nonce": "0x7b",
        "chainId": "0xaa36a7"
      },
      "additionalContracts": [],
      "isFixedGasLimit": false
    },
    {
      "hash": "0xf74a88e8fe94113251817a3161a690c01c4ac05a96edb29726fe24fc740d76a5",
      "transactionType": "CALL",
      "contractName": null,
      "contractAddress": "0x96f7d1bc89bfe12b1292ef4f986feb0dd9935b69",
      "function": "upgradeFacade(address)",
      "arguments": [
        "0x3287B26196f68167530aD60fa5fe057f75AB3790"
      ],
      "transaction": {
        "from": "0xff9179199903a10283e19d86de8c09f2718073da",
        "to": "0x96f7d1bc89bfe12b1292ef4f986feb0dd9935b69",
        "gas": "0xa27e",
        "value": "0x0",
        "input": "0x651dc03d0000000000000000000000003287b26196f68167530ad60fa5fe057f75ab3790",
        "nonce": "0x7c",
        "chainId": "0xaa36a7"
      },
      "additionalContracts": [],
      "isFixedGasLimit": false
    },
    {
      "hash": "0x0eebfbc85ffb018b4d3dc78ce99a39452f0adfaf2bedfd102c7acdd403f6e145",
      "transactionType": "CALL",
      "contractName": null,
      "contractAddress": "0xbc2fc4eb14077fd7f29b948e5fd39a4634f6d138",
      "function": "clone(bytes)",
      "arguments": [
        "0x8e5ed9c400000000000000000000000000000000000000000000000000000000000000a00000000000000000000000000000000000000000000000000000000000093a800000000000000000000000000000000000000000000000000000000000001c200000000000000000000000000000000000000000000000000000000000000064000000000000000000000000000000000000000000000000000000000000000200000000000000000000000000000000000000000000000000000000000000010000000000000000000000000000000000000000000000000000000000000020000000000000000000000000ff9179199903a10283e19d86de8c09f2718073da00000000000000000000000000000000000000000000000000000000000000400000000000000000000000000000000000000000000000000000000000000000"
      ],
      "transaction": {
        "from": "0xff9179199903a10283e19d86de8c09f2718073da",
        "to": "0xbc2fc4eb14077fd7f29b948e5fd39a4634f6d138",
        "gas": "0x78044",
        "value": "0x0",
        "input": "0x8ca89f77000000000000000000000000000000000000000000000000000000000000002000000000000000000000000000000000000000000000000000000000000001448e5ed9c400000000000000000000000000000000000000000000000000000000000000a00000000000000000000000000000000000000000000000000000000000093a800000000000000000000000000000000000000000000000000000000000001c200000000000000000000000000000000000000000000000000000000000000064000000000000000000000000000000000000000000000000000000000000000200000000000000000000000000000000000000000000000000000000000000010000000000000000000000000000000000000000000000000000000000000020000000000000000000000000ff9179199903a10283e19d86de8c09f2718073da0000000000000000000000000000000000000000000000000000000000000040000000000000000000000000000000000000000000000000000000000000000000000000000000000000000000000000000000000000000000000000",
        "nonce": "0x7d",
        "chainId": "0xaa36a7"
      },
      "additionalContracts": [
        {
          "transactionType": "CREATE",
          "address": "0x9628c83b4988d0cc7dc13e227b2114cb3cf39d53",
          "initCode": "0x60806040526040516105e03803806105e08339810160408190526100229161034b565b61002c828261003c565b6100358261011c565b5050610479565b61004582610160565b6040516001600160a01b03831681527fa657f2ad315cf3bb35cf1964158da75c3f334481df05a4a1644b2376b17a59b29060200160405180910390a18051156101105761010b6001600160a01b03831663dc9cc6456100a38461040b565b6040516001600160e01b031960e084901b81168252919091166004820152602401602060405180830381865afa1580156100e1573d6000803e3d6000fd5b505050506040513d601f19601f820116820180604052508101906101059190610442565b826101d5565b505050565b61011861024c565b5050565b807fa3f0ad74e5423aebfd80d3ef4346578335a9a72aeaee59ff6cb3582b35133d505b80546001600160a01b0319166001600160a01b039290921691909117905550565b806001600160a01b03163b6000036101ae5760405162461bcd60e51b815260206004820152600c60248201526b1393d397d0d3d395149050d560a21b60448201526064015b60405180910390fd5b807f267691be3525af8a813d30db0c9e2bad08f63baecf6dceb85e2cf3676cff56f461013f565b6060600080846001600160a01b0316846040516101f2919061045d565b600060405180830381855af49150503d806000811461022d576040519150601f19603f3d011682016040523d82523d6000602084013e610232565b606091505b50909250905061024385838361026d565b95945050505050565b341561026b5760405163b398979f60e01b815260040160405180910390fd5b565b6060826102825761027d826102cc565b6102c5565b815115801561029957506001600160a01b0384163b155b156102c257604051639996b31560e01b81526001600160a01b03851660048201526024016101a5565b50805b9392505050565b8051156102dc5780518082602001fd5b604051630a12f52160e11b815260040160405180910390fd5b80516001600160a01b038116811461030c57600080fd5b919050565b634e487b7160e01b600052604160045260246000fd5b60005b8381101561034257818101518382015260200161032a565b50506000910152565b6000806040838503121561035e57600080fd5b610367836102f5565b60208401519092506001600160401b038082111561038457600080fd5b818501915085601f83011261039857600080fd5b8151818111156103aa576103aa610311565b604051601f8201601f19908116603f011681019083821181831017156103d2576103d2610311565b816040528281528860208487010111156103eb57600080fd5b6103fc836020830160208801610327565b80955050505050509250929050565b805160208201516001600160e01b0319808216929190600483101561043a5780818460040360031b1b83161693505b505050919050565b60006020828403121561045457600080fd5b6102c5826102f5565b6000825161046f818460208701610327565b9190910192915050565b610158806104886000396000f3fe608060405261000c61000e565b005b61001e610019610020565b6100ce565b565b60006100537f267691be3525af8a813d30db0c9e2bad08f63baecf6dceb85e2cf3676cff56f4546001600160a01b031690565b60405163dc9cc64560e01b81526001600160e01b03196000351660048201526001600160a01b03919091169063dc9cc64590602401602060405180830381865afa1580156100a5573d6000803e3d6000fd5b505050506040513d601f19601f820116820180604052508101906100c991906100f2565b905090565b3660008037600080366000845af43d6000803e8080156100ed573d6000f35b3d6000fd5b60006020828403121561010457600080fd5b81516001600160a01b038116811461011b57600080fd5b939250505056fea2646970667358221220f44044b674b308a15d84dba03eab56a40e3d7e234997a20752299961fc174eae64736f6c6343000818003300000000000000000000000096f7d1bc89bfe12b1292ef4f986feb0dd9935b69000000000000000000000000000000000000000000000000000000000000004000000000000000000000000000000000000000000000000000000000000001448e5ed9c400000000000000000000000000000000000000000000000000000000000000a00000000000000000000000000000000000000000000000000000000000093a800000000000000000000000000000000000000000000000000000000000001c200000000000000000000000000000000000000000000000000000000000000064000000000000000000000000000000000000000000000000000000000000000200000000000000000000000000000000000000000000000000000000000000010000000000000000000000000000000000000000000000000000000000000020000000000000000000000000ff9179199903a10283e19d86de8c09f2718073da0000000000000000000000000000000000000000000000000000000000000040000000000000000000000000000000000000000000000000000000000000000000000000000000000000000000000000000000000000000000000000"
        }
      ],
      "isFixedGasLimit": false
    }
  ],
  "receipts": [
    {
      "status": "0x1",
      "cumulativeGasUsed": "0x69fe23",
      "logs": [],
      "logsBloom": "0x00000000000000000000000000000000000000000000000000000000000000000000000000000000000000000000000000000000000000000000000000000000000000000000000000000000000000000000000000000000000000000000000000000000000000000000000000000000000000000000000000000000000000000000000000000000000000000000000000000000000000000000000000000000000000000000000000000000000000000000000000000000000000000000000000000000000000000000000000000000000000000000000000000000000000000000000000000000000000000000000000000000000000000000000000000000",
      "type": "0x2",
      "transactionHash": "0x81792366593305606b32ecada2a9b960e38aefe6116b86d5f4d7cd631eb00a72",
      "transactionIndex": "0x3c",
      "blockHash": "0xc709807e484fd761e3a939f525d7cc23e5fced3d97b25a0c86773a28ab41f8c7",
      "blockNumber": "0x61474d",
      "gasUsed": "0x10e3f6",
      "effectiveGasPrice": "0x75b10d82",
      "from": "0xff9179199903a10283e19d86de8c09f2718073da",
      "to": null,
      "contractAddress": "0xbf938404ab1eff0b266becac20c3835d5cb1f264"
    },
    {
      "status": "0x1",
      "cumulativeGasUsed": "0x6aa389",
      "logs": [
        {
          "address": "0x96f7d1bc89bfe12b1292ef4f986feb0dd9935b69",
          "topics": [
            "0xda3c8142b3c1d27633026f55bfcb4eeb0b5b8db0daa0a3e10c2213a441722ad1"
          ],
          "data": "0x6f4d469b00000000000000000000000000000000000000000000000000000000000000000000000000000000bf938404ab1eff0b266becac20c3835d5cb1f264",
          "blockHash": "0xc709807e484fd761e3a939f525d7cc23e5fced3d97b25a0c86773a28ab41f8c7",
          "blockNumber": "0x61474d",
          "transactionHash": "0xadc56cdbfc55b0925edfca9609ec1a245e9dcc529eff1d332beaad9f2f9652e7",
          "transactionIndex": "0x3d",
          "logIndex": "0x72",
          "removed": false
        }
      ],
      "logsBloom": "0x00000000000000000000000400000000000000000000000000000000000000080000000000000000000000000000000000000000000000000000000000000000000000000000000000000000000100000000000000000000000000000000000000000000000000000000000000000000000000000000000010000000000000000000000000000000000000000000100000000000020000000000000000000000000000000000000000000000000000000000000000000000000000000000000000000000000000000000000000000000000000000000000000000000000000000000000000000000000000000000000000000000000000000000000000000000",
      "type": "0x2",
      "transactionHash": "0xadc56cdbfc55b0925edfca9609ec1a245e9dcc529eff1d332beaad9f2f9652e7",
      "transactionIndex": "0x3d",
      "blockHash": "0xc709807e484fd761e3a939f525d7cc23e5fced3d97b25a0c86773a28ab41f8c7",
      "blockNumber": "0x61474d",
      "gasUsed": "0xa566",
      "effectiveGasPrice": "0x75b10d82",
      "from": "0xff9179199903a10283e19d86de8c09f2718073da",
      "to": "0x96f7d1bc89bfe12b1292ef4f986feb0dd9935b69",
      "contractAddress": null
    },
    {
      "status": "0x1",
      "cumulativeGasUsed": "0x6b57b3",
      "logs": [
        {
          "address": "0x96f7d1bc89bfe12b1292ef4f986feb0dd9935b69",
          "topics": [
            "0xda3c8142b3c1d27633026f55bfcb4eeb0b5b8db0daa0a3e10c2213a441722ad1"
          ],
          "data": "0x75829def00000000000000000000000000000000000000000000000000000000000000000000000000000000bf938404ab1eff0b266becac20c3835d5cb1f264",
          "blockHash": "0xc709807e484fd761e3a939f525d7cc23e5fced3d97b25a0c86773a28ab41f8c7",
          "blockNumber": "0x61474d",
          "transactionHash": "0x0f927d362d6ac8cd53577b8d74ce359ba94dd9eb5391fd457e7eaa2458c1f335",
          "transactionIndex": "0x3e",
          "logIndex": "0x73",
          "removed": false
        }
      ],
      "logsBloom": "0x00000000000000000000000400000000000000000000000000000000000000080000000000000000000000000000000000000000000000000000000000000000000000000000000000000000000100000000000000000000000000000000000000000000000000000000000000000000000000000000000010000000000000000000000000000000000000000000100000000000020000000000000000000000000000000000000000000000000000000000000000000000000000000000000000000000000000000000000000000000000000000000000000000000000000000000000000000000000000000000000000000000000000000000000000000000",
      "type": "0x2",
      "transactionHash": "0x0f927d362d6ac8cd53577b8d74ce359ba94dd9eb5391fd457e7eaa2458c1f335",
      "transactionIndex": "0x3e",
      "blockHash": "0xc709807e484fd761e3a939f525d7cc23e5fced3d97b25a0c86773a28ab41f8c7",
      "blockNumber": "0x61474d",
      "gasUsed": "0xb42a",
      "effectiveGasPrice": "0x75b10d82",
      "from": "0xff9179199903a10283e19d86de8c09f2718073da",
      "to": "0x96f7d1bc89bfe12b1292ef4f986feb0dd9935b69",
      "contractAddress": null
    },
    {
      "status": "0x1",
      "cumulativeGasUsed": "0xe0f215",
      "logs": [
        {
          "address": "0x96f7d1bc89bfe12b1292ef4f986feb0dd9935b69",
          "topics": [
            "0xda3c8142b3c1d27633026f55bfcb4eeb0b5b8db0daa0a3e10c2213a441722ad1"
          ],
          "data": "0x932c30b500000000000000000000000000000000000000000000000000000000000000000000000000000000bf938404ab1eff0b266becac20c3835d5cb1f264",
          "blockHash": "0xbf0aa1913972957ded018445d005a97552345c73e12cd1ff62f4f16b6f4ba03b",
          "blockNumber": "0x61474f",
          "transactionHash": "0x3f083a6ff62140b588aab5f4a1c8fdf06136f35b2dcf74fe6e5e36bdb008726e",
          "transactionIndex": "0x87",
          "logIndex": "0xd2",
          "removed": false
        }
      ],
      "logsBloom": "0x00000000000000000000000400000000000000000000000000000000000000080000000000000000000000000000000000000000000000000000000000000000000000000000000000000000000100000000000000000000000000000000000000000000000000000000000000000000000000000000000010000000000000000000000000000000000000000000100000000000020000000000000000000000000000000000000000000000000000000000000000000000000000000000000000000000000000000000000000000000000000000000000000000000000000000000000000000000000000000000000000000000000000000000000000000000",
      "type": "0x2",
      "transactionHash": "0x3f083a6ff62140b588aab5f4a1c8fdf06136f35b2dcf74fe6e5e36bdb008726e",
      "transactionIndex": "0x87",
      "blockHash": "0xbf0aa1913972957ded018445d005a97552345c73e12cd1ff62f4f16b6f4ba03b",
      "blockNumber": "0x61474f",
      "gasUsed": "0xb1c8",
      "effectiveGasPrice": "0x66995de3",
      "from": "0xff9179199903a10283e19d86de8c09f2718073da",
      "to": "0x96f7d1bc89bfe12b1292ef4f986feb0dd9935b69",
      "contractAddress": null
    },
    {
      "status": "0x1",
      "cumulativeGasUsed": "0xeef39d",
      "logs": [],
      "logsBloom": "0x00000000000000000000000000000000000000000000000000000000000000000000000000000000000000000000000000000000000000000000000000000000000000000000000000000000000000000000000000000000000000000000000000000000000000000000000000000000000000000000000000000000000000000000000000000000000000000000000000000000000000000000000000000000000000000000000000000000000000000000000000000000000000000000000000000000000000000000000000000000000000000000000000000000000000000000000000000000000000000000000000000000000000000000000000000000",
      "type": "0x2",
      "transactionHash": "0xace82244733f555e9d7801aeafbaeef6faf76211ca413e6ab9b1466581717f39",
      "transactionIndex": "0x88",
      "blockHash": "0xbf0aa1913972957ded018445d005a97552345c73e12cd1ff62f4f16b6f4ba03b",
      "blockNumber": "0x61474f",
      "gasUsed": "0xe0188",
      "effectiveGasPrice": "0x66995de3",
      "from": "0xff9179199903a10283e19d86de8c09f2718073da",
      "to": null,
      "contractAddress": "0x95b9edb2d192d9cfe695e7bcbc89d3f6bbbc24b5"
    },
    {
      "status": "0x1",
      "cumulativeGasUsed": "0xef943f",
      "logs": [
        {
          "address": "0x96f7d1bc89bfe12b1292ef4f986feb0dd9935b69",
          "topics": [
            "0xda3c8142b3c1d27633026f55bfcb4eeb0b5b8db0daa0a3e10c2213a441722ad1"
          ],
          "data": "0xed8b6b310000000000000000000000000000000000000000000000000000000000000000000000000000000095b9edb2d192d9cfe695e7bcbc89d3f6bbbc24b5",
          "blockHash": "0xbf0aa1913972957ded018445d005a97552345c73e12cd1ff62f4f16b6f4ba03b",
          "blockNumber": "0x61474f",
          "transactionHash": "0x5a8a3e6286d1a6b4fd844a17f5cd80c31b358356a192dd862e2877591f3981be",
          "transactionIndex": "0x89",
          "logIndex": "0xd3",
          "removed": false
        }
      ],
      "logsBloom": "0x00000000000000000000000400000000000000000000000000000000000000080000000000000000000000000000000000000000000000000000000000000000000000000000000000000000000100000000000000000000000000000000000000000000000000000000000000000000000000000000000010000000000000000000000000000000000000000000100000000000020000000000000000000000000000000000000000000000000000000000000000000000000000000000000000000000000000000000000000000000000000000000000000000000000000000000000000000000000000000000000000000000000000000000000000000000",
      "type": "0x2",
      "transactionHash": "0x5a8a3e6286d1a6b4fd844a17f5cd80c31b358356a192dd862e2877591f3981be",
      "transactionIndex": "0x89",
      "blockHash": "0xbf0aa1913972957ded018445d005a97552345c73e12cd1ff62f4f16b6f4ba03b",
      "blockNumber": "0x61474f",
      "gasUsed": "0xa0a2",
      "effectiveGasPrice": "0x66995de3",
      "from": "0xff9179199903a10283e19d86de8c09f2718073da",
      "to": "0x96f7d1bc89bfe12b1292ef4f986feb0dd9935b69",
      "contractAddress": null
    },
    {
      "status": "0x1",
      "cumulativeGasUsed": "0xf683f2",
      "logs": [],
      "logsBloom": "0x00000000000000000000000000000000000000000000000000000000000000000000000000000000000000000000000000000000000000000000000000000000000000000000000000000000000000000000000000000000000000000000000000000000000000000000000000000000000000000000000000000000000000000000000000000000000000000000000000000000000000000000000000000000000000000000000000000000000000000000000000000000000000000000000000000000000000000000000000000000000000000000000000000000000000000000000000000000000000000000000000000000000000000000000000000000",
      "type": "0x2",
      "transactionHash": "0x4af3b945b32e3cc7ab1def190157df80d41b54fe520b238b1ce45208180ca1ed",
      "transactionIndex": "0x8a",
      "blockHash": "0xbf0aa1913972957ded018445d005a97552345c73e12cd1ff62f4f16b6f4ba03b",
      "blockNumber": "0x61474f",
      "gasUsed": "0x6efb3",
      "effectiveGasPrice": "0x66995de3",
      "from": "0xff9179199903a10283e19d86de8c09f2718073da",
      "to": null,
      "contractAddress": "0x62d3f057f54f770a4b162a48dc0588da643f73ab"
    },
    {
      "status": "0x1",
      "cumulativeGasUsed": "0xf71b0c",
      "logs": [
        {
          "address": "0x96f7d1bc89bfe12b1292ef4f986feb0dd9935b69",
          "topics": [
            "0xda3c8142b3c1d27633026f55bfcb4eeb0b5b8db0daa0a3e10c2213a441722ad1"
          ],
          "data": "0x8e5ed9c40000000000000000000000000000000000000000000000000000000000000000000000000000000062d3f057f54f770a4b162a48dc0588da643f73ab",
          "blockHash": "0xbf0aa1913972957ded018445d005a97552345c73e12cd1ff62f4f16b6f4ba03b",
          "blockNumber": "0x61474f",
          "transactionHash": "0x8e62b04e3461bc38561c65eeec091466da7357814b9a94cc9b449209764e960e",
          "transactionIndex": "0x8b",
          "logIndex": "0xd4",
          "removed": false
        }
      ],
      "logsBloom": "0x00000000000000000000000400000000000000000000000000000000000000080000000000000000000000000000000000000000000000000000000000000000000000000000000000000000000100000000000000000000000000000000000000000000000000000000000000000000000000000000000010000000000000000000000000000000000000000000100000000000020000000000000000000000000000000000000000000000000000000000000000000000000000000000000000000000000000000000000000000000000000000000000000000000000000000000000000000000000000000000000000000000000000000000000000000000",
      "type": "0x2",
      "transactionHash": "0x8e62b04e3461bc38561c65eeec091466da7357814b9a94cc9b449209764e960e",
      "transactionIndex": "0x8b",
      "blockHash": "0xbf0aa1913972957ded018445d005a97552345c73e12cd1ff62f4f16b6f4ba03b",
      "blockNumber": "0x61474f",
      "gasUsed": "0x971a",
      "effectiveGasPrice": "0x66995de3",
      "from": "0xff9179199903a10283e19d86de8c09f2718073da",
      "to": "0x96f7d1bc89bfe12b1292ef4f986feb0dd9935b69",
      "contractAddress": null
    },
    {
      "status": "0x1",
      "cumulativeGasUsed": "0xfe2fd0",
      "logs": [],
      "logsBloom": "0x00000000000000000000000000000000000000000000000000000000000000000000000000000000000000000000000000000000000000000000000000000000000000000000000000000000000000000000000000000000000000000000000000000000000000000000000000000000000000000000000000000000000000000000000000000000000000000000000000000000000000000000000000000000000000000000000000000000000000000000000000000000000000000000000000000000000000000000000000000000000000000000000000000000000000000000000000000000000000000000000000000000000000000000000000000000",
      "type": "0x2",
      "transactionHash": "0xd0f3790c9c75058be0f72935d88fbc065ae2de3800414dc720fbc81bbabf9510",
      "transactionIndex": "0x8c",
      "blockHash": "0xbf0aa1913972957ded018445d005a97552345c73e12cd1ff62f4f16b6f4ba03b",
      "blockNumber": "0x61474f",
      "gasUsed": "0x714c4",
      "effectiveGasPrice": "0x66995de3",
      "from": "0xff9179199903a10283e19d86de8c09f2718073da",
      "to": null,
      "contractAddress": "0x3287b26196f68167530ad60fa5fe057f75ab3790"
    },
    {
      "status": "0x1",
      "cumulativeGasUsed": "0xfea575",
      "logs": [
        {
          "address": "0x96f7d1bc89bfe12b1292ef4f986feb0dd9935b69",
          "topics": [
            "0x159f10d3da077d18f228d52be447d552e7d1892d10f7af8f615658160e374729"
          ],
          "data": "0x0000000000000000000000003287b26196f68167530ad60fa5fe057f75ab3790",
          "blockHash": "0xbf0aa1913972957ded018445d005a97552345c73e12cd1ff62f4f16b6f4ba03b",
          "blockNumber": "0x61474f",
          "transactionHash": "0xf74a88e8fe94113251817a3161a690c01c4ac05a96edb29726fe24fc740d76a5",
          "transactionIndex": "0x8d",
          "logIndex": "0xd5",
          "removed": false
        }
      ],
      "logsBloom": "0x00000000000000080000000400000000000000000000000000000000000000000000000000000000000000000200000000000000000000000000000000000000000000000000000000000000000100000000000000000000000000000000000000000000000000000000000000000000000000000000000000000000000000000000000000000000000000000000000000000000020000000000000000000000000000000000000000000000000000000000000000000000000000000000000000000000000000000000000000000000000000000000000000000000000000000000000000000000000000000010000000000000000000000000000000000000",
      "type": "0x2",
      "transactionHash": "0xf74a88e8fe94113251817a3161a690c01c4ac05a96edb29726fe24fc740d76a5",
      "transactionIndex": "0x8d",
      "blockHash": "0xbf0aa1913972957ded018445d005a97552345c73e12cd1ff62f4f16b6f4ba03b",
      "blockNumber": "0x61474f",
      "gasUsed": "0x75a5",
      "effectiveGasPrice": "0x66995de3",
      "from": "0xff9179199903a10283e19d86de8c09f2718073da",
      "to": "0x96f7d1bc89bfe12b1292ef4f986feb0dd9935b69",
      "contractAddress": null
    },
    {
      "status": "0x1",
      "cumulativeGasUsed": "0x104142d",
      "logs": [
        {
          "address": "0x9628c83b4988d0cc7dc13e227b2114cb3cf39d53",
          "topics": [
            "0xa657f2ad315cf3bb35cf1964158da75c3f334481df05a4a1644b2376b17a59b2"
          ],
          "data": "0x00000000000000000000000096f7d1bc89bfe12b1292ef4f986feb0dd9935b69",
          "blockHash": "0xbf0aa1913972957ded018445d005a97552345c73e12cd1ff62f4f16b6f4ba03b",
          "blockNumber": "0x61474f",
          "transactionHash": "0x0eebfbc85ffb018b4d3dc78ce99a39452f0adfaf2bedfd102c7acdd403f6e145",
          "transactionIndex": "0x8e",
          "logIndex": "0xd6",
          "removed": false
        },
        {
          "address": "0x9628c83b4988d0cc7dc13e227b2114cb3cf39d53",
          "topics": [
            "0x479e555f6c2b410f9bea0faf0392342851e2103c9c7a9b61f8f087b47331d0eb"
          ],
          "data": "0x0000000000000000000000000000000000000000000000000000000000000000000000000000000000000000ff9179199903a10283e19d86de8c09f2718073da00000000000000000000000000000000000000000000000000000000000000600000000000000000000000000000000000000000000000000000000000000000",
          "blockHash": "0xbf0aa1913972957ded018445d005a97552345c73e12cd1ff62f4f16b6f4ba03b",
          "blockNumber": "0x61474f",
          "transactionHash": "0x0eebfbc85ffb018b4d3dc78ce99a39452f0adfaf2bedfd102c7acdd403f6e145",
          "transactionIndex": "0x8e",
          "logIndex": "0xd7",
          "removed": false
        },
        {
          "address": "0x9628c83b4988d0cc7dc13e227b2114cb3cf39d53",
          "topics": [
            "0xc7f505b2f371ae2175ee4913f4499e1f2633a7b5936321eed1cdaeb6115181d2"
          ],
          "data": "0x0000000000000000000000000000000000000000000000000000000000000001",
          "blockHash": "0xbf0aa1913972957ded018445d005a97552345c73e12cd1ff62f4f16b6f4ba03b",
          "blockNumber": "0x61474f",
          "transactionHash": "0x0eebfbc85ffb018b4d3dc78ce99a39452f0adfaf2bedfd102c7acdd403f6e145",
          "transactionIndex": "0x8e",
          "logIndex": "0xd8",
          "removed": false
        },
        {
          "address": "0xbc2fc4eb14077fd7f29b948e5fd39a4634f6d138",
          "topics": [
            "0x9678a1e87ca9f1a37dc659a97b39d812d98cd236947e1b53b3d0d6fd346acb6e"
          ],
          "data": "0x00000000000000000000000096f7d1bc89bfe12b1292ef4f986feb0dd9935b690000000000000000000000009628c83b4988d0cc7dc13e227b2114cb3cf39d53",
          "blockHash": "0xbf0aa1913972957ded018445d005a97552345c73e12cd1ff62f4f16b6f4ba03b",
          "blockNumber": "0x61474f",
          "transactionHash": "0x0eebfbc85ffb018b4d3dc78ce99a39452f0adfaf2bedfd102c7acdd403f6e145",
          "transactionIndex": "0x8e",
          "logIndex": "0xd9",
          "removed": false
        }
      ],
      "logsBloom": "0x00000800000000001000000000000000000000000000000000000000000000000000000000000000000000000000000000000000000000000000000000000000800000000000000000000000000000000000000000000000000000000000000000000000000000000000010000000000000040000000000000000000000000000000040000000020000800000000000000000000000080000000000000000000000008000000000000000001000000000000000000000100000000000000000000000000000000000010000000000040000000000004000000000000100000000000000000000000000000000000000000000000000008000000000000800000",
      "type": "0x2",
      "transactionHash": "0x0eebfbc85ffb018b4d3dc78ce99a39452f0adfaf2bedfd102c7acdd403f6e145",
      "transactionIndex": "0x8e",
      "blockHash": "0xbf0aa1913972957ded018445d005a97552345c73e12cd1ff62f4f16b6f4ba03b",
      "blockNumber": "0x61474f",
      "gasUsed": "0x56eb8",
      "effectiveGasPrice": "0x66995de3",
      "from": "0xff9179199903a10283e19d86de8c09f2718073da",
      "to": "0xbc2fc4eb14077fd7f29b948e5fd39a4634f6d138",
      "contractAddress": null
    }
  ],
  "libraries": [],
  "pending": [],
  "returns": {},
  "timestamp": 1721939178,
  "chain": 11155111,
  "commit": "4548436"
}