{
  "transactions": [
    {
      "hash": "0x749e9b9d396611b805ed345d0dc9a0d456c92d7b59ad28755b0bd45eb809003d",
      "transactionType": "CREATE",
      "contractName": "Fork",
      "contractAddress": "0x8ba59e52f7fef59db46acfa7605305029332d529",
      "function": null,
      "arguments": null,
      "transaction": {
        "from": "0xff9179199903a10283e19d86de8c09f2718073da",
        "gas": "0xe3880",
        "value": "0x0",
        "input": "0x608060405234801561001057600080fd5b50610c03806100206000396000f3fe608060405234801561001057600080fd5b50600436106100415760003560e01c8063442b593c1461004657806371cb2ee51461005b578063c0e89f0b1461006e575b600080fd5b6100596100543660046105e6565b610081565b005b610059610069366004610674565b610129565b61005961007c3660046106ee565b6101dc565b82600061009e82600080516020610bae8339815191525b9061027a565b60020190506000805b82548110156100f757336001600160a01b03168382815481106100cc576100cc61072d565b6000918252602090912001546001600160a01b0316036100ef57600191506100f7565b6001016100a7565b508061011657604051632290eccd60e21b815260040160405180910390fd5b6101218686866102c9565b505050505050565b84600061014482600080516020610bae833981519152610098565b60020190506000805b825481101561019d57336001600160a01b03168382815481106101725761017261072d565b6000918252602090912001546001600160a01b031603610195576001915061019d565b60010161014d565b50806101bc57604051632290eccd60e21b815260040160405180910390fd5b6101c7888888610361565b6101d28886866102c9565b5050505050505050565b8260006101f782600080516020610bae833981519152610098565b60020190506000805b825481101561025057336001600160a01b03168382815481106102255761022561072d565b6000918252602090912001546001600160a01b0316036102485760019150610250565b600101610200565b508061026f57604051632290eccd60e21b815260040160405180910390fd5b610121868686610361565b8154600090821061029e5760405163635e873760e01b815260040160405180910390fd5b8260000182815481106102b3576102b361072d565b90600052602060002090600d0201905092915050565b6000600080516020610bae8339815191528054859081106102ec576102ec61072d565b60009182526020909120600d909102019050811561035b57600061031a610313848661080b565b8390610417565b90507f0fdab9c3bcde94f0c1a1165103baf9726e17f93845a1172b7b34c283478e7ed785828686604051610351949392919061097e565b60405180910390a1505b50505050565b6000600080516020610bae8339815191528054859081106103845761038461072d565b60009182526020909120600d909102019050811561035b5760006103e084848080601f01602080910402602001604051908101604052809392919081815260200183838082843760009201919091525086939250506104ac9050565b90507fb22aca7d5ab207801e44135e5fe90f9e709a218f408d841420a027d1883e1646858286866040516103519493929190610a3c565b6001808301805491820181556000908152602081208201905b83518110156104a4578160000184828151811061044f5761044f61072d565b602090810291909101810151825460018101845560009384529190922082516002909202019081906104819082610aed565b50602082015160018201906104969082610aed565b505050806001019050610430565b505092915050565b600081516000036104d057604051631a9079d560e01b815260040160405180910390fd5b50815460408051808201825283815281516000808252602080830190945283830191909152600184018655858152919091208151600284029091019081906105189082610aed565b506020828101518051610531926001850192019061053a565b50505092915050565b828054828255906000526020600020908101928215610575579160200282015b8281111561057557825182559160200191906001019061055a565b50610581929150610585565b5090565b5b808211156105815760008155600101610586565b60008083601f8401126105ac57600080fd5b50813567ffffffffffffffff8111156105c457600080fd5b6020830191508360208260051b85010111156105df57600080fd5b9250929050565b6000806000604084860312156105fb57600080fd5b83359250602084013567ffffffffffffffff81111561061957600080fd5b6106258682870161059a565b9497909650939450505050565b60008083601f84011261064457600080fd5b50813567ffffffffffffffff81111561065c57600080fd5b6020830191508360208285010111156105df57600080fd5b60008060008060006060868803121561068c57600080fd5b85359450602086013567ffffffffffffffff808211156106ab57600080fd5b6106b789838a01610632565b909650945060408801359150808211156106d057600080fd5b506106dd8882890161059a565b969995985093965092949392505050565b60008060006040848603121561070357600080fd5b83359250602084013567ffffffffffffffff81111561072157600080fd5b61062586828701610632565b634e487b7160e01b600052603260045260246000fd5b634e487b7160e01b600052604160045260246000fd5b6040805190810167ffffffffffffffff8111828210171561077c5761077c610743565b60405290565b604051601f8201601f1916810167ffffffffffffffff811182821017156107ab576107ab610743565b604052919050565b600067ffffffffffffffff8311156107cd576107cd610743565b6107e0601f8401601f1916602001610782565b90508281528383830111156107f457600080fd5b828260208301376000602084830101529392505050565b600067ffffffffffffffff8084111561082657610826610743565b8360051b6020610837818301610782565b86815291850191818101903684111561084f57600080fd5b865b84811015610903578035868111156108695760008081fd5b8801604036829003121561087d5760008081fd5b610885610759565b8135888111156108955760008081fd5b8201601f36818301126108a85760008081fd5b6108b63683358a85016107b3565b8352878401359150898211156108cc5760008081fd5b9281019236818501126108e157600091508182fd5b50506108f13683358885016107b3565b81870152845250918301918301610851565b50979650505050505050565b6000808335601e1984360301811261092657600080fd5b830160208101925035905067ffffffffffffffff81111561094657600080fd5b8036038213156105df57600080fd5b81835281816020850137506000828201602090810191909152601f909101601f19169091010190565b60006060820186835260208660208501526040606060408601528286845260808601905060808760051b8701019350876000805b89811015610a2b57888703607f190184528235368c9003603e190181126109d7578283fd5b8b016109e3818061090f565b878a526109f3888b018284610955565b915050610a028883018361090f565b9250898203898b0152610a16828483610955565b995050509386019350918501916001016109b2565b50949b9a5050505050505050505050565b848152836020820152606060408201526000610a5c606083018486610955565b9695505050505050565b600181811c90821680610a7a57607f821691505b602082108103610a9a57634e487b7160e01b600052602260045260246000fd5b50919050565b601f821115610ae8576000816000526020600020601f850160051c81016020861015610ac95750805b601f850160051c820191505b8181101561012157828155600101610ad5565b505050565b815167ffffffffffffffff811115610b0757610b07610743565b610b1b81610b158454610a66565b84610aa0565b602080601f831160018114610b505760008415610b385750858301515b600019600386901b1c1916600185901b178555610121565b600085815260208120601f198616915b82811015610b7f57888601518255948401946001909101908401610b60565b5085821015610b9d5787850151600019600388901b60f8161c191681555b5050505050600190811b0190555056fe51e64ee84f491aad402ff73401b25fa2058a87e9d027403050c951c19bbb7800a26469706673582212209dedfab784895e984da13f23e939b7d277229db06422587da9e4da69f6041ad764736f6c63430008180033",
        "nonce": "0x9b",
        "chainId": "0x4268"
      },
      "additionalContracts": [],
      "isFixedGasLimit": false
    },
    {
      "hash": "0xd18cdbab790a89fe4b5aa1e89e3f9b29d353b549fd4bb76b41cf7ef2b865f2d3",
      "transactionType": "CALL",
      "contractName": null,
      "contractAddress": "0xf16a47a7aacf0aa2af16b467887faa7376b04df4",
      "function": "setImplementation(bytes4,address)",
      "arguments": [
        "0xc0e89f0b",
        "0x8BA59E52F7feF59Db46acFA7605305029332d529"
      ],
      "transaction": {
        "from": "0xff9179199903a10283e19d86de8c09f2718073da",
        "to": "0xf16a47a7aacf0aa2af16b467887faa7376b04df4",
        "gas": "0x1c6e3",
        "value": "0x0",
        "input": "0x0815f6fdc0e89f0b000000000000000000000000000000000000000000000000000000000000000000000000000000008ba59e52f7fef59db46acfa7605305029332d529",
        "nonce": "0x9c",
        "chainId": "0x4268"
      },
      "additionalContracts": [],
      "isFixedGasLimit": false
    },
    {
      "hash": "0x75b365218fb49183b494176505e2c2a990db6a9f73702b3aeec3b2b9601569f9",
      "transactionType": "CALL",
      "contractName": null,
      "contractAddress": "0xf16a47a7aacf0aa2af16b467887faa7376b04df4",
      "function": "setImplementation(bytes4,address)",
      "arguments": [
        "0x442b593c",
        "0x8BA59E52F7feF59Db46acFA7605305029332d529"
      ],
      "transaction": {
        "from": "0xff9179199903a10283e19d86de8c09f2718073da",
        "to": "0xf16a47a7aacf0aa2af16b467887faa7376b04df4",
        "gas": "0x1ca2d",
        "value": "0x0",
        "input": "0x0815f6fd442b593c000000000000000000000000000000000000000000000000000000000000000000000000000000008ba59e52f7fef59db46acfa7605305029332d529",
        "nonce": "0x9d",
        "chainId": "0x4268"
      },
      "additionalContracts": [],
      "isFixedGasLimit": false
    },
    {
      "hash": "0x37bb31e54cd35dc42c78cce0a2cc208d88614ed0fd4879618ceb18fc9ba0c24a",
      "transactionType": "CREATE",
      "contractName": "TextDAOWithCheatsFacade",
      "contractAddress": "0x8a13d8a13493b35a56af0e072492ff147a0e678b",
      "function": null,
      "arguments": null,
      "transaction": {
        "from": "0xff9179199903a10283e19d86de8c09f2718073da",
        "gas": "0xa0f7a",
        "value": "0x0",
        "input": "0x608060405234801561001057600080fd5b50610837806100206000396000f3fe608060405234801561001057600080fd5b50600436106101425760003560e01c8063a33032d9116100b8578063d13da0bd1161007c578063d13da0bd14610229578063d5c8d4f11461024f578063ed82e4711461025d578063ed8b6b311461025d578063fe0d94c11461025d578063fec77ae51461025d57600080fd5b8063a33032d9146101ff578063abf508901461017a578063be3ffaeb14610147578063c0e89f0b1461020d578063d0f7c3161461021b57600080fd5b80636f4d469b1161010a5780636f4d469b1461016957806371cb2ee51461018d57806375829def146101a25780638ca89f77146101b05780638e5ed9c4146101e3578063932c30b5146101f157600080fd5b806302d232f4146101475780630c68678c1461015b5780633d0950a814610169578063442b593c1461017a57806355aca5b114610147575b600080fd5b61015961015536600461026b565b5050565b005b61015961015536600461028d565b610159610177366004610327565b50565b61015961018836600461041e565b505050565b61015961019b3660046104aa565b5050505050565b610159610177366004610523565b6101c66101be366004610545565b600092915050565b6040516001600160a01b0390911681526020015b60405180910390f35b61015961018836600461059e565b6101596101773660046105f2565b61015961015536600461060e565b61015961018836600461063b565b6101596101883660046106e8565b610241610237366004610737565b6000949350505050565b6040519081526020016101da565b6102416101be3660046107a2565b6101596101773660046107e8565b6000806040838503121561027e57600080fd5b50508035926020909101359150565b60008082840360e08112156102a157600080fd5b8335925060c0601f19820112156102b757600080fd5b506020830190509250929050565b634e487b7160e01b600052604160045260246000fd5b604051601f8201601f191681016001600160401b0381118282101715610303576103036102c5565b604052919050565b80356001600160a01b038116811461032257600080fd5b919050565b6000602080838503121561033a57600080fd5b82356001600160401b038082111561035157600080fd5b818501915085601f83011261036557600080fd5b813581811115610377576103776102c5565b8060051b91506103888483016102db565b81815291830184019184810190888411156103a257600080fd5b938501935b838510156103c7576103b88561030b565b825293850193908501906103a7565b98975050505050505050565b60008083601f8401126103e557600080fd5b5081356001600160401b038111156103fc57600080fd5b6020830191508360208260051b850101111561041757600080fd5b9250929050565b60008060006040848603121561043357600080fd5b8335925060208401356001600160401b0381111561045057600080fd5b61045c868287016103d3565b9497909650939450505050565b60008083601f84011261047b57600080fd5b5081356001600160401b0381111561049257600080fd5b60208301915083602082850101111561041757600080fd5b6000806000806000606086880312156104c257600080fd5b8535945060208601356001600160401b03808211156104e057600080fd5b6104ec89838a01610469565b9096509450604088013591508082111561050557600080fd5b50610512888289016103d3565b969995985093965092949392505050565b60006020828403121561053557600080fd5b61053e8261030b565b9392505050565b6000806020838503121561055857600080fd5b82356001600160401b0381111561056e57600080fd5b61057a85828601610469565b90969095509350505050565b60006080828403121561059857600080fd5b50919050565b600080600060a084860312156105b357600080fd5b83356001600160401b038111156105c957600080fd5b6105d5868287016103d3565b90945092506105e990508560208601610586565b90509250925092565b60006080828403121561060457600080fd5b61053e8383610586565b60008060a0838503121561062157600080fd5b823591506106328460208501610586565b90509250929050565b60008060006040848603121561065057600080fd5b8335925060208401356001600160401b0381111561066d57600080fd5b61045c86828701610469565b600082601f83011261068a57600080fd5b81356001600160401b038111156106a3576106a36102c5565b6106b6601f8201601f19166020016102db565b8181528460208386010111156106cb57600080fd5b816020850160208301376000918101602001919091529392505050565b6000806000606084860312156106fd57600080fd5b833592506020840135915060408401356001600160401b0381111561072157600080fd5b61072d86828701610679565b9150509250925092565b6000806000806040858703121561074d57600080fd5b84356001600160401b038082111561076457600080fd5b61077088838901610469565b9096509450602087013591508082111561078957600080fd5b50610796878288016103d3565b95989497509550505050565b600080604083850312156107b557600080fd5b8235915060208301356001600160401b038111156107d257600080fd5b6107de85828601610679565b9150509250929050565b6000602082840312156107fa57600080fd5b503591905056fea2646970667358221220a7e5bdd4bbfa9a394fb06743a9f1de9be06927b4d139de3d401a58e37dcb7d0e64736f6c63430008180033",
        "nonce": "0x9e",
        "chainId": "0x4268"
      },
      "additionalContracts": [],
      "isFixedGasLimit": false
    },
    {
      "hash": "0x448a1b3f966937d383b65cf606f9eafe9f62500adbff7bd5948ee72d75700cd9",
      "transactionType": "CALL",
      "contractName": null,
      "contractAddress": "0xf16a47a7aacf0aa2af16b467887faa7376b04df4",
      "function": "upgradeFacade(address)",
      "arguments": [
        "0x8a13D8A13493B35A56Af0E072492Ff147a0E678B"
      ],
      "transaction": {
        "from": "0xff9179199903a10283e19d86de8c09f2718073da",
        "to": "0xf16a47a7aacf0aa2af16b467887faa7376b04df4",
        "gas": "0xa27e",
        "value": "0x0",
        "input": "0x651dc03d0000000000000000000000008a13d8a13493b35a56af0e072492ff147a0e678b",
        "nonce": "0x9f",
        "chainId": "0x4268"
      },
      "additionalContracts": [],
      "isFixedGasLimit": false
    }
  ],
  "receipts": [
    {
      "status": "0x1",
      "cumulativeGasUsed": "0x68d84c",
      "logs": [],
      "logsBloom": "0x00000000000000000000000000000000000000000000000000000000000000000000000000000000000000000000000000000000000000000000000000000000000000000000000000000000000000000000000000000000000000000000000000000000000000000000000000000000000000000000000000000000000000000000000000000000000000000000000000000000000000000000000000000000000000000000000000000000000000000000000000000000000000000000000000000000000000000000000000000000000000000000000000000000000000000000000000000000000000000000000000000000000000000000000000000000",
      "type": "0x2",
      "transactionHash": "0x749e9b9d396611b805ed345d0dc9a0d456c92d7b59ad28755b0bd45eb809003d",
      "transactionIndex": "0xe",
      "blockHash": "0x1a70198737db7a926aea84e963ebe7e5a5f7b27d2b8f5a4655a1d536f04f0fcf",
      "blockNumber": "0x21e718",
      "gasUsed": "0xaf127",
      "effectiveGasPrice": "0x400d8a3",
      "from": "0xff9179199903a10283e19d86de8c09f2718073da",
      "to": null,
      "contractAddress": "0x8ba59e52f7fef59db46acfa7605305029332d529"
    },
    {
      "status": "0x1",
      "cumulativeGasUsed": "0x6a21a1",
      "logs": [
        {
          "address": "0xf16a47a7aacf0aa2af16b467887faa7376b04df4",
          "topics": [
            "0xbe533f538959a17d76f1b09e966e741ee3b1183099682f96216c93d21feaecba"
          ],
          "data": "0xc0e89f0b00000000000000000000000000000000000000000000000000000000",
          "blockHash": "0x1a70198737db7a926aea84e963ebe7e5a5f7b27d2b8f5a4655a1d536f04f0fcf",
          "blockNumber": "0x21e718",
          "transactionHash": "0xd18cdbab790a89fe4b5aa1e89e3f9b29d353b549fd4bb76b41cf7ef2b865f2d3",
          "transactionIndex": "0xf",
          "logIndex": "0x1c",
          "removed": false
        },
        {
          "address": "0xf16a47a7aacf0aa2af16b467887faa7376b04df4",
          "topics": [
            "0xda3c8142b3c1d27633026f55bfcb4eeb0b5b8db0daa0a3e10c2213a441722ad1"
          ],
          "data": "0xc0e89f0b000000000000000000000000000000000000000000000000000000000000000000000000000000008ba59e52f7fef59db46acfa7605305029332d529",
          "blockHash": "0x1a70198737db7a926aea84e963ebe7e5a5f7b27d2b8f5a4655a1d536f04f0fcf",
          "blockNumber": "0x21e718",
          "transactionHash": "0xd18cdbab790a89fe4b5aa1e89e3f9b29d353b549fd4bb76b41cf7ef2b865f2d3",
          "transactionIndex": "0xf",
          "logIndex": "0x1d",
          "removed": false
        }
      ],
      "logsBloom": "0x00000000000000000000000000000000000000000000000000000000000000080000000000000000000000000000000000000000000000000000000000000000000000000000000000000000000000000000000000000000000000000000000000000000000000000000200000000000000000000000000010000000000000000000000000000000000000000000100000000000000000000000000000000000000000000000000000004000080000000000000000000000000000000000000000000000000000000000000000000000000000080000000000080000000000000000100000000000000000000000000000000000000000000000000000000000",
      "type": "0x2",
      "transactionHash": "0xd18cdbab790a89fe4b5aa1e89e3f9b29d353b549fd4bb76b41cf7ef2b865f2d3",
      "transactionIndex": "0xf",
      "blockHash": "0x1a70198737db7a926aea84e963ebe7e5a5f7b27d2b8f5a4655a1d536f04f0fcf",
      "blockNumber": "0x21e718",
      "gasUsed": "0x14955",
      "effectiveGasPrice": "0x400d8a3",
      "from": "0xff9179199903a10283e19d86de8c09f2718073da",
      "to": "0xf16a47a7aacf0aa2af16b467887faa7376b04df4",
      "contractAddress": null
    },
    {
      "status": "0x1",
      "cumulativeGasUsed": "0x6b6d58",
      "logs": [
        {
          "address": "0xf16a47a7aacf0aa2af16b467887faa7376b04df4",
          "topics": [
            "0xbe533f538959a17d76f1b09e966e741ee3b1183099682f96216c93d21feaecba"
          ],
          "data": "0x442b593c00000000000000000000000000000000000000000000000000000000",
          "blockHash": "0x1a70198737db7a926aea84e963ebe7e5a5f7b27d2b8f5a4655a1d536f04f0fcf",
          "blockNumber": "0x21e718",
          "transactionHash": "0x75b365218fb49183b494176505e2c2a990db6a9f73702b3aeec3b2b9601569f9",
          "transactionIndex": "0x10",
          "logIndex": "0x1e",
          "removed": false
        },
        {
          "address": "0xf16a47a7aacf0aa2af16b467887faa7376b04df4",
          "topics": [
            "0xda3c8142b3c1d27633026f55bfcb4eeb0b5b8db0daa0a3e10c2213a441722ad1"
          ],
          "data": "0x442b593c000000000000000000000000000000000000000000000000000000000000000000000000000000008ba59e52f7fef59db46acfa7605305029332d529",
          "blockHash": "0x1a70198737db7a926aea84e963ebe7e5a5f7b27d2b8f5a4655a1d536f04f0fcf",
          "blockNumber": "0x21e718",
          "transactionHash": "0x75b365218fb49183b494176505e2c2a990db6a9f73702b3aeec3b2b9601569f9",
          "transactionIndex": "0x10",
          "logIndex": "0x1f",
          "removed": false
        }
      ],
      "logsBloom": "0x00000000000000000000000000000000000000000000000000000000000000080000000000000000000000000000000000000000000000000000000000000000000000000000000000000000000000000000000000000000000000000000000000000000000000000000200000000000000000000000000010000000000000000000000000000000000000000000100000000000000000000000000000000000000000000000000000004000080000000000000000000000000000000000000000000000000000000000000000000000000000080000000000080000000000000000100000000000000000000000000000000000000000000000000000000000",
      "type": "0x2",
      "transactionHash": "0x75b365218fb49183b494176505e2c2a990db6a9f73702b3aeec3b2b9601569f9",
      "transactionIndex": "0x10",
      "blockHash": "0x1a70198737db7a926aea84e963ebe7e5a5f7b27d2b8f5a4655a1d536f04f0fcf",
      "blockNumber": "0x21e718",
      "gasUsed": "0x14bb7",
      "effectiveGasPrice": "0x400d8a3",
      "from": "0xff9179199903a10283e19d86de8c09f2718073da",
      "to": "0xf16a47a7aacf0aa2af16b467887faa7376b04df4",
      "contractAddress": null
    },
    {
      "status": "0x1",
      "cumulativeGasUsed": "0x732b01",
      "logs": [],
      "logsBloom": "0x00000000000000000000000000000000000000000000000000000000000000000000000000000000000000000000000000000000000000000000000000000000000000000000000000000000000000000000000000000000000000000000000000000000000000000000000000000000000000000000000000000000000000000000000000000000000000000000000000000000000000000000000000000000000000000000000000000000000000000000000000000000000000000000000000000000000000000000000000000000000000000000000000000000000000000000000000000000000000000000000000000000000000000000000000000000",
      "type": "0x2",
      "transactionHash": "0x37bb31e54cd35dc42c78cce0a2cc208d88614ed0fd4879618ceb18fc9ba0c24a",
      "transactionIndex": "0x11",
      "blockHash": "0x1a70198737db7a926aea84e963ebe7e5a5f7b27d2b8f5a4655a1d536f04f0fcf",
      "blockNumber": "0x21e718",
      "gasUsed": "0x7bda9",
      "effectiveGasPrice": "0x400d8a3",
      "from": "0xff9179199903a10283e19d86de8c09f2718073da",
      "to": null,
      "contractAddress": "0x8a13d8a13493b35a56af0e072492ff147a0e678b"
    },
    {
      "status": "0x1",
      "cumulativeGasUsed": "0x73a0a6",
      "logs": [
        {
          "address": "0xf16a47a7aacf0aa2af16b467887faa7376b04df4",
          "topics": [
            "0x159f10d3da077d18f228d52be447d552e7d1892d10f7af8f615658160e374729"
          ],
          "data": "0x0000000000000000000000008a13d8a13493b35a56af0e072492ff147a0e678b",
          "blockHash": "0x1a70198737db7a926aea84e963ebe7e5a5f7b27d2b8f5a4655a1d536f04f0fcf",
          "blockNumber": "0x21e718",
          "transactionHash": "0x448a1b3f966937d383b65cf606f9eafe9f62500adbff7bd5948ee72d75700cd9",
          "transactionIndex": "0x12",
          "logIndex": "0x20",
          "removed": false
        }
      ],
      "logsBloom": "0x00000000000000080000000000000000000000000000000000000000000000000000000000000000000000000200000000000000000000000000000000000000000000000000000000000000000000000000000000000000000000000000000000000000000000000000000000000000000000000000000000000000000000000000000000000000000000000000000000000000000000000000000000000000000000000000000000000000000000000000000000000000000000000000000000000000000000000000000000000000000000080000000000080000000000000000100000000000000000000010000000000000000000000000000000000000",
      "type": "0x2",
      "transactionHash": "0x448a1b3f966937d383b65cf606f9eafe9f62500adbff7bd5948ee72d75700cd9",
      "transactionIndex": "0x12",
      "blockHash": "0x1a70198737db7a926aea84e963ebe7e5a5f7b27d2b8f5a4655a1d536f04f0fcf",
      "blockNumber": "0x21e718",
      "gasUsed": "0x75a5",
      "effectiveGasPrice": "0x400d8a3",
      "from": "0xff9179199903a10283e19d86de8c09f2718073da",
      "to": "0xf16a47a7aacf0aa2af16b467887faa7376b04df4",
      "contractAddress": null
    }
  ],
  "libraries": [],
  "pending": [],
  "returns": {},
  "timestamp": 1724832052,
  "chain": 17000,
  "commit": "ece5254"
}