{
  "transactions": [
    {
      "hash": "0x00970ac63a8b034647378d00365353f315119b3d7acdfa3bb5ab779db2f6e07b",
      "transactionType": "CREATE",
      "contractName": "Propose",
      "contractAddress": "0x5a99B9d24d69328F58D6Ef8950e030C478FB9AaF",
      "function": null,
      "arguments": null,
      "transaction": {
        "from": "0x9a8ffc5Eb856B2dbf11128859841D7F8400de0B0",
        "gas": "0x119edc",
        "value": "0x0",
        "input": "0x608060405234801561001057600080fd5b50610f1c806100206000396000f3fe608060405234801561001057600080fd5b506004361061002b5760003560e01c8063d13da0bd14610030575b600080fd5b61004361003e3660046108f9565b610055565b60405190815260200160405180910390f35b60006100817f8972abadfc8727f472fb0b6beb8d30155bd57415f49dc6c94e9cecdec0ed920033610229565b61009e57604051635c9ee2ab60e11b815260040160405180910390fd5b507f51e64ee84f491aad402ff73401b25fa2058a87e9d027403050c951c19bbb780080549060006100ce8261028c565b9050600061011488888080601f016020809104026020016040519081016040528093929190818152602001838380828437600092019190915250869392505061031c9050565b90507fb22aca7d5ab207801e44135e5fe90f9e709a218f408d841420a027d1883e164684828a8a60405161014b94939291906109e7565b60405180910390a184156101b057600061016f6101688789610ad9565b84906103aa565b90507f0fdab9c3bcde94f0c1a1165103baf9726e17f93845a1172b7b34c283478e7ed7858289896040516101a69493929190610c2a565b60405180910390a1505b6101ba828561043f565b6101c38261056b565b600c8201546008830154600a840154604080518881523360208201528082019490945260608401929092526080830152517f5f71722fe7bf2cb6cc0b4b4ed04b9fd315103b22fd34395592de1239bfdc7c2f9181900360a00190a1505050949350505050565b6000805b835481101561028557826001600160a01b031684600001828154811061025557610255610ce8565b60009182526020909120600290910201546001600160a01b03160361027d5760019150610285565b60010161022d565b5092915050565b805460018082018355600083815260208120600d90930290920180548201815580820180549092018255915242600c82018190557f51e64ee84f491aad402ff73401b25fa2058a87e9d027403050c951c19bbb7801546102eb91610cfe565b60088201557f51e64ee84f491aad402ff73401b25fa2058a87e9d027403050c951c19bbb780254600a820155919050565b6000815160000361034057604051631a9079d560e01b815260040160405180910390fd5b50815460408051808201825283815281516000808252602080830190945283830191909152600184018655858152919091208151600284029091019081906103889082610daf565b5060208281015180516103a19260018501920190610899565b50505092915050565b6001808301805491820181556000908152602081208201905b835181101561043757816000018482815181106103e2576103e2610ce8565b602090810291909101810151825460018101845560009384529190922082516002909202019081906104149082610daf565b50602082015160018201906104299082610daf565b5050508060010190506103c3565b505092915050565b604080516080810182527f51e64ee84f491aad402ff73401b25fa2058a87e9d027403050c951c19bbb78015481527f51e64ee84f491aad402ff73401b25fa2058a87e9d027403050c951c19bbb78025460208201527f51e64ee84f491aad402ff73401b25fa2058a87e9d027403050c951c19bbb7803549181018290527f51e64ee84f491aad402ff73401b25fa2058a87e9d027403050c951c19bbb78045460608201527f8972abadfc8727f472fb0b6beb8d30155bd57415f49dc6c94e9cecdec0ed920080549092101561051d5761051884846105a6565b610565565b61052784836106e4565b6040517fa6c20d3d23e1987f797b7d6df82e3e885eadb06674faf0ae16ab200a873588979061055c9085906002880190610e6f565b60405180910390a15b50505050565b42600c82018190557f51e64ee84f491aad402ff73401b25fa2058a87e9d027403050c951c19bbb78015461059e91610cfe565b600890910155565b7fbacc45d94f3c311c83de7e11ee1a81c3735ba264fe339411bbcc7be5e4317d006105d081610755565b6002810154600382015460018301546004808501546040516305d3b1d360e41b81529182019390935267ffffffffffffffff9091166024820152640100000000820461ffff16604482015263ffffffff8083166064830152660100000000000090920490911660848201526000916001600160a01b031690635d3b1d309060a4016020604051808303816000875af1158015610670573d6000803e3d6000fd5b505050506040513d601f19601f820116820180604052508101906106949190610ecd565b600985018190556000818152602084815260409182902086905581518681529081018390529192507fc6f253de430148d7581a940518a73a6d98efc85ea9162887a3918443ba67c212910161055c565b60005b8154811015610750578260020160000182828154811061070957610709610ce8565b60009182526020808320600290920290910154835460018181018655948452919092200180546001600160a01b0319166001600160a01b03909216919091179055016106e7565b505050565b600181015467ffffffffffffffff16600003610784576040516306a3ba5960e11b815260040160405180910390fd5b60028101546001600160a01b03166107af57604051631b20043b60e11b815260040160405180910390fd5b60038101546000036107d357604051628e001360e11b815260040160405180910390fd5b600481015463ffffffff166000036107fe5760405163b8aa713360e01b815260040160405180910390fd5b6004810154640100000000900461ffff1660000361082f576040516374188f1b60e01b815260040160405180910390fd5b60048101546601000000000000900463ffffffff166000036108645760405163463b392160e01b815260040160405180910390fd5b6004810154600160501b90046001600160a01b03166108965760405163aeb01f8d60e01b815260040160405180910390fd5b50565b8280548282559060005260206000209081019282156108d4579160200282015b828111156108d45782518255916020019190600101906108b9565b506108e09291506108e4565b5090565b5b808211156108e057600081556001016108e5565b6000806000806040858703121561090f57600080fd5b843567ffffffffffffffff8082111561092757600080fd5b818701915087601f83011261093b57600080fd5b81358181111561094a57600080fd5b88602082850101111561095c57600080fd5b60209283019650945090860135908082111561097757600080fd5b818701915087601f83011261098b57600080fd5b81358181111561099a57600080fd5b8860208260051b85010111156109af57600080fd5b95989497505060200194505050565b81835281816020850137506000828201602090810191909152601f909101601f19169091010190565b848152836020820152606060408201526000610a076060830184866109be565b9695505050505050565b634e487b7160e01b600052604160045260246000fd5b6040805190810167ffffffffffffffff81118282101715610a4a57610a4a610a11565b60405290565b604051601f8201601f1916810167ffffffffffffffff81118282101715610a7957610a79610a11565b604052919050565b600067ffffffffffffffff831115610a9b57610a9b610a11565b610aae601f8401601f1916602001610a50565b9050828152838383011115610ac257600080fd5b828260208301376000602084830101529392505050565b600067ffffffffffffffff80841115610af457610af4610a11565b8360051b6020610b05818301610a50565b868152918501918181019036841115610b1d57600080fd5b865b84811015610bd157803586811115610b375760008081fd5b88016040368290031215610b4b5760008081fd5b610b53610a27565b813588811115610b635760008081fd5b8201601f3681830112610b765760008081fd5b610b843683358a8501610a81565b835287840135915089821115610b9a5760008081fd5b928101923681850112610baf57600091508182fd5b5050610bbf368335888501610a81565b81870152845250918301918301610b1f565b50979650505050505050565b6000808335601e19843603018112610bf457600080fd5b830160208101925035905067ffffffffffffffff811115610c1457600080fd5b803603821315610c2357600080fd5b9250929050565b60006060820186835260208660208501526040606060408601528286845260808601905060808760051b8701019350876000805b89811015610cd757888703607f190184528235368c9003603e19018112610c83578283fd5b8b01610c8f8180610bdd565b878a52610c9f888b0182846109be565b915050610cae88830183610bdd565b9250898203898b0152610cc28284836109be565b99505050938601935091850191600101610c5e565b50949b9a5050505050505050505050565b634e487b7160e01b600052603260045260246000fd5b80820180821115610d1f57634e487b7160e01b600052601160045260246000fd5b92915050565b600181811c90821680610d3957607f821691505b602082108103610d5957634e487b7160e01b600052602260045260246000fd5b50919050565b601f821115610750576000816000526020600020601f850160051c81016020861015610d885750805b601f850160051c820191505b81811015610da757828155600101610d94565b505050505050565b815167ffffffffffffffff811115610dc957610dc9610a11565b610ddd81610dd78454610d25565b84610d5f565b602080601f831160018114610e125760008415610dfa5750858301515b600019600386901b1c1916600185901b178555610da7565b600085815260208120601f198616915b82811015610e4157888601518255948401946001909101908401610e22565b5085821015610e5f5787850151600019600388901b60f8161c191681555b5050505050600190811b01905550565b600060408201848352602060406020850152818554808452606086019150866000526020600020935060005b81811015610ec05784546001600160a01b031683526001948501949284019201610e9b565b5090979650505050505050565b600060208284031215610edf57600080fd5b505191905056fea26469706673582212203263b58bb2ee82cf94d375229db49355a801a87570b3b15e52c24f678f11f45364736f6c63430008180033",
        "nonce": "0x0",
        "chainId": "0x2105"
      },
      "additionalContracts": [],
      "isFixedGasLimit": false
    },
    {
      "hash": "0x024799a9be8bd4905c9def95742484a4a91ad3689833ea8efe21b3544b7065f3",
      "transactionType": "CREATE",
      "contractName": "Fork",
      "contractAddress": "0xDAFB7697429A1d2D4FCa751C3d7Ad4576F396024",
      "function": null,
      "arguments": null,
      "transaction": {
        "from": "0x9a8ffc5Eb856B2dbf11128859841D7F8400de0B0",
        "gas": "0xe3880",
        "value": "0x0",
        "input": "0x608060405234801561001057600080fd5b50610c03806100206000396000f3fe608060405234801561001057600080fd5b50600436106100415760003560e01c8063442b593c1461004657806371cb2ee51461005b578063c0e89f0b1461006e575b600080fd5b6100596100543660046105e6565b610081565b005b610059610069366004610674565b610129565b61005961007c3660046106ee565b6101dc565b82600061009e82600080516020610bae8339815191525b9061027a565b60020190506000805b82548110156100f757336001600160a01b03168382815481106100cc576100cc61072d565b6000918252602090912001546001600160a01b0316036100ef57600191506100f7565b6001016100a7565b508061011657604051632290eccd60e21b815260040160405180910390fd5b6101218686866102c9565b505050505050565b84600061014482600080516020610bae833981519152610098565b60020190506000805b825481101561019d57336001600160a01b03168382815481106101725761017261072d565b6000918252602090912001546001600160a01b031603610195576001915061019d565b60010161014d565b50806101bc57604051632290eccd60e21b815260040160405180910390fd5b6101c7888888610361565b6101d28886866102c9565b5050505050505050565b8260006101f782600080516020610bae833981519152610098565b60020190506000805b825481101561025057336001600160a01b03168382815481106102255761022561072d565b6000918252602090912001546001600160a01b0316036102485760019150610250565b600101610200565b508061026f57604051632290eccd60e21b815260040160405180910390fd5b610121868686610361565b8154600090821061029e5760405163635e873760e01b815260040160405180910390fd5b8260000182815481106102b3576102b361072d565b90600052602060002090600d0201905092915050565b6000600080516020610bae8339815191528054859081106102ec576102ec61072d565b60009182526020909120600d909102019050811561035b57600061031a610313848661080b565b8390610417565b90507f0fdab9c3bcde94f0c1a1165103baf9726e17f93845a1172b7b34c283478e7ed785828686604051610351949392919061097e565b60405180910390a1505b50505050565b6000600080516020610bae8339815191528054859081106103845761038461072d565b60009182526020909120600d909102019050811561035b5760006103e084848080601f01602080910402602001604051908101604052809392919081815260200183838082843760009201919091525086939250506104ac9050565b90507fb22aca7d5ab207801e44135e5fe90f9e709a218f408d841420a027d1883e1646858286866040516103519493929190610a3c565b6001808301805491820181556000908152602081208201905b83518110156104a4578160000184828151811061044f5761044f61072d565b602090810291909101810151825460018101845560009384529190922082516002909202019081906104819082610aed565b50602082015160018201906104969082610aed565b505050806001019050610430565b505092915050565b600081516000036104d057604051631a9079d560e01b815260040160405180910390fd5b50815460408051808201825283815281516000808252602080830190945283830191909152600184018655858152919091208151600284029091019081906105189082610aed565b506020828101518051610531926001850192019061053a565b50505092915050565b828054828255906000526020600020908101928215610575579160200282015b8281111561057557825182559160200191906001019061055a565b50610581929150610585565b5090565b5b808211156105815760008155600101610586565b60008083601f8401126105ac57600080fd5b50813567ffffffffffffffff8111156105c457600080fd5b6020830191508360208260051b85010111156105df57600080fd5b9250929050565b6000806000604084860312156105fb57600080fd5b83359250602084013567ffffffffffffffff81111561061957600080fd5b6106258682870161059a565b9497909650939450505050565b60008083601f84011261064457600080fd5b50813567ffffffffffffffff81111561065c57600080fd5b6020830191508360208285010111156105df57600080fd5b60008060008060006060868803121561068c57600080fd5b85359450602086013567ffffffffffffffff808211156106ab57600080fd5b6106b789838a01610632565b909650945060408801359150808211156106d057600080fd5b506106dd8882890161059a565b969995985093965092949392505050565b60008060006040848603121561070357600080fd5b83359250602084013567ffffffffffffffff81111561072157600080fd5b61062586828701610632565b634e487b7160e01b600052603260045260246000fd5b634e487b7160e01b600052604160045260246000fd5b6040805190810167ffffffffffffffff8111828210171561077c5761077c610743565b60405290565b604051601f8201601f1916810167ffffffffffffffff811182821017156107ab576107ab610743565b604052919050565b600067ffffffffffffffff8311156107cd576107cd610743565b6107e0601f8401601f1916602001610782565b90508281528383830111156107f457600080fd5b828260208301376000602084830101529392505050565b600067ffffffffffffffff8084111561082657610826610743565b8360051b6020610837818301610782565b86815291850191818101903684111561084f57600080fd5b865b84811015610903578035868111156108695760008081fd5b8801604036829003121561087d5760008081fd5b610885610759565b8135888111156108955760008081fd5b8201601f36818301126108a85760008081fd5b6108b63683358a85016107b3565b8352878401359150898211156108cc5760008081fd5b9281019236818501126108e157600091508182fd5b50506108f13683358885016107b3565b81870152845250918301918301610851565b50979650505050505050565b6000808335601e1984360301811261092657600080fd5b830160208101925035905067ffffffffffffffff81111561094657600080fd5b8036038213156105df57600080fd5b81835281816020850137506000828201602090810191909152601f909101601f19169091010190565b60006060820186835260208660208501526040606060408601528286845260808601905060808760051b8701019350876000805b89811015610a2b57888703607f190184528235368c9003603e190181126109d7578283fd5b8b016109e3818061090f565b878a526109f3888b018284610955565b915050610a028883018361090f565b9250898203898b0152610a16828483610955565b995050509386019350918501916001016109b2565b50949b9a5050505050505050505050565b848152836020820152606060408201526000610a5c606083018486610955565b9695505050505050565b600181811c90821680610a7a57607f821691505b602082108103610a9a57634e487b7160e01b600052602260045260246000fd5b50919050565b601f821115610ae8576000816000526020600020601f850160051c81016020861015610ac95750805b601f850160051c820191505b8181101561012157828155600101610ad5565b505050565b815167ffffffffffffffff811115610b0757610b07610743565b610b1b81610b158454610a66565b84610aa0565b602080601f831160018114610b505760008415610b385750858301515b600019600386901b1c1916600185901b178555610121565b600085815260208120601f198616915b82811015610b7f57888601518255948401946001909101908401610b60565b5085821015610b9d5787850151600019600388901b60f8161c191681555b5050505050600190811b0190555056fe51e64ee84f491aad402ff73401b25fa2058a87e9d027403050c951c19bbb7800a26469706673582212207b8a1c1f9faecf2b696c45939f217d2e56d2a310c0421039aba63a7185c18bf864736f6c63430008180033",
        "nonce": "0x1",
        "chainId": "0x2105"
      },
      "additionalContracts": [],
      "isFixedGasLimit": false
    },
    {
      "hash": "0x304ec5798390f775afbe9b0a156322c495cdfbd74a006dea56e14dd8a535605f",
      "transactionType": "CREATE",
      "contractName": "Vote",
      "contractAddress": "0xd19BC19074ACd597a5f729C4fF722D3672832e1f",
      "function": null,
      "arguments": null,
      "transaction": {
        "from": "0x9a8ffc5Eb856B2dbf11128859841D7F8400de0B0",
        "gas": "0x58621",
        "value": "0x0",
        "input": "0x608060405234801561001057600080fd5b50610413806100206000396000f3fe608060405234801561001057600080fd5b506004361061002b5760003560e01c80630c68678c14610030575b600080fd5b61004361003e3660046102e7565b610045565b005b816000610074827f51e64ee84f491aad402ff73401b25fa2058a87e9d027403050c951c19bbb78005b906101b2565b60020190506000805b82548110156100cd57336001600160a01b03168382815481106100a2576100a261031f565b6000918252602090912001546001600160a01b0316036100c557600191506100cd565b60010161007d565b50806100ec57604051632290eccd60e21b815260040160405180910390fd5b6000610118867f51e64ee84f491aad402ff73401b25fa2058a87e9d027403050c951c19bbb780061006e565b90506101278160080154421190565b1561014557604051636de162e360e01b815260040160405180910390fd5b61014f8186610202565b3360009081526003820160205260409020859061016c8282610335565b9050507f7e0f0fda26edb240992ed8159adabdb6eb6fcc6da10cf38c46e856f484209c738633876040516101a29392919061038b565b60405180910390a1505050505050565b815460009082106101d65760405163635e873760e01b815260040160405180910390fd5b8260000182815481106101eb576101eb61031f565b90600052602060002090600d020190505b92915050565b60005b60038110156102e257825461021c906001906103bc565b82826003811061022e5761022e61031f565b602002013511156102745781816003811061024b5761024b61031f565b602002013560405162c6600760e41b815260040161026b91815260200190565b60405180910390fd5b60018381015461028491906103bc565b8260600182600381106102995761029961031f565b602002013511156102da578160600181600381106102b9576102b961031f565b6020020135604051638bef08f560e01b815260040161026b91815260200190565b600101610205565b505050565b60008082840360e08112156102fb57600080fd5b8335925060c0601f198201121561031157600080fd5b506020830190509250929050565b634e487b7160e01b600052603260045260246000fd5b8160005b600381101561035657813583820155602090910190600101610339565b50506060820160005b600380821061036e5750610385565b82358483019091015560209091019060010161035f565b50505050565b8381526001600160a01b038316602082015261010081016060836040840137606080840160a0840137949350505050565b818103818111156101fc57634e487b7160e01b600052601160045260246000fdfea2646970667358221220f1a5905ae26732f33a385cee20ce2ce45eb2d2f822dd2abae99adc1b255d4db164736f6c63430008180033",
        "nonce": "0x2",
        "chainId": "0x2105"
      },
      "additionalContracts": [],
      "isFixedGasLimit": false
    },
    {
      "hash": "0xae0bbd3922ab2db9958c5f4a4d183656db440e9df4c5e1e0e830948c3fefc851",
      "transactionType": "CREATE",
      "contractName": "Tally",
      "contractAddress": "0x523b9Cf277cA1B167b8EE5665F05c277CCe41DB0",
      "function": null,
      "arguments": null,
      "transaction": {
        "from": "0x9a8ffc5Eb856B2dbf11128859841D7F8400de0B0",
        "gas": "0x10e4c7",
        "value": "0x0",
        "input": "0x608060405234801561001057600080fd5b50610e71806100206000396000f3fe608060405234801561001057600080fd5b50600436106100365760003560e01c8063ed8b6b311461003b578063fec77ae514610050575b600080fd5b61004e610049366004610cbf565b610063565b005b61004e61005e366004610cbf565b6100bd565b6000610091827f51e64ee84f491aad402ff73401b25fa2058a87e9d027403050c951c19bbb78005b90610154565b90506100a08160080154421190565b156100b3576100af82826101a4565b5050565b6100af828261038f565b6100c681610063565b60006100f2827f51e64ee84f491aad402ff73401b25fa2058a87e9d027403050c951c19bbb780061008b565b6005810154909150156100af5760405163fe0d94c160e01b815260048101839052309063fe0d94c190602401600060405180830381600087803b15801561013857600080fd5b505af115801561014c573d6000803e3d6000fd5b505050505050565b815460009082106101785760405163635e873760e01b815260040160405180910390fd5b82600001828154811061018d5761018d610cd8565b90600052602060002090600d020190505b92915050565b6101ad81610426565b156101cb5760405163f6310c2560e01b815260040160405180910390fd5b6000806101d783610440565b9150915060006101e68361078d565b905060006101f38361078d565b905081516000148061020457508051155b80610210575060018251115b8061021c575060018151115b156102ad577f51e64ee84f491aad402ff73401b25fa2058a87e9d027403050c951c19bbb780154600886018054600090610257908490610d04565b909155507f35276edfeea4b444fcb989cf68d1379e7d164d51406e4252f1ec5dd476f54295905086610288876108f6565b60088801546040516102a09392918791879190610d53565b60405180910390a161014c565b6102da826000815181106102c3576102c3610cd8565b60200260200101518661092a90919063ffffffff16565b610307816000815181106102f0576102f0610cd8565b60200260200101518661096590919063ffffffff16565b7f22d7ff694ee2b21efdc8f0620ce8981ffe587da1939f9bafed3686101b070e70868360008151811061033c5761033c610cd8565b60200260200101518360008151811061035757610357610cd8565b602002602001015160405161037f939291909283526020830191909152604082015260600190565b60405180910390a1505050505050565b610398816109f8565b156103b657604051631660900f60e21b815260040160405180910390fd5b6000806103c283610440565b9150915060006103d183610a22565b905060006103de83610a22565b90506103e985610c7a565b7f0134a7a3231ab936086853b621f3c219c8caf5da163d9bfc27c27223b6b037e186610414876108f6565b848460405161037f9493929190610d97565b600481015460009015158061019e57505060050154151590565b8054606090819067ffffffffffffffff81111561045f5761045f610dd3565b604051908082528060200260200182016040528015610488578160200160208202803683370190505b50600184015490925067ffffffffffffffff8111156104a9576104a9610dd3565b6040519080825280602002602001820160405280156104d2578160200160208202803683370190505b50905060005b600284015481101561078757600084600201600101600086600201600001848154811061050757610507610cd8565b60009182526020808320909101546001600160a01b031683528201929092526040908101909120815160a08101835291829081018260038282826020028201915b8154815260200190600101908083116105485750505091835250506040805160608101918290526020909201919060038481019182845b81548152602001906001019080831161057f5750505091909252505081518051602082015160409092015188519495509093919250906105bf8482610cad565b156105f05760038885815181106105d8576105d8610cd8565b602002602001018181516105ec9190610d04565b9052505b6105fa8382610cad565b80156106065750838314155b1561063757600288848151811061061f5761061f610cd8565b602002602001018181516106339190610d04565b9052505b6106418282610cad565b801561064d5750838214155b80156106595750828214155b1561068a57600188838151811061067257610672610cd8565b602002602001018181516106869190610d04565b9052505b60208581015180519181015160409091015189516106a88482610cad565b156106d95760038b85815181106106c1576106c1610cd8565b602002602001018181516106d59190610d04565b9052505b6106e38382610cad565b80156106ef5750838314155b156107205760028b848151811061070857610708610cd8565b6020026020010181815161071c9190610d04565b9052505b61072a8282610cad565b80156107365750838214155b80156107425750828214155b156107735760018b838151811061075b5761075b610cd8565b6020026020010181815161076f9190610d04565b9052505b5050505050505050508060010190506104d8565b50915091565b606060008060005b845181101561082757828582815181106107b1576107b1610cd8565b602002602001015111156107e4578481815181106107d1576107d1610cd8565b602002602001015192506001915061081f565b828582815181106107f7576107f7610cd8565b602002602001015114801561080c5750600083115b1561081f578161081b81610de9565b9250505b600101610795565b508160000361084757505060408051600081526020810190915292915050565b8067ffffffffffffffff81111561086057610860610dd3565b604051908082528060200260200182016040528015610889578160200160208202803683370190505b5092506000805b85518110156108ed57838682815181106108ac576108ac610cd8565b6020026020010151036108e557808583815181106108cc576108cc610cd8565b6020908102919091010152816108e181610de9565b9250505b600101610890565b50505050919050565b600a81015460009080820361090e5750600192915050565b806109198142610e02565b6109239190610e24565b9392505050565b801580610938575081548110155b1561095d5760405162c6600760e41b8152600481018290526024015b60405180910390fd5b600490910155565b801580610976575060018201548110155b1561099757604051638bef08f560e01b815260048101829052602401610954565b6005820181905560018201805460009190839081106109b8576109b8610cd8565b6000918252602082200191505b81548110156109f25760008181526006850160205260409020805460ff19166001908117909155016109c5565b50505050565b6000600b820181610a08846108f6565b815260208101919091526040016000205460ff1692915050565b6040805160608181018352600080835260208084018290528385018290528451808401865260001980825291810182905294850152909290805b8551811015610bed578360026020020151868281518110610a7f57610a7f610cd8565b60200260200101511115610be5578360016020020151868281518110610aa757610aa7610cd8565b60200260200101511115610b945783518651879083908110610acb57610acb610cd8565b60200260200101511115610b40576020808501805160408088019190915291850180519286019290925285519052835190528551869082908110610b1157610b11610cd8565b602002602001015184600060038110610b2c57610b2c610cd8565b6020020152808360005b6020020152610bce565b60208085015160408087019190915290840151908401528551869082908110610b6b57610b6b610cd8565b602002602001015184600160038110610b8657610b86610cd8565b602002015280836001610b36565b858181518110610ba657610ba6610cd8565b602002602001015184600260038110610bc157610bc1610cd8565b6020020152604083018190525b6003821015610be55781610be181610de9565b9250505b600101610a5c565b508067ffffffffffffffff811115610c0757610c07610dd3565b604051908082528060200260200182016040528015610c30578160200160208202803683370190505b50935060005b818110156108ed57828160038110610c5057610c50610cd8565b6020020151858281518110610c6757610c67610cd8565b6020908102919091010152600101610c36565b6001600b82016000610c8b846108f6565b81526020810191909152604001600020805460ff191691151591909117905550565b60008260001080156109235750501190565b600060208284031215610cd157600080fd5b5035919050565b634e487b7160e01b600052603260045260246000fd5b634e487b7160e01b600052601160045260246000fd5b8082018082111561019e5761019e610cee565b60008151808452602080850194506020840160005b83811015610d4857815187529582019590820190600101610d2c565b509495945050505050565b85815284602082015260a060408201526000610d7260a0830186610d17565b8281036060840152610d848186610d17565b9150508260808301529695505050505050565b848152836020820152608060408201526000610db66080830185610d17565b8281036060840152610dc88185610d17565b979650505050505050565b634e487b7160e01b600052604160045260246000fd5b600060018201610dfb57610dfb610cee565b5060010190565b600082610e1f57634e487b7160e01b600052601260045260246000fd5b500490565b808202811582820484141761019e5761019e610cee56fea2646970667358221220a2865cac0e0e9c1ab1f11e073bc3e2e5decdea3c5b372a1b7c3caf6b3c3e972c64736f6c63430008180033",
        "nonce": "0x3",
        "chainId": "0x2105"
      },
      "additionalContracts": [],
      "isFixedGasLimit": false
    },
    {
      "hash": "0x71e3661f82974df28a4270fd28b31249c6fef0b7dfd83ca99659b4d12c9a4f05",
      "transactionType": "CREATE",
      "contractName": "Execute",
      "contractAddress": "0xA96AfC1873ADaE37c5a162884d7f14f56a7EED8a",
      "function": null,
      "arguments": null,
      "transaction": {
        "from": "0x9a8ffc5Eb856B2dbf11128859841D7F8400de0B0",
        "gas": "0x6fec2",
        "value": "0x0",
        "input": "0x608060405234801561001057600080fd5b5061056b806100206000396000f3fe608060405234801561001057600080fd5b506004361061002b5760003560e01c8063fe0d94c114610030575b600080fd5b61004361003e366004610428565b610045565b005b60006100717f51e64ee84f491aad402ff73401b25fa2058a87e9d027403050c951c19bbb78008361039d565b6005810154909150600081900361009b5760405163cc6633c560e01b815260040160405180910390fd5b600782015460ff16156100c1576040516324327f4d60e21b815260040160405180910390fd5b60008260010182815481106100d8576100d8610441565b600091825260208220018054909250908190036101085760405163059d836160e11b815260040160405180910390fd5b6000805b82811015610344576002600082815260068801602052604090205460ff16600281111561013b5761013b610457565b03610152578161014a8161046d565b92505061033c565b6000306001600160a01b03166102b586848154811061017357610173610441565b906000526020600020906002020160405180604001604052908160008201805461019c90610494565b80601f01602080910402602001604051908101604052809291908181526020018280546101c890610494565b80156102155780601f106101ea57610100808354040283529160200191610215565b820191906000526020600020905b8154815290600101906020018083116101f857829003601f168201915b5050505050815260200160018201805461022e90610494565b80601f016020809104026020016040519081016040528092919081815260200182805461025a90610494565b80156102a75780601f1061027c576101008083540402835291602001916102a7565b820191906000526020600020905b81548152906001019060200180831161028a57829003601f168201915b5050505050815250506103ec565b6040516102c291906104fe565b6000604051808303816000865af19150503d80600081146102ff576040519150601f19603f3d011682016040523d82523d6000602084013e610304565b606091505b505090508061032d576040516365e1f2c960e11b81526004810183905260240160405180910390fd5b826103378161046d565b935050505b60010161010c565b508181036103955760078501805460ff1916600117905560408051878152602081018690527ff758fc91e01b00ea6b4a6138756f7f28e021f9bf21db6dbf8c36c88eb737257a910160405180910390a15b505050505050565b815460009082106103c15760405163635e873760e01b815260040160405180910390fd5b8260000182815481106103d6576103d6610441565b90600052602060002090600d0201905092915050565b60606103fe8251805160209091012090565b602080840151604051610412939201610511565b6040516020818303038152906040529050919050565b60006020828403121561043a57600080fd5b5035919050565b634e487b7160e01b600052603260045260246000fd5b634e487b7160e01b600052602160045260246000fd5b60006001820161048d57634e487b7160e01b600052601160045260246000fd5b5060010190565b600181811c908216806104a857607f821691505b6020821081036104c857634e487b7160e01b600052602260045260246000fd5b50919050565b6000815160005b818110156104ef57602081850181015186830152016104d5565b50600093019283525090919050565b600061050a82846104ce565b9392505050565b6001600160e01b031983168152600061052d60048301846104ce565b94935050505056fea2646970667358221220e97efa0d292100eefd27ae886316d3991798ec67798f5fa26defdad4db5e072f64736f6c63430008180033",
        "nonce": "0x4",
        "chainId": "0x2105"
      },
      "additionalContracts": [],
      "isFixedGasLimit": false
    },
    {
      "hash": "0xe52dfdb5bd91fb241b3b68d3285723d0faacb11404c8954cce26c9f7c636f6e4",
      "transactionType": "CREATE",
      "contractName": "SaveTextProtected",
      "contractAddress": "0xBF98A92b4ed2E4470Cb8419CF74a770017a13570",
      "function": null,
      "arguments": null,
      "transaction": {
        "from": "0x9a8ffc5Eb856B2dbf11128859841D7F8400de0B0",
        "gas": "0xf4ec2",
        "value": "0x0",
        "input": "0x608060405234801561001057600080fd5b50610d01806100206000396000f3fe608060405234801561001057600080fd5b50600436106100415760003560e01c806302d232f414610046578063d0f7c3161461005b578063d5c8d4f11461006e575b600080fd5b610059610054366004610932565b610093565b005b6100596100693660046109f7565b6103e5565b61008161007c366004610a47565b610629565b60405190815260200160405180910390f35b8160006100c2827f51e64ee84f491aad402ff73401b25fa2058a87e9d027403050c951c19bbb78005b90610851565b905060008160020160030154905060008260010182815481106100e7576100e7610a8e565b90600052602060002001905060008036604051610105929190610aa4565b604051908190039020825490915060005b818110156103cb57600084600001828154811061013557610135610a8e565b906000526020600020906002020190508361027e8260405180604001604052908160008201805461016590610ab4565b80601f016020809104026020016040519081016040528092919081815260200182805461019190610ab4565b80156101de5780601f106101b3576101008083540402835291602001916101de565b820191906000526020600020905b8154815290600101906020018083116101c157829003601f168201915b505050505081526020016001820180546101f790610ab4565b80601f016020809104026020016040519081016040528092919081815260200182805461022390610ab4565b80156102705780601f1061024557610100808354040283529160200191610270565b820191906000526020600020905b81548152906001019060200180831161025357829003601f168201915b5050505050815250506108a0565b80519060200120036103c157600082815260068801602052604090205460ff1660028160028111156102b2576102b2610aee565b036102be5750506103c3565b60018160028111156102d2576102d2610aee565b146102f057604051631dea3b2960e21b815260040160405180910390fd5b600080516020610cac833981519152548a1061032757604051630d63b67360e01b8152600481018b90526024015b60405180910390fd5b600080516020610cac83398151915280548b90811061034857610348610a8e565b600091825260208220019061035d82826108dc565b5050604080518c8152602081018c90527f7c584f69a8909f696701ad7bd900308d19267fdfdb48a3c9b7168b975d739db2910160405180910390a15050600090815260069590950160205250506040909220805460ff191660021790555050505050565b505b600101610116565b5060405163073ec13d60e31b815260040160405180910390fd5b826000610412827f51e64ee84f491aad402ff73401b25fa2058a87e9d027403050c951c19bbb78006100bc565b9050600081600201600301549050600082600101828154811061043757610437610a8e565b90600052602060002001905060008036604051610455929190610aa4565b604051908190039020825490915060005b818110156103cb57600084600001828154811061048557610485610a8e565b90600052602060002090600202019050836104b58260405180604001604052908160008201805461016590610ab4565b805190602001200361061957600082815260068801602052604090205460ff1660028160028111156104e9576104e9610aee565b036104f557505061061b565b600181600281111561050957610509610aee565b1461052757604051631dea3b2960e21b815260040160405180910390fd5b600080516020610cac833981519152548b1061055957604051630d63b67360e01b8152600481018c905260240161031e565b895160000361057b576040516324befe6560e11b815260040160405180910390fd5b89600080516020610cac83398151915280548d90811061059d5761059d610a8e565b6000918252602090912001906105b39082610b55565b507fc1c6f28b4facb6fcea1e15d57883c6742397d7af079f6865a14f6a99bd9fd9208c8c8c6040516105e793929190610c39565b60405180910390a15050600090815260069590950160205250506040909220805460ff19166002179055506106239050565b505b600101610466565b50505050565b60008281610657827f51e64ee84f491aad402ff73401b25fa2058a87e9d027403050c951c19bbb78006100bc565b9050600081600201600301549050600082600101828154811061067c5761067c610a8e565b9060005260206000200190506000803660405161069a929190610aa4565b604051908190039020825490915060005b818110156103cb5760008460000182815481106106ca576106ca610a8e565b90600052602060002090600202019050836106fa8260405180604001604052908160008201805461016590610ab4565b805190602001200361084057600082815260068801602052604090205460ff16600281600281111561072e5761072e610aee565b0361073a575050610842565b600181600281111561074e5761074e610aee565b1461076c57604051631dea3b2960e21b815260040160405180910390fd5b8a5160000361078e576040516324befe6560e11b815260040160405180910390fd5b600080516020610cac833981519152805460018101825560009190915299507fb02e01727b4711bf1ba50f43bc6b86fefe1dc12499b9490cdcd3d03bc0eafb638a016107da8c82610b55565b507f0b7b90c6bed09279de3c7de3c9311ea1a02a9824b7a8b1d40c20c3252389137a8c8b8d60405161080e93929190610c39565b60405180910390a15050600090815260069590950160205250506040909220805460ff191660021790555061084a9050565b505b6001016106ab565b5092915050565b815460009082106108755760405163635e873760e01b815260040160405180910390fd5b82600001828154811061088a5761088a610a8e565b90600052602060002090600d0201905092915050565b60606108b28251805160209091012090565b6020808401516040516108c6939201610c7a565b6040516020818303038152906040529050919050565b5080546108e890610ab4565b6000825580601f106108f8575050565b601f0160209004906000526020600020908101906109169190610919565b50565b5b8082111561092e576000815560010161091a565b5090565b6000806040838503121561094557600080fd5b50508035926020909101359150565b634e487b7160e01b600052604160045260246000fd5b600082601f83011261097b57600080fd5b813567ffffffffffffffff8082111561099657610996610954565b604051601f8301601f19908116603f011681019082821181831017156109be576109be610954565b816040528381528660208588010111156109d757600080fd5b836020870160208301376000602085830101528094505050505092915050565b600080600060608486031215610a0c57600080fd5b8335925060208401359150604084013567ffffffffffffffff811115610a3157600080fd5b610a3d8682870161096a565b9150509250925092565b60008060408385031215610a5a57600080fd5b82359150602083013567ffffffffffffffff811115610a7857600080fd5b610a848582860161096a565b9150509250929050565b634e487b7160e01b600052603260045260246000fd5b8183823760009101908152919050565b600181811c90821680610ac857607f821691505b602082108103610ae857634e487b7160e01b600052602260045260246000fd5b50919050565b634e487b7160e01b600052602160045260246000fd5b601f821115610b50576000816000526020600020601f850160051c81016020861015610b2d5750805b601f850160051c820191505b81811015610b4c57828155600101610b39565b5050505b505050565b815167ffffffffffffffff811115610b6f57610b6f610954565b610b8381610b7d8454610ab4565b84610b04565b602080601f831160018114610bb85760008415610ba05750858301515b600019600386901b1c1916600185901b178555610b4c565b600085815260208120601f198616915b82811015610be757888601518255948401946001909101908401610bc8565b5085821015610c055787850151600019600388901b60f8161c191681555b5050505050600190811b01905550565b60005b83811015610c30578181015183820152602001610c18565b50506000910152565b8381528260208201526060604082015260008251806060840152610c64816080850160208701610c15565b601f01601f191691909101608001949350505050565b6001600160e01b0319831681528151600090610c9d816004850160208701610c15565b91909101600401939250505056fe1936e448f24d50cf45d061362b8b2abea6f76fd415e7ceb5fe96d540deb60400a2646970667358221220c5c79a67504d560ad37a7e0984cbe36972a0291d9e3687f26cfacf3b73a422dc64736f6c63430008180033",
        "nonce": "0x5",
        "chainId": "0x2105"
      },
      "additionalContracts": [],
      "isFixedGasLimit": false
    },
    {
      "hash": "0x27c752d52bf1bd22dde6eaf94ed877245d8ff565d096d32857a9fa8f11eb1e5f",
      "transactionType": "CREATE",
      "contractName": null,
      "contractAddress": "0x8CbE1fdb71E7c25a131a41bcCFc87257A5527cE5",
      "function": null,
      "arguments": null,
      "transaction": {
        "from": "0x9a8ffc5Eb856B2dbf11128859841D7F8400de0B0",
        "gas": "0x1f6dfa",
        "value": "0x0",
        "input": "0x608060405234801561001057600080fd5b50611bb2806100206000396000f3fe608060405234801561001057600080fd5b50600436106100b45760003560e01c8063932c30b511610071578063932c30b5146101445780639c54df6414610157578063b82ee6ee1461016a578063be3ffaeb1461017d578063ca30b4b614610190578063ed82e471146101a357600080fd5b80631f7a92b2146100b957806355aca5b1146100ce5780636f4d469b146100e15780637eec0a65146100f45780638641e0d61461011e5780638aa5d87514610131575b600080fd5b6100cc6100c736600461167a565b6101b6565b005b6100cc6100dc3660046116ae565b6103d9565b6100cc6100ef36600461178b565b6104b1565b6101076101023660046117c8565b6105b9565b60405161011592919061181d565b60405180910390f35b6100cc61012c3660046116ae565b61075e565b61010761013f3660046117c8565b610857565b6100cc61015236600461184b565b610899565b6100cc61016536600461178b565b6109fb565b6101076101783660046117c8565b610ae1565b6100cc61018b3660046116ae565b610b08565b6100cc61019e366004611867565b610be8565b6100cc6101b13660046117c8565b610d08565b7ff0c57e16840df040f15088dc2f81fe391c3923bec73e23a9662efc9c229c6a008054600160401b810460ff16159067ffffffffffffffff166000811580156101fc5750825b905060008267ffffffffffffffff1660011480156102195750303b155b905081158015610227575080155b156102455760405163f92ee8a960e01b815260040160405180910390fd5b845467ffffffffffffffff19166001178555831561026f57845460ff60401b1916600160401b1785555b610277610f50565b805460018101825560009182526020918290200180546001600160a01b0319166001600160a01b038a1617905586357f51e64ee84f491aad402ff73401b25fa2058a87e9d027403050c951c19bbb7801819055878201357f51e64ee84f491aad402ff73401b25fa2058a87e9d027403050c951c19bbb78028190556040808a01357f51e64ee84f491aad402ff73401b25fa2058a87e9d027403050c951c19bbb78038190556060808c01357f51e64ee84f491aad402ff73401b25fa2058a87e9d027403050c951c19bbb7804819055835195865295850193909352838201529082019290925290517fb3fb7272001bead168db12f456d500a08bbf25cf1f74d34f680f1dc331b18bab9181900360800190a183156103d057845460ff60401b19168555604051600181527fc7f505b2f371ae2175ee4913f4499e1f2633a7b5936321eed1cdaeb6115181d2906020015b60405180910390a15b50505050505050565b6000805b6103e5610f50565b54811015610433576103f5610f50565b805482908110610407576104076118ae565b6000918252602090912001546001600160a01b0316330361042b5760019150610433565b6001016103dd565b508061045a5760405162461bcd60e51b8152600401610451906118c4565b60405180910390fd5b6104648383610b08565b60405163fe0d94c160e01b815260048101849052309063fe0d94c190602401600060405180830381600087803b15801561049d57600080fd5b505af11580156103d0573d6000803e3d6000fd5b6000805b6104bd610f50565b5481101561050b576104cd610f50565b8054829081106104df576104df6118ae565b6000918252602090912001546001600160a01b03163303610503576001915061050b565b6001016104b5565b50806105295760405162461bcd60e51b8152600401610451906118c4565b60005b82518110156105b4576105ab6040518060400160405280858481518110610555576105556118ae565b60200260200101516001600160a01b03168152602001604051806020016040528060008152508152506105a57f8972abadfc8727f472fb0b6beb8d30155bd57415f49dc6c94e9cecdec0ed920090565b90610f74565b5060010161052c565b505050565b6060806000806105e16105dc86600080516020611b5d8339815191525b90611038565b611087565b9150915060006105f0836113d4565b905060006105fd836113d4565b9050815167ffffffffffffffff811115610619576106196116d0565b604051908082528060200260200182016040528015610642578160200160208202803683370190505b509550805167ffffffffffffffff81111561065f5761065f6116d0565b604051908082528060200260200182016040528015610688578160200160208202803683370190505b50945060005b82518110156106ef57848382815181106106aa576106aa6118ae565b6020026020010151815181106106c2576106c26118ae565b60200260200101518782815181106106dc576106dc6118ae565b602090810291909101015260010161068e565b5060005b8151811015610754578382828151811061070f5761070f6118ae565b602002602001015181518110610727576107276118ae565b6020026020010151868281518110610741576107416118ae565b60209081029190910101526001016106f3565b5050505050915091565b6000805b61076a610f50565b548110156107b85761077a610f50565b80548290811061078c5761078c6118ae565b6000918252602090912001546001600160a01b031633036107b057600191506107b8565b600101610762565b50806107d65760405162461bcd60e51b8152600401610451906118c4565b60006107f084600080516020611b5d8339815191526105d6565b90506107fc8342611909565b60088201556060807f35276edfeea4b444fcb989cf68d1379e7d164d51406e4252f1ec5dd476f542958661082f8561153d565b6008860154604051610847939291879187919061191c565b60405180910390a1505050505050565b6060806000806108786105dc86600080516020611b5d8339815191526105d6565b91509150610885826113d4565b61088e826113d4565b935093505050915091565b6000805b6108a5610f50565b548110156108f3576108b5610f50565b8054829081106108c7576108c76118ae565b6000918252602090912001546001600160a01b031633036108eb57600191506108f3565b60010161089d565b50806109115760405162461bcd60e51b8152600401610451906118c4565b81357f51e64ee84f491aad402ff73401b25fa2058a87e9d027403050c951c19bbb78018190556020808401357f51e64ee84f491aad402ff73401b25fa2058a87e9d027403050c951c19bbb78028190556040808601357f51e64ee84f491aad402ff73401b25fa2058a87e9d027403050c951c19bbb78038190556060808801357f51e64ee84f491aad402ff73401b25fa2058a87e9d027403050c951c19bbb78048190558351968752948601939093528482015290830191909152517fb3fb7272001bead168db12f456d500a08bbf25cf1f74d34f680f1dc331b18bab9181900360800190a15050565b6000805b610a07610f50565b54811015610a5557610a17610f50565b805482908110610a2957610a296118ae565b6000918252602090912001546001600160a01b03163303610a4d5760019150610a55565b6001016109ff565b5080610a735760405162461bcd60e51b8152600401610451906118c4565b60005b82518110156105b457610a87610f50565b600001838281518110610a9c57610a9c6118ae565b60209081029190910181015182546001808201855560009485529290932090920180546001600160a01b0319166001600160a01b039093169290921790915501610a76565b606080610aff6105dc84600080516020611b5d8339815191526105d6565b91509150915091565b6000805b610b14610f50565b54811015610b6257610b24610f50565b805482908110610b3657610b366118ae565b6000918252602090912001546001600160a01b03163303610b5a5760019150610b62565b600101610b0c565b5080610b805760405162461bcd60e51b8152600401610451906118c4565b610ba282610b9c85600080516020611b5d8339815191526105d6565b90611571565b60408051848152600060208201529081018390527f22d7ff694ee2b21efdc8f0620ce8981ffe587da1939f9bafed3686101b070e709060600160405180910390a1505050565b6000805b610bf4610f50565b54811015610c4257610c04610f50565b805482908110610c1657610c166118ae565b6000918252602090912001546001600160a01b03163303610c3a5760019150610c42565b600101610bec565b5080610c605760405162461bcd60e51b8152600401610451906118c4565b60005b8251811015610d0257610c8c6040518060400160405280858481518110610555576105556118ae565b50610ca584600080516020611b5d8339815191526105d6565b600201600001838281518110610cbd57610cbd6118ae565b60209081029190910181015182546001808201855560009485529290932090920180546001600160a01b0319166001600160a01b039093169290921790915501610c63565b50505050565b6000805b610d14610f50565b54811015610d6257610d24610f50565b805482908110610d3657610d366118ae565b6000918252602090912001546001600160a01b03163303610d5a5760019150610d62565b600101610d0c565b5080610d805760405162461bcd60e51b8152600401610451906118c4565b6000610d9a83600080516020611b5d8339815191526105d6565b9050600080610da883611087565b915091506000610db7836113d4565b90506000610dc4836113d4565b9050815160001480610dd557508051155b80610de1575060018251115b80610ded575060018151115b15610e7e577f51e64ee84f491aad402ff73401b25fa2058a87e9d027403050c951c19bbb780154600886018054600090610e28908490611909565b909155507f35276edfeea4b444fcb989cf68d1379e7d164d51406e4252f1ec5dd476f54295905087610e598761153d565b6008880154604051610e71939291879187919061191c565b60405180910390a16103d0565b610eab82600081518110610e9457610e946118ae565b6020026020010151866115fe90919063ffffffff16565b610ed881600081518110610ec157610ec16118ae565b60200260200101518661157190919063ffffffff16565b7f22d7ff694ee2b21efdc8f0620ce8981ffe587da1939f9bafed3686101b070e708783600081518110610f0d57610f0d6118ae565b602002602001015183600081518110610f2857610f286118ae565b60200260200101516040516103c7939291909283526020830191909152604082015260600190565b7f387f08a4d0e0130a3ca98fab372b91a0ab6b963ffc2d7347ad12a532b88a050090565b6000807f8972abadfc8727f472fb0b6beb8d30155bd57415f49dc6c94e9cecdec0ed92005484546001808201875560008781526020808220885160029095020180546001600160a01b0319166001600160a01b0390951694909417845587015193945092869291820190610fe890826119e4565b50855160208701516040519294507f479e555f6c2b410f9bea0faf0392342851e2103c9c7a9b61f8f087b47331d0eb93506110269286929190611aa4565b60405180910390a19150505b92915050565b8154600090821061105c5760405163635e873760e01b815260040160405180910390fd5b826000018281548110611071576110716118ae565b90600052602060002090600d0201905092915050565b8054606090819067ffffffffffffffff8111156110a6576110a66116d0565b6040519080825280602002602001820160405280156110cf578160200160208202803683370190505b50600184015490925067ffffffffffffffff8111156110f0576110f06116d0565b604051908082528060200260200182016040528015611119578160200160208202803683370190505b50905060005b60028401548110156113ce57600084600201600101600086600201600001848154811061114e5761114e6118ae565b60009182526020808320909101546001600160a01b031683528201929092526040908101909120815160a08101835291829081018260038282826020028201915b81548152602001906001019080831161118f5750505091835250506040805160608101918290526020909201919060038481019182845b8154815260200190600101908083116111c65750505091909252505081518051602082015160409092015188519495509093919250906112068482611634565b1561123757600388858151811061121f5761121f6118ae565b602002602001018181516112339190611909565b9052505b6112418382611634565b801561124d5750838314155b1561127e576002888481518110611266576112666118ae565b6020026020010181815161127a9190611909565b9052505b6112888282611634565b80156112945750838214155b80156112a05750828214155b156112d15760018883815181106112b9576112b96118ae565b602002602001018181516112cd9190611909565b9052505b60208581015180519181015160409091015189516112ef8482611634565b156113205760038b8581518110611308576113086118ae565b6020026020010181815161131c9190611909565b9052505b61132a8382611634565b80156113365750838314155b156113675760028b848151811061134f5761134f6118ae565b602002602001018181516113639190611909565b9052505b6113718282611634565b801561137d5750838214155b80156113895750828214155b156113ba5760018b83815181106113a2576113a26118ae565b602002602001018181516113b69190611909565b9052505b50505050505050505080600101905061111f565b50915091565b606060008060005b845181101561146e57828582815181106113f8576113f86118ae565b6020026020010151111561142b57848181518110611418576114186118ae565b6020026020010151925060019150611466565b8285828151811061143e5761143e6118ae565b60200260200101511480156114535750600083115b15611466578161146281611b0a565b9250505b6001016113dc565b508160000361148e57505060408051600081526020810190915292915050565b8067ffffffffffffffff8111156114a7576114a76116d0565b6040519080825280602002602001820160405280156114d0578160200160208202803683370190505b5092506000805b855181101561153457838682815181106114f3576114f36118ae565b60200260200101510361152c5780858381518110611513576115136118ae565b60209081029190910101528161152881611b0a565b9250505b6001016114d7565b50505050919050565b600a8101546000908082036115555750600192915050565b806115608142611b23565b61156a9190611b45565b9392505050565b801580611582575060018201548110155b156115a357604051638bef08f560e01b815260048101829052602401610451565b6005820181905560018201805460009190839081106115c4576115c46118ae565b6000918252602082200191505b8154811015610d025760008181526006850160205260409020805460ff19166001908117909155016115d1565b80158061160c575081548110155b1561162c5760405162c6600760e41b815260048101829052602401610451565b600490910155565b600082600010801561156a5750501190565b80356001600160a01b038116811461165d57600080fd5b919050565b60006080828403121561167457600080fd5b50919050565b60008060a0838503121561168d57600080fd5b61169683611646565b91506116a58460208501611662565b90509250929050565b600080604083850312156116c157600080fd5b50508035926020909101359150565b634e487b7160e01b600052604160045260246000fd5b600082601f8301126116f757600080fd5b8135602067ffffffffffffffff80831115611714576117146116d0565b8260051b604051601f19603f83011681018181108482111715611739576117396116d0565b604052938452602081870181019490810192508785111561175957600080fd5b6020870191505b848210156117805761177182611646565b83529183019190830190611760565b979650505050505050565b60006020828403121561179d57600080fd5b813567ffffffffffffffff8111156117b457600080fd5b6117c0848285016116e6565b949350505050565b6000602082840312156117da57600080fd5b5035919050565b60008151808452602080850194506020840160005b83811015611812578151875295820195908201906001016117f6565b509495945050505050565b60408152600061183060408301856117e1565b828103602084015261184281856117e1565b95945050505050565b60006080828403121561185d57600080fd5b61156a8383611662565b6000806040838503121561187a57600080fd5b82359150602083013567ffffffffffffffff81111561189857600080fd5b6118a4858286016116e6565b9150509250929050565b634e487b7160e01b600052603260045260246000fd5b6020808252601590820152742cb7ba9030b932903737ba103a34329030b236b4b760591b604082015260600190565b634e487b7160e01b600052601160045260246000fd5b80820180821115611032576110326118f3565b85815284602082015260a06040820152600061193b60a08301866117e1565b828103606084015261194d81866117e1565b9150508260808301529695505050505050565b600181811c9082168061197457607f821691505b60208210810361167457634e487b7160e01b600052602260045260246000fd5b601f8211156105b4576000816000526020600020601f850160051c810160208610156119bd5750805b601f850160051c820191505b818110156119dc578281556001016119c9565b505050505050565b815167ffffffffffffffff8111156119fe576119fe6116d0565b611a1281611a0c8454611960565b84611994565b602080601f831160018114611a475760008415611a2f5750858301515b600019600386901b1c1916600185901b1785556119dc565b600085815260208120601f198616915b82811015611a7657888601518255948401946001909101908401611a57565b5085821015611a945787850151600019600388901b60f8161c191681555b5050505050600190811b01905550565b8381526000602060018060a01b038516602084015260606040840152835180606085015260005b81811015611ae757858101830151858201608001528201611acb565b506000608082860101526080601f19601f83011685010192505050949350505050565b600060018201611b1c57611b1c6118f3565b5060010190565b600082611b4057634e487b7160e01b600052601260045260246000fd5b500490565b8082028115828204841417611032576110326118f356fe51e64ee84f491aad402ff73401b25fa2058a87e9d027403050c951c19bbb7800a2646970667358221220f928afc94826f04773eda4bcfc9db7bca866c54b86b1b19731d02cf6b61c2d8b64736f6c63430008180033",
        "nonce": "0x6",
        "chainId": "0x2105"
      },
      "additionalContracts": [],
      "isFixedGasLimit": false
    },
    {
      "hash": "0x249dad4fc51e189fe2c8fb8d99f3c6d4a14c339ad072be0db3127af13248458c",
      "transactionType": "CREATE",
      "contractName": "TextDAOWithCheatsFacade",
      "contractAddress": "0xe3131bE4AE19c2e8C322B4FBCd2f305475b1f1E4",
      "function": null,
      "arguments": null,
      "transaction": {
        "from": "0x9a8ffc5Eb856B2dbf11128859841D7F8400de0B0",
        "gas": "0xa1b92",
        "value": "0x0",
        "input": "0x608060405234801561001057600080fd5b50610842806100206000396000f3fe608060405234801561001057600080fd5b506004361061014d5760003560e01c8063932c30b5116100c3578063d13da0bd1161007c578063d13da0bd14610234578063d5c8d4f11461025a578063ed82e47114610268578063ed8b6b3114610268578063fe0d94c114610268578063fec77ae51461026857600080fd5b8063932c30b5146101fc578063a33032d91461020a578063abf5089014610185578063be3ffaeb14610152578063c0e89f0b14610218578063d0f7c3161461022657600080fd5b80636f4d469b116101155780636f4d469b1461017457806371cb2ee51461019857806375829def146101ad5780638641e0d6146101525780638ca89f77146101bb5780638e5ed9c4146101ee57600080fd5b806302d232f4146101525780630c68678c146101665780633d0950a814610174578063442b593c1461018557806355aca5b114610152575b600080fd5b610164610160366004610276565b5050565b005b610164610160366004610298565b610164610182366004610332565b50565b610164610193366004610429565b505050565b6101646101a63660046104b5565b5050505050565b61016461018236600461052e565b6101d16101c9366004610550565b600092915050565b6040516001600160a01b0390911681526020015b60405180910390f35b6101646101933660046105a9565b6101646101823660046105fd565b610164610160366004610619565b610164610193366004610646565b6101646101933660046106f3565b61024c610242366004610742565b6000949350505050565b6040519081526020016101e5565b61024c6101c93660046107ad565b6101646101823660046107f3565b6000806040838503121561028957600080fd5b50508035926020909101359150565b60008082840360e08112156102ac57600080fd5b8335925060c0601f19820112156102c257600080fd5b506020830190509250929050565b634e487b7160e01b600052604160045260246000fd5b604051601f8201601f191681016001600160401b038111828210171561030e5761030e6102d0565b604052919050565b80356001600160a01b038116811461032d57600080fd5b919050565b6000602080838503121561034557600080fd5b82356001600160401b038082111561035c57600080fd5b818501915085601f83011261037057600080fd5b813581811115610382576103826102d0565b8060051b91506103938483016102e6565b81815291830184019184810190888411156103ad57600080fd5b938501935b838510156103d2576103c385610316565b825293850193908501906103b2565b98975050505050505050565b60008083601f8401126103f057600080fd5b5081356001600160401b0381111561040757600080fd5b6020830191508360208260051b850101111561042257600080fd5b9250929050565b60008060006040848603121561043e57600080fd5b8335925060208401356001600160401b0381111561045b57600080fd5b610467868287016103de565b9497909650939450505050565b60008083601f84011261048657600080fd5b5081356001600160401b0381111561049d57600080fd5b60208301915083602082850101111561042257600080fd5b6000806000806000606086880312156104cd57600080fd5b8535945060208601356001600160401b03808211156104eb57600080fd5b6104f789838a01610474565b9096509450604088013591508082111561051057600080fd5b5061051d888289016103de565b969995985093965092949392505050565b60006020828403121561054057600080fd5b61054982610316565b9392505050565b6000806020838503121561056357600080fd5b82356001600160401b0381111561057957600080fd5b61058585828601610474565b90969095509350505050565b6000608082840312156105a357600080fd5b50919050565b600080600060a084860312156105be57600080fd5b83356001600160401b038111156105d457600080fd5b6105e0868287016103de565b90945092506105f490508560208601610591565b90509250925092565b60006080828403121561060f57600080fd5b6105498383610591565b60008060a0838503121561062c57600080fd5b8235915061063d8460208501610591565b90509250929050565b60008060006040848603121561065b57600080fd5b8335925060208401356001600160401b0381111561067857600080fd5b61046786828701610474565b600082601f83011261069557600080fd5b81356001600160401b038111156106ae576106ae6102d0565b6106c1601f8201601f19166020016102e6565b8181528460208386010111156106d657600080fd5b816020850160208301376000918101602001919091529392505050565b60008060006060848603121561070857600080fd5b833592506020840135915060408401356001600160401b0381111561072c57600080fd5b61073886828701610684565b9150509250925092565b6000806000806040858703121561075857600080fd5b84356001600160401b038082111561076f57600080fd5b61077b88838901610474565b9096509450602087013591508082111561079457600080fd5b506107a1878288016103de565b95989497509550505050565b600080604083850312156107c057600080fd5b8235915060208301356001600160401b038111156107dd57600080fd5b6107e985828601610684565b9150509250929050565b60006020828403121561080557600080fd5b503591905056fea264697066735822122004c668e2dc1dfa448238ffbd371917cf1970abc944ce6c68128dfc6b3aaa18bc64736f6c63430008180033",
        "nonce": "0x7",
        "chainId": "0x2105"
      },
      "additionalContracts": [],
      "isFixedGasLimit": false
    },
    {
      "hash": "0x6a65d836bab169e8f8cf40b8909d38fd7f39d26122bd002c07d38830f170eca8",
      "transactionType": "CREATE",
      "contractName": "Dictionary_0",
      "contractAddress": "0x7Cc86f32859AA8C539159CB3D95089034cc2dA84",
      "function": null,
      "arguments": [
        "0x9a8ffc5Eb856B2dbf11128859841D7F8400de0B0"
      ],
      "transaction": {
        "from": "0x9a8ffc5Eb856B2dbf11128859841D7F8400de0B0",
        "gas": "0xa796e",
        "value": "0x0",
        "input": "0x608060405234801561001057600080fd5b5060405161091538038061091583398101604081905261002f916100c0565b806001600160a01b03811661005e57604051631e4fbdf760e01b81526000600482015260240160405180910390fd5b6100678161006e565b50506100f0565b600380546001600160a01b038381166001600160a01b0319831681179093556040519116919082907f8be0079c531659141344cd1fd0a4f28419497f9722a3daafe3b4186f6b6457e090600090a35050565b6000602082840312156100d257600080fd5b81516001600160a01b03811681146100e957600080fd5b9392505050565b610816806100ff6000396000f3fe608060405234801561001057600080fd5b50600436106100935760003560e01c8063715018a611610066578063715018a61461012f5780638da5cb5b14610137578063a5954dd714610148578063dc9cc6451461015d578063f2fde38b1461017057600080fd5b806301ffc9a7146100985780630815f6fd146100e25780635c60da1b146100f7578063651dc03d1461011c575b600080fd5b6100cd6100a63660046106f5565b6001600160e01b0319166000908152602081905260409020546001600160a01b0316151590565b60405190151581526020015b60405180910390f35b6100f56100f036600461072e565b610183565b005b6002546001600160a01b03165b6040516001600160a01b0390911681526020016100d9565b6100f561012a366004610761565b610199565b6100f56101ad565b6003546001600160a01b0316610104565b6101506101c1565b6040516100d9919061077c565b61010461016b3660046106f5565b610246565b6100f561017e366004610761565b6102df565b61018b61031a565b6101958282610347565b5050565b6101a161031a565b6101aa81610371565b50565b6101b561031a565b6101bf60006103c6565b565b6060600180548060200260200160405190810160405280929190818152602001828054801561023c57602002820191906000526020600020906000905b82829054906101000a900460e01b6001600160e01b031916815260200190600401906020826003010492830192600103820291508084116101fe5790505b5050505050905090565b6001600160e01b031981166000908152602081905260408120546001600160a01b031680156102755792915050565b5060008080526020527fad3228b676f7d3cd4284a5443f17f1962b36e491b30a40b2405849e597ba5fb5546001600160a01b031680156102b55792915050565b60405163404ceef760e11b81526001600160e01b0319841660048201526024015b60405180910390fd5b6102e761031a565b6001600160a01b03811661031157604051631e4fbdf760e01b8152600060048201526024016102d6565b6101aa816103c6565b6003546001600160a01b031633146101bf5760405163118cdaa760e01b81523360048201526024016102d6565b6001600160a01b03811661035e5761019582610418565b61036782610514565b61019582826105bb565b600280546001600160a01b0319166001600160a01b0383169081179091556040519081527f159f10d3da077d18f228d52be447d552e7d1892d10f7af8f615658160e374729906020015b60405180910390a150565b600380546001600160a01b038381166001600160a01b0319831681179093556040519116919082907f8be0079c531659141344cd1fd0a4f28419497f9722a3daafe3b4186f6b6457e090600090a35050565b60005b6001548110156104bd57816001600160e01b03191660018281548110610443576104436107ca565b90600052602060002090600891828204019190066004029054906101000a900460e01b6001600160e01b031916036104b55760018181548110610488576104886107ca565b90600052602060002090600891828204019190066004026101000a81549063ffffffff02191690556104bd565b60010161041b565b506001600160e01b031981166000818152602081815260409182902080546001600160a01b031916905590519182527fb0f2f3a9229724df0b95683e95488b72aed817bc1a5bd6fe1d2e7504e92871cb91016103bb565b61051d81610660565b156105255750565b6001805480820182556000919091527fb10e2d527612073b26eecdfd717e6a320cf44b4afac2b0732d9fcbe2b7fa0cf66008820401805463ffffffff60079093166004026101000a928302191660e084901c929092029190911790556040516001600160e01b0319821681527fbe533f538959a17d76f1b09e966e741ee3b1183099682f96216c93d21feaecba906020016103bb565b806001600160a01b03163b6000036105f157604051630c76093760e01b81526001600160a01b03821660048201526024016102d6565b6001600160e01b031982166000818152602081815260409182902080546001600160a01b0319166001600160a01b0386169081179091558251938452908301527fda3c8142b3c1d27633026f55bfcb4eeb0b5b8db0daa0a3e10c2213a441722ad1910160405180910390a15050565b6000805b6001548110156106cf57826001600160e01b0319166001828154811061068c5761068c6107ca565b90600052602060002090600891828204019190066004029054906101000a900460e01b6001600160e01b031916036106c75750600192915050565b600101610664565b50600092915050565b80356001600160e01b0319811681146106f057600080fd5b919050565b60006020828403121561070757600080fd5b610710826106d8565b9392505050565b80356001600160a01b03811681146106f057600080fd5b6000806040838503121561074157600080fd5b61074a836106d8565b915061075860208401610717565b90509250929050565b60006020828403121561077357600080fd5b61071082610717565b6020808252825182820181905260009190848201906040850190845b818110156107be5783516001600160e01b03191683529284019291840191600101610798565b50909695505050505050565b634e487b7160e01b600052603260045260246000fdfea26469706673582212204c24d0a9d61b2b05e1c70cf3fd10613f04860b799f3ea44d0fc0ce8f363fd76564736f6c634300081800330000000000000000000000009a8ffc5eb856b2dbf11128859841d7f8400de0b0",
        "nonce": "0x8",
        "chainId": "0x2105"
      },
      "additionalContracts": [],
      "isFixedGasLimit": false
    },
    {
      "hash": "0x8f07cba0a90c39027d0aa4f027db9f2225a81d534f37efeee1f34a8d11a1104e",
      "transactionType": "CALL",
      "contractName": "Dictionary_0",
      "contractAddress": "0x7Cc86f32859AA8C539159CB3D95089034cc2dA84",
      "function": "setImplementation(bytes4,address)",
      "arguments": [
        "0xd13da0bd",
        "0x5a99B9d24d69328F58D6Ef8950e030C478FB9AaF"
      ],
      "transaction": {
        "from": "0x9a8ffc5Eb856B2dbf11128859841D7F8400de0B0",
        "to": "0x7Cc86f32859AA8C539159CB3D95089034cc2dA84",
        "gas": "0x206fc",
        "value": "0x0",
        "input": "0x0815f6fdd13da0bd000000000000000000000000000000000000000000000000000000000000000000000000000000005a99b9d24d69328f58d6ef8950e030c478fb9aaf",
        "nonce": "0x9",
        "chainId": "0x2105"
      },
      "additionalContracts": [],
      "isFixedGasLimit": false
    },
    {
      "hash": "0xeaa1eaa056cc4ab5472373c60f994860fb5f5ca0096778f72c5fcf1e00ebd7c3",
      "transactionType": "CALL",
      "contractName": "Dictionary_0",
      "contractAddress": "0x7Cc86f32859AA8C539159CB3D95089034cc2dA84",
      "function": "setImplementation(bytes4,address)",
      "arguments": [
        "0x442b593c",
        "0xDAFB7697429A1d2D4FCa751C3d7Ad4576F396024"
      ],
      "transaction": {
        "from": "0x9a8ffc5Eb856B2dbf11128859841D7F8400de0B0",
        "to": "0x7Cc86f32859AA8C539159CB3D95089034cc2dA84",
        "gas": "0x151c0",
        "value": "0x0",
        "input": "0x0815f6fd442b593c00000000000000000000000000000000000000000000000000000000000000000000000000000000dafb7697429a1d2d4fca751c3d7ad4576f396024",
        "nonce": "0xa",
        "chainId": "0x2105"
      },
      "additionalContracts": [],
      "isFixedGasLimit": false
    },
    {
      "hash": "0x41f0343e67b78dc86117001a4a1b2dffda0622d262d3b1c8b4af5b6101901cd3",
      "transactionType": "CALL",
      "contractName": "Dictionary_0",
      "contractAddress": "0x7Cc86f32859AA8C539159CB3D95089034cc2dA84",
      "function": "setImplementation(bytes4,address)",
      "arguments": [
        "0x0c68678c",
        "0xd19BC19074ACd597a5f729C4fF722D3672832e1f"
      ],
      "transaction": {
        "from": "0x9a8ffc5Eb856B2dbf11128859841D7F8400de0B0",
        "to": "0x7Cc86f32859AA8C539159CB3D95089034cc2dA84",
        "gas": "0x1691b",
        "value": "0x0",
        "input": "0x0815f6fd0c68678c00000000000000000000000000000000000000000000000000000000000000000000000000000000d19bc19074acd597a5f729c4ff722d3672832e1f",
        "nonce": "0xb",
        "chainId": "0x2105"
      },
      "additionalContracts": [],
      "isFixedGasLimit": false
    },
    {
      "hash": "0xb5109800f096025fd67b6b13ff7643c47aa4b8179fbb36d7afc474504c0983ec",
      "transactionType": "CALL",
      "contractName": "Dictionary_0",
      "contractAddress": "0x7Cc86f32859AA8C539159CB3D95089034cc2dA84",
      "function": "setImplementation(bytes4,address)",
      "arguments": [
        "0xed8b6b31",
        "0x523b9Cf277cA1B167b8EE5665F05c277CCe41DB0"
      ],
      "transaction": {
        "from": "0x9a8ffc5Eb856B2dbf11128859841D7F8400de0B0",
        "to": "0x7Cc86f32859AA8C539159CB3D95089034cc2dA84",
        "gas": "0x16c96",
        "value": "0x0",
        "input": "0x0815f6fded8b6b3100000000000000000000000000000000000000000000000000000000000000000000000000000000523b9cf277ca1b167b8ee5665f05c277cce41db0",
        "nonce": "0xc",
        "chainId": "0x2105"
      },
      "additionalContracts": [],
      "isFixedGasLimit": false
    },
    {
      "hash": "0x155585c0a08e830d97439e0c13ac92975609125a00916eeab5fd63900ea3d55b",
      "transactionType": "CALL",
      "contractName": "Dictionary_0",
      "contractAddress": "0x7Cc86f32859AA8C539159CB3D95089034cc2dA84",
      "function": "setImplementation(bytes4,address)",
      "arguments": [
        "0xfec77ae5",
        "0x523b9Cf277cA1B167b8EE5665F05c277CCe41DB0"
      ],
      "transaction": {
        "from": "0x9a8ffc5Eb856B2dbf11128859841D7F8400de0B0",
        "to": "0x7Cc86f32859AA8C539159CB3D95089034cc2dA84",
        "gas": "0x15b9f",
        "value": "0x0",
        "input": "0x0815f6fdfec77ae500000000000000000000000000000000000000000000000000000000000000000000000000000000523b9cf277ca1b167b8ee5665f05c277cce41db0",
        "nonce": "0xd",
        "chainId": "0x2105"
      },
      "additionalContracts": [],
      "isFixedGasLimit": false
    },
    {
      "hash": "0x562131e2988e16bc1cd3ac04689d086cb7900d05117b53b42af5291386b2c049",
      "transactionType": "CALL",
      "contractName": "Dictionary_0",
      "contractAddress": "0x7Cc86f32859AA8C539159CB3D95089034cc2dA84",
      "function": "setImplementation(bytes4,address)",
      "arguments": [
        "0xfe0d94c1",
        "0xA96AfC1873ADaE37c5a162884d7f14f56a7EED8a"
      ],
      "transaction": {
        "from": "0x9a8ffc5Eb856B2dbf11128859841D7F8400de0B0",
        "to": "0x7Cc86f32859AA8C539159CB3D95089034cc2dA84",
        "gas": "0x15ee9",
        "value": "0x0",
        "input": "0x0815f6fdfe0d94c100000000000000000000000000000000000000000000000000000000000000000000000000000000a96afc1873adae37c5a162884d7f14f56a7eed8a",
        "nonce": "0xe",
        "chainId": "0x2105"
      },
      "additionalContracts": [],
      "isFixedGasLimit": false
    },
    {
      "hash": "0xb62a2e4aa95fdc442bacee9a2bbbb9da7cde57d018c6adbf6256db6748d76b6a",
      "transactionType": "CALL",
      "contractName": "Dictionary_0",
      "contractAddress": "0x7Cc86f32859AA8C539159CB3D95089034cc2dA84",
      "function": "setImplementation(bytes4,address)",
      "arguments": [
        "0xd5c8d4f1",
        "0xBF98A92b4ed2E4470Cb8419CF74a770017a13570"
      ],
      "transaction": {
        "from": "0x9a8ffc5Eb856B2dbf11128859841D7F8400de0B0",
        "to": "0x7Cc86f32859AA8C539159CB3D95089034cc2dA84",
        "gas": "0x16224",
        "value": "0x0",
        "input": "0x0815f6fdd5c8d4f100000000000000000000000000000000000000000000000000000000000000000000000000000000bf98a92b4ed2e4470cb8419cf74a770017a13570",
        "nonce": "0xf",
        "chainId": "0x2105"
      },
      "additionalContracts": [],
      "isFixedGasLimit": false
    },
    {
      "hash": "0x317db53967e9215c7c7c69a8299b7e57df760279da0a0f96d4cb9e5b8ad5cb3e",
      "transactionType": "CALL",
      "contractName": "Dictionary_0",
      "contractAddress": "0x7Cc86f32859AA8C539159CB3D95089034cc2dA84",
      "function": "setImplementation(bytes4,address)",
      "arguments": [
        "0x1f7a92b2",
        "0x8CbE1fdb71E7c25a131a41bcCFc87257A5527cE5"
      ],
      "transaction": {
        "from": "0x9a8ffc5Eb856B2dbf11128859841D7F8400de0B0",
        "to": "0x7Cc86f32859AA8C539159CB3D95089034cc2dA84",
        "gas": "0x17a87",
        "value": "0x0",
        "input": "0x0815f6fd1f7a92b2000000000000000000000000000000000000000000000000000000000000000000000000000000008cbe1fdb71e7c25a131a41bccfc87257a5527ce5",
        "nonce": "0x10",
        "chainId": "0x2105"
      },
      "additionalContracts": [],
      "isFixedGasLimit": false
    },
    {
      "hash": "0xb169838b0f6fae281ad397e653d4355d40362f8f79943ceb704a25bf25c4faa9",
      "transactionType": "CALL",
      "contractName": "Dictionary_0",
      "contractAddress": "0x7Cc86f32859AA8C539159CB3D95089034cc2dA84",
      "function": "setImplementation(bytes4,address)",
      "arguments": [
        "0x9c54df64",
        "0x8CbE1fdb71E7c25a131a41bcCFc87257A5527cE5"
      ],
      "transaction": {
        "from": "0x9a8ffc5Eb856B2dbf11128859841D7F8400de0B0",
        "to": "0x7Cc86f32859AA8C539159CB3D95089034cc2dA84",
        "gas": "0x1cf92",
        "value": "0x0",
        "input": "0x0815f6fd9c54df64000000000000000000000000000000000000000000000000000000000000000000000000000000008cbe1fdb71e7c25a131a41bccfc87257a5527ce5",
        "nonce": "0x11",
        "chainId": "0x2105"
      },
      "additionalContracts": [],
      "isFixedGasLimit": false
    },
    {
      "hash": "0x7c53b7d7e24c7a6754056cf81966383821baf7af61fcf276c51c218c614d3653",
      "transactionType": "CALL",
      "contractName": "Dictionary_0",
      "contractAddress": "0x7Cc86f32859AA8C539159CB3D95089034cc2dA84",
      "function": "setImplementation(bytes4,address)",
      "arguments": [
        "0x6f4d469b",
        "0x8CbE1fdb71E7c25a131a41bcCFc87257A5527cE5"
      ],
      "transaction": {
        "from": "0x9a8ffc5Eb856B2dbf11128859841D7F8400de0B0",
        "to": "0x7Cc86f32859AA8C539159CB3D95089034cc2dA84",
        "gas": "0x1769a",
        "value": "0x0",
        "input": "0x0815f6fd6f4d469b000000000000000000000000000000000000000000000000000000000000000000000000000000008cbe1fdb71e7c25a131a41bccfc87257a5527ce5",
        "nonce": "0x12",
        "chainId": "0x2105"
      },
      "additionalContracts": [],
      "isFixedGasLimit": false
    },
    {
      "hash": "0x4e7d47b6da0b52d6b16ea69cfbc8ace7b26ba821c0aa8ddf76208f1b1358b243",
      "transactionType": "CALL",
      "contractName": "Dictionary_0",
      "contractAddress": "0x7Cc86f32859AA8C539159CB3D95089034cc2dA84",
      "function": "setImplementation(bytes4,address)",
      "arguments": [
        "0xca30b4b6",
        "0x8CbE1fdb71E7c25a131a41bcCFc87257A5527cE5"
      ],
      "transaction": {
        "from": "0x9a8ffc5Eb856B2dbf11128859841D7F8400de0B0",
        "to": "0x7Cc86f32859AA8C539159CB3D95089034cc2dA84",
        "gas": "0x179e4",
        "value": "0x0",
        "input": "0x0815f6fdca30b4b6000000000000000000000000000000000000000000000000000000000000000000000000000000008cbe1fdb71e7c25a131a41bccfc87257a5527ce5",
        "nonce": "0x13",
        "chainId": "0x2105"
      },
      "additionalContracts": [],
      "isFixedGasLimit": false
    },
    {
      "hash": "0xe60c9adb03f4d35abaabe5e1d2bf870a737a129412d76fa60fa63108a96215a7",
      "transactionType": "CALL",
      "contractName": "Dictionary_0",
      "contractAddress": "0x7Cc86f32859AA8C539159CB3D95089034cc2dA84",
      "function": "setImplementation(bytes4,address)",
      "arguments": [
        "0x932c30b5",
        "0x8CbE1fdb71E7c25a131a41bcCFc87257A5527cE5"
      ],
      "transaction": {
        "from": "0x9a8ffc5Eb856B2dbf11128859841D7F8400de0B0",
        "to": "0x7Cc86f32859AA8C539159CB3D95089034cc2dA84",
        "gas": "0x1939c",
        "value": "0x0",
        "input": "0x0815f6fd932c30b5000000000000000000000000000000000000000000000000000000000000000000000000000000008cbe1fdb71e7c25a131a41bccfc87257a5527ce5",
        "nonce": "0x14",
        "chainId": "0x2105"
      },
      "additionalContracts": [],
      "isFixedGasLimit": false
    },
    {
      "hash": "0xefe1354951f0ea129f6761d8b78cc2d8e74cf2c465934bc2d47f8d5d2a1514e0",
      "transactionType": "CALL",
      "contractName": "Dictionary_0",
      "contractAddress": "0x7Cc86f32859AA8C539159CB3D95089034cc2dA84",
      "function": "setImplementation(bytes4,address)",
      "arguments": [
        "0xed82e471",
        "0x8CbE1fdb71E7c25a131a41bcCFc87257A5527cE5"
      ],
      "transaction": {
        "from": "0x9a8ffc5Eb856B2dbf11128859841D7F8400de0B0",
        "to": "0x7Cc86f32859AA8C539159CB3D95089034cc2dA84",
        "gas": "0x19717",
        "value": "0x0",
        "input": "0x0815f6fded82e471000000000000000000000000000000000000000000000000000000000000000000000000000000008cbe1fdb71e7c25a131a41bccfc87257a5527ce5",
        "nonce": "0x15",
        "chainId": "0x2105"
      },
      "additionalContracts": [],
      "isFixedGasLimit": false
    },
    {
      "hash": "0x7547bc1147a1ecf3085d9e9479f2fa4f2bb931c8baeea70d096f0a9e600d63b0",
      "transactionType": "CALL",
      "contractName": "Dictionary_0",
      "contractAddress": "0x7Cc86f32859AA8C539159CB3D95089034cc2dA84",
      "function": "setImplementation(bytes4,address)",
      "arguments": [
        "0xb82ee6ee",
        "0x8CbE1fdb71E7c25a131a41bcCFc87257A5527cE5"
      ],
      "transaction": {
        "from": "0x9a8ffc5Eb856B2dbf11128859841D7F8400de0B0",
        "to": "0x7Cc86f32859AA8C539159CB3D95089034cc2dA84",
        "gas": "0x183c4",
        "value": "0x0",
        "input": "0x0815f6fdb82ee6ee000000000000000000000000000000000000000000000000000000000000000000000000000000008cbe1fdb71e7c25a131a41bccfc87257a5527ce5",
        "nonce": "0x16",
        "chainId": "0x2105"
      },
      "additionalContracts": [],
      "isFixedGasLimit": false
    },
    {
      "hash": "0x9d9db102fcd4178bf9d30d28ab74b7429cd6fdac91ca461645078e2109e440af",
      "transactionType": "CALL",
      "contractName": "Dictionary_0",
      "contractAddress": "0x7Cc86f32859AA8C539159CB3D95089034cc2dA84",
      "function": "setImplementation(bytes4,address)",
      "arguments": [
        "0x8aa5d875",
        "0x8CbE1fdb71E7c25a131a41bcCFc87257A5527cE5"
      ],
      "transaction": {
        "from": "0x9a8ffc5Eb856B2dbf11128859841D7F8400de0B0",
        "to": "0x7Cc86f32859AA8C539159CB3D95089034cc2dA84",
        "gas": "0x1870e",
        "value": "0x0",
        "input": "0x0815f6fd8aa5d875000000000000000000000000000000000000000000000000000000000000000000000000000000008cbe1fdb71e7c25a131a41bccfc87257a5527ce5",
        "nonce": "0x17",
        "chainId": "0x2105"
      },
      "additionalContracts": [],
      "isFixedGasLimit": false
    },
    {
      "hash": "0x0ca0c35abb0d4e037481eee030132900a02a76301f5467254a64ea7302c40449",
      "transactionType": "CALL",
      "contractName": "Dictionary_0",
      "contractAddress": "0x7Cc86f32859AA8C539159CB3D95089034cc2dA84",
      "function": "setImplementation(bytes4,address)",
      "arguments": [
        "0x7eec0a65",
        "0x8CbE1fdb71E7c25a131a41bcCFc87257A5527cE5"
      ],
      "transaction": {
        "from": "0x9a8ffc5Eb856B2dbf11128859841D7F8400de0B0",
        "to": "0x7Cc86f32859AA8C539159CB3D95089034cc2dA84",
        "gas": "0x1a18c",
        "value": "0x0",
        "input": "0x0815f6fd7eec0a65000000000000000000000000000000000000000000000000000000000000000000000000000000008cbe1fdb71e7c25a131a41bccfc87257a5527ce5",
        "nonce": "0x18",
        "chainId": "0x2105"
      },
      "additionalContracts": [],
      "isFixedGasLimit": false
    },
    {
      "hash": "0x70d8feb32be2158dcae366069394853916f04916f278f3e7fbefcb7e6e547798",
      "transactionType": "CALL",
      "contractName": "Dictionary_0",
      "contractAddress": "0x7Cc86f32859AA8C539159CB3D95089034cc2dA84",
      "function": "setImplementation(bytes4,address)",
      "arguments": [
        "0x8641e0d6",
        "0x8CbE1fdb71E7c25a131a41bcCFc87257A5527cE5"
      ],
      "transaction": {
        "from": "0x9a8ffc5Eb856B2dbf11128859841D7F8400de0B0",
        "to": "0x7Cc86f32859AA8C539159CB3D95089034cc2dA84",
        "gas": "0x1f46c",
        "value": "0x0",
        "input": "0x0815f6fd8641e0d6000000000000000000000000000000000000000000000000000000000000000000000000000000008cbe1fdb71e7c25a131a41bccfc87257a5527ce5",
        "nonce": "0x19",
        "chainId": "0x2105"
      },
      "additionalContracts": [],
      "isFixedGasLimit": false
    },
    {
      "hash": "0xd412a135df794b178a0e4e75c780a6f4085b27bf7e94e9632ea3f3b7d69fb9e6",
      "transactionType": "CALL",
      "contractName": "Dictionary_0",
      "contractAddress": "0x7Cc86f32859AA8C539159CB3D95089034cc2dA84",
      "function": "setImplementation(bytes4,address)",
      "arguments": [
        "0xbe3ffaeb",
        "0x8CbE1fdb71E7c25a131a41bcCFc87257A5527cE5"
      ],
      "transaction": {
        "from": "0x9a8ffc5Eb856B2dbf11128859841D7F8400de0B0",
        "to": "0x7Cc86f32859AA8C539159CB3D95089034cc2dA84",
        "gas": "0x1b3a8",
        "value": "0x0",
        "input": "0x0815f6fdbe3ffaeb000000000000000000000000000000000000000000000000000000000000000000000000000000008cbe1fdb71e7c25a131a41bccfc87257a5527ce5",
        "nonce": "0x1a",
        "chainId": "0x2105"
      },
      "additionalContracts": [],
      "isFixedGasLimit": false
    },
    {
      "hash": "0x934baa62292c37980ad4923be3dce0fa66bec69bf4ba61edc6df6f2acb37800b",
      "transactionType": "CALL",
      "contractName": "Dictionary_0",
      "contractAddress": "0x7Cc86f32859AA8C539159CB3D95089034cc2dA84",
      "function": "setImplementation(bytes4,address)",
      "arguments": [
        "0x55aca5b1",
        "0x8CbE1fdb71E7c25a131a41bcCFc87257A5527cE5"
      ],
      "transaction": {
        "from": "0x9a8ffc5Eb856B2dbf11128859841D7F8400de0B0",
        "to": "0x7Cc86f32859AA8C539159CB3D95089034cc2dA84",
        "gas": "0x19ebe",
        "value": "0x0",
        "input": "0x0815f6fd55aca5b1000000000000000000000000000000000000000000000000000000000000000000000000000000008cbe1fdb71e7c25a131a41bccfc87257a5527ce5",
        "nonce": "0x1b",
        "chainId": "0x2105"
      },
      "additionalContracts": [],
      "isFixedGasLimit": false
    },
    {
      "hash": "0xdf6529f6d23f071f0f548c083682579532f255ed2ac4d058204e21fa90ce6a55",
      "transactionType": "CALL",
      "contractName": "Dictionary_0",
      "contractAddress": "0x7Cc86f32859AA8C539159CB3D95089034cc2dA84",
      "function": "upgradeFacade(address)",
      "arguments": [
        "0xe3131bE4AE19c2e8C322B4FBCd2f305475b1f1E4"
      ],
      "transaction": {
        "from": "0x9a8ffc5Eb856B2dbf11128859841D7F8400de0B0",
        "to": "0x7Cc86f32859AA8C539159CB3D95089034cc2dA84",
        "gas": "0x10dbe",
        "value": "0x0",
        "input": "0x651dc03d000000000000000000000000e3131be4ae19c2e8c322b4fbcd2f305475b1f1e4",
        "nonce": "0x1c",
        "chainId": "0x2105"
      },
      "additionalContracts": [],
      "isFixedGasLimit": false
    },
    {
      "hash": "0xcc460ebb71cb9a35898043fff6461e7fc1907eeef854b0a9e6774be66b4b2a62",
      "transactionType": "CREATE",
      "contractName": "Proxy_1",
      "contractAddress": "0x4BCa2f13d54Fe50B7a9E9062f5e3337f23B4562c",
      "function": null,
      "arguments": [
        "0x7Cc86f32859AA8C539159CB3D95089034cc2dA84",
        "0x1f7a92b20000000000000000000000009a8ffc5eb856b2dbf11128859841d7f8400de0b0000000000000000000000000000000000000000000000000000000000003f48000000000000000000000000000000000000000000000000000000000000151800000000000000000000000000000000000000000000000000000000000000bb80000000000000000000000000000000000000000000000000000000000000001"
      ],
      "transaction": {
        "from": "0x9a8ffc5Eb856B2dbf11128859841D7F8400de0B0",
        "gas": "0x72fba",
        "value": "0x0",
        "input": "0x60806040526040516105e03803806105e08339810160408190526100229161034b565b61002c828261003c565b6100358261011c565b5050610479565b61004582610160565b6040516001600160a01b03831681527fa657f2ad315cf3bb35cf1964158da75c3f334481df05a4a1644b2376b17a59b29060200160405180910390a18051156101105761010b6001600160a01b03831663dc9cc6456100a38461040b565b6040516001600160e01b031960e084901b81168252919091166004820152602401602060405180830381865afa1580156100e1573d6000803e3d6000fd5b505050506040513d601f19601f820116820180604052508101906101059190610442565b826101d5565b505050565b61011861024c565b5050565b807fa3f0ad74e5423aebfd80d3ef4346578335a9a72aeaee59ff6cb3582b35133d505b80546001600160a01b0319166001600160a01b039290921691909117905550565b806001600160a01b03163b6000036101ae5760405162461bcd60e51b815260206004820152600c60248201526b1393d397d0d3d395149050d560a21b60448201526064015b60405180910390fd5b807f267691be3525af8a813d30db0c9e2bad08f63baecf6dceb85e2cf3676cff56f461013f565b6060600080846001600160a01b0316846040516101f2919061045d565b600060405180830381855af49150503d806000811461022d576040519150601f19603f3d011682016040523d82523d6000602084013e610232565b606091505b50909250905061024385838361026d565b95945050505050565b341561026b5760405163b398979f60e01b815260040160405180910390fd5b565b6060826102825761027d826102cc565b6102c5565b815115801561029957506001600160a01b0384163b155b156102c257604051639996b31560e01b81526001600160a01b03851660048201526024016101a5565b50805b9392505050565b8051156102dc5780518082602001fd5b604051630a12f52160e11b815260040160405180910390fd5b80516001600160a01b038116811461030c57600080fd5b919050565b634e487b7160e01b600052604160045260246000fd5b60005b8381101561034257818101518382015260200161032a565b50506000910152565b6000806040838503121561035e57600080fd5b610367836102f5565b60208401519092506001600160401b038082111561038457600080fd5b818501915085601f83011261039857600080fd5b8151818111156103aa576103aa610311565b604051601f8201601f19908116603f011681019083821181831017156103d2576103d2610311565b816040528281528860208487010111156103eb57600080fd5b6103fc836020830160208801610327565b80955050505050509250929050565b805160208201516001600160e01b0319808216929190600483101561043a5780818460040360031b1b83161693505b505050919050565b60006020828403121561045457600080fd5b6102c5826102f5565b6000825161046f818460208701610327565b9190910192915050565b610158806104886000396000f3fe608060405261000c61000e565b005b61001e610019610020565b6100ce565b565b60006100537f267691be3525af8a813d30db0c9e2bad08f63baecf6dceb85e2cf3676cff56f4546001600160a01b031690565b60405163dc9cc64560e01b81526001600160e01b03196000351660048201526001600160a01b03919091169063dc9cc64590602401602060405180830381865afa1580156100a5573d6000803e3d6000fd5b505050506040513d601f19601f820116820180604052508101906100c991906100f2565b905090565b3660008037600080366000845af43d6000803e8080156100ed573d6000f35b3d6000fd5b60006020828403121561010457600080fd5b81516001600160a01b038116811461011b57600080fd5b939250505056fea2646970667358221220efd8a3dad0773ae165f2d1549d5984e8f035e9f9514820e5e1195aef9605f85a64736f6c634300081800330000000000000000000000007cc86f32859aa8c539159cb3d95089034cc2da84000000000000000000000000000000000000000000000000000000000000004000000000000000000000000000000000000000000000000000000000000000a41f7a92b20000000000000000000000009a8ffc5eb856b2dbf11128859841d7f8400de0b0000000000000000000000000000000000000000000000000000000000003f48000000000000000000000000000000000000000000000000000000000000151800000000000000000000000000000000000000000000000000000000000000bb8000000000000000000000000000000000000000000000000000000000000000100000000000000000000000000000000000000000000000000000000",
        "nonce": "0x1d",
        "chainId": "0x2105"
      },
      "additionalContracts": [],
      "isFixedGasLimit": false
    }
  ],
  "receipts": [
    {
      "status": "0x1",
      "cumulativeGasUsed": "0x1196b45",
      "logs": [],
      "logsBloom": "0x00000000000000000000000000000000000000000000000000000000000000000000000000000000000000000000000000000000000000000000000000000000000000000000000000000000000000000000000000000000000000000000000000000000000000000000000000000000000000000000000000000000000000000000000000000000000000000000000000000000000000000000000000000000000000000000000000000000000000000000000000000000000000000000000000000000000000000000000000000000000000000000000000000000000000000000000000000000000000000000000000000000000000000000000000000000",
      "type": "0x2",
      "transactionHash": "0x00970ac63a8b034647378d00365353f315119b3d7acdfa3bb5ab779db2f6e07b",
      "transactionIndex": "0x53",
      "blockHash": "0x741c25371bcf9b367afe9309d9b56d839b4a7ff57fedfcb2c9e3417a4136651c",
      "blockNumber": "0x13ef2d0",
      "gasUsed": "0xd8ed9",
      "effectiveGasPrice": "0x4a63a6",
      "from": "0x9a8ffc5Eb856B2dbf11128859841D7F8400de0B0",
      "to": null,
      "contractAddress": "0x5a99B9d24d69328F58D6Ef8950e030C478FB9AaF",
      "l1BaseFeeScalar": "0x8dd",
      "l1BlobBaseFee": "0x1",
      "l1BlobBaseFeeScalar": "0x101c12",
      "l1Fee": "0x10ddf001ae8",
      "l1GasPrice": "0x2fc6a7c2c",
      "l1GasUsed": "0x9b97"
    },
    {
      "status": "0x1",
      "cumulativeGasUsed": "0x1245c6c",
      "logs": [],
      "logsBloom": "0x00000000000000000000000000000000000000000000000000000000000000000000000000000000000000000000000000000000000000000000000000000000000000000000000000000000000000000000000000000000000000000000000000000000000000000000000000000000000000000000000000000000000000000000000000000000000000000000000000000000000000000000000000000000000000000000000000000000000000000000000000000000000000000000000000000000000000000000000000000000000000000000000000000000000000000000000000000000000000000000000000000000000000000000000000000000",
      "type": "0x2",
      "transactionHash": "0x024799a9be8bd4905c9def95742484a4a91ad3689833ea8efe21b3544b7065f3",
      "transactionIndex": "0x54",
      "blockHash": "0x741c25371bcf9b367afe9309d9b56d839b4a7ff57fedfcb2c9e3417a4136651c",
      "blockNumber": "0x13ef2d0",
      "gasUsed": "0xaf127",
      "effectiveGasPrice": "0x4a63a6",
      "from": "0x9a8ffc5Eb856B2dbf11128859841D7F8400de0B0",
      "to": null,
      "contractAddress": "0xDAFB7697429A1d2D4FCa751C3d7Ad4576F396024",
      "l1BaseFeeScalar": "0x8dd",
      "l1BlobBaseFee": "0x1",
      "l1BlobBaseFeeScalar": "0x101c12",
      "l1Fee": "0xd5d4bdfe6e",
      "l1GasPrice": "0x2fc6a7c2c",
      "l1GasUsed": "0x7b48"
    },
    {
      "status": "0x1",
      "cumulativeGasUsed": "0x1289c7b",
      "logs": [],
      "logsBloom": "0x00000000000000000000000000000000000000000000000000000000000000000000000000000000000000000000000000000000000000000000000000000000000000000000000000000000000000000000000000000000000000000000000000000000000000000000000000000000000000000000000000000000000000000000000000000000000000000000000000000000000000000000000000000000000000000000000000000000000000000000000000000000000000000000000000000000000000000000000000000000000000000000000000000000000000000000000000000000000000000000000000000000000000000000000000000000",
      "type": "0x2",
      "transactionHash": "0x304ec5798390f775afbe9b0a156322c495cdfbd74a006dea56e14dd8a535605f",
      "transactionIndex": "0x55",
      "blockHash": "0x741c25371bcf9b367afe9309d9b56d839b4a7ff57fedfcb2c9e3417a4136651c",
      "blockNumber": "0x13ef2d0",
      "gasUsed": "0x4400f",
      "effectiveGasPrice": "0x4a63a6",
      "from": "0x9a8ffc5Eb856B2dbf11128859841D7F8400de0B0",
      "to": null,
      "contractAddress": "0xd19BC19074ACd597a5f729C4fF722D3672832e1f",
      "l1BaseFeeScalar": "0x8dd",
      "l1BlobBaseFee": "0x1",
      "l1BlobBaseFeeScalar": "0x101c12",
      "l1Fee": "0x52b5489686",
      "l1GasPrice": "0x2fc6a7c2c",
      "l1GasUsed": "0x2faf"
    },
    {
      "status": "0x1",
      "cumulativeGasUsed": "0x1359c26",
      "logs": [],
      "logsBloom": "0x00000000000000000000000000000000000000000000000000000000000000000000000000000000000000000000000000000000000000000000000000000000000000000000000000000000000000000000000000000000000000000000000000000000000000000000000000000000000000000000000000000000000000000000000000000000000000000000000000000000000000000000000000000000000000000000000000000000000000000000000000000000000000000000000000000000000000000000000000000000000000000000000000000000000000000000000000000000000000000000000000000000000000000000000000000000",
      "type": "0x2",
      "transactionHash": "0xae0bbd3922ab2db9958c5f4a4d183656db440e9df4c5e1e0e830948c3fefc851",
      "transactionIndex": "0x56",
      "blockHash": "0x741c25371bcf9b367afe9309d9b56d839b4a7ff57fedfcb2c9e3417a4136651c",
      "blockNumber": "0x13ef2d0",
      "gasUsed": "0xcffab",
      "effectiveGasPrice": "0x4a63a6",
      "from": "0x9a8ffc5Eb856B2dbf11128859841D7F8400de0B0",
      "to": null,
      "contractAddress": "0x523b9Cf277cA1B167b8EE5665F05c277CCe41DB0",
      "l1BaseFeeScalar": "0x8dd",
      "l1BlobBaseFee": "0x1",
      "l1BlobBaseFeeScalar": "0x101c12",
      "l1Fee": "0xf61cee04e4",
      "l1GasPrice": "0x2fc6a7c2c",
      "l1GasUsed": "0x8de5"
    },
    {
      "status": "0x1",
      "cumulativeGasUsed": "0x13afe02",
      "logs": [],
      "logsBloom": "0x00000000000000000000000000000000000000000000000000000000000000000000000000000000000000000000000000000000000000000000000000000000000000000000000000000000000000000000000000000000000000000000000000000000000000000000000000000000000000000000000000000000000000000000000000000000000000000000000000000000000000000000000000000000000000000000000000000000000000000000000000000000000000000000000000000000000000000000000000000000000000000000000000000000000000000000000000000000000000000000000000000000000000000000000000000000",
      "type": "0x2",
      "transactionHash": "0x71e3661f82974df28a4270fd28b31249c6fef0b7dfd83ca99659b4d12c9a4f05",
      "transactionIndex": "0x57",
      "blockHash": "0x741c25371bcf9b367afe9309d9b56d839b4a7ff57fedfcb2c9e3417a4136651c",
      "blockNumber": "0x13ef2d0",
      "gasUsed": "0x561dc",
      "effectiveGasPrice": "0x4a63a6",
      "from": "0x9a8ffc5Eb856B2dbf11128859841D7F8400de0B0",
      "to": null,
      "contractAddress": "0xA96AfC1873ADaE37c5a162884d7f14f56a7EED8a",
      "l1BaseFeeScalar": "0x8dd",
      "l1BlobBaseFee": "0x1",
      "l1BlobBaseFeeScalar": "0x101c12",
      "l1Fee": "0x6960c93c24",
      "l1GasPrice": "0x2fc6a7c2c",
      "l1GasUsed": "0x3cc1"
    },
    {
      "status": "0x1",
      "cumulativeGasUsed": "0x146c544",
      "logs": [],
      "logsBloom": "0x00000000000000000000000000000000000000000000000000000000000000000000000000000000000000000000000000000000000000000000000000000000000000000000000000000000000000000000000000000000000000000000000000000000000000000000000000000000000000000000000000000000000000000000000000000000000000000000000000000000000000000000000000000000000000000000000000000000000000000000000000000000000000000000000000000000000000000000000000000000000000000000000000000000000000000000000000000000000000000000000000000000000000000000000000000000",
      "type": "0x2",
      "transactionHash": "0xe52dfdb5bd91fb241b3b68d3285723d0faacb11404c8954cce26c9f7c636f6e4",
      "transactionIndex": "0x58",
      "blockHash": "0x741c25371bcf9b367afe9309d9b56d839b4a7ff57fedfcb2c9e3417a4136651c",
      "blockNumber": "0x13ef2d0",
      "gasUsed": "0xbc742",
      "effectiveGasPrice": "0x4a63a6",
      "from": "0x9a8ffc5Eb856B2dbf11128859841D7F8400de0B0",
      "to": null,
      "contractAddress": "0xBF98A92b4ed2E4470Cb8419CF74a770017a13570",
      "l1BaseFeeScalar": "0x8dd",
      "l1BlobBaseFee": "0x1",
      "l1BlobBaseFeeScalar": "0x101c12",
      "l1Fee": "0xd04cb00313",
      "l1GasPrice": "0x2fc6a7c2c",
      "l1GasUsed": "0x7818"
    },
    {
      "status": "0x1",
      "cumulativeGasUsed": "0x15ef439",
      "logs": [],
      "logsBloom": "0x00000000000000000000000000000000000000000000000000000000000000000000000000000000000000000000000000000000000000000000000000000000000000000000000000000000000000000000000000000000000000000000000000000000000000000000000000000000000000000000000000000000000000000000000000000000000000000000000000000000000000000000000000000000000000000000000000000000000000000000000000000000000000000000000000000000000000000000000000000000000000000000000000000000000000000000000000000000000000000000000000000000000000000000000000000000",
      "type": "0x2",
      "transactionHash": "0x27c752d52bf1bd22dde6eaf94ed877245d8ff565d096d32857a9fa8f11eb1e5f",
      "transactionIndex": "0x59",
      "blockHash": "0x741c25371bcf9b367afe9309d9b56d839b4a7ff57fedfcb2c9e3417a4136651c",
      "blockNumber": "0x13ef2d0",
      "gasUsed": "0x182ef5",
      "effectiveGasPrice": "0x4a63a6",
      "from": "0x9a8ffc5Eb856B2dbf11128859841D7F8400de0B0",
      "to": null,
      "contractAddress": "0x8CbE1fdb71E7c25a131a41bcCFc87257A5527cE5",
      "l1BaseFeeScalar": "0x8dd",
      "l1BlobBaseFee": "0x1",
      "l1BlobBaseFeeScalar": "0x101c12",
      "l1Fee": "0x1a8eef52b8f",
      "l1GasPrice": "0x2fc6a7c2c",
      "l1GasUsed": "0xf4fe"
    },
    {
      "status": "0x1",
      "cumulativeGasUsed": "0x16c86eb",
      "logs": [],
      "logsBloom": "0x00000000000000000000000000000000000000000000000000000000000000000000000000000000000000000000000000000000000000000000000000000000000000000000000000000000000000000000000000000000000000000000000000000000000000000000000000000000000000000000000000000000000000000000000000000000000000000000000000000000000000000000000000000000000000000000000000000000000000000000000000000000000000000000000000000000000000000000000000000000000000000000000000000000000000000000000000000000000000000000000000000000000000000000000000000000",
      "type": "0x2",
      "transactionHash": "0x249dad4fc51e189fe2c8fb8d99f3c6d4a14c339ad072be0db3127af13248458c",
      "transactionIndex": "0x5c",
      "blockHash": "0x741c25371bcf9b367afe9309d9b56d839b4a7ff57fedfcb2c9e3417a4136651c",
      "blockNumber": "0x13ef2d0",
      "gasUsed": "0x7c6f9",
      "effectiveGasPrice": "0x4a63a6",
      "from": "0x9a8ffc5Eb856B2dbf11128859841D7F8400de0B0",
      "to": null,
      "contractAddress": "0xe3131bE4AE19c2e8C322B4FBCd2f305475b1f1E4",
      "l1BaseFeeScalar": "0x8dd",
      "l1BlobBaseFee": "0x1",
      "l1BlobBaseFeeScalar": "0x101c12",
      "l1Fee": "0x8bd61c2365",
      "l1GasPrice": "0x2fc6a7c2c",
      "l1GasUsed": "0x509f"
    },
    {
      "status": "0x1",
      "cumulativeGasUsed": "0x1749623",
      "logs": [
        {
          "address": "0x7Cc86f32859AA8C539159CB3D95089034cc2dA84",
          "topics": [
            "0x8be0079c531659141344cd1fd0a4f28419497f9722a3daafe3b4186f6b6457e0",
            "0x0000000000000000000000000000000000000000000000000000000000000000",
            "0x0000000000000000000000009a8ffc5eb856b2dbf11128859841d7f8400de0b0"
          ],
          "data": "0x",
          "blockHash": "0x741c25371bcf9b367afe9309d9b56d839b4a7ff57fedfcb2c9e3417a4136651c",
          "blockNumber": "0x13ef2d0",
          "transactionHash": "0x6a65d836bab169e8f8cf40b8909d38fd7f39d26122bd002c07d38830f170eca8",
          "transactionIndex": "0x5d",
          "logIndex": "0x16b",
          "removed": false
        }
      ],
      "logsBloom": "0x00000000000000000000000000000000000000000000000040800000000000000000000000000000000000000000000000000000000000000000000000000000000000000000000000000000000000000001000000000000000000000000000000000000020000000000000000000800000000000000000000000000000000404000000000000000000000000000000000000000000000000000000000000000000000000001000000000000000000000000000000000000000000000000000000000500000000000000000000000000000000000000000000000000000020000000000000000000000000001000000000000000000000000000000000000000",
      "type": "0x2",
      "transactionHash": "0x6a65d836bab169e8f8cf40b8909d38fd7f39d26122bd002c07d38830f170eca8",
      "transactionIndex": "0x5d",
      "blockHash": "0x741c25371bcf9b367afe9309d9b56d839b4a7ff57fedfcb2c9e3417a4136651c",
      "blockNumber": "0x13ef2d0",
      "gasUsed": "0x80f38",
      "effectiveGasPrice": "0x4a63a6",
      "from": "0x9a8ffc5Eb856B2dbf11128859841D7F8400de0B0",
      "to": null,
      "contractAddress": "0x7Cc86f32859AA8C539159CB3D95089034cc2dA84",
      "l1BaseFeeScalar": "0x8dd",
      "l1BlobBaseFee": "0x1",
      "l1BlobBaseFeeScalar": "0x101c12",
      "l1Fee": "0x9f838cd3eb",
      "l1GasPrice": "0x2fc6a7c2c",
      "l1GasUsed": "0x5bf7"
    },
    {
      "status": "0x1",
      "cumulativeGasUsed": "0x1765fe8",
      "logs": [
        {
          "address": "0x7Cc86f32859AA8C539159CB3D95089034cc2dA84",
          "topics": [
            "0xbe533f538959a17d76f1b09e966e741ee3b1183099682f96216c93d21feaecba"
          ],
          "data": "0xd13da0bd00000000000000000000000000000000000000000000000000000000",
          "blockHash": "0x741c25371bcf9b367afe9309d9b56d839b4a7ff57fedfcb2c9e3417a4136651c",
          "blockNumber": "0x13ef2d0",
          "transactionHash": "0x8f07cba0a90c39027d0aa4f027db9f2225a81d534f37efeee1f34a8d11a1104e",
          "transactionIndex": "0x5f",
          "logIndex": "0x16c",
          "removed": false
        },
        {
          "address": "0x7Cc86f32859AA8C539159CB3D95089034cc2dA84",
          "topics": [
            "0xda3c8142b3c1d27633026f55bfcb4eeb0b5b8db0daa0a3e10c2213a441722ad1"
          ],
          "data": "0xd13da0bd000000000000000000000000000000000000000000000000000000000000000000000000000000005a99b9d24d69328f58d6ef8950e030c478fb9aaf",
          "blockHash": "0x741c25371bcf9b367afe9309d9b56d839b4a7ff57fedfcb2c9e3417a4136651c",
          "blockNumber": "0x13ef2d0",
          "transactionHash": "0x8f07cba0a90c39027d0aa4f027db9f2225a81d534f37efeee1f34a8d11a1104e",
          "transactionIndex": "0x5f",
          "logIndex": "0x16d",
          "removed": false
        }
      ],
      "logsBloom": "0x00000000000000000000000000000000000000000000000040000000000000080000000000000000000000000000000000000000000000000000000000000000000000000000000000000000000000000000000000000000000000000000000000000000000000000000200000000000000000000000000010000000000000000000000000000000000000000000100000000000000000000000000000000000000000000001000000004000080000000000000000000000000000000000000000000400000000000000000000000000000000000000000000000000000000000000000000000000000000000000000000000000000000000000000000000000",
      "type": "0x2",
      "transactionHash": "0x8f07cba0a90c39027d0aa4f027db9f2225a81d534f37efeee1f34a8d11a1104e",
      "transactionIndex": "0x5f",
      "blockHash": "0x741c25371bcf9b367afe9309d9b56d839b4a7ff57fedfcb2c9e3417a4136651c",
      "blockNumber": "0x13ef2d0",
      "gasUsed": "0x177bd",
      "effectiveGasPrice": "0x4a63a6",
      "from": "0x9a8ffc5Eb856B2dbf11128859841D7F8400de0B0",
      "to": "0x7Cc86f32859AA8C539159CB3D95089034cc2dA84",
      "contractAddress": null,
      "l1BaseFeeScalar": "0x8dd",
      "l1BlobBaseFee": "0x1",
      "l1BlobBaseFeeScalar": "0x101c12",
      "l1Fee": "0xad722bd0f",
      "l1GasPrice": "0x2fc6a7c2c",
      "l1GasUsed": "0x640"
    },
    {
      "status": "0x1",
      "cumulativeGasUsed": "0x177546f",
      "logs": [
        {
          "address": "0x7Cc86f32859AA8C539159CB3D95089034cc2dA84",
          "topics": [
            "0xbe533f538959a17d76f1b09e966e741ee3b1183099682f96216c93d21feaecba"
          ],
          "data": "0x442b593c00000000000000000000000000000000000000000000000000000000",
          "blockHash": "0x741c25371bcf9b367afe9309d9b56d839b4a7ff57fedfcb2c9e3417a4136651c",
          "blockNumber": "0x13ef2d0",
          "transactionHash": "0xeaa1eaa056cc4ab5472373c60f994860fb5f5ca0096778f72c5fcf1e00ebd7c3",
          "transactionIndex": "0x60",
          "logIndex": "0x16e",
          "removed": false
        },
        {
          "address": "0x7Cc86f32859AA8C539159CB3D95089034cc2dA84",
          "topics": [
            "0xda3c8142b3c1d27633026f55bfcb4eeb0b5b8db0daa0a3e10c2213a441722ad1"
          ],
          "data": "0x442b593c00000000000000000000000000000000000000000000000000000000000000000000000000000000dafb7697429a1d2d4fca751c3d7ad4576f396024",
          "blockHash": "0x741c25371bcf9b367afe9309d9b56d839b4a7ff57fedfcb2c9e3417a4136651c",
          "blockNumber": "0x13ef2d0",
          "transactionHash": "0xeaa1eaa056cc4ab5472373c60f994860fb5f5ca0096778f72c5fcf1e00ebd7c3",
          "transactionIndex": "0x60",
          "logIndex": "0x16f",
          "removed": false
        }
      ],
      "logsBloom": "0x00000000000000000000000000000000000000000000000040000000000000080000000000000000000000000000000000000000000000000000000000000000000000000000000000000000000000000000000000000000000000000000000000000000000000000000200000000000000000000000000010000000000000000000000000000000000000000000100000000000000000000000000000000000000000000001000000004000080000000000000000000000000000000000000000000400000000000000000000000000000000000000000000000000000000000000000000000000000000000000000000000000000000000000000000000000",
      "type": "0x2",
      "transactionHash": "0xeaa1eaa056cc4ab5472373c60f994860fb5f5ca0096778f72c5fcf1e00ebd7c3",
      "transactionIndex": "0x60",
      "blockHash": "0x741c25371bcf9b367afe9309d9b56d839b4a7ff57fedfcb2c9e3417a4136651c",
      "blockNumber": "0x13ef2d0",
      "gasUsed": "0xf487",
      "effectiveGasPrice": "0x4a63a6",
      "from": "0x9a8ffc5Eb856B2dbf11128859841D7F8400de0B0",
      "to": "0x7Cc86f32859AA8C539159CB3D95089034cc2dA84",
      "contractAddress": null,
      "l1BaseFeeScalar": "0x8dd",
      "l1BlobBaseFee": "0x1",
      "l1BlobBaseFeeScalar": "0x101c12",
      "l1Fee": "0xad722bd0f",
      "l1GasPrice": "0x2fc6a7c2c",
      "l1GasUsed": "0x640"
    },
    {
      "status": "0x1",
      "cumulativeGasUsed": "0x1784b58",
      "logs": [
        {
          "address": "0x7Cc86f32859AA8C539159CB3D95089034cc2dA84",
          "topics": [
            "0xbe533f538959a17d76f1b09e966e741ee3b1183099682f96216c93d21feaecba"
          ],
          "data": "0x0c68678c00000000000000000000000000000000000000000000000000000000",
          "blockHash": "0x741c25371bcf9b367afe9309d9b56d839b4a7ff57fedfcb2c9e3417a4136651c",
          "blockNumber": "0x13ef2d0",
          "transactionHash": "0x41f0343e67b78dc86117001a4a1b2dffda0622d262d3b1c8b4af5b6101901cd3",
          "transactionIndex": "0x61",
          "logIndex": "0x170",
          "removed": false
        },
        {
          "address": "0x7Cc86f32859AA8C539159CB3D95089034cc2dA84",
          "topics": [
            "0xda3c8142b3c1d27633026f55bfcb4eeb0b5b8db0daa0a3e10c2213a441722ad1"
          ],
          "data": "0x0c68678c00000000000000000000000000000000000000000000000000000000000000000000000000000000d19bc19074acd597a5f729c4ff722d3672832e1f",
          "blockHash": "0x741c25371bcf9b367afe9309d9b56d839b4a7ff57fedfcb2c9e3417a4136651c",
          "blockNumber": "0x13ef2d0",
          "transactionHash": "0x41f0343e67b78dc86117001a4a1b2dffda0622d262d3b1c8b4af5b6101901cd3",
          "transactionIndex": "0x61",
          "logIndex": "0x171",
          "removed": false
        }
      ],
      "logsBloom": "0x00000000000000000000000000000000000000000000000040000000000000080000000000000000000000000000000000000000000000000000000000000000000000000000000000000000000000000000000000000000000000000000000000000000000000000000200000000000000000000000000010000000000000000000000000000000000000000000100000000000000000000000000000000000000000000001000000004000080000000000000000000000000000000000000000000400000000000000000000000000000000000000000000000000000000000000000000000000000000000000000000000000000000000000000000000000",
      "type": "0x2",
      "transactionHash": "0x41f0343e67b78dc86117001a4a1b2dffda0622d262d3b1c8b4af5b6101901cd3",
      "transactionIndex": "0x61",
      "blockHash": "0x741c25371bcf9b367afe9309d9b56d839b4a7ff57fedfcb2c9e3417a4136651c",
      "blockNumber": "0x13ef2d0",
      "gasUsed": "0xf6e9",
      "effectiveGasPrice": "0x4a63a6",
      "from": "0x9a8ffc5Eb856B2dbf11128859841D7F8400de0B0",
      "to": "0x7Cc86f32859AA8C539159CB3D95089034cc2dA84",
      "contractAddress": null,
      "l1BaseFeeScalar": "0x8dd",
      "l1BlobBaseFee": "0x1",
      "l1BlobBaseFeeScalar": "0x101c12",
      "l1Fee": "0xad722bd0f",
      "l1GasPrice": "0x2fc6a7c2c",
      "l1GasUsed": "0x640"
    },
    {
      "status": "0x1",
      "cumulativeGasUsed": "0x17944a3",
      "logs": [
        {
          "address": "0x7Cc86f32859AA8C539159CB3D95089034cc2dA84",
          "topics": [
            "0xbe533f538959a17d76f1b09e966e741ee3b1183099682f96216c93d21feaecba"
          ],
          "data": "0xed8b6b3100000000000000000000000000000000000000000000000000000000",
          "blockHash": "0x741c25371bcf9b367afe9309d9b56d839b4a7ff57fedfcb2c9e3417a4136651c",
          "blockNumber": "0x13ef2d0",
          "transactionHash": "0xb5109800f096025fd67b6b13ff7643c47aa4b8179fbb36d7afc474504c0983ec",
          "transactionIndex": "0x62",
          "logIndex": "0x172",
          "removed": false
        },
        {
          "address": "0x7Cc86f32859AA8C539159CB3D95089034cc2dA84",
          "topics": [
            "0xda3c8142b3c1d27633026f55bfcb4eeb0b5b8db0daa0a3e10c2213a441722ad1"
          ],
          "data": "0xed8b6b3100000000000000000000000000000000000000000000000000000000000000000000000000000000523b9cf277ca1b167b8ee5665f05c277cce41db0",
          "blockHash": "0x741c25371bcf9b367afe9309d9b56d839b4a7ff57fedfcb2c9e3417a4136651c",
          "blockNumber": "0x13ef2d0",
          "transactionHash": "0xb5109800f096025fd67b6b13ff7643c47aa4b8179fbb36d7afc474504c0983ec",
          "transactionIndex": "0x62",
          "logIndex": "0x173",
          "removed": false
        }
      ],
      "logsBloom": "0x00000000000000000000000000000000000000000000000040000000000000080000000000000000000000000000000000000000000000000000000000000000000000000000000000000000000000000000000000000000000000000000000000000000000000000000200000000000000000000000000010000000000000000000000000000000000000000000100000000000000000000000000000000000000000000001000000004000080000000000000000000000000000000000000000000400000000000000000000000000000000000000000000000000000000000000000000000000000000000000000000000000000000000000000000000000",
      "type": "0x2",
      "transactionHash": "0xb5109800f096025fd67b6b13ff7643c47aa4b8179fbb36d7afc474504c0983ec",
      "transactionIndex": "0x62",
      "blockHash": "0x741c25371bcf9b367afe9309d9b56d839b4a7ff57fedfcb2c9e3417a4136651c",
      "blockNumber": "0x13ef2d0",
      "gasUsed": "0xf94b",
      "effectiveGasPrice": "0x4a63a6",
      "from": "0x9a8ffc5Eb856B2dbf11128859841D7F8400de0B0",
      "to": "0x7Cc86f32859AA8C539159CB3D95089034cc2dA84",
      "contractAddress": null,
      "l1BaseFeeScalar": "0x8dd",
      "l1BlobBaseFee": "0x1",
      "l1BlobBaseFeeScalar": "0x101c12",
      "l1Fee": "0xad722bd0f",
      "l1GasPrice": "0x2fc6a7c2c",
      "l1GasUsed": "0x640"
    },
    {
      "status": "0x1",
      "cumulativeGasUsed": "0x17a4050",
      "logs": [
        {
          "address": "0x7Cc86f32859AA8C539159CB3D95089034cc2dA84",
          "topics": [
            "0xbe533f538959a17d76f1b09e966e741ee3b1183099682f96216c93d21feaecba"
          ],
          "data": "0xfec77ae500000000000000000000000000000000000000000000000000000000",
          "blockHash": "0x741c25371bcf9b367afe9309d9b56d839b4a7ff57fedfcb2c9e3417a4136651c",
          "blockNumber": "0x13ef2d0",
          "transactionHash": "0x155585c0a08e830d97439e0c13ac92975609125a00916eeab5fd63900ea3d55b",
          "transactionIndex": "0x63",
          "logIndex": "0x174",
          "removed": false
        },
        {
          "address": "0x7Cc86f32859AA8C539159CB3D95089034cc2dA84",
          "topics": [
            "0xda3c8142b3c1d27633026f55bfcb4eeb0b5b8db0daa0a3e10c2213a441722ad1"
          ],
          "data": "0xfec77ae500000000000000000000000000000000000000000000000000000000000000000000000000000000523b9cf277ca1b167b8ee5665f05c277cce41db0",
          "blockHash": "0x741c25371bcf9b367afe9309d9b56d839b4a7ff57fedfcb2c9e3417a4136651c",
          "blockNumber": "0x13ef2d0",
          "transactionHash": "0x155585c0a08e830d97439e0c13ac92975609125a00916eeab5fd63900ea3d55b",
          "transactionIndex": "0x63",
          "logIndex": "0x175",
          "removed": false
        }
      ],
      "logsBloom": "0x00000000000000000000000000000000000000000000000040000000000000080000000000000000000000000000000000000000000000000000000000000000000000000000000000000000000000000000000000000000000000000000000000000000000000000000200000000000000000000000000010000000000000000000000000000000000000000000100000000000000000000000000000000000000000000001000000004000080000000000000000000000000000000000000000000400000000000000000000000000000000000000000000000000000000000000000000000000000000000000000000000000000000000000000000000000",
      "type": "0x2",
      "transactionHash": "0x155585c0a08e830d97439e0c13ac92975609125a00916eeab5fd63900ea3d55b",
      "transactionIndex": "0x63",
      "blockHash": "0x741c25371bcf9b367afe9309d9b56d839b4a7ff57fedfcb2c9e3417a4136651c",
      "blockNumber": "0x13ef2d0",
      "gasUsed": "0xfbad",
      "effectiveGasPrice": "0x4a63a6",
      "from": "0x9a8ffc5Eb856B2dbf11128859841D7F8400de0B0",
      "to": "0x7Cc86f32859AA8C539159CB3D95089034cc2dA84",
      "contractAddress": null,
      "l1BaseFeeScalar": "0x8dd",
      "l1BlobBaseFee": "0x1",
      "l1BlobBaseFeeScalar": "0x101c12",
      "l1Fee": "0xad722bd0f",
      "l1GasPrice": "0x2fc6a7c2c",
      "l1GasUsed": "0x640"
    },
    {
      "status": "0x1",
      "cumulativeGasUsed": "0x17b3e5f",
      "logs": [
        {
          "address": "0x7Cc86f32859AA8C539159CB3D95089034cc2dA84",
          "topics": [
            "0xbe533f538959a17d76f1b09e966e741ee3b1183099682f96216c93d21feaecba"
          ],
          "data": "0xfe0d94c100000000000000000000000000000000000000000000000000000000",
          "blockHash": "0x741c25371bcf9b367afe9309d9b56d839b4a7ff57fedfcb2c9e3417a4136651c",
          "blockNumber": "0x13ef2d0",
          "transactionHash": "0x562131e2988e16bc1cd3ac04689d086cb7900d05117b53b42af5291386b2c049",
          "transactionIndex": "0x64",
          "logIndex": "0x176",
          "removed": false
        },
        {
          "address": "0x7Cc86f32859AA8C539159CB3D95089034cc2dA84",
          "topics": [
            "0xda3c8142b3c1d27633026f55bfcb4eeb0b5b8db0daa0a3e10c2213a441722ad1"
          ],
          "data": "0xfe0d94c100000000000000000000000000000000000000000000000000000000000000000000000000000000a96afc1873adae37c5a162884d7f14f56a7eed8a",
          "blockHash": "0x741c25371bcf9b367afe9309d9b56d839b4a7ff57fedfcb2c9e3417a4136651c",
          "blockNumber": "0x13ef2d0",
          "transactionHash": "0x562131e2988e16bc1cd3ac04689d086cb7900d05117b53b42af5291386b2c049",
          "transactionIndex": "0x64",
          "logIndex": "0x177",
          "removed": false
        }
      ],
      "logsBloom": "0x00000000000000000000000000000000000000000000000040000000000000080000000000000000000000000000000000000000000000000000000000000000000000000000000000000000000000000000000000000000000000000000000000000000000000000000200000000000000000000000000010000000000000000000000000000000000000000000100000000000000000000000000000000000000000000001000000004000080000000000000000000000000000000000000000000400000000000000000000000000000000000000000000000000000000000000000000000000000000000000000000000000000000000000000000000000",
      "type": "0x2",
      "transactionHash": "0x562131e2988e16bc1cd3ac04689d086cb7900d05117b53b42af5291386b2c049",
      "transactionIndex": "0x64",
      "blockHash": "0x741c25371bcf9b367afe9309d9b56d839b4a7ff57fedfcb2c9e3417a4136651c",
      "blockNumber": "0x13ef2d0",
      "gasUsed": "0xfe0f",
      "effectiveGasPrice": "0x4a63a6",
      "from": "0x9a8ffc5Eb856B2dbf11128859841D7F8400de0B0",
      "to": "0x7Cc86f32859AA8C539159CB3D95089034cc2dA84",
      "contractAddress": null,
      "l1BaseFeeScalar": "0x8dd",
      "l1BlobBaseFee": "0x1",
      "l1BlobBaseFeeScalar": "0x101c12",
      "l1Fee": "0xad722bd0f",
      "l1GasPrice": "0x2fc6a7c2c",
      "l1GasUsed": "0x640"
    },
    {
      "status": "0x1",
      "cumulativeGasUsed": "0x17c3ec4",
      "logs": [
        {
          "address": "0x7Cc86f32859AA8C539159CB3D95089034cc2dA84",
          "topics": [
            "0xbe533f538959a17d76f1b09e966e741ee3b1183099682f96216c93d21feaecba"
          ],
          "data": "0xd5c8d4f100000000000000000000000000000000000000000000000000000000",
          "blockHash": "0x741c25371bcf9b367afe9309d9b56d839b4a7ff57fedfcb2c9e3417a4136651c",
          "blockNumber": "0x13ef2d0",
          "transactionHash": "0xb62a2e4aa95fdc442bacee9a2bbbb9da7cde57d018c6adbf6256db6748d76b6a",
          "transactionIndex": "0x65",
          "logIndex": "0x178",
          "removed": false
        },
        {
          "address": "0x7Cc86f32859AA8C539159CB3D95089034cc2dA84",
          "topics": [
            "0xda3c8142b3c1d27633026f55bfcb4eeb0b5b8db0daa0a3e10c2213a441722ad1"
          ],
          "data": "0xd5c8d4f100000000000000000000000000000000000000000000000000000000000000000000000000000000bf98a92b4ed2e4470cb8419cf74a770017a13570",
          "blockHash": "0x741c25371bcf9b367afe9309d9b56d839b4a7ff57fedfcb2c9e3417a4136651c",
          "blockNumber": "0x13ef2d0",
          "transactionHash": "0xb62a2e4aa95fdc442bacee9a2bbbb9da7cde57d018c6adbf6256db6748d76b6a",
          "transactionIndex": "0x65",
          "logIndex": "0x179",
          "removed": false
        }
      ],
      "logsBloom": "0x00000000000000000000000000000000000000000000000040000000000000080000000000000000000000000000000000000000000000000000000000000000000000000000000000000000000000000000000000000000000000000000000000000000000000000000200000000000000000000000000010000000000000000000000000000000000000000000100000000000000000000000000000000000000000000001000000004000080000000000000000000000000000000000000000000400000000000000000000000000000000000000000000000000000000000000000000000000000000000000000000000000000000000000000000000000",
      "type": "0x2",
      "transactionHash": "0xb62a2e4aa95fdc442bacee9a2bbbb9da7cde57d018c6adbf6256db6748d76b6a",
      "transactionIndex": "0x65",
      "blockHash": "0x741c25371bcf9b367afe9309d9b56d839b4a7ff57fedfcb2c9e3417a4136651c",
      "blockNumber": "0x13ef2d0",
      "gasUsed": "0x10065",
      "effectiveGasPrice": "0x4a63a6",
      "from": "0x9a8ffc5Eb856B2dbf11128859841D7F8400de0B0",
      "to": "0x7Cc86f32859AA8C539159CB3D95089034cc2dA84",
      "contractAddress": null,
      "l1BaseFeeScalar": "0x8dd",
      "l1BlobBaseFee": "0x1",
      "l1BlobBaseFeeScalar": "0x101c12",
      "l1Fee": "0xad722bd0f",
      "l1GasPrice": "0x2fc6a7c2c",
      "l1GasUsed": "0x640"
    },
    {
      "status": "0x1",
      "cumulativeGasUsed": "0x17d4197",
      "logs": [
        {
          "address": "0x7Cc86f32859AA8C539159CB3D95089034cc2dA84",
          "topics": [
            "0xbe533f538959a17d76f1b09e966e741ee3b1183099682f96216c93d21feaecba"
          ],
          "data": "0x1f7a92b200000000000000000000000000000000000000000000000000000000",
          "blockHash": "0x741c25371bcf9b367afe9309d9b56d839b4a7ff57fedfcb2c9e3417a4136651c",
          "blockNumber": "0x13ef2d0",
          "transactionHash": "0x317db53967e9215c7c7c69a8299b7e57df760279da0a0f96d4cb9e5b8ad5cb3e",
          "transactionIndex": "0x66",
          "logIndex": "0x17a",
          "removed": false
        },
        {
          "address": "0x7Cc86f32859AA8C539159CB3D95089034cc2dA84",
          "topics": [
            "0xda3c8142b3c1d27633026f55bfcb4eeb0b5b8db0daa0a3e10c2213a441722ad1"
          ],
          "data": "0x1f7a92b2000000000000000000000000000000000000000000000000000000000000000000000000000000008cbe1fdb71e7c25a131a41bccfc87257a5527ce5",
          "blockHash": "0x741c25371bcf9b367afe9309d9b56d839b4a7ff57fedfcb2c9e3417a4136651c",
          "blockNumber": "0x13ef2d0",
          "transactionHash": "0x317db53967e9215c7c7c69a8299b7e57df760279da0a0f96d4cb9e5b8ad5cb3e",
          "transactionIndex": "0x66",
          "logIndex": "0x17b",
          "removed": false
        }
      ],
      "logsBloom": "0x00000000000000000000000000000000000000000000000040000000000000080000000000000000000000000000000000000000000000000000000000000000000000000000000000000000000000000000000000000000000000000000000000000000000000000000200000000000000000000000000010000000000000000000000000000000000000000000100000000000000000000000000000000000000000000001000000004000080000000000000000000000000000000000000000000400000000000000000000000000000000000000000000000000000000000000000000000000000000000000000000000000000000000000000000000000",
      "type": "0x2",
      "transactionHash": "0x317db53967e9215c7c7c69a8299b7e57df760279da0a0f96d4cb9e5b8ad5cb3e",
      "transactionIndex": "0x66",
      "blockHash": "0x741c25371bcf9b367afe9309d9b56d839b4a7ff57fedfcb2c9e3417a4136651c",
      "blockNumber": "0x13ef2d0",
      "gasUsed": "0x102d3",
      "effectiveGasPrice": "0x4a63a6",
      "from": "0x9a8ffc5Eb856B2dbf11128859841D7F8400de0B0",
      "to": "0x7Cc86f32859AA8C539159CB3D95089034cc2dA84",
      "contractAddress": null,
      "l1BaseFeeScalar": "0x8dd",
      "l1BlobBaseFee": "0x1",
      "l1BlobBaseFeeScalar": "0x101c12",
      "l1Fee": "0xad722bd0f",
      "l1GasPrice": "0x2fc6a7c2c",
      "l1GasUsed": "0x640"
    },
    {
      "status": "0x1",
      "cumulativeGasUsed": "0x17e9136",
      "logs": [
        {
          "address": "0x7Cc86f32859AA8C539159CB3D95089034cc2dA84",
          "topics": [
            "0xbe533f538959a17d76f1b09e966e741ee3b1183099682f96216c93d21feaecba"
          ],
          "data": "0x9c54df6400000000000000000000000000000000000000000000000000000000",
          "blockHash": "0x741c25371bcf9b367afe9309d9b56d839b4a7ff57fedfcb2c9e3417a4136651c",
          "blockNumber": "0x13ef2d0",
          "transactionHash": "0xb169838b0f6fae281ad397e653d4355d40362f8f79943ceb704a25bf25c4faa9",
          "transactionIndex": "0x67",
          "logIndex": "0x17c",
          "removed": false
        },
        {
          "address": "0x7Cc86f32859AA8C539159CB3D95089034cc2dA84",
          "topics": [
            "0xda3c8142b3c1d27633026f55bfcb4eeb0b5b8db0daa0a3e10c2213a441722ad1"
          ],
          "data": "0x9c54df64000000000000000000000000000000000000000000000000000000000000000000000000000000008cbe1fdb71e7c25a131a41bccfc87257a5527ce5",
          "blockHash": "0x741c25371bcf9b367afe9309d9b56d839b4a7ff57fedfcb2c9e3417a4136651c",
          "blockNumber": "0x13ef2d0",
          "transactionHash": "0xb169838b0f6fae281ad397e653d4355d40362f8f79943ceb704a25bf25c4faa9",
          "transactionIndex": "0x67",
          "logIndex": "0x17d",
          "removed": false
        }
      ],
      "logsBloom": "0x00000000000000000000000000000000000000000000000040000000000000080000000000000000000000000000000000000000000000000000000000000000000000000000000000000000000000000000000000000000000000000000000000000000000000000000200000000000000000000000000010000000000000000000000000000000000000000000100000000000000000000000000000000000000000000001000000004000080000000000000000000000000000000000000000000400000000000000000000000000000000000000000000000000000000000000000000000000000000000000000000000000000000000000000000000000",
      "type": "0x2",
      "transactionHash": "0xb169838b0f6fae281ad397e653d4355d40362f8f79943ceb704a25bf25c4faa9",
      "transactionIndex": "0x67",
      "blockHash": "0x741c25371bcf9b367afe9309d9b56d839b4a7ff57fedfcb2c9e3417a4136651c",
      "blockNumber": "0x13ef2d0",
      "gasUsed": "0x14f9f",
      "effectiveGasPrice": "0x4a63a6",
      "from": "0x9a8ffc5Eb856B2dbf11128859841D7F8400de0B0",
      "to": "0x7Cc86f32859AA8C539159CB3D95089034cc2dA84",
      "contractAddress": null,
      "l1BaseFeeScalar": "0x8dd",
      "l1BlobBaseFee": "0x1",
      "l1BlobBaseFeeScalar": "0x101c12",
      "l1Fee": "0xad722bd0f",
      "l1GasPrice": "0x2fc6a7c2c",
      "l1GasUsed": "0x640"
    },
    {
      "status": "0x1",
      "cumulativeGasUsed": "0x17fa06b",
      "logs": [
        {
          "address": "0x7Cc86f32859AA8C539159CB3D95089034cc2dA84",
          "topics": [
            "0xbe533f538959a17d76f1b09e966e741ee3b1183099682f96216c93d21feaecba"
          ],
          "data": "0x6f4d469b00000000000000000000000000000000000000000000000000000000",
          "blockHash": "0x741c25371bcf9b367afe9309d9b56d839b4a7ff57fedfcb2c9e3417a4136651c",
          "blockNumber": "0x13ef2d0",
          "transactionHash": "0x7c53b7d7e24c7a6754056cf81966383821baf7af61fcf276c51c218c614d3653",
          "transactionIndex": "0x68",
          "logIndex": "0x17e",
          "removed": false
        },
        {
          "address": "0x7Cc86f32859AA8C539159CB3D95089034cc2dA84",
          "topics": [
            "0xda3c8142b3c1d27633026f55bfcb4eeb0b5b8db0daa0a3e10c2213a441722ad1"
          ],
          "data": "0x6f4d469b000000000000000000000000000000000000000000000000000000000000000000000000000000008cbe1fdb71e7c25a131a41bccfc87257a5527ce5",
          "blockHash": "0x741c25371bcf9b367afe9309d9b56d839b4a7ff57fedfcb2c9e3417a4136651c",
          "blockNumber": "0x13ef2d0",
          "transactionHash": "0x7c53b7d7e24c7a6754056cf81966383821baf7af61fcf276c51c218c614d3653",
          "transactionIndex": "0x68",
          "logIndex": "0x17f",
          "removed": false
        }
      ],
      "logsBloom": "0x00000000000000000000000000000000000000000000000040000000000000080000000000000000000000000000000000000000000000000000000000000000000000000000000000000000000000000000000000000000000000000000000000000000000000000000200000000000000000000000000010000000000000000000000000000000000000000000100000000000000000000000000000000000000000000001000000004000080000000000000000000000000000000000000000000400000000000000000000000000000000000000000000000000000000000000000000000000000000000000000000000000000000000000000000000000",
      "type": "0x2",
      "transactionHash": "0x7c53b7d7e24c7a6754056cf81966383821baf7af61fcf276c51c218c614d3653",
      "transactionIndex": "0x68",
      "blockHash": "0x741c25371bcf9b367afe9309d9b56d839b4a7ff57fedfcb2c9e3417a4136651c",
      "blockNumber": "0x13ef2d0",
      "gasUsed": "0x10f35",
      "effectiveGasPrice": "0x4a63a6",
      "from": "0x9a8ffc5Eb856B2dbf11128859841D7F8400de0B0",
      "to": "0x7Cc86f32859AA8C539159CB3D95089034cc2dA84",
      "contractAddress": null,
      "l1BaseFeeScalar": "0x8dd",
      "l1BlobBaseFee": "0x1",
      "l1BlobBaseFeeScalar": "0x101c12",
      "l1Fee": "0xad722bd0f",
      "l1GasPrice": "0x2fc6a7c2c",
      "l1GasUsed": "0x640"
    },
    {
      "status": "0x1",
      "cumulativeGasUsed": "0x180b202",
      "logs": [
        {
          "address": "0x7Cc86f32859AA8C539159CB3D95089034cc2dA84",
          "topics": [
            "0xbe533f538959a17d76f1b09e966e741ee3b1183099682f96216c93d21feaecba"
          ],
          "data": "0xca30b4b600000000000000000000000000000000000000000000000000000000",
          "blockHash": "0x741c25371bcf9b367afe9309d9b56d839b4a7ff57fedfcb2c9e3417a4136651c",
          "blockNumber": "0x13ef2d0",
          "transactionHash": "0x4e7d47b6da0b52d6b16ea69cfbc8ace7b26ba821c0aa8ddf76208f1b1358b243",
          "transactionIndex": "0x69",
          "logIndex": "0x180",
          "removed": false
        },
        {
          "address": "0x7Cc86f32859AA8C539159CB3D95089034cc2dA84",
          "topics": [
            "0xda3c8142b3c1d27633026f55bfcb4eeb0b5b8db0daa0a3e10c2213a441722ad1"
          ],
          "data": "0xca30b4b6000000000000000000000000000000000000000000000000000000000000000000000000000000008cbe1fdb71e7c25a131a41bccfc87257a5527ce5",
          "blockHash": "0x741c25371bcf9b367afe9309d9b56d839b4a7ff57fedfcb2c9e3417a4136651c",
          "blockNumber": "0x13ef2d0",
          "transactionHash": "0x4e7d47b6da0b52d6b16ea69cfbc8ace7b26ba821c0aa8ddf76208f1b1358b243",
          "transactionIndex": "0x69",
          "logIndex": "0x181",
          "removed": false
        }
      ],
      "logsBloom": "0x00000000000000000000000000000000000000000000000040000000000000080000000000000000000000000000000000000000000000000000000000000000000000000000000000000000000000000000000000000000000000000000000000000000000000000000200000000000000000000000000010000000000000000000000000000000000000000000100000000000000000000000000000000000000000000001000000004000080000000000000000000000000000000000000000000400000000000000000000000000000000000000000000000000000000000000000000000000000000000000000000000000000000000000000000000000",
      "type": "0x2",
      "transactionHash": "0x4e7d47b6da0b52d6b16ea69cfbc8ace7b26ba821c0aa8ddf76208f1b1358b243",
      "transactionIndex": "0x69",
      "blockHash": "0x741c25371bcf9b367afe9309d9b56d839b4a7ff57fedfcb2c9e3417a4136651c",
      "blockNumber": "0x13ef2d0",
      "gasUsed": "0x11197",
      "effectiveGasPrice": "0x4a63a6",
      "from": "0x9a8ffc5Eb856B2dbf11128859841D7F8400de0B0",
      "to": "0x7Cc86f32859AA8C539159CB3D95089034cc2dA84",
      "contractAddress": null,
      "l1BaseFeeScalar": "0x8dd",
      "l1BlobBaseFee": "0x1",
      "l1BlobBaseFeeScalar": "0x101c12",
      "l1Fee": "0xad722bd0f",
      "l1GasPrice": "0x2fc6a7c2c",
      "l1GasUsed": "0x640"
    },
    {
      "status": "0x1",
      "cumulativeGasUsed": "0x181c5fb",
      "logs": [
        {
          "address": "0x7Cc86f32859AA8C539159CB3D95089034cc2dA84",
          "topics": [
            "0xbe533f538959a17d76f1b09e966e741ee3b1183099682f96216c93d21feaecba"
          ],
          "data": "0x932c30b500000000000000000000000000000000000000000000000000000000",
          "blockHash": "0x741c25371bcf9b367afe9309d9b56d839b4a7ff57fedfcb2c9e3417a4136651c",
          "blockNumber": "0x13ef2d0",
          "transactionHash": "0xe60c9adb03f4d35abaabe5e1d2bf870a737a129412d76fa60fa63108a96215a7",
          "transactionIndex": "0x6a",
          "logIndex": "0x182",
          "removed": false
        },
        {
          "address": "0x7Cc86f32859AA8C539159CB3D95089034cc2dA84",
          "topics": [
            "0xda3c8142b3c1d27633026f55bfcb4eeb0b5b8db0daa0a3e10c2213a441722ad1"
          ],
          "data": "0x932c30b5000000000000000000000000000000000000000000000000000000000000000000000000000000008cbe1fdb71e7c25a131a41bccfc87257a5527ce5",
          "blockHash": "0x741c25371bcf9b367afe9309d9b56d839b4a7ff57fedfcb2c9e3417a4136651c",
          "blockNumber": "0x13ef2d0",
          "transactionHash": "0xe60c9adb03f4d35abaabe5e1d2bf870a737a129412d76fa60fa63108a96215a7",
          "transactionIndex": "0x6a",
          "logIndex": "0x183",
          "removed": false
        }
      ],
      "logsBloom": "0x00000000000000000000000000000000000000000000000040000000000000080000000000000000000000000000000000000000000000000000000000000000000000000000000000000000000000000000000000000000000000000000000000000000000000000000200000000000000000000000000010000000000000000000000000000000000000000000100000000000000000000000000000000000000000000001000000004000080000000000000000000000000000000000000000000400000000000000000000000000000000000000000000000000000000000000000000000000000000000000000000000000000000000000000000000000",
      "type": "0x2",
      "transactionHash": "0xe60c9adb03f4d35abaabe5e1d2bf870a737a129412d76fa60fa63108a96215a7",
      "transactionIndex": "0x6a",
      "blockHash": "0x741c25371bcf9b367afe9309d9b56d839b4a7ff57fedfcb2c9e3417a4136651c",
      "blockNumber": "0x13ef2d0",
      "gasUsed": "0x113f9",
      "effectiveGasPrice": "0x4a63a6",
      "from": "0x9a8ffc5Eb856B2dbf11128859841D7F8400de0B0",
      "to": "0x7Cc86f32859AA8C539159CB3D95089034cc2dA84",
      "contractAddress": null,
      "l1BaseFeeScalar": "0x8dd",
      "l1BlobBaseFee": "0x1",
      "l1BlobBaseFeeScalar": "0x101c12",
      "l1Fee": "0xad722bd0f",
      "l1GasPrice": "0x2fc6a7c2c",
      "l1GasUsed": "0x640"
    },
    {
      "status": "0x1",
      "cumulativeGasUsed": "0x182dc56",
      "logs": [
        {
          "address": "0x7Cc86f32859AA8C539159CB3D95089034cc2dA84",
          "topics": [
            "0xbe533f538959a17d76f1b09e966e741ee3b1183099682f96216c93d21feaecba"
          ],
          "data": "0xed82e47100000000000000000000000000000000000000000000000000000000",
          "blockHash": "0x741c25371bcf9b367afe9309d9b56d839b4a7ff57fedfcb2c9e3417a4136651c",
          "blockNumber": "0x13ef2d0",
          "transactionHash": "0xefe1354951f0ea129f6761d8b78cc2d8e74cf2c465934bc2d47f8d5d2a1514e0",
          "transactionIndex": "0x6b",
          "logIndex": "0x184",
          "removed": false
        },
        {
          "address": "0x7Cc86f32859AA8C539159CB3D95089034cc2dA84",
          "topics": [
            "0xda3c8142b3c1d27633026f55bfcb4eeb0b5b8db0daa0a3e10c2213a441722ad1"
          ],
          "data": "0xed82e471000000000000000000000000000000000000000000000000000000000000000000000000000000008cbe1fdb71e7c25a131a41bccfc87257a5527ce5",
          "blockHash": "0x741c25371bcf9b367afe9309d9b56d839b4a7ff57fedfcb2c9e3417a4136651c",
          "blockNumber": "0x13ef2d0",
          "transactionHash": "0xefe1354951f0ea129f6761d8b78cc2d8e74cf2c465934bc2d47f8d5d2a1514e0",
          "transactionIndex": "0x6b",
          "logIndex": "0x185",
          "removed": false
        }
      ],
      "logsBloom": "0x00000000000000000000000000000000000000000000000040000000000000080000000000000000000000000000000000000000000000000000000000000000000000000000000000000000000000000000000000000000000000000000000000000000000000000000200000000000000000000000000010000000000000000000000000000000000000000000100000000000000000000000000000000000000000000001000000004000080000000000000000000000000000000000000000000400000000000000000000000000000000000000000000000000000000000000000000000000000000000000000000000000000000000000000000000000",
      "type": "0x2",
      "transactionHash": "0xefe1354951f0ea129f6761d8b78cc2d8e74cf2c465934bc2d47f8d5d2a1514e0",
      "transactionIndex": "0x6b",
      "blockHash": "0x741c25371bcf9b367afe9309d9b56d839b4a7ff57fedfcb2c9e3417a4136651c",
      "blockNumber": "0x13ef2d0",
      "gasUsed": "0x1165b",
      "effectiveGasPrice": "0x4a63a6",
      "from": "0x9a8ffc5Eb856B2dbf11128859841D7F8400de0B0",
      "to": "0x7Cc86f32859AA8C539159CB3D95089034cc2dA84",
      "contractAddress": null,
      "l1BaseFeeScalar": "0x8dd",
      "l1BlobBaseFee": "0x1",
      "l1BlobBaseFeeScalar": "0x101c12",
      "l1Fee": "0xad722bd0f",
      "l1GasPrice": "0x2fc6a7c2c",
      "l1GasUsed": "0x640"
    },
    {
      "status": "0x1",
      "cumulativeGasUsed": "0x183f513",
      "logs": [
        {
          "address": "0x7Cc86f32859AA8C539159CB3D95089034cc2dA84",
          "topics": [
            "0xbe533f538959a17d76f1b09e966e741ee3b1183099682f96216c93d21feaecba"
          ],
          "data": "0xb82ee6ee00000000000000000000000000000000000000000000000000000000",
          "blockHash": "0x741c25371bcf9b367afe9309d9b56d839b4a7ff57fedfcb2c9e3417a4136651c",
          "blockNumber": "0x13ef2d0",
          "transactionHash": "0x7547bc1147a1ecf3085d9e9479f2fa4f2bb931c8baeea70d096f0a9e600d63b0",
          "transactionIndex": "0x6c",
          "logIndex": "0x186",
          "removed": false
        },
        {
          "address": "0x7Cc86f32859AA8C539159CB3D95089034cc2dA84",
          "topics": [
            "0xda3c8142b3c1d27633026f55bfcb4eeb0b5b8db0daa0a3e10c2213a441722ad1"
          ],
          "data": "0xb82ee6ee000000000000000000000000000000000000000000000000000000000000000000000000000000008cbe1fdb71e7c25a131a41bccfc87257a5527ce5",
          "blockHash": "0x741c25371bcf9b367afe9309d9b56d839b4a7ff57fedfcb2c9e3417a4136651c",
          "blockNumber": "0x13ef2d0",
          "transactionHash": "0x7547bc1147a1ecf3085d9e9479f2fa4f2bb931c8baeea70d096f0a9e600d63b0",
          "transactionIndex": "0x6c",
          "logIndex": "0x187",
          "removed": false
        }
      ],
      "logsBloom": "0x00000000000000000000000000000000000000000000000040000000000000080000000000000000000000000000000000000000000000000000000000000000000000000000000000000000000000000000000000000000000000000000000000000000000000000000200000000000000000000000000010000000000000000000000000000000000000000000100000000000000000000000000000000000000000000001000000004000080000000000000000000000000000000000000000000400000000000000000000000000000000000000000000000000000000000000000000000000000000000000000000000000000000000000000000000000",
      "type": "0x2",
      "transactionHash": "0x7547bc1147a1ecf3085d9e9479f2fa4f2bb931c8baeea70d096f0a9e600d63b0",
      "transactionIndex": "0x6c",
      "blockHash": "0x741c25371bcf9b367afe9309d9b56d839b4a7ff57fedfcb2c9e3417a4136651c",
      "blockNumber": "0x13ef2d0",
      "gasUsed": "0x118bd",
      "effectiveGasPrice": "0x4a63a6",
      "from": "0x9a8ffc5Eb856B2dbf11128859841D7F8400de0B0",
      "to": "0x7Cc86f32859AA8C539159CB3D95089034cc2dA84",
      "contractAddress": null,
      "l1BaseFeeScalar": "0x8dd",
      "l1BlobBaseFee": "0x1",
      "l1BlobBaseFeeScalar": "0x101c12",
      "l1Fee": "0xad722bd0f",
      "l1GasPrice": "0x2fc6a7c2c",
      "l1GasUsed": "0x640"
    },
    {
      "status": "0x1",
      "cumulativeGasUsed": "0x193543e",
      "logs": [
        {
          "address": "0x7Cc86f32859AA8C539159CB3D95089034cc2dA84",
          "topics": [
            "0xbe533f538959a17d76f1b09e966e741ee3b1183099682f96216c93d21feaecba"
          ],
          "data": "0x8aa5d87500000000000000000000000000000000000000000000000000000000",
          "blockHash": "0x741c25371bcf9b367afe9309d9b56d839b4a7ff57fedfcb2c9e3417a4136651c",
          "blockNumber": "0x13ef2d0",
          "transactionHash": "0x9d9db102fcd4178bf9d30d28ab74b7429cd6fdac91ca461645078e2109e440af",
          "transactionIndex": "0x6e",
          "logIndex": "0x188",
          "removed": false
        },
        {
          "address": "0x7Cc86f32859AA8C539159CB3D95089034cc2dA84",
          "topics": [
            "0xda3c8142b3c1d27633026f55bfcb4eeb0b5b8db0daa0a3e10c2213a441722ad1"
          ],
          "data": "0x8aa5d875000000000000000000000000000000000000000000000000000000000000000000000000000000008cbe1fdb71e7c25a131a41bccfc87257a5527ce5",
          "blockHash": "0x741c25371bcf9b367afe9309d9b56d839b4a7ff57fedfcb2c9e3417a4136651c",
          "blockNumber": "0x13ef2d0",
          "transactionHash": "0x9d9db102fcd4178bf9d30d28ab74b7429cd6fdac91ca461645078e2109e440af",
          "transactionIndex": "0x6e",
          "logIndex": "0x189",
          "removed": false
        }
      ],
      "logsBloom": "0x00000000000000000000000000000000000000000000000040000000000000080000000000000000000000000000000000000000000000000000000000000000000000000000000000000000000000000000000000000000000000000000000000000000000000000000200000000000000000000000000010000000000000000000000000000000000000000000100000000000000000000000000000000000000000000001000000004000080000000000000000000000000000000000000000000400000000000000000000000000000000000000000000000000000000000000000000000000000000000000000000000000000000000000000000000000",
      "type": "0x2",
      "transactionHash": "0x9d9db102fcd4178bf9d30d28ab74b7429cd6fdac91ca461645078e2109e440af",
      "transactionIndex": "0x6e",
      "blockHash": "0x741c25371bcf9b367afe9309d9b56d839b4a7ff57fedfcb2c9e3417a4136651c",
      "blockNumber": "0x13ef2d0",
      "gasUsed": "0x11b1f",
      "effectiveGasPrice": "0x4a63a6",
      "from": "0x9a8ffc5Eb856B2dbf11128859841D7F8400de0B0",
      "to": "0x7Cc86f32859AA8C539159CB3D95089034cc2dA84",
      "contractAddress": null,
      "l1BaseFeeScalar": "0x8dd",
      "l1BlobBaseFee": "0x1",
      "l1BlobBaseFeeScalar": "0x101c12",
      "l1Fee": "0xad722bd0f",
      "l1GasPrice": "0x2fc6a7c2c",
      "l1GasUsed": "0x640"
    },
    {
      "status": "0x1",
      "cumulativeGasUsed": "0x1966051",
      "logs": [
        {
          "address": "0x7Cc86f32859AA8C539159CB3D95089034cc2dA84",
          "topics": [
            "0xbe533f538959a17d76f1b09e966e741ee3b1183099682f96216c93d21feaecba"
          ],
          "data": "0x7eec0a6500000000000000000000000000000000000000000000000000000000",
          "blockHash": "0x741c25371bcf9b367afe9309d9b56d839b4a7ff57fedfcb2c9e3417a4136651c",
          "blockNumber": "0x13ef2d0",
          "transactionHash": "0x0ca0c35abb0d4e037481eee030132900a02a76301f5467254a64ea7302c40449",
          "transactionIndex": "0x70",
          "logIndex": "0x18b",
          "removed": false
        },
        {
          "address": "0x7Cc86f32859AA8C539159CB3D95089034cc2dA84",
          "topics": [
            "0xda3c8142b3c1d27633026f55bfcb4eeb0b5b8db0daa0a3e10c2213a441722ad1"
          ],
          "data": "0x7eec0a65000000000000000000000000000000000000000000000000000000000000000000000000000000008cbe1fdb71e7c25a131a41bccfc87257a5527ce5",
          "blockHash": "0x741c25371bcf9b367afe9309d9b56d839b4a7ff57fedfcb2c9e3417a4136651c",
          "blockNumber": "0x13ef2d0",
          "transactionHash": "0x0ca0c35abb0d4e037481eee030132900a02a76301f5467254a64ea7302c40449",
          "transactionIndex": "0x70",
          "logIndex": "0x18c",
          "removed": false
        }
      ],
      "logsBloom": "0x00000000000000000000000000000000000000000000000040000000000000080000000000000000000000000000000000000000000000000000000000000000000000000000000000000000000000000000000000000000000000000000000000000000000000000000200000000000000000000000000010000000000000000000000000000000000000000000100000000000000000000000000000000000000000000001000000004000080000000000000000000000000000000000000000000400000000000000000000000000000000000000000000000000000000000000000000000000000000000000000000000000000000000000000000000000",
      "type": "0x2",
      "transactionHash": "0x0ca0c35abb0d4e037481eee030132900a02a76301f5467254a64ea7302c40449",
      "transactionIndex": "0x70",
      "blockHash": "0x741c25371bcf9b367afe9309d9b56d839b4a7ff57fedfcb2c9e3417a4136651c",
      "blockNumber": "0x13ef2d0",
      "gasUsed": "0x11d81",
      "effectiveGasPrice": "0x4a63a6",
      "from": "0x9a8ffc5Eb856B2dbf11128859841D7F8400de0B0",
      "to": "0x7Cc86f32859AA8C539159CB3D95089034cc2dA84",
      "contractAddress": null,
      "l1BaseFeeScalar": "0x8dd",
      "l1BlobBaseFee": "0x1",
      "l1BlobBaseFeeScalar": "0x101c12",
      "l1Fee": "0xad722bd0f",
      "l1GasPrice": "0x2fc6a7c2c",
      "l1GasUsed": "0x640"
    },
    {
      "status": "0x1",
      "cumulativeGasUsed": "0x197ca9e",
      "logs": [
        {
          "address": "0x7Cc86f32859AA8C539159CB3D95089034cc2dA84",
          "topics": [
            "0xbe533f538959a17d76f1b09e966e741ee3b1183099682f96216c93d21feaecba"
          ],
          "data": "0x8641e0d600000000000000000000000000000000000000000000000000000000",
          "blockHash": "0x741c25371bcf9b367afe9309d9b56d839b4a7ff57fedfcb2c9e3417a4136651c",
          "blockNumber": "0x13ef2d0",
          "transactionHash": "0x70d8feb32be2158dcae366069394853916f04916f278f3e7fbefcb7e6e547798",
          "transactionIndex": "0x71",
          "logIndex": "0x18d",
          "removed": false
        },
        {
          "address": "0x7Cc86f32859AA8C539159CB3D95089034cc2dA84",
          "topics": [
            "0xda3c8142b3c1d27633026f55bfcb4eeb0b5b8db0daa0a3e10c2213a441722ad1"
          ],
          "data": "0x8641e0d6000000000000000000000000000000000000000000000000000000000000000000000000000000008cbe1fdb71e7c25a131a41bccfc87257a5527ce5",
          "blockHash": "0x741c25371bcf9b367afe9309d9b56d839b4a7ff57fedfcb2c9e3417a4136651c",
          "blockNumber": "0x13ef2d0",
          "transactionHash": "0x70d8feb32be2158dcae366069394853916f04916f278f3e7fbefcb7e6e547798",
          "transactionIndex": "0x71",
          "logIndex": "0x18e",
          "removed": false
        }
      ],
      "logsBloom": "0x00000000000000000000000000000000000000000000000040000000000000080000000000000000000000000000000000000000000000000000000000000000000000000000000000000000000000000000000000000000000000000000000000000000000000000000200000000000000000000000000010000000000000000000000000000000000000000000100000000000000000000000000000000000000000000001000000004000080000000000000000000000000000000000000000000400000000000000000000000000000000000000000000000000000000000000000000000000000000000000000000000000000000000000000000000000",
      "type": "0x2",
      "transactionHash": "0x70d8feb32be2158dcae366069394853916f04916f278f3e7fbefcb7e6e547798",
      "transactionIndex": "0x71",
      "blockHash": "0x741c25371bcf9b367afe9309d9b56d839b4a7ff57fedfcb2c9e3417a4136651c",
      "blockNumber": "0x13ef2d0",
      "gasUsed": "0x16a4d",
      "effectiveGasPrice": "0x4a63a6",
      "from": "0x9a8ffc5Eb856B2dbf11128859841D7F8400de0B0",
      "to": "0x7Cc86f32859AA8C539159CB3D95089034cc2dA84",
      "contractAddress": null,
      "l1BaseFeeScalar": "0x8dd",
      "l1BlobBaseFee": "0x1",
      "l1BlobBaseFeeScalar": "0x101c12",
      "l1Fee": "0xad722bd0f",
      "l1GasPrice": "0x2fc6a7c2c",
      "l1GasUsed": "0x640"
    },
    {
      "status": "0x1",
      "cumulativeGasUsed": "0x198f481",
      "logs": [
        {
          "address": "0x7Cc86f32859AA8C539159CB3D95089034cc2dA84",
          "topics": [
            "0xbe533f538959a17d76f1b09e966e741ee3b1183099682f96216c93d21feaecba"
          ],
          "data": "0xbe3ffaeb00000000000000000000000000000000000000000000000000000000",
          "blockHash": "0x741c25371bcf9b367afe9309d9b56d839b4a7ff57fedfcb2c9e3417a4136651c",
          "blockNumber": "0x13ef2d0",
          "transactionHash": "0xd412a135df794b178a0e4e75c780a6f4085b27bf7e94e9632ea3f3b7d69fb9e6",
          "transactionIndex": "0x72",
          "logIndex": "0x18f",
          "removed": false
        },
        {
          "address": "0x7Cc86f32859AA8C539159CB3D95089034cc2dA84",
          "topics": [
            "0xda3c8142b3c1d27633026f55bfcb4eeb0b5b8db0daa0a3e10c2213a441722ad1"
          ],
          "data": "0xbe3ffaeb000000000000000000000000000000000000000000000000000000000000000000000000000000008cbe1fdb71e7c25a131a41bccfc87257a5527ce5",
          "blockHash": "0x741c25371bcf9b367afe9309d9b56d839b4a7ff57fedfcb2c9e3417a4136651c",
          "blockNumber": "0x13ef2d0",
          "transactionHash": "0xd412a135df794b178a0e4e75c780a6f4085b27bf7e94e9632ea3f3b7d69fb9e6",
          "transactionIndex": "0x72",
          "logIndex": "0x190",
          "removed": false
        }
      ],
      "logsBloom": "0x00000000000000000000000000000000000000000000000040000000000000080000000000000000000000000000000000000000000000000000000000000000000000000000000000000000000000000000000000000000000000000000000000000000000000000000200000000000000000000000000010000000000000000000000000000000000000000000100000000000000000000000000000000000000000000001000000004000080000000000000000000000000000000000000000000400000000000000000000000000000000000000000000000000000000000000000000000000000000000000000000000000000000000000000000000000",
      "type": "0x2",
      "transactionHash": "0xd412a135df794b178a0e4e75c780a6f4085b27bf7e94e9632ea3f3b7d69fb9e6",
      "transactionIndex": "0x72",
      "blockHash": "0x741c25371bcf9b367afe9309d9b56d839b4a7ff57fedfcb2c9e3417a4136651c",
      "blockNumber": "0x13ef2d0",
      "gasUsed": "0x129e3",
      "effectiveGasPrice": "0x4a63a6",
      "from": "0x9a8ffc5Eb856B2dbf11128859841D7F8400de0B0",
      "to": "0x7Cc86f32859AA8C539159CB3D95089034cc2dA84",
      "contractAddress": null,
      "l1BaseFeeScalar": "0x8dd",
      "l1BlobBaseFee": "0x1",
      "l1BlobBaseFeeScalar": "0x101c12",
      "l1Fee": "0xad722bd0f",
      "l1GasPrice": "0x2fc6a7c2c",
      "l1GasUsed": "0x640"
    },
    {
      "status": "0x1",
      "cumulativeGasUsed": "0x19a20c6",
      "logs": [
        {
          "address": "0x7Cc86f32859AA8C539159CB3D95089034cc2dA84",
          "topics": [
            "0xbe533f538959a17d76f1b09e966e741ee3b1183099682f96216c93d21feaecba"
          ],
          "data": "0x55aca5b100000000000000000000000000000000000000000000000000000000",
          "blockHash": "0x741c25371bcf9b367afe9309d9b56d839b4a7ff57fedfcb2c9e3417a4136651c",
          "blockNumber": "0x13ef2d0",
          "transactionHash": "0x934baa62292c37980ad4923be3dce0fa66bec69bf4ba61edc6df6f2acb37800b",
          "transactionIndex": "0x73",
          "logIndex": "0x191",
          "removed": false
        },
        {
          "address": "0x7Cc86f32859AA8C539159CB3D95089034cc2dA84",
          "topics": [
            "0xda3c8142b3c1d27633026f55bfcb4eeb0b5b8db0daa0a3e10c2213a441722ad1"
          ],
          "data": "0x55aca5b1000000000000000000000000000000000000000000000000000000000000000000000000000000008cbe1fdb71e7c25a131a41bccfc87257a5527ce5",
          "blockHash": "0x741c25371bcf9b367afe9309d9b56d839b4a7ff57fedfcb2c9e3417a4136651c",
          "blockNumber": "0x13ef2d0",
          "transactionHash": "0x934baa62292c37980ad4923be3dce0fa66bec69bf4ba61edc6df6f2acb37800b",
          "transactionIndex": "0x73",
          "logIndex": "0x192",
          "removed": false
        }
      ],
      "logsBloom": "0x00000000000000000000000000000000000000000000000040000000000000080000000000000000000000000000000000000000000000000000000000000000000000000000000000000000000000000000000000000000000000000000000000000000000000000000200000000000000000000000000010000000000000000000000000000000000000000000100000000000000000000000000000000000000000000001000000004000080000000000000000000000000000000000000000000400000000000000000000000000000000000000000000000000000000000000000000000000000000000000000000000000000000000000000000000000",
      "type": "0x2",
      "transactionHash": "0x934baa62292c37980ad4923be3dce0fa66bec69bf4ba61edc6df6f2acb37800b",
      "transactionIndex": "0x73",
      "blockHash": "0x741c25371bcf9b367afe9309d9b56d839b4a7ff57fedfcb2c9e3417a4136651c",
      "blockNumber": "0x13ef2d0",
      "gasUsed": "0x12c45",
      "effectiveGasPrice": "0x4a63a6",
      "from": "0x9a8ffc5Eb856B2dbf11128859841D7F8400de0B0",
      "to": "0x7Cc86f32859AA8C539159CB3D95089034cc2dA84",
      "contractAddress": null,
      "l1BaseFeeScalar": "0x8dd",
      "l1BlobBaseFee": "0x1",
      "l1BlobBaseFeeScalar": "0x101c12",
      "l1Fee": "0xad722bd0f",
      "l1GasPrice": "0x2fc6a7c2c",
      "l1GasUsed": "0x640"
    },
    {
      "status": "0x1",
      "cumulativeGasUsed": "0x19ad937",
      "logs": [
        {
          "address": "0x7Cc86f32859AA8C539159CB3D95089034cc2dA84",
          "topics": [
            "0x159f10d3da077d18f228d52be447d552e7d1892d10f7af8f615658160e374729"
          ],
          "data": "0x000000000000000000000000e3131be4ae19c2e8c322b4fbcd2f305475b1f1e4",
          "blockHash": "0x741c25371bcf9b367afe9309d9b56d839b4a7ff57fedfcb2c9e3417a4136651c",
          "blockNumber": "0x13ef2d0",
          "transactionHash": "0xdf6529f6d23f071f0f548c083682579532f255ed2ac4d058204e21fa90ce6a55",
          "transactionIndex": "0x74",
          "logIndex": "0x193",
          "removed": false
        }
      ],
      "logsBloom": "0x00000000000000080000000000000000000000000000000040000000000000000000000000000000000000000200000000000000000000000000000000000000000000000000000000000000000000000000000000000000000000000000000000000000000000000000000000000000000000000000000000000000000000000000000000000000000000000000000000000000000000000000000000000000000000000001000000000000000000000000000000000000000000000000000000000400000000000000000000000000000000000000000000000000000000000000000000000000000000000010000000000000000000000000000000000000",
      "type": "0x2",
      "transactionHash": "0xdf6529f6d23f071f0f548c083682579532f255ed2ac4d058204e21fa90ce6a55",
      "transactionIndex": "0x74",
      "blockHash": "0x741c25371bcf9b367afe9309d9b56d839b4a7ff57fedfcb2c9e3417a4136651c",
      "blockNumber": "0x13ef2d0",
      "gasUsed": "0xb871",
      "effectiveGasPrice": "0x4a63a6",
      "from": "0x9a8ffc5Eb856B2dbf11128859841D7F8400de0B0",
      "to": "0x7Cc86f32859AA8C539159CB3D95089034cc2dA84",
      "contractAddress": null,
      "l1BaseFeeScalar": "0x8dd",
      "l1BlobBaseFee": "0x1",
      "l1BlobBaseFeeScalar": "0x101c12",
      "l1Fee": "0xad722bd0f",
      "l1GasPrice": "0x2fc6a7c2c",
      "l1GasUsed": "0x640"
    },
    {
      "status": "0x1",
      "cumulativeGasUsed": "0x1a060d4",
      "logs": [
        {
          "address": "0x4BCa2f13d54Fe50B7a9E9062f5e3337f23B4562c",
          "topics": [
            "0xa657f2ad315cf3bb35cf1964158da75c3f334481df05a4a1644b2376b17a59b2"
          ],
          "data": "0x0000000000000000000000007cc86f32859aa8c539159cb3d95089034cc2da84",
          "blockHash": "0x741c25371bcf9b367afe9309d9b56d839b4a7ff57fedfcb2c9e3417a4136651c",
          "blockNumber": "0x13ef2d0",
          "transactionHash": "0xcc460ebb71cb9a35898043fff6461e7fc1907eeef854b0a9e6774be66b4b2a62",
          "transactionIndex": "0x75",
          "logIndex": "0x194",
          "removed": false
        },
        {
          "address": "0x4BCa2f13d54Fe50B7a9E9062f5e3337f23B4562c",
          "topics": [
            "0xb3fb7272001bead168db12f456d500a08bbf25cf1f74d34f680f1dc331b18bab"
          ],
          "data": "0x000000000000000000000000000000000000000000000000000000000003f48000000000000000000000000000000000000000000000000000000000000151800000000000000000000000000000000000000000000000000000000000000bb80000000000000000000000000000000000000000000000000000000000000001",
          "blockHash": "0x741c25371bcf9b367afe9309d9b56d839b4a7ff57fedfcb2c9e3417a4136651c",
          "blockNumber": "0x13ef2d0",
          "transactionHash": "0xcc460ebb71cb9a35898043fff6461e7fc1907eeef854b0a9e6774be66b4b2a62",
          "transactionIndex": "0x75",
          "logIndex": "0x195",
          "removed": false
        },
        {
          "address": "0x4BCa2f13d54Fe50B7a9E9062f5e3337f23B4562c",
          "topics": [
            "0xc7f505b2f371ae2175ee4913f4499e1f2633a7b5936321eed1cdaeb6115181d2"
          ],
          "data": "0x0000000000000000000000000000000000000000000000000000000000000001",
          "blockHash": "0x741c25371bcf9b367afe9309d9b56d839b4a7ff57fedfcb2c9e3417a4136651c",
          "blockNumber": "0x13ef2d0",
          "transactionHash": "0xcc460ebb71cb9a35898043fff6461e7fc1907eeef854b0a9e6774be66b4b2a62",
          "transactionIndex": "0x75",
          "logIndex": "0x196",
          "removed": false
        }
      ],
      "logsBloom": "0x00000800000000000000000000000000000000000000000000000000000000000000000000000000000000000000000000000000000000000000000020000000000004000000000000000000000000000000000000000000000000000000000000000000000000000000008000000002000040000000000000000000000000000000000000000000000800000000000000000010000080000000000000000000000000000000000000000000000000000000000000000000000000000000000000000000000000000000000000000000000000000004000000000000000000000000000000000000000000000000000000000000000009000000000000000000",
      "type": "0x2",
      "transactionHash": "0xcc460ebb71cb9a35898043fff6461e7fc1907eeef854b0a9e6774be66b4b2a62",
      "transactionIndex": "0x75",
      "blockHash": "0x741c25371bcf9b367afe9309d9b56d839b4a7ff57fedfcb2c9e3417a4136651c",
      "blockNumber": "0x13ef2d0",
      "gasUsed": "0x5879d",
      "effectiveGasPrice": "0x4a63a6",
      "from": "0x9a8ffc5Eb856B2dbf11128859841D7F8400de0B0",
      "to": null,
      "contractAddress": "0x4BCa2f13d54Fe50B7a9E9062f5e3337f23B4562c",
      "l1BaseFeeScalar": "0x8dd",
      "l1BlobBaseFee": "0x1",
      "l1BlobBaseFeeScalar": "0x101c12",
      "l1Fee": "0x7d6b151221",
      "l1GasPrice": "0x2fc6a7c2c",
      "l1GasUsed": "0x484f"
    }
  ],
  "libraries": [],
  "pending": [],
  "returns": {},
  "timestamp": 1728594571,
  "chain": 8453,
  "commit": "622d5e7"
}