{
  "transactions": [
    {
      "hash": "0x27253b807569fb6183827d21db307544726fd4b09adb32c20197663bdbc072b9",
      "transactionType": "CREATE",
      "contractName": "Vote",
      "contractAddress": "0x8456f927d25585c7af2b43c070287510eb399ccc",
      "function": null,
      "arguments": null,
      "transaction": {
        "from": "0xff9179199903a10283e19d86de8c09f2718073da",
        "gas": "0x71242",
        "value": "0x0",
        "input": "0x608060405234801561001057600080fd5b5061057e806100206000396000f3fe608060405234801561001057600080fd5b50600436106100365760003560e01c8063c5b364411461003b578063e69b9edc14610062575b600080fd5b61004e6100493660046104d8565b610075565b604051901515815260200160405180910390f35b61004e6100703660046104d8565b6102ab565b60008281527f9a70c69f78b954ec2ace8c62308c5ea2ed35f782ee583f10b56d88886fa9930060208190526040822080546100f75760405162461bcd60e51b815260206004820152601d60248201527f4e6f206865616465727320666f7220746869732070726f706f73616c2e00000060448201526064015b60405180910390fd5b8054843590829060009061010d5761010d61050b565b9060005260206000209060040201600001540361016b576003818560005b6020020135815481106101405761014061050b565b906000526020600020906004020160010160008282546101609190610521565b909155506102a39050565b8054843590829060019081106101835761018361050b565b906000526020600020906004020160000154036101e3578054600390829086359081106101b2576101b261050b565b906000526020600020906004020160010160008282546101d29190610521565b90915550600290508185600161012b565b8054600390829086359081106101fb576101fb61050b565b9060005260206000209060040201600101600082825461021b9190610521565b90915550600290508185600160200201358154811061023c5761023c61050b565b9060005260206000209060040201600101600082825461025c9190610521565b90915550600190508185600260200201358154811061027d5761027d61050b565b9060005260206000209060040201600101600082825461029d9190610521565b90915550505b505092915050565b60008281527f9a70c69f78b954ec2ace8c62308c5ea2ed35f782ee583f10b56d88886fa99300602081905260408220600181015461032b5760405162461bcd60e51b815260206004820152601a60248201527f4e6f20636d647320666f7220746869732070726f706f73616c2e00000000000060448201526064016100ee565b600181018054853591906000906103445761034461050b565b9060005260206000209060030201600001540361039a576003600182018560005b60200201358154811061037a5761037a61050b565b906000526020600020906003020160020160008282546101609190610521565b600180820180548635929081106103b3576103b361050b565b9060005260206000209060030201600001540361041a576001810180546003919086359081106103e5576103e561050b565b906000526020600020906003020160020160008282546104059190610521565b90915550600290506001808301908690610365565b6001810180546003919086359081106104355761043561050b565b906000526020600020906003020160020160008282546104559190610521565b90915550506001810180546002919060208701359081106104785761047861050b565b906000526020600020906003020160020160008282546104989190610521565b90915550506001818101805460408701359081106104b8576104b861050b565b9060005260206000209060030201600201600082825461029d9190610521565b600080608083850312156104eb57600080fd5b82359150836080840111156104ff57600080fd5b50926020919091019150565b634e487b7160e01b600052603260045260246000fd5b8082018082111561054257634e487b7160e01b600052601160045260246000fd5b9291505056fea2646970667358221220a8b30341a0de222caff8c123a3aee3479957d05b942270d4687e918dc0de881764736f6c63430008180033",
        "nonce": "0x1d",
        "chainId": "0xaa36a7"
      },
      "additionalContracts": [],
      "isFixedGasLimit": false
    },
    {
      "hash": "0x65b297a6c792019f107e242e49c3bbe266528703bafe34b30d3ed57552944ad8",
      "transactionType": "CREATE",
      "contractName": "Clone",
      "contractAddress": "0x6a2a2d6d65b803019a6bcb778b8dbe9733ead584",
      "function": null,
      "arguments": null,
      "transaction": {
        "from": "0xff9179199903a10283e19d86de8c09f2718073da",
        "gas": "0xa2aa0",
        "value": "0x0",
        "input": "0x608060405234801561001057600080fd5b50610850806100206000396000f3fe608060405234801561001057600080fd5b506004361061002b5760003560e01c80638ca89f7714610030575b600080fd5b61004361003e366004610169565b61005f565b6040516001600160a01b03909116815260200160405180910390f35b60006100d16100957f267691be3525af8a813d30db0c9e2bad08f63baecf6dceb85e2cf3676cff56f4546001600160a01b031690565b84848080601f0160208091040260200160405190810160405280939291908181526020018383808284376000920191909152506100d892505050565b9392505050565b600082826040516100e89061015c565b6100f39291906101db565b604051809103906000f08015801561010f573d6000803e3d6000fd5b50604080516001600160a01b038087168252831660208201529192507f9678a1e87ca9f1a37dc659a97b39d812d98cd236947e1b53b3d0d6fd346acb6e910160405180910390a192915050565b6105e08061023b83390190565b6000806020838503121561017c57600080fd5b823567ffffffffffffffff8082111561019457600080fd5b818501915085601f8301126101a857600080fd5b8135818111156101b757600080fd5b8660208285010111156101c957600080fd5b60209290920196919550909350505050565b60018060a01b03831681526000602060406020840152835180604085015260005b81811015610218578581018301518582016060015282016101fc565b506000606082860101526060601f19601f83011685010192505050939250505056fe60806040526040516105e03803806105e08339810160408190526100229161034b565b61002c828261003c565b6100358261011c565b5050610479565b61004582610160565b6040516001600160a01b03831681527fa657f2ad315cf3bb35cf1964158da75c3f334481df05a4a1644b2376b17a59b29060200160405180910390a18051156101105761010b6001600160a01b03831663dc9cc6456100a38461040b565b6040516001600160e01b031960e084901b81168252919091166004820152602401602060405180830381865afa1580156100e1573d6000803e3d6000fd5b505050506040513d601f19601f820116820180604052508101906101059190610442565b826101d5565b505050565b61011861024c565b5050565b807fa3f0ad74e5423aebfd80d3ef4346578335a9a72aeaee59ff6cb3582b35133d505b80546001600160a01b0319166001600160a01b039290921691909117905550565b806001600160a01b03163b6000036101ae5760405162461bcd60e51b815260206004820152600c60248201526b1393d397d0d3d395149050d560a21b60448201526064015b60405180910390fd5b807f267691be3525af8a813d30db0c9e2bad08f63baecf6dceb85e2cf3676cff56f461013f565b6060600080846001600160a01b0316846040516101f2919061045d565b600060405180830381855af49150503d806000811461022d576040519150601f19603f3d011682016040523d82523d6000602084013e610232565b606091505b50909250905061024385838361026d565b95945050505050565b341561026b5760405163b398979f60e01b815260040160405180910390fd5b565b6060826102825761027d826102cc565b6102c5565b815115801561029957506001600160a01b0384163b155b156102c257604051639996b31560e01b81526001600160a01b03851660048201526024016101a5565b50805b9392505050565b8051156102dc5780518082602001fd5b604051630a12f52160e11b815260040160405180910390fd5b80516001600160a01b038116811461030c57600080fd5b919050565b634e487b7160e01b600052604160045260246000fd5b60005b8381101561034257818101518382015260200161032a565b50506000910152565b6000806040838503121561035e57600080fd5b610367836102f5565b60208401519092506001600160401b038082111561038457600080fd5b818501915085601f83011261039857600080fd5b8151818111156103aa576103aa610311565b604051601f8201601f19908116603f011681019083821181831017156103d2576103d2610311565b816040528281528860208487010111156103eb57600080fd5b6103fc836020830160208801610327565b80955050505050509250929050565b805160208201516001600160e01b0319808216929190600483101561043a5780818460040360031b1b83161693505b505050919050565b60006020828403121561045457600080fd5b6102c5826102f5565b6000825161046f818460208701610327565b9190910192915050565b610158806104886000396000f3fe608060405261000c61000e565b005b61001e610019610020565b6100ce565b565b60006100537f267691be3525af8a813d30db0c9e2bad08f63baecf6dceb85e2cf3676cff56f4546001600160a01b031690565b60405163dc9cc64560e01b81526001600160e01b03196000351660048201526001600160a01b03919091169063dc9cc64590602401602060405180830381865afa1580156100a5573d6000803e3d6000fd5b505050506040513d601f19601f820116820180604052508101906100c991906100f2565b905090565b3660008037600080366000845af43d6000803e8080156100ed573d6000f35b3d6000fd5b60006020828403121561010457600080fd5b81516001600160a01b038116811461011b57600080fd5b939250505056fea2646970667358221220f44044b674b308a15d84dba03eab56a40e3d7e234997a20752299961fc174eae64736f6c63430008180033a26469706673582212209c46635e9acd83e55c4e0fa90bc23f746504b01323667b54808d9d415d90daf664736f6c63430008180033",
        "nonce": "0x1e",
        "chainId": "0xaa36a7"
      },
      "additionalContracts": [],
      "isFixedGasLimit": false
    },
    {
      "hash": "0xa4509df7ccf6f348a983c8c980cd478b2f2e1cbfc565d8a69488a66179c53b32",
      "transactionType": "CREATE",
      "contractName": "Initialize",
      "contractAddress": "0x3b22c377f244b89a7ada634b34eb428fe6f053d5",
      "function": null,
      "arguments": null,
      "transaction": {
        "from": "0xff9179199903a10283e19d86de8c09f2718073da",
        "gas": "0x50cc4",
        "value": "0x0",
        "input": "0x608060405234801561001057600080fd5b506103a4806100206000396000f3fe608060405234801561001057600080fd5b506004361061002b5760003560e01c8063dc1ec0e514610030575b600080fd5b61004361003e36600461026f565b610057565b604051901515815260200160405180910390f35b7f2909c0a05d58f8b7f14a4ef9b6dfbc139611bb545981c04988c895be90f35001546000907f2909c0a05d58f8b7f14a4ef9b6dfbc139611bb545981c04988c895be90f3500090156100ef5760405162461bcd60e51b815260206004820152601f60248201527f496e697469616c697a653a20616c726561647920696e697469616c697a656400604482015260640160405180910390fd5b82357f9a70c69f78b954ec2ace8c62308c5ea2ed35f782ee583f10b56d88886fa9930290815560208401357f9a70c69f78b954ec2ace8c62308c5ea2ed35f782ee583f10b56d88886fa993035560408401357f9a70c69f78b954ec2ace8c62308c5ea2ed35f782ee583f10b56d88886fa993045560608401357f9a70c69f78b954ec2ace8c62308c5ea2ed35f782ee583f10b56d88886fa99305557f2909c0a05d58f8b7f14a4ef9b6dfbc139611bb545981c04988c895be90f35001547f2909c0a05d58f8b7f14a4ef9b6dfbc139611bb545981c04988c895be90f35000919060005b8781101561025e5760008281526020859052604090208290558888828181106101fd576101fd610301565b90506020020160208101906102129190610317565b60008381526020869052604081206001810180546001600160a01b0319166001600160a01b0394909416939093179092556002909101558161025381610347565b9250506001016101d2565b506001928301555095945050505050565b600080600083850360a081121561028557600080fd5b843567ffffffffffffffff8082111561029d57600080fd5b818701915087601f8301126102b157600080fd5b8135818111156102c057600080fd5b8860208260051b85010111156102d557600080fd5b6020929092019550909350506080601f19820112156102f357600080fd5b506020840190509250925092565b634e487b7160e01b600052603260045260246000fd5b60006020828403121561032957600080fd5b81356001600160a01b038116811461034057600080fd5b9392505050565b60006001820161036757634e487b7160e01b600052601160045260246000fd5b506001019056fea2646970667358221220a7e878fbc7fc7ec1751cb906c387285f026dc719decad91bfce48d04f5e9f1c764736f6c63430008180033",
        "nonce": "0x1f",
        "chainId": "0xaa36a7"
      },
      "additionalContracts": [],
      "isFixedGasLimit": false
    },
    {
      "hash": "0xaab42de77bb9cd0364d2f8686efc1669534a775291b470d1c3ea931939e875b7",
      "transactionType": "CREATE",
      "contractName": "Propose",
      "contractAddress": "0x71c911d96b8a77f00b89efb5a3ccced0d787665c",
      "function": null,
      "arguments": null,
      "transaction": {
        "from": "0xff9179199903a10283e19d86de8c09f2718073da",
        "gas": "0x131cc2",
        "value": "0x0",
        "input": "0x608060405234801561001057600080fd5b50611079806100206000396000f3fe608060405234801561001057600080fd5b50600436106100365760003560e01c806338ba46141461003b5780639f46786e14610063575b600080fd5b61004e61004936600461095d565b610084565b60405190151581526020015b60405180910390f35b610076610071366004610a27565b6101cc565b60405190815260200161005a565b60008281527fe4fa6871814422bfe1d10a118a3483c970f3cc6a461f81c9d5701005cfdaf40060208181526040808420600181015485527f9a70c69f78b954ec2ace8c62308c5ea2ed35f782ee583f10b56d88886fa99300928390529084209091907f2909c0a05d58f8b7f14a4ef9b6dfbc139611bb545981c04988c895be90f3500086865b81518110156101bf576000836001015483838151811061012c5761012c610a69565b602002602001015161013e9190610a7f565b60008181526020869052604090206001015460098701546008880180549394506001600160a01b0390921692811061017857610178610a69565b6000918252602082200180546001600160a01b0319166001600160a01b039390931692909217909155600986018054916101b183610ab7565b90915550505060010161010a565b5050505050505092915050565b60007f2909c0a05d58f8b7f14a4ef9b6dfbc139611bb545981c04988c895be90f3500081805b826001015481101561022d576000818152602084905260409020600101546001600160a01b03163314806102235750815b91506001016101f2565b50806102805760405162461bcd60e51b815260206004820152601760248201527f596f7520617265206e6f7420746865206d656d6265722e00000000000000000060448201526064015b60405180910390fd5b7f9a70c69f78b954ec2ace8c62308c5ea2ed35f782ee583f10b56d88886fa993015460008181527f9a70c69f78b954ec2ace8c62308c5ea2ed35f782ee583f10b56d88886fa99300602081905260409091207f2909c0a05d58f8b7f14a4ef9b6dfbc139611bb545981c04988c895be90f35001547f9a70c69f78b954ec2ace8c62308c5ea2ed35f782ee583f10b56d88886fa9930454939650919290917fe4fa6871814422bfe1d10a118a3483c970f3cc6a461f81c9d5701005cfdaf400917f2909c0a05d58f8b7f14a4ef9b6dfbc139611bb545981c04988c895be90f3500091111561087f57600282015467ffffffffffffffff1661040e5760405162461bcd60e51b815260206004820152605860248201527f4e6f20436861696e6c696e6b2056524620737562736372697074696f6e2e205460448201527f727920536574436f6e6669677350726f7465637465643a3a637265617465416e60648201527f6446756e64537562736372697074696f6e2066697273742e0000000000000000608482015260a401610277565b60038201546001600160a01b03166104a05760405162461bcd60e51b815260206004820152604960248201527f4e6f20436861696e6c696e6b2056524620767266436f6f7264696e61746f722e60448201527f205472792053657456524650726f7465637465643a3a736574565246436f6e6660648201526834b3903334b939ba1760b91b608482015260a401610277565b60048201546000036105295760405162461bcd60e51b815260206004820152604660248201527f4e6f20436861696e6c696e6b20565246206b6579486173682e2054727920536560448201527f74436f6e6669677350726f7465637465643a3a736574565246436f6e666967206064820152653334b939ba1760d11b608482015260a401610277565b600582015463ffffffff166000036105c15760405162461bcd60e51b815260206004820152604f60248201527f4e6f20436861696e6c696e6b205652462063616c6c6261636b4761734c696d6960448201527f742e2054727920536574436f6e6669677350726f7465637465643a3a7365745660648201526e292321b7b73334b3903334b939ba1760891b608482015260a401610277565b6005820154640100000000900461ffff166000036106635760405162461bcd60e51b815260206004820152605360248201527f4e6f20436861696e6c696e6b205652462072657175657374436f6e6669726d6160448201527f74696f6e732e2054727920536574436f6e6669677350726f7465637465643a3a60648201527239b2ba2b292321b7b73334b3903334b939ba1760691b608482015260a401610277565b60058201546601000000000000900463ffffffff166000036106fd5760405162461bcd60e51b815260206004820152604760248201527f4e6f20436861696e6c696e6b20565246206e756d576f7264732e20547279205360448201527f6574436f6e6669677350726f7465637465643a3a736574565246436f6e666967606482015266103334b939ba1760c91b608482015260a401610277565b6005820154600160501b90046001600160a01b03166107845760405162461bcd60e51b815260206004820152603f60248201527f4e6f20436861696e6c696e6b20565246204c494e4b544f4b454e2e205472792060448201527f536574436f6e666967733a3a736574565246436f6e6669672066697273742e006064820152608401610277565b6003820154600480840154600285015460058601546040516305d3b1d360e41b81529384019290925267ffffffffffffffff166024830152640100000000810461ffff16604483015263ffffffff808216606484015266010000000000009091041660848201526000916001600160a01b031690635d3b1d309060a4016020604051808303816000875af1158015610820573d6000803e3d6000fd5b505050506040513d601f19601f820116820180604052508101906108449190610ad0565b600180850180546000908152602087905260408082208590558254825281209092018b905580549293509061087883610ab7565b9190505550505b600061088b8980610ae9565b50602011156108c4578261089f8980610ae9565b8154600181018355600092835260209092209091600402016108c18282610b73565b50505b60006108d360208a018a610c20565b6108e1906020810190610b09565b9050111561091f57600183016108fa60208a018a610c20565b81546001810183556000928352602090922090916003020161091c8282610f05565b50505b42600a84015560018401805490600061093783610ab7565b9190505550505050505050919050565b634e487b7160e01b600052604160045260246000fd5b6000806040838503121561097057600080fd5b8235915060208084013567ffffffffffffffff8082111561099057600080fd5b818601915086601f8301126109a457600080fd5b8135818111156109b6576109b6610947565b8060051b604051601f19603f830116810181811085821117156109db576109db610947565b6040529182528482019250838101850191898311156109f957600080fd5b938501935b82851015610a17578435845293850193928501926109fe565b8096505050505050509250929050565b600060208284031215610a3957600080fd5b813567ffffffffffffffff811115610a5057600080fd5b820160608185031215610a6257600080fd5b9392505050565b634e487b7160e01b600052603260045260246000fd5b600082610a9c57634e487b7160e01b600052601260045260246000fd5b500690565b634e487b7160e01b600052601160045260246000fd5b600060018201610ac957610ac9610aa1565b5060010190565b600060208284031215610ae257600080fd5b5051919050565b60008235607e19833603018112610aff57600080fd5b9190910192915050565b6000808335601e19843603018112610b2057600080fd5b83018035915067ffffffffffffffff821115610b3b57600080fd5b6020019150600581901b3603821315610b5357600080fd5b9250929050565b5b81811015610b6f5760008155600101610b5b565b5050565b81358155600160208084013560018401556040840135600284015560038301610b9f6060860186610b09565b67ffffffffffffffff811115610bb757610bb7610947565b600160401b811115610bcb57610bcb610947565b825481845580821015610bf157836000526020600020610bef828201848301610b5a565b505b50600092835260208320925b81811015610c1657823584820155918401918501610bfd565b5050505050505050565b60008235605e19833603018112610aff57600080fd5b60008235603e19833603018112610aff57600080fd5b600181811c90821680610c6057607f821691505b602082108103610c8057634e487b7160e01b600052602260045260246000fd5b50919050565b610c908154610c4c565b8015610b6f57601f811160018114610caa57505060009055565b826000526020600020610cc8601f840160051c820160018301610b5a565b600080855590555b505050565b6000808335601e19843603018112610cec57600080fd5b83018035915067ffffffffffffffff821115610d0757600080fd5b602001915036819003821315610b5357600080fd5b601f821115610cd057806000526020600020601f840160051c81016020851015610d435750805b610d55601f850160051c830182610b5a565b5050505050565b67ffffffffffffffff831115610d7457610d74610947565b610d8883610d828354610c4c565b83610d1c565b6000601f841160018114610dbc5760008515610da45750838201355b600019600387901b1c1916600186901b178355610d55565b600083815260209020601f19861690835b82811015610ded5786850135825560209485019460019092019101610dcd565b5086821015610e0a5760001960f88860031b161c19848701351681555b505060018560011b0183555050505050565b610e268283610cd5565b67ffffffffffffffff811115610e3e57610e3e610947565b610e5281610e4c8554610c4c565b85610d1c565b6000601f821160018114610e865760008315610e6e5750838201355b600019600385901b1c1916600184901b178555610ee0565b600085815260209020601f19841690835b82811015610eb75786850135825560209485019460019092019101610e97565b5084821015610ed45760001960f88660031b161c19848701351681555b505060018360011b0185555b50505050610ef16020830183610cd5565b610eff818360018601610d5c565b50505050565b8135815560018082016020610f1d6020860186610b09565b600160401b811115610f3157610f31610947565b835481855580821015610ff3576001600160ff1b038181168214610f5757610f57610aa1565b8083168314610f6857610f68610aa1565b5060008581526020812083881b81019083891b015b80821015610fef57610f8f8254610c4c565b8015610fd857601f80821160018114610faa57858555610fd5565b600085815260209020610fc683850160051c82018e8301610b5a565b50600085815260208120818755555b50505b50610fe4898301610c86565b600282019150610f7d565b5050505b506000938452602084209382905b8281101561102e5761101c6110168386610c36565b87610e1c565b60029590950194908401908601611001565b5050505050505060408201356002820155505056fea26469706673582212201faadf5e5241e3eb123999503a1faa662144ad663109c66925da931d5129b24564736f6c63430008180033",
        "nonce": "0x20",
        "chainId": "0xaa36a7"
      },
      "additionalContracts": [],
      "isFixedGasLimit": false
    },
    {
      "hash": "0xb5c4ff15c322682b4ea7acc56bbf8b9b12ba08d355dacc587a61b41925b1e50d",
      "transactionType": "CREATE",
      "contractName": "Fork",
      "contractAddress": "0xcea57919682002dfe4d5aa8154f772ad1beba530",
      "function": null,
      "arguments": null,
      "transaction": {
        "from": "0xff9179199903a10283e19d86de8c09f2718073da",
        "gas": "0x9f138",
        "value": "0x0",
        "input": "0x608060405234801561001057600080fd5b5061081b806100206000396000f3fe608060405234801561001057600080fd5b506004361061002b5760003560e01c8063603d9eb714610030575b600080fd5b61004361003e3660046101fb565b610055565b60405190815260200160405180910390f35b60008281527f9a70c69f78b954ec2ace8c62308c5ea2ed35f782ee583f10b56d88886fa9930060208190526040822084919083805b60088301548110156100d757600883018054339190839081106100af576100af610249565b6000918252602090912001546001600160a01b031614806100cd5750815b915060010161008a565b50806101205760405162461bcd60e51b81526020600482015260146024820152732cb7ba9030b932903737ba103a3432903932b81760611b604482015260640160405180910390fd5b60008781527f9a70c69f78b954ec2ace8c62308c5ea2ed35f782ee583f10b56d88886fa99300602081905260408220909161015b898061025f565b5060201115610194578061016f898061025f565b815460018101835560009283526020909220909160040201610191828261032f565b50505b60006101a360208a018a6103dc565b6101b190602081019061027f565b905011156101ef57600181016101ca60208a018a6103dc565b8154600181018355600092835260209092209091600302016101ec82826106c1565b50505b50505050505092915050565b6000806040838503121561020e57600080fd5b82359150602083013567ffffffffffffffff81111561022c57600080fd5b83016060818603121561023e57600080fd5b809150509250929050565b634e487b7160e01b600052603260045260246000fd5b60008235607e1983360301811261027557600080fd5b9190910192915050565b6000808335601e1984360301811261029657600080fd5b83018035915067ffffffffffffffff8211156102b157600080fd5b6020019150600581901b36038213156102c957600080fd5b9250929050565b634e487b7160e01b600052604160045260246000fd5b600181901b6001600160ff1b038216821461031157634e487b7160e01b600052601160045260246000fd5b919050565b5b8181101561032b5760008155600101610317565b5050565b8135815560016020808401356001840155604084013560028401556003830161035b606086018661027f565b67ffffffffffffffff811115610373576103736102d0565b600160401b811115610387576103876102d0565b8254818455808210156103ad578360005260206000206103ab828201848301610316565b505b50600092835260208320925b818110156103d2578235848201559184019185016103b9565b5050505050505050565b60008235605e1983360301811261027557600080fd5b60008235603e1983360301811261027557600080fd5b600181811c9082168061041c57607f821691505b60208210810361043c57634e487b7160e01b600052602260045260246000fd5b50919050565b61044c8154610408565b801561032b57601f81116001811461046657505060009055565b826000526020600020610484601f840160051c820160018301610316565b600080855590555b505050565b6000808335601e198436030181126104a857600080fd5b83018035915067ffffffffffffffff8211156104c357600080fd5b6020019150368190038213156102c957600080fd5b601f82111561048c57806000526020600020601f840160051c810160208510156104ff5750805b610511601f850160051c830182610316565b5050505050565b67ffffffffffffffff831115610530576105306102d0565b6105448361053e8354610408565b836104d8565b6000601f84116001811461057857600085156105605750838201355b600019600387901b1c1916600186901b178355610511565b600083815260209020601f19861690835b828110156105a95786850135825560209485019460019092019101610589565b50868210156105c65760001960f88860031b161c19848701351681555b505060018560011b0183555050505050565b6105e28283610491565b67ffffffffffffffff8111156105fa576105fa6102d0565b61060e816106088554610408565b856104d8565b6000601f821160018114610642576000831561062a5750838201355b600019600385901b1c1916600184901b17855561069c565b600085815260209020601f19841690835b828110156106735786850135825560209485019460019092019101610653565b50848210156106905760001960f88660031b161c19848701351681555b505060018360011b0185555b505050506106ad6020830183610491565b6106bb818360018601610518565b50505050565b81358155600180820160206106d9602086018661027f565b600160401b8111156106ed576106ed6102d0565b83548185558082101561079557610703816102e6565b61070c836102e6565b6000878152602081209283019291909101905b82821015610791576107318254610408565b801561077a57601f8082116001811461074c57838555610777565b60008581526020902061076883850160051c82018e8301610316565b50600085815260208120818755555b50505b50610786898301610442565b60028201915061071f565b5050505b506000938452602084209382905b828110156107d0576107be6107b883866103f2565b876105d8565b600295909501949084019086016107a3565b5050505050505060408201356002820155505056fea2646970667358221220c2e6d2fa7e10d2ac75ebc786edb8b519bd0c2bdbc873405b5345b6e2a1b7f80264736f6c63430008180033",
        "nonce": "0x21",
        "chainId": "0xaa36a7"
      },
      "additionalContracts": [],
      "isFixedGasLimit": false
    },
    {
      "hash": "0xcf22b8e2ef18a3305926b6a7f2a8590d61173f179ee4e989ad02953f0a89e56b",
      "transactionType": "CREATE",
      "contractName": "Tally",
      "contractAddress": "0xd5a3ff0fcd55a95234bf37c2dc9bbda9ae908a6e",
      "function": null,
      "arguments": null,
      "transaction": {
        "from": "0xff9179199903a10283e19d86de8c09f2718073da",
        "gas": "0x1cede0",
        "value": "0x0",
        "input": "0x608060405234801561001057600080fd5b5061196c806100206000396000f3fe608060405234801561001057600080fd5b506004361061002b5760003560e01c8063ed8b6b3114610030575b600080fd5b61004361003e366004611748565b610057565b604051901515815260200160405180910390f35b60008181527f9a70c69f78b954ec2ace8c62308c5ea2ed35f782ee583f10b56d88886fa993006020819052604082207f9a70c69f78b954ec2ace8c62308c5ea2ed35f782ee583f10b56d88886fa9930354849291906100fd5760405162461bcd60e51b815260206004820152601d60248201527f5365742074616c6c7920696e74657276616c20617420636f6e6669672e00000060448201526064015b60405180910390fd5b600382015460028201906000906101149042611777565b815260208101919091526040016000205460ff161561017f5760405162461bcd60e51b815260206004820152602160248201527f5468697320696e74657276616c20697320616c72656164792074616c6c6965646044820152601760f91b60648201526084016100f4565b60008581527f9a70c69f78b954ec2ace8c62308c5ea2ed35f782ee583f10b56d88886fa993006020819052604090912080600181017f147a311fe1db87247fe76cc1e6db3134e5d52a59e0824f018dad572e05b140006101dd611607565b6002860154600a86015442916101f291611799565b116102775760405162461bcd60e51b815260206004820152604960248201527f546869732070726f706f73616c20686173206265656e20657870697265642e2060448201527f596f752063616e6e6f742072756e206e65772074616c6c7920746f20757064616064820152683a32903930b735b99760b91b608482015260a4016100f4565b835467ffffffffffffffff811115610291576102916117ac565b6040519080825280602002602001820160405280156102ba578160200160208202803683370190505b50815283546040805160208084028201810190925282815261039792909187919060009084015b8282101561038957838290600052602060002090600402016040518060800160405290816000820154815260200160018201548152602001600282015481526020016003820180548060200260200160405190810160405280929190818152602001828054801561037157602002820191906000526020600020905b81548152602001906001019080831161035d575b505050505081525050815260200190600101906102e1565b505050506006870154611209565b8152825467ffffffffffffffff8111156103b3576103b36117ac565b6040519080825280602002602001820160405280156103dc578160200160208202803683370190505b5081602001819052506105e083805480602002602001604051908101604052809291908181526020016000905b828210156105d257838290600052602060002090600302016040518060600160405290816000820154815260200160018201805480602002602001604051908101604052809291908181526020016000905b828210156105b1578382906000526020600020906002020160405180604001604052908160008201805461048e906117c2565b80601f01602080910402602001604051908101604052809291908181526020018280546104ba906117c2565b80156105075780601f106104dc57610100808354040283529160200191610507565b820191906000526020600020905b8154815290600101906020018083116104ea57829003601f168201915b50505050508152602001600182018054610520906117c2565b80601f016020809104026020016040519081016040528092919081815260200182805461054c906117c2565b80156105995780601f1061056e57610100808354040283529160200191610599565b820191906000526020600020905b81548152906001019060200180831161057c57829003601f168201915b5050505050815250508152602001906001019061045b565b50505050815260200160028201548152505081526020019060010190610409565b505050506007870154611425565b602082015280518051600091869183906105fc576105fc6117fc565b602002602001015181548110610614576106146117fc565b90600052602060002090600402016001015490506000876002016003015482101590506000858460200151600081518110610651576106516117fc565b602002602001015181548110610669576106696117fc565b90600052602060002090600302019050600081600201549050816001018054905067ffffffffffffffff8111156106a2576106a26117ac565b6040519080825280602002602001820160405280156106cb578160200160208202803683370190505b50604086015260005b60018301548110156108755760008360010182815481106106f7576106f76117fc565b9060005260206000209060020201905060008860000160006107aa846000018054610721906117c2565b80601f016020809104026020016040519081016040528092919081815260200182805461074d906117c2565b801561079a5780601f1061076f5761010080835404028352916020019161079a565b820191906000526020600020905b81548152906001019060200180831161077d57829003601f168201915b5050505050805160209091012090565b6001600160e01b0319168152602081019190915260400160002054905080156107fc5780841015886040015184815181106107e7576107e76117fc565b9115156020928302919091019091015261082e565b8c600201600301548410158860400151848151811061081d5761081d6117fc565b911515602092830291909101909101525b87604001518381518110610844576108446117fc565b60200260200101511561085d576001606089015261086b565b505060006060870152610875565b50506001016106d4565b5060048901546000036108b657604080516003808252608082019092529060208201606080368337505081516108b49260048d0192506020019061165a565b505b821561098857845180516000906108cf576108cf6117fc565b6020026020010151896003016001016000815481106108f0576108f06117fc565b600091825260209091200155845180516001908110610911576109116117fc565b602002602001015189600301600101600181548110610932576109326117fc565b600091825260209091200155845180516002908110610953576109536117fc565b602002602001015189600301600101600281548110610974576109746117fc565b600091825260209091200155875460068a01555b60058901546000036109c857604080516003808252608082019092529060208201606080368337505081516109c69260058d0192506020019061165a565b505b846060015115610aaa5784602001516000815181106109e9576109e96117fc565b602002602001015189600301600201600081548110610a0a57610a0a6117fc565b90600052602060002001819055508460200151600181518110610a2f57610a2f6117fc565b602002602001015189600301600201600181548110610a5057610a506117fc565b90600052602060002001819055508460200151600281518110610a7557610a756117fc565b602002602001015189600301600201600281548110610a9657610a966117fc565b600091825260209091200155865460078a01555b60005b6003811015610dd25760048a01805482908110610acc57610acc6117fc565b60009182526020909120015460c087015260058a01805482908110610af357610af36117fc565b60009182526020909120015460e0870152895460c08701511015610bd557896000018660c0015181548110610b2a57610b2a6117fc565b906000526020600020906004020160405180608001604052908160008201548152602001600182015481526020016002820154815260200160038201805480602002602001604051908101604052809291908181526020018280548015610bb057602002820191906000526020600020905b815481526020019060010190808311610b9c575b50505050508152505086608001518260038110610bcf57610bcf6117fc565b60200201525b60018a015460e08701511015610dca57896001018660e0015181548110610bfe57610bfe6117fc565b90600052602060002090600302016040518060600160405290816000820154815260200160018201805480602002602001604051908101604052809291908181526020016000905b82821015610d9c5783829060005260206000209060020201604051806040016040529081600082018054610c79906117c2565b80601f0160208091040260200160405190810160405280929190818152602001828054610ca5906117c2565b8015610cf25780601f10610cc757610100808354040283529160200191610cf2565b820191906000526020600020905b815481529060010190602001808311610cd557829003601f168201915b50505050508152602001600182018054610d0b906117c2565b80601f0160208091040260200160405190810160405280929190818152602001828054610d37906117c2565b8015610d845780601f10610d5957610100808354040283529160200191610d84565b820191906000526020600020905b815481529060010190602001808311610d6757829003601f168201915b50505050508152505081526020019060010190610c46565b5050505081526020016002820154815250508660a001518260038110610dc457610dc46117fc565b60200201525b600101610aad565b5060005b600381101561116a5785608001518160038110610df557610df56117fc565b60200201515160c08701518b548c91908110610e1357610e136117fc565b600091825260209091206004909102015560808601518160038110610e3a57610e3a6117fc565b6020020151602001518a6000018760c0015181548110610e5c57610e5c6117fc565b90600052602060002090600402016001018190555085608001518160038110610e8757610e876117fc565b6020020151604001518a6000018760c0015181548110610ea957610ea96117fc565b90600052602060002090600402016002018190555060005b86608001518260038110610ed757610ed76117fc565b60200201516060015151811015610f6f5786608001518260038110610efe57610efe6117fc565b6020020151606001518181518110610f1857610f186117fc565b60200260200101518b6000018860c0015181548110610f3957610f396117fc565b90600052602060002090600402016003018281548110610f5b57610f5b6117fc565b600091825260209091200155600101610ec1565b508560a001518160038110610f8657610f866117fc565b6020020151600001518a6001018760e0015181548110610fa857610fa86117fc565b600091825260208220600390910201919091555b8660a001518260038110610fd257610fd26117fc565b60200201516020015151811015611115578660a001518260038110610ff957610ff96117fc565b6020020151602001518181518110611013576110136117fc565b6020026020010151600001518b6001018860e0015181548110611038576110386117fc565b9060005260206000209060030201600101828154811061105a5761105a6117fc565b906000526020600020906002020160000190816110779190611863565b508660a00151826003811061108e5761108e6117fc565b60200201516020015181815181106110a8576110a86117fc565b6020026020010151602001518b6001018860e00151815481106110cd576110cd6117fc565b906000526020600020906003020160010182815481106110ef576110ef6117fc565b9060005260206000209060020201600101908161110c9190611863565b50600101610fbc565b508560a00151816003811061112c5761112c6117fc565b6020020151604001518a6001018760e001518154811061114e5761114e6117fc565b6000918252602090912060026003909202010155600101610dd6565b5060038a01546111bc5760405162461bcd60e51b815260206004820152601d60248201527f5365742074616c6c7920696e74657276616c20617420636f6e6669672e00000060448201526064016100f4565b60018960020160008c60020160010154426111d79190611777565b81526020810191909152604001600020805460ff1916911515919091179055509b9d9c50505050505050505050505050565b815160609080831061124a5760005b604051908082528060200260200182016040528015611241578160200160208202803683370190505b5091505061141f565b60006112568483611923565b905060008167ffffffffffffffff811115611273576112736117ac565b60405190808252806020026020018201604052801561129c578160200160208202803683370190505b50905060005b828110156112d9576112b48682611799565b8282815181106112c6576112c66117fc565b60209081029190910101526001016112a2565b5060005b828110156114195760005b60016112f48386611923565b6112fe9190611923565b811015611410578783611312836001611799565b81518110611322576113226117fc565b60200260200101518151811061133a5761133a6117fc565b60200260200101516020015188848381518110611359576113596117fc565b602002602001015181518110611371576113716117fc565b6020026020010151602001511015611408578261138f826001611799565b8151811061139f5761139f6117fc565b60200260200101518382815181106113b9576113b96117fc565b60200260200101518483815181106113d3576113d36117fc565b60200260200101858460016113e89190611799565b815181106113f8576113f86117fc565b6020908102919091010191909152525b6001016112e8565b506001016112dd565b50925050505b92915050565b8151606090808310611438576000611218565b60006114448483611923565b905060008167ffffffffffffffff811115611461576114616117ac565b60405190808252806020026020018201604052801561148a578160200160208202803683370190505b50905060005b828110156114c7576114a28682611799565b8282815181106114b4576114b46117fc565b6020908102919091010152600101611490565b5060005b828110156114195760005b60016114e28386611923565b6114ec9190611923565b8110156115fe578783611500836001611799565b81518110611510576115106117fc565b602002602001015181518110611528576115286117fc565b60200260200101516040015188848381518110611547576115476117fc565b60200260200101518151811061155f5761155f6117fc565b60200260200101516040015110156115f6578261157d826001611799565b8151811061158d5761158d6117fc565b60200260200101518382815181106115a7576115a76117fc565b60200260200101518483815181106115c1576115c16117fc565b60200260200101858460016115d69190611799565b815181106115e6576115e66117fc565b6020908102919091010191909152525b6001016114d6565b506001016114cb565b6040518061010001604052806060815260200160608152602001606081526020016000151581526020016116396116a5565b81526020016116466116ea565b815260200160008152602001600081525090565b828054828255906000526020600020908101928215611695579160200282015b8281111561169557825182559160200191906001019061167a565b506116a1929150611733565b5090565b60405180606001604052806003905b60408051608081018252600080825260208083018290529282015260608082015282526000199092019101816116b45790505090565b60405180606001604052806003905b61171d60405180606001604052806000815260200160608152602001600081525090565b8152602001906001900390816116f95790505090565b5b808211156116a15760008155600101611734565b60006020828403121561175a57600080fd5b5035919050565b634e487b7160e01b600052601160045260246000fd5b60008261179457634e487b7160e01b600052601260045260246000fd5b500490565b8082018082111561141f5761141f611761565b634e487b7160e01b600052604160045260246000fd5b600181811c908216806117d657607f821691505b6020821081036117f657634e487b7160e01b600052602260045260246000fd5b50919050565b634e487b7160e01b600052603260045260246000fd5b601f82111561185e576000816000526020600020601f850160051c8101602086101561183b5750805b601f850160051c820191505b8181101561185a57828155600101611847565b5050505b505050565b815167ffffffffffffffff81111561187d5761187d6117ac565b6118918161188b84546117c2565b84611812565b602080601f8311600181146118c657600084156118ae5750858301515b600019600386901b1c1916600185901b17855561185a565b600085815260208120601f198616915b828110156118f5578886015182559484019460019091019084016118d6565b50858210156119135787850151600019600388901b60f8161c191681555b5050505050600190811b01905550565b8181038181111561141f5761141f61176156fea26469706673582212204a3da5b8bc7699e9ecd580ed88ddb49029315c2eea361000658570648e02dbca64736f6c63430008180033",
        "nonce": "0x22",
        "chainId": "0xaa36a7"
      },
      "additionalContracts": [],
      "isFixedGasLimit": false
    },
    {
      "hash": "0xa9f8c2bc9ee51bb9fda305cf8f99690dc8ae71188b9c5fc34eca37a2f0114f0f",
      "transactionType": "CREATE",
      "contractName": "Execute",
      "contractAddress": "0x4c81223dc30759730799d94c2233797e7070b247",
      "function": null,
      "arguments": null,
      "transaction": {
        "from": "0xff9179199903a10283e19d86de8c09f2718073da",
        "gas": "0xc94be",
        "value": "0x0",
        "input": "0x608060405234801561001057600080fd5b50610a83806100206000396000f3fe608060405234801561001057600080fd5b506004361061002b5760003560e01c8063fe0d94c114610030575b600080fd5b61004361003e36600461080a565b610057565b604051901515815260200160405180910390f35b60008181527f9a70c69f78b954ec2ace8c62308c5ea2ed35f782ee583f10b56d88886fa993006020819052604082207f9a70c69f78b954ec2ace8c62308c5ea2ed35f782ee583f10b56d88886fa9930254600a82015442916100b891610823565b111561010b5760405162461bcd60e51b815260206004820152601a60248201527f50726f706f73616c206d7573742062652066696e69736865642e00000000000060448201526064015b60405180910390fd5b600181015461015c5760405162461bcd60e51b815260206004820152601960248201527f4e6f20626f647920666f726b7320746f20657865637574652e000000000000006044820152606401610102565b60058101546101b75760405162461bcd60e51b815260206004820152602160248201527f54616c6c79206d75737420626520646f6e65206174206c65617374206f6e63656044820152601760f91b6064820152608401610102565b600081600101826003016002016000815481106101d6576101d6610844565b9060005260206000200154815481106101f1576101f1610844565b9060005260206000209060030201600101905060005b815481101561042357600082828154811061022457610224610844565b906000526020600020906002020160405180604001604052908160008201805461024d9061085a565b80601f01602080910402602001604051908101604052809291908181526020018280546102799061085a565b80156102c65780601f1061029b576101008083540402835291602001916102c6565b820191906000526020600020905b8154815290600101906020018083116102a957829003601f168201915b505050505081526020016001820180546102df9061085a565b80601f016020809104026020016040519081016040528092919081815260200182805461030b9061085a565b80156103585780601f1061032d57610100808354040283529160200191610358565b820191906000526020600020905b81548152906001019060200180831161033b57829003601f168201915b5050505050815250509050600080306001600160a01b031683600001518051906020012084602001516040516020016103929291906108b8565b60408051601f19818403018152908290526103ac916108e9565b600060405180830381855af49150503d80600081146103e7576040519150601f19603f3d011682016040523d82523d6000602084013e6103ec565b606091505b509150915081610418576103ff8161042c565b60405162461bcd60e51b81526004016101029190610905565b505050600101610207565b50505050919050565b6060815160240361045457600061044283610463565b905061044d81610510565b9392505050565b61045d826106ad565b92915050565b600081516000036104b65760405162461bcd60e51b815260206004820152601f60248201527f72657665727465642077697468206e6f206572726f72206d6573736167652e006044820152606401610102565b6004825110156105085760405162461bcd60e51b815260206004820152601d60248201527f4461746120746f6f2073686f727420666f722070616e696320636f64650000006044820152606401610102565b506024015190565b60608160010361055357505060408051808201909152601881527f70616e69633a204469766973696f6e206279207a65726f2e0000000000000000602082015290565b8160110361057a5760405180606001604052806026815260200161094f6026913992915050565b816012036105a1576040518060600160405280602581526020016109d86025913992915050565b816021036105e257505060408051808201909152601f81527f70616e69633a20506f702066726f6d20616e20656d7074792061727261792e00602082015290565b81602203610609576040518060600160405280602c8152602001610a22602c913992915050565b81603103610630576040518060600160405280602581526020016109fd6025913992915050565b81603203610657576040518060600160405280602881526020016109b06028913992915050565b8160410361067e576040518060600160405280603b8152602001610975603b913992915050565b50506040805180820190915260138152722ab735b737bbb7103830b734b19031b7b2329760691b602082015290565b606081516000036107005760405162461bcd60e51b815260206004820152601f60248201527f72657665727465642077697468206e6f206572726f72206d6573736167652e006044820152606401610102565b6044825110156107525760405162461bcd60e51b815260206004820181905260248201527f4461746120746f6f2073686f727420666f722072657665727420726561736f6e6044820152606401610102565b604482015160008167ffffffffffffffff81111561077257610772610938565b6040519080825280601f01601f19166020018201604052801561079c576020820181803683370190505b50905060005b8281101561080257846107b6826044610823565b815181106107c6576107c6610844565b602001015160f81c60f81b8282815181106107e3576107e3610844565b60200101906001600160f81b031916908160001a9053506001016107a2565b509392505050565b60006020828403121561081c57600080fd5b5035919050565b8082018082111561045d57634e487b7160e01b600052601160045260246000fd5b634e487b7160e01b600052603260045260246000fd5b600181811c9082168061086e57607f821691505b60208210810361088e57634e487b7160e01b600052602260045260246000fd5b50919050565b60005b838110156108af578181015183820152602001610897565b50506000910152565b6001600160e01b03198316815281516000906108db816004850160208701610894565b919091016004019392505050565b600082516108fb818460208701610894565b9190910192915050565b6020815260008251806020840152610924816040850160208701610894565b601f01601f19169190910160400192915050565b634e487b7160e01b600052604160045260246000fdfe70616e69633a2041726974686d65746963206f7065726174696f6e20756e646572666c6f772e70616e69633a205a65726f2d696e697469616c697a6564207661726961626c65206f6620696e7465726e616c2066756e6374696f6e20747970652e70616e69633a206172726179206f75742d6f662d626f756e6473206163636573732028307833322970616e69633a2041726974686d65746963206f7065726174696f6e206f766572666c6f772e70616e69633a20416c6c6f636174696f6e206f6620746f6f206d756368206d656d6f72792e70616e69633a204172726179206f72206d656d6f727920616363657373206f7574206f6620626f756e64732ea264697066735822122038f6a241ae2b26dbdb066a0195a4660efb3be5571335ffa00028d3f9303c3e0d64736f6c63430008180033",
        "nonce": "0x23",
        "chainId": "0xaa36a7"
      },
      "additionalContracts": [],
      "isFixedGasLimit": false
    },
    {
      "hash": "0x5cad82a7cc52f091e28be6160b0a5b64c115eaa1fd0180728232469259fc5976",
      "transactionType": "CREATE",
      "contractName": "MemberJoinProtected",
      "contractAddress": "0xf9b3d493caddb5274869d1c94ef831cfda8966bf",
      "function": null,
      "arguments": null,
      "transaction": {
        "from": "0xff9179199903a10283e19d86de8c09f2718073da",
        "gas": "0x5dbd6",
        "value": "0x0",
        "input": "0x608060405234801561001057600080fd5b50610461806100206000396000f3fe608060405234801561001057600080fd5b506004361061002b5760003560e01c806306f7e36d14610030575b600080fd5b61004361003e3660046102f8565b610057565b604051901515815260200160405180910390f35b60008281527f9a70c69f78b954ec2ace8c62308c5ea2ed35f782ee583f10b56d88886fa993006020819052604082207f9a70c69f78b954ec2ace8c62308c5ea2ed35f782ee583f10b56d88886fa9930254600a8201548693929142916100bd91906103ee565b1080156100cd5750600481015415155b6101395760405162461bcd60e51b815260206004820152603360248201527f436f72726573706f6e64696e672070726f706f73616c206d75737420626520656044820152723c3834b932b21030b732103a30b63634b2b21760691b606482015260840160405180910390fd5b7f2909c0a05d58f8b7f14a4ef9b6dfbc139611bb545981c04988c895be90f3500060005b86518110156102665786818151811061017857610178610415565b60200260200101516000015182600001600083856001015461019a91906103ee565b815260208101919091526040016000205586518790829081106101bf576101bf610415565b6020026020010151602001518260000160008385600101546101e191906103ee565b815260200190815260200160002060010160006101000a8154816001600160a01b0302191690836001600160a01b0316021790555086818151811061022857610228610415565b60200260200101516040015182600001600083856001015461024a91906103ee565b815260208101919091526040016000206002015560010161015d565b508551816001015461027891906103ee565b6001909101555091949350505050565b634e487b7160e01b600052604160045260246000fd5b6040516060810167ffffffffffffffff811182821017156102c1576102c1610288565b60405290565b604051601f8201601f1916810167ffffffffffffffff811182821017156102f0576102f0610288565b604052919050565b600080604080848603121561030c57600080fd5b8335925060208085013567ffffffffffffffff8082111561032c57600080fd5b818701915087601f83011261034057600080fd5b81358181111561035257610352610288565b610360848260051b016102c7565b8181528481019250606091820284018501918a83111561037f57600080fd5b938501935b828510156103dd5780858c03121561039c5760008081fd5b6103a461029e565b85358152868601356001600160a01b03811681146103c25760008081fd5b81880152858801358882015284529384019392850192610384565b508096505050505050509250929050565b8082018082111561040f57634e487b7160e01b600052601160045260246000fd5b92915050565b634e487b7160e01b600052603260045260246000fdfea264697066735822122070ee6950af3cd07c982f10a88170f999320fa8ae14f209d042226fd0dafa26f564736f6c63430008180033",
        "nonce": "0x24",
        "chainId": "0xaa36a7"
      },
      "additionalContracts": [],
      "isFixedGasLimit": false
    },
    {
      "hash": "0xd4844a11d8d73879e166585aec9e9891f114c8c7f3fc32eb7231616f01bb221b",
      "transactionType": "CREATE",
      "contractName": "SetConfigsProtected",
      "contractAddress": "0x621e53b3b8d6ade9aa086270f32cc2353a3e93eb",
      "function": null,
      "arguments": null,
      "transaction": {
        "from": "0xff9179199903a10283e19d86de8c09f2718073da",
        "gas": "0xa7354",
        "value": "0x0",
        "input": "0x608060405234801561001057600080fd5b50610893806100206000396000f3fe608060405234801561001057600080fd5b50600436106100415760003560e01c80635cefc4ad146100465780635ebf4de31461006d57806369c30f0e14610080575b600080fd5b610059610054366004610557565b610093565b604051901515815260200160405180910390f35b61005961007b366004610618565b610185565b61005961008e3660046106bb565b610323565b60008281527f9a70c69f78b954ec2ace8c62308c5ea2ed35f782ee583f10b56d88886fa9930060208190526040822060008051602061083e83398151915254600a8201548693929142916100e791906106fc565b1080156100f75750600481015415155b61011c5760405162461bcd60e51b815260040161011390610723565b60405180910390fd5b5050825160008051602061083e833981519152555060408201517f9a70c69f78b954ec2ace8c62308c5ea2ed35f782ee583f10b56d88886fa99304556060909101517f9a70c69f78b954ec2ace8c62308c5ea2ed35f782ee583f10b56d88886fa9930555919050565b60008281527f9a70c69f78b954ec2ace8c62308c5ea2ed35f782ee583f10b56d88886fa9930060208190526040822060008051602061083e83398151915254600a8201548693929142916101d991906106fc565b1080156101e95750600481015415155b6102055760405162461bcd60e51b815260040161011390610723565b505082517fe4fa6871814422bfe1d10a118a3483c970f3cc6a461f81c9d5701005cfdaf40380546001600160a01b039283166001600160a01b031990911617905560208401517fe4fa6871814422bfe1d10a118a3483c970f3cc6a461f81c9d5701005cfdaf4045560408401517fe4fa6871814422bfe1d10a118a3483c970f3cc6a461f81c9d5701005cfdaf40580546060870151608088015160a090980151909416600160501b027fffff0000000000000000000000000000000000000000ffffffffffffffffffff63ffffffff988916660100000000000002166601000000000000600160f01b031961ffff9096166401000000000265ffffffffffff1990931698909416979097171792909216179390931790925592915050565b60008281527f9a70c69f78b954ec2ace8c62308c5ea2ed35f782ee583f10b56d88886fa9930060208190526040822060008051602061083e83398151915254600a82015486939291429161037791906106fc565b1080156103875750600481015415155b6103a35760405162461bcd60e51b815260040161011390610723565b7fe4fa6871814422bfe1d10a118a3483c970f3cc6a461f81c9d5701005cfdaf403546040805163288688f960e21b815290517fe4fa6871814422bfe1d10a118a3483c970f3cc6a461f81c9d5701005cfdaf400926001600160a01b03169163a21a23e491600480830192602092919082900301816000875af115801561042d573d6000803e3d6000fd5b505050506040513d601f19601f820116820180604052508101906104519190610776565b60028201805467ffffffffffffffff9290921667ffffffffffffffff199092168217905560058201546003830154604080516020808201959095528151808203909501855280820191829052630200057560e51b9091526001600160a01b03600160501b909304831693634000aea0936104d29316918b91906044016107a7565b6020604051808303816000875af11580156104f1573d6000803e3d6000fd5b505050506040513d601f19601f82011682018060405250810190610515919061081b565b505050505092915050565b60405160c0810167ffffffffffffffff8111828210171561055157634e487b7160e01b600052604160045260246000fd5b60405290565b60008082840360a081121561056b57600080fd5b833592506080601f198201121561058157600080fd5b506040516080810181811067ffffffffffffffff821117156105b357634e487b7160e01b600052604160045260246000fd5b806040525060208401358152604084013560208201526060840135604082015260808401356060820152809150509250929050565b80356001600160a01b03811681146105ff57600080fd5b919050565b803563ffffffff811681146105ff57600080fd5b60008082840360e081121561062c57600080fd5b8335925060c0601f198201121561064257600080fd5b5061064b610520565b610657602085016105e8565b81526040840135602082015261066f60608501610604565b6040820152608084013561ffff8116811461068957600080fd5b606082015261069a60a08501610604565b60808201526106ab60c085016105e8565b60a0820152809150509250929050565b600080604083850312156106ce57600080fd5b8235915060208301356bffffffffffffffffffffffff811681146106f157600080fd5b809150509250929050565b8082018082111561071d57634e487b7160e01b600052601160045260246000fd5b92915050565b60208082526033908201527f436f72726573706f6e64696e672070726f706f73616c206d75737420626520656040820152723c3834b932b21030b732103a30b63634b2b21760691b606082015260800190565b60006020828403121561078857600080fd5b815167ffffffffffffffff811681146107a057600080fd5b9392505050565b60018060a01b0384168152600060206bffffffffffffffffffffffff8516602084015260606040840152835180606085015260005b818110156107f8578581018301518582016080015282016107dc565b506000608082860101526080601f19601f83011685010192505050949350505050565b60006020828403121561082d57600080fd5b815180151581146107a057600080fdfe9a70c69f78b954ec2ace8c62308c5ea2ed35f782ee583f10b56d88886fa99302a264697066735822122058553edd027bf3f9758039ba4b4fe39b29a8f0f44de274411eaa146776387f2964736f6c63430008180033",
        "nonce": "0x25",
        "chainId": "0xaa36a7"
      },
      "additionalContracts": [],
      "isFixedGasLimit": false
    },
    {
      "hash": "0xf4d66ef9e87b337f6690ccd963b80b422fd5d75653df5b764bef90918d19f1c2",
      "transactionType": "CREATE",
      "contractName": "ConfigOverrideProtected",
      "contractAddress": "0x9d37ee8942e8c24adbb41a77370eb4b1013c526f",
      "function": null,
      "arguments": null,
      "transaction": {
        "from": "0xff9179199903a10283e19d86de8c09f2718073da",
        "gas": "0x3a9a6",
        "value": "0x0",
        "input": "0x608060405234801561001057600080fd5b50610260806100206000396000f3fe608060405234801561001057600080fd5b506004361061002b5760003560e01c80639f31e87b14610030575b600080fd5b61004361003e366004610194565b610057565b604051901515815260200160405180910390f35b60008281527f9a70c69f78b954ec2ace8c62308c5ea2ed35f782ee583f10b56d88886fa993006020819052604082207f9a70c69f78b954ec2ace8c62308c5ea2ed35f782ee583f10b56d88886fa9930254600a8201548693929142916100bd9190610203565b1080156100cd5750600481015415155b6101395760405162461bcd60e51b815260206004820152603360248201527f436f72726573706f6e64696e672070726f706f73616c206d75737420626520656044820152723c3834b932b21030b732103a30b63634b2b21760691b606482015260840160405180910390fd5b5050915163ed8b6b3160e01b6000527f147a311fe1db87247fe76cc1e6db3134e5d52a59e0824f018dad572e05b140006020527f5383e7c9ddd7d9b1763c1c2f58463c31530bb7fd97b38b4d6c0ce4a8002064665592915050565b60008082840360408112156101a857600080fd5b833592506020601f19820112156101be57600080fd5b506040516020810181811067ffffffffffffffff821117156101f057634e487b7160e01b600052604160045260246000fd5b6040526020939093013583525092909150565b8082018082111561022457634e487b7160e01b600052601160045260246000fd5b9291505056fea2646970667358221220a9027fc8399a89d08e658c125cae68b8e9b0c204c246f47a40df973c4f4fc67f64736f6c63430008180033",
        "nonce": "0x26",
        "chainId": "0xaa36a7"
      },
      "additionalContracts": [],
      "isFixedGasLimit": false
    },
    {
      "hash": "0xe322b11c9dc7b3e48f0f3c52022aad1a0e4c5a28fa35571f2e04a1e7d22c0b86",
      "transactionType": "CREATE",
      "contractName": "SaveTextProtected",
      "contractAddress": "0x3389774e280a511b7a73925c698b6efe437d53b4",
      "function": null,
      "arguments": null,
      "transaction": {
        "from": "0xff9179199903a10283e19d86de8c09f2718073da",
        "gas": "0x4f4ba",
        "value": "0x0",
        "input": "0x608060405234801561001057600080fd5b5061038e806100206000396000f3fe608060405234801561001057600080fd5b506004361061002b5760003560e01c80639877696714610030575b600080fd5b61004361003e36600461023d565b610057565b604051901515815260200160405180910390f35b60008381527f9a70c69f78b954ec2ace8c62308c5ea2ed35f782ee583f10b56d88886fa993006020819052604082207f9a70c69f78b954ec2ace8c62308c5ea2ed35f782ee583f10b56d88886fa9930254600a8201548793929142916100bd9190610326565b1080156100cd5750600481015415155b6101395760405162461bcd60e51b815260206004820152603360248201527f436f72726573706f6e64696e672070726f706f73616c206d75737420626520656044820152723c3834b932b21030b732103a30b63634b2b21760691b606482015260840160405180910390fd5b60008681527ec2b62a56d6a36d26f9b1ee520f3f92694a04313c94e467f10a03b080d77900602081815260409092207ec2b62a56d6a36d26f9b1ee520f3f92694a04313c94e467f10a03b080d779015481558751919290916101a3916001840191908a01906101c7565b506001820180549060006101b68361033f565b919050555050505050509392505050565b828054828255906000526020600020908101928215610202579160200282015b828111156102025782518255916020019190600101906101e7565b5061020e929150610212565b5090565b5b8082111561020e5760008155600101610213565b634e487b7160e01b600052604160045260246000fd5b60008060006060848603121561025257600080fd5b833592506020808501359250604085013567ffffffffffffffff8082111561027957600080fd5b818701915087601f83011261028d57600080fd5b81358181111561029f5761029f610227565b8060051b604051601f19603f830116810181811085821117156102c4576102c4610227565b60405291825284820192508381018501918a8311156102e257600080fd5b938501935b82851015610300578435845293850193928501926102e7565b8096505050505050509250925092565b634e487b7160e01b600052601160045260246000fd5b8082018082111561033957610339610310565b92915050565b60006001820161035157610351610310565b506001019056fea2646970667358221220753b5547dc69d2e6042df6e14d9b3678fdadb2ceb94dba221e719b679b14ca4864736f6c63430008180033",
        "nonce": "0x27",
        "chainId": "0xaa36a7"
      },
      "additionalContracts": [],
      "isFixedGasLimit": false
    },
    {
      "hash": "0xa693a3c29b5a0c4ef517695894836dcf2404a7acc96f2978f15e44f094ef0de1",
      "transactionType": "CREATE",
      "contractName": "Getter",
      "contractAddress": "0x28c707f619a5af6cf0bf3ee92f946787f32c8627",
      "function": null,
      "arguments": null,
      "transaction": {
        "from": "0xff9179199903a10283e19d86de8c09f2718073da",
        "gas": "0x12a8d0",
        "value": "0x0",
        "input": "0x608060405234801561001057600080fd5b5061100e806100206000396000f3fe608060405234801561001057600080fd5b50600436106100ea5760003560e01c8063a4c5e9cb1161008c578063c7f758a811610066578063c7f758a814610466578063cb37be9e14610486578063de3d9fb71461048e578063e8109953146104c957600080fd5b8063a4c5e9cb146102f9578063ab3545e514610334578063c1e582ba146103e057600080fd5b80636c996f88116100c85780636c996f8814610183578063787e0fe0146101a35780637f4ef9d4146101ab5780639a5ea6a0146101cb57600080fd5b806325be10bd146100ef5780632a2c16a0146101655780632b7efac11461017b575b600080fd5b6101516100fd366004610bf9565b60408051602080820183526000918290526001600160e01b03199390931681527f147a311fe1db87247fe76cc1e6db3134e5d52a59e0824f018dad572e05b140008352819020815192830190915254815290565b604051905181526020015b60405180910390f35b61016d6104e9565b60405190815260200161015c565b61016d610516565b610196610191366004610c2a565b61053d565b60405161015c9190610c7f565b61016d610629565b6101be6101b9366004610c2a565b61063f565b60405161015c9190610d0c565b6102946040805160c081018252600080825260208201819052918101829052606081018290526080810182905260a08101919091527fe4fa6871814422bfe1d10a118a3483c970f3cc6a461f81c9d5701005cfdaf4006040805160c08101825260038301546001600160a01b0390811682526004840154602083015260059093015463ffffffff8082169383019390935261ffff6401000000008204166060830152660100000000000081049092166080820152600160501b90910490911660a0820152919050565b60405161015c919081516001600160a01b0390811682526020808401519083015260408084015163ffffffff9081169184019190915260608085015161ffff16908401526080808501519091169083015260a092830151169181019190915260c00190565b6103016106ee565b60405161015c91908151815260208083015190820152604080830151908201526060918201519181019190915260800190565b6103b5610342366004610c2a565b6040805160608082018352600080835260208084018290529284018190529384527f2909c0a05d58f8b7f14a4ef9b6dfbc139611bb545981c04988c895be90f35000825292829020825193840183528054845260018101546001600160a01b031691840191909152600201549082015290565b60408051825181526020808401516001600160a01b031690820152918101519082015260600161015c565b61044b6103ee366004610c2a565b60408051808201909152600080825260208201527fe4fa6871814422bfe1d10a118a3483c970f3cc6a461f81c9d5701005cfdaf4006000928352602090815260409283902083518085019094528054845260010154908301525090565b6040805182518152602092830151928101929092520161015c565b610479610474366004610c2a565b6107c2565b60405161015c9190610d9e565b61016d61095e565b7fe4fa6871814422bfe1d10a118a3483c970f3cc6a461f81c9d5701005cfdaf4025460405167ffffffffffffffff909116815260200161015c565b6104dc6104d7366004610e59565b610986565b60405161015c9190610ec1565b60007fe4fa6871814422bfe1d10a118a3483c970f3cc6a461f81c9d5701005cfdaf4005b60010154905090565b60007ec2b62a56d6a36d26f9b1ee520f3f92694a04313c94e467f10a03b080d7790061050d565b6060600080516020610fb98339815191526000838152602091825260408082208054825181860281018601909352808352919390929084015b8282101561061e57838290600052602060002090600402016040518060800160405290816000820154815260200160018201548152602001600282015481526020016003820180548060200260200160405190810160405280929190818152602001828054801561060657602002820191906000526020600020905b8154815260200190600101908083116105f2575b50505050508152505081526020019060010190610576565b505050509050919050565b6000600080516020610fb983398151915261050d565b6040805180820190915260008152606060208201527ec2b62a56d6a36d26f9b1ee520f3f92694a04313c94e467f10a03b080d7790060008381526020918252604090819020815180830183528154815260018201805484518187028101870190955280855291949293858401939092908301828280156106de57602002820191906000526020600020905b8154815260200190600101908083116106ca575b5050505050815250509050919050565b6107196040518060800160405280600081526020016000815260200160008152602001600081525090565b50604080516080810182527f9a70c69f78b954ec2ace8c62308c5ea2ed35f782ee583f10b56d88886fa993025481527f9a70c69f78b954ec2ace8c62308c5ea2ed35f782ee583f10b56d88886fa993035460208201527f9a70c69f78b954ec2ace8c62308c5ea2ed35f782ee583f10b56d88886fa9930454918101919091527f9a70c69f78b954ec2ace8c62308c5ea2ed35f782ee583f10b56d88886fa9930554606082015290565b6107ca610b92565b6000828152600080516020610fb98339815191526020908152604091829020825161016081018452600382018054606083019081526004840180548751818802810188019098528088529496939586959294608087019390929183018282801561085357602002820191906000526020600020905b81548152602001906001019080831161083f575b50505050508152602001600282018054806020026020016040519081016040528092919081815260200182805480156108ab57602002820191906000526020600020905b815481526020019060010190808311610897575b5050505050815260200160038201548152602001600482015481526020016005820180548060200260200160405190810160405280929190818152602001828054801561092157602002820191906000526020600020905b81546001600160a01b03168152600190910190602001808311610903575b5050509183525050600682015460208083019190915260079092015460409182015291835284549083015260019093015492019190915292915050565b60007f2909c0a05d58f8b7f14a4ef9b6dfbc139611bb545981c04988c895be90f3500061050d565b6109aa60405180606001604052806000815260200160608152602001600081525090565b6000838152600080516020610fb9833981519152602052604090206001018054839081106109da576109da610f68565b90600052602060002090600302016040518060600160405290816000820154815260200160018201805480602002602001604051908101604052809291908181526020016000905b82821015610b785783829060005260206000209060020201604051806040016040529081600082018054610a5590610f7e565b80601f0160208091040260200160405190810160405280929190818152602001828054610a8190610f7e565b8015610ace5780601f10610aa357610100808354040283529160200191610ace565b820191906000526020600020905b815481529060010190602001808311610ab157829003601f168201915b50505050508152602001600182018054610ae790610f7e565b80601f0160208091040260200160405190810160405280929190818152602001828054610b1390610f7e565b8015610b605780601f10610b3557610100808354040283529160200191610b60565b820191906000526020600020905b815481529060010190602001808311610b4357829003601f168201915b50505050508152505081526020019060010190610a22565b505050508152602001600282015481525050905092915050565b6040518060600160405280610be560405180610100016040528060008152602001606081526020016060815260200160008152602001600081526020016060815260200160008152602001600081525090565b815260200160008152602001600081525090565b600060208284031215610c0b57600080fd5b81356001600160e01b031981168114610c2357600080fd5b9392505050565b600060208284031215610c3c57600080fd5b5035919050565b60008151808452602080850194506020840160005b83811015610c7457815187529582019590820190600101610c58565b509495945050505050565b600060208083018184528085518083526040925060408601915060408160051b87010184880160005b83811015610cfe57888303603f1901855281518051845287810151888501528681015187850152606090810151608091850182905290610cea81860183610c43565b968901969450505090860190600101610ca8565b509098975050505050505050565b60208082528251828201528281015160408084015280516060840181905260009291820190839060808601905b80831015610d595783518252928401926001929092019190840190610d39565b509695505050505050565b60008151808452602080850194506020840160005b83811015610c745781516001600160a01b031687529582019590820190600101610d79565b6020815260008251606060208401528051608084015260208101516101008060a0860152610dd0610180860183610c43565b91506040830151607f19808785030160c0880152610dee8483610c43565b9350606085015160e088015260808501518388015260a0850151925080878503016101208801525050610e218282610d64565b91505060c082015161014085015260e08201516101608501526020850151604085015260408501516060850152809250505092915050565b60008060408385031215610e6c57600080fd5b50508035926020909101359150565b6000815180845260005b81811015610ea157602081850181015186830182015201610e85565b506000602082860101526020601f19601f83011685010191505092915050565b60006020808352608083018451828501528185015160406060604087015282825180855260a08801915060a08160051b8901019450858401935060005b81811015610f4e57888603609f1901835284518051858852610f2286890182610e7b565b91890151888303898b0152919050610f3a8183610e7b565b975050509386019391860191600101610efe565b505050505060408501516060850152809250505092915050565b634e487b7160e01b600052603260045260246000fd5b600181811c90821680610f9257607f821691505b602082108103610fb257634e487b7160e01b600052602260045260246000fd5b5091905056fe9a70c69f78b954ec2ace8c62308c5ea2ed35f782ee583f10b56d88886fa99300a2646970667358221220b0b84579f85e455723fa86f758b703822b21bb945bb8bde4d4a260f424d3b13b64736f6c63430008180033",
        "nonce": "0x28",
        "chainId": "0xaa36a7"
      },
      "additionalContracts": [],
      "isFixedGasLimit": false
    },
    {
      "hash": "0x7e3a683cc896cb02a08a3dde9ea240f8dee4e79096c5d940d788186a11a9a717",
      "transactionType": "CREATE",
      "contractName": "TextDAOFacade",
      "contractAddress": "0xf7ee7c559d61dbd201ef370091e8d089402ae009",
      "function": null,
      "arguments": null,
      "transaction": {
        "from": "0xff9179199903a10283e19d86de8c09f2718073da",
        "gas": "0xd5d15",
        "value": "0x0",
        "input": "0x608060405234801561001057600080fd5b50610b3a806100206000396000f3fe608060405234801561001057600080fd5b506004361061018e5760003560e01c8063a4c5e9cb116100de578063cb37be9e11610097578063e69b9edc11610071578063e69b9edc146103f9578063e810995314610444578063ed8b6b31146101a8578063fe0d94c1146101a857600080fd5b8063cb37be9e146101ee578063dc1ec0e514610427578063de3d9fb71461043557600080fd5b8063a4c5e9cb14610315578063ab3545e514610350578063bca2007b146103aa578063c1e582ba146103b8578063c5b36441146103f9578063c7f758a81461040757600080fd5b80634f4a95361161014b5780637f4ef9d4116101255780637f4ef9d4146102405780638124b78e146102745780639a5ea6a0146102825780639f46786e1461030157600080fd5b80634f4a9536146102115780636c996f881461021f578063787e0fe0146101ee57600080fd5b806306f7e36d146101935780631f9880ab146101a857806325be10bd146101b95780632a2c16a0146101ee5780632b7efac1146101ee5780633fc765ad146101ff575b600080fd5b6101a66101a1366004610530565b505050565b005b6101a66101b63660046105af565b50565b6101da6101c73660046105c8565b5060408051602081019091526000815290565b604051905181526020015b60405180910390f35b60005b6040519081526020016101e5565b6101a661020d366004610611565b5050565b6101a66101a136600461063e565b61023361022d3660046105af565b50606090565b6040516101e591906106e3565b61026761024e3660046105af565b5060408051808201909152600081526060602082015290565b6040516101e59190610770565b6101a66101b63660046107c8565b6040805160c08082018352600080835260208084018281528486018381526060808701858152608080890187815260a0998a018881528b51988952955196880196909652925163ffffffff908116998701999099525161ffff169085015291519095169082015292516001600160a01b031691830191909152016101e5565b6101f161030f3660046107f1565b50600090565b61031d61046c565b6040516101e591908151815260208083015190820152604080830151908201526060918201519181019190915260800190565b61037f61035e3660046105af565b50604080516060810182526000808252602082018190529181019190915290565b60408051825181526020808401516001600160a01b03169082015291810151908201526060016101e5565b6101a66101b636600461082c565b6103de6103c63660046105af565b50604080518082019091526000808252602082015290565b604080518251815260209283015192810192909252016101e5565b6101a661020d366004610848565b61041a6104153660046105af565b610497565b6040516101e591906108b5565b6101a66101a1366004610970565b604051600081526020016101e5565b6104576104523660046109f5565b61049f565b6040516101e59190610a5d565b919050565b90565b6104696040518060800160405280600081526020016000815260200160008152602001600081525090565b6104646104c9565b6104c360405180606001604052806000815260200160608152602001600081525090565b92915050565b604051806060016040528061051c60405180610100016040528060008152602001606081526020016060815260200160008152602001600081526020016060815260200160008152602001600081525090565b815260200160008152602001600081525090565b60008060006040848603121561054557600080fd5b83359250602084013567ffffffffffffffff8082111561056457600080fd5b818601915086601f83011261057857600080fd5b81358181111561058757600080fd5b87602060608302850101111561059c57600080fd5b6020830194508093505050509250925092565b6000602082840312156105c157600080fd5b5035919050565b6000602082840312156105da57600080fd5b81356001600160e01b0319811681146105f257600080fd5b9392505050565b60006080828403121561060b57600080fd5b50919050565b60008060a0838503121561062457600080fd5b8235915061063584602085016105f9565b90509250929050565b60008060006040848603121561065357600080fd5b83359250602084013567ffffffffffffffff8082111561067257600080fd5b818601915086601f83011261068657600080fd5b81358181111561069557600080fd5b87602082850101111561059c57600080fd5b60008151808452602080850194506020840160005b838110156106d8578151875295820195908201906001016106bc565b509495945050505050565b600060208083018184528085518083526040925060408601915060408160051b87010184880160005b8381101561076257888303603f190185528151805184528781015188850152868101518785015260609081015160809185018290529061074e818601836106a7565b96890196945050509086019060010161070c565b509098975050505050505050565b60208082528251828201528281015160408084015280516060840181905260009291820190839060808601905b808310156107bd578351825292840192600192909201919084019061079d565b509695505050505050565b6000602082840312156107da57600080fd5b81356001600160a01b03811681146105f257600080fd5b60006020828403121561080357600080fd5b813567ffffffffffffffff81111561081a57600080fd5b8201606081850312156105f257600080fd5b60006080828403121561083e57600080fd5b6105f283836105f9565b6000806080838503121561085b57600080fd5b823591508360808401111561086f57600080fd5b50926020919091019150565b60008151808452602080850194506020840160005b838110156106d85781516001600160a01b031687529582019590820190600101610890565b6020815260008251606060208401528051608084015260208101516101008060a08601526108e76101808601836106a7565b91506040830151607f19808785030160c088015261090584836106a7565b9350606085015160e088015260808501518388015260a0850151925080878503016101208801525050610938828261087b565b91505060c082015161014085015260e08201516101608501526020850151604085015260408501516060850152809250505092915050565b600080600060a0848603121561098557600080fd5b833567ffffffffffffffff8082111561099d57600080fd5b818601915086601f8301126109b157600080fd5b8135818111156109c057600080fd5b8760208260051b85010111156109d557600080fd5b6020928301955093506109ec9187915086016105f9565b90509250925092565b60008060408385031215610a0857600080fd5b50508035926020909101359150565b6000815180845260005b81811015610a3d57602081850181015186830182015201610a21565b506000602082860101526020601f19601f83011685010191505092915050565b60006020808352608083018451828501528185015160406060604087015282825180855260a08801915060a08160051b8901019450858401935060005b81811015610aea57888603609f1901835284518051858852610abe86890182610a17565b91890151888303898b0152919050610ad68183610a17565b975050509386019391860191600101610a9a565b50505050506040850151606085015280925050509291505056fea26469706673582212208a633c670283367b03b57962cfbcf17a3c042e2014e0176b2b56ec6ada04c71564736f6c63430008180033",
        "nonce": "0x29",
        "chainId": "0xaa36a7"
      },
      "additionalContracts": [],
      "isFixedGasLimit": false
    },
    {
      "hash": "0x84c47bfa0b541d4a2c20057e72f9d835f2e639f2630484975a653503436cd7a1",
      "transactionType": "CREATE",
      "contractName": "Dictionary",
      "contractAddress": "0x066f7592b0fa01631c7e48aabead714b7bde5030",
      "function": null,
      "arguments": [
        "0xFf9179199903A10283e19D86DE8C09F2718073DA"
      ],
      "transaction": {
        "from": "0xff9179199903a10283e19d86de8c09f2718073da",
        "gas": "0xa796e",
        "value": "0x0",
        "input": "0x608060405234801561001057600080fd5b5060405161091538038061091583398101604081905261002f916100c0565b806001600160a01b03811661005e57604051631e4fbdf760e01b81526000600482015260240160405180910390fd5b6100678161006e565b50506100f0565b600380546001600160a01b038381166001600160a01b0319831681179093556040519116919082907f8be0079c531659141344cd1fd0a4f28419497f9722a3daafe3b4186f6b6457e090600090a35050565b6000602082840312156100d257600080fd5b81516001600160a01b03811681146100e957600080fd5b9392505050565b610816806100ff6000396000f3fe608060405234801561001057600080fd5b50600436106100935760003560e01c8063715018a611610066578063715018a61461012f5780638da5cb5b14610137578063a5954dd714610148578063dc9cc6451461015d578063f2fde38b1461017057600080fd5b806301ffc9a7146100985780630815f6fd146100e25780635c60da1b146100f7578063651dc03d1461011c575b600080fd5b6100cd6100a63660046106f5565b6001600160e01b0319166000908152602081905260409020546001600160a01b0316151590565b60405190151581526020015b60405180910390f35b6100f56100f036600461072e565b610183565b005b6002546001600160a01b03165b6040516001600160a01b0390911681526020016100d9565b6100f561012a366004610761565b610199565b6100f56101ad565b6003546001600160a01b0316610104565b6101506101c1565b6040516100d9919061077c565b61010461016b3660046106f5565b610246565b6100f561017e366004610761565b6102df565b61018b61031a565b6101958282610347565b5050565b6101a161031a565b6101aa81610371565b50565b6101b561031a565b6101bf60006103c6565b565b6060600180548060200260200160405190810160405280929190818152602001828054801561023c57602002820191906000526020600020906000905b82829054906101000a900460e01b6001600160e01b031916815260200190600401906020826003010492830192600103820291508084116101fe5790505b5050505050905090565b6001600160e01b031981166000908152602081905260408120546001600160a01b031680156102755792915050565b5060008080526020527fad3228b676f7d3cd4284a5443f17f1962b36e491b30a40b2405849e597ba5fb5546001600160a01b031680156102b55792915050565b60405163404ceef760e11b81526001600160e01b0319841660048201526024015b60405180910390fd5b6102e761031a565b6001600160a01b03811661031157604051631e4fbdf760e01b8152600060048201526024016102d6565b6101aa816103c6565b6003546001600160a01b031633146101bf5760405163118cdaa760e01b81523360048201526024016102d6565b6001600160a01b03811661035e5761019582610418565b61036782610514565b61019582826105bb565b600280546001600160a01b0319166001600160a01b0383169081179091556040519081527f159f10d3da077d18f228d52be447d552e7d1892d10f7af8f615658160e374729906020015b60405180910390a150565b600380546001600160a01b038381166001600160a01b0319831681179093556040519116919082907f8be0079c531659141344cd1fd0a4f28419497f9722a3daafe3b4186f6b6457e090600090a35050565b60005b6001548110156104bd57816001600160e01b03191660018281548110610443576104436107ca565b90600052602060002090600891828204019190066004029054906101000a900460e01b6001600160e01b031916036104b55760018181548110610488576104886107ca565b90600052602060002090600891828204019190066004026101000a81549063ffffffff02191690556104bd565b60010161041b565b506001600160e01b031981166000818152602081815260409182902080546001600160a01b031916905590519182527fb0f2f3a9229724df0b95683e95488b72aed817bc1a5bd6fe1d2e7504e92871cb91016103bb565b61051d81610660565b156105255750565b6001805480820182556000919091527fb10e2d527612073b26eecdfd717e6a320cf44b4afac2b0732d9fcbe2b7fa0cf66008820401805463ffffffff60079093166004026101000a928302191660e084901c929092029190911790556040516001600160e01b0319821681527fbe533f538959a17d76f1b09e966e741ee3b1183099682f96216c93d21feaecba906020016103bb565b806001600160a01b03163b6000036105f157604051630c76093760e01b81526001600160a01b03821660048201526024016102d6565b6001600160e01b031982166000818152602081815260409182902080546001600160a01b0319166001600160a01b0386169081179091558251938452908301527fda3c8142b3c1d27633026f55bfcb4eeb0b5b8db0daa0a3e10c2213a441722ad1910160405180910390a15050565b6000805b6001548110156106cf57826001600160e01b0319166001828154811061068c5761068c6107ca565b90600052602060002090600891828204019190066004029054906101000a900460e01b6001600160e01b031916036106c75750600192915050565b600101610664565b50600092915050565b80356001600160e01b0319811681146106f057600080fd5b919050565b60006020828403121561070757600080fd5b610710826106d8565b9392505050565b80356001600160a01b03811681146106f057600080fd5b6000806040838503121561074157600080fd5b61074a836106d8565b915061075860208401610717565b90509250929050565b60006020828403121561077357600080fd5b61071082610717565b6020808252825182820181905260009190848201906040850190845b818110156107be5783516001600160e01b03191683529284019291840191600101610798565b50909695505050505050565b634e487b7160e01b600052603260045260246000fdfea26469706673582212204fe897191f3407c49aa3ce3d23cd1b13a32c2c83604e9117a7f4e231ed2247a364736f6c63430008180033000000000000000000000000ff9179199903a10283e19d86de8c09f2718073da",
        "nonce": "0x2a",
        "chainId": "0xaa36a7"
      },
      "additionalContracts": [],
      "isFixedGasLimit": false
    },
    {
      "hash": "0x004fcdf20d30778a342676563fa1d4423c19e742126ef5d7fbdd85a61e4357d6",
      "transactionType": "CALL",
      "contractName": "Dictionary",
      "contractAddress": "0x066f7592b0fa01631c7e48aabead714b7bde5030",
      "function": "setImplementation(bytes4,address)",
      "arguments": [
        "0x8ca89f7700000000000000000000000000000000000000000000000000000000",
        "0x6A2a2D6D65B803019a6Bcb778b8DBE9733ead584"
      ],
      "transaction": {
        "from": "0xff9179199903a10283e19d86de8c09f2718073da",
        "to": "0x066f7592b0fa01631c7e48aabead714b7bde5030",
        "gas": "0x206fc",
        "value": "0x0",
        "input": "0x0815f6fd8ca89f77000000000000000000000000000000000000000000000000000000000000000000000000000000006a2a2d6d65b803019a6bcb778b8dbe9733ead584",
        "nonce": "0x2b",
        "chainId": "0xaa36a7"
      },
      "additionalContracts": [],
      "isFixedGasLimit": false
    },
    {
      "hash": "0xdc932d443eed77d9e137016218cb58c0502a235d1ad38136667b7f7f67b2f69b",
      "transactionType": "CALL",
      "contractName": "Dictionary",
      "contractAddress": "0x066f7592b0fa01631c7e48aabead714b7bde5030",
      "function": "setImplementation(bytes4,address)",
      "arguments": [
        "0xdc1ec0e500000000000000000000000000000000000000000000000000000000",
        "0x3b22C377f244b89A7ada634b34EB428Fe6F053D5"
      ],
      "transaction": {
        "from": "0xff9179199903a10283e19d86de8c09f2718073da",
        "to": "0x066f7592b0fa01631c7e48aabead714b7bde5030",
        "gas": "0x151c0",
        "value": "0x0",
        "input": "0x0815f6fddc1ec0e5000000000000000000000000000000000000000000000000000000000000000000000000000000003b22c377f244b89a7ada634b34eb428fe6f053d5",
        "nonce": "0x2c",
        "chainId": "0xaa36a7"
      },
      "additionalContracts": [],
      "isFixedGasLimit": false
    },
    {
      "hash": "0x0eeab7222372065b4b6d808b259d34554d094522ff6354d9ed16c0df71c0dfa2",
      "transactionType": "CALL",
      "contractName": "Dictionary",
      "contractAddress": "0x066f7592b0fa01631c7e48aabead714b7bde5030",
      "function": "setImplementation(bytes4,address)",
      "arguments": [
        "0x9f46786e00000000000000000000000000000000000000000000000000000000",
        "0x71C911D96b8A77f00b89efb5A3cCCEd0D787665c"
      ],
      "transaction": {
        "from": "0xff9179199903a10283e19d86de8c09f2718073da",
        "to": "0x066f7592b0fa01631c7e48aabead714b7bde5030",
        "gas": "0x1691b",
        "value": "0x0",
        "input": "0x0815f6fd9f46786e0000000000000000000000000000000000000000000000000000000000000000000000000000000071c911d96b8a77f00b89efb5a3ccced0d787665c",
        "nonce": "0x2d",
        "chainId": "0xaa36a7"
      },
      "additionalContracts": [],
      "isFixedGasLimit": false
    },
    {
      "hash": "0x7e5df78908595b45dfa5779ccc560098ced7307bafc19ff5e4c2a8773f92b32c",
      "transactionType": "CALL",
      "contractName": "Dictionary",
      "contractAddress": "0x066f7592b0fa01631c7e48aabead714b7bde5030",
      "function": "setImplementation(bytes4,address)",
      "arguments": [
        "0x603d9eb700000000000000000000000000000000000000000000000000000000",
        "0xceA57919682002dfe4D5aa8154F772aD1bEba530"
      ],
      "transaction": {
        "from": "0xff9179199903a10283e19d86de8c09f2718073da",
        "to": "0x066f7592b0fa01631c7e48aabead714b7bde5030",
        "gas": "0x16c96",
        "value": "0x0",
        "input": "0x0815f6fd603d9eb700000000000000000000000000000000000000000000000000000000000000000000000000000000cea57919682002dfe4d5aa8154f772ad1beba530",
        "nonce": "0x2e",
        "chainId": "0xaa36a7"
      },
      "additionalContracts": [],
      "isFixedGasLimit": false
    },
    {
      "hash": "0x6541d9b49700b3a0c163a5744203f0ddd0cc6189a016792e1c8536081439b561",
      "transactionType": "CALL",
      "contractName": "Dictionary",
      "contractAddress": "0x066f7592b0fa01631c7e48aabead714b7bde5030",
      "function": "setImplementation(bytes4,address)",
      "arguments": [
        "0xc5b3644100000000000000000000000000000000000000000000000000000000",
        "0x8456f927D25585c7af2B43C070287510eb399ccc"
      ],
      "transaction": {
        "from": "0xff9179199903a10283e19d86de8c09f2718073da",
        "to": "0x066f7592b0fa01631c7e48aabead714b7bde5030",
        "gas": "0x15b9f",
        "value": "0x0",
        "input": "0x0815f6fdc5b36441000000000000000000000000000000000000000000000000000000000000000000000000000000008456f927d25585c7af2b43c070287510eb399ccc",
        "nonce": "0x2f",
        "chainId": "0xaa36a7"
      },
      "additionalContracts": [],
      "isFixedGasLimit": false
    },
    {
      "hash": "0xb909a50e2ad1d6f533275e3bca1db46280b656b61c29250c1827ed7a6fc0f228",
      "transactionType": "CALL",
      "contractName": "Dictionary",
      "contractAddress": "0x066f7592b0fa01631c7e48aabead714b7bde5030",
      "function": "setImplementation(bytes4,address)",
      "arguments": [
        "0xe69b9edc00000000000000000000000000000000000000000000000000000000",
        "0x8456f927D25585c7af2B43C070287510eb399ccc"
      ],
      "transaction": {
        "from": "0xff9179199903a10283e19d86de8c09f2718073da",
        "to": "0x066f7592b0fa01631c7e48aabead714b7bde5030",
        "gas": "0x15ee9",
        "value": "0x0",
        "input": "0x0815f6fde69b9edc000000000000000000000000000000000000000000000000000000000000000000000000000000008456f927d25585c7af2b43c070287510eb399ccc",
        "nonce": "0x30",
        "chainId": "0xaa36a7"
      },
      "additionalContracts": [],
      "isFixedGasLimit": false
    },
    {
      "hash": "0xb838f7c8c8008acefc2c39b642157f9c562a75e0fccd48fca42683fe2bd894c9",
      "transactionType": "CALL",
      "contractName": "Dictionary",
      "contractAddress": "0x066f7592b0fa01631c7e48aabead714b7bde5030",
      "function": "setImplementation(bytes4,address)",
      "arguments": [
        "0xed8b6b3100000000000000000000000000000000000000000000000000000000",
        "0xD5a3Ff0FCd55a95234Bf37C2Dc9bbDa9ae908a6e"
      ],
      "transaction": {
        "from": "0xff9179199903a10283e19d86de8c09f2718073da",
        "to": "0x066f7592b0fa01631c7e48aabead714b7bde5030",
        "gas": "0x1770b",
        "value": "0x0",
        "input": "0x0815f6fded8b6b3100000000000000000000000000000000000000000000000000000000000000000000000000000000d5a3ff0fcd55a95234bf37c2dc9bbda9ae908a6e",
        "nonce": "0x31",
        "chainId": "0xaa36a7"
      },
      "additionalContracts": [],
      "isFixedGasLimit": false
    },
    {
      "hash": "0xb7e92ad3b56a416da8a92bc1b5ecf908f6f80159550022e323aa367303dc3e16",
      "transactionType": "CALL",
      "contractName": "Dictionary",
      "contractAddress": "0x066f7592b0fa01631c7e48aabead714b7bde5030",
      "function": "setImplementation(bytes4,address)",
      "arguments": [
        "0xfe0d94c100000000000000000000000000000000000000000000000000000000",
        "0x4C81223dc30759730799D94c2233797e7070b247"
      ],
      "transaction": {
        "from": "0xff9179199903a10283e19d86de8c09f2718073da",
        "to": "0x066f7592b0fa01631c7e48aabead714b7bde5030",
        "gas": "0x17a87",
        "value": "0x0",
        "input": "0x0815f6fdfe0d94c1000000000000000000000000000000000000000000000000000000000000000000000000000000004c81223dc30759730799d94c2233797e7070b247",
        "nonce": "0x32",
        "chainId": "0xaa36a7"
      },
      "additionalContracts": [],
      "isFixedGasLimit": false
    },
    {
      "hash": "0xb8896d626734b6d7e2645d010d3ef562f57591639bba3850e89ff3df1bf07427",
      "transactionType": "CALL",
      "contractName": "Dictionary",
      "contractAddress": "0x066f7592b0fa01631c7e48aabead714b7bde5030",
      "function": "setImplementation(bytes4,address)",
      "arguments": [
        "0x06f7e36d00000000000000000000000000000000000000000000000000000000",
        "0xf9b3d493cADDb5274869d1c94EF831cfDa8966Bf"
      ],
      "transaction": {
        "from": "0xff9179199903a10283e19d86de8c09f2718073da",
        "to": "0x066f7592b0fa01631c7e48aabead714b7bde5030",
        "gas": "0x1cf92",
        "value": "0x0",
        "input": "0x0815f6fd06f7e36d00000000000000000000000000000000000000000000000000000000000000000000000000000000f9b3d493caddb5274869d1c94ef831cfda8966bf",
        "nonce": "0x33",
        "chainId": "0xaa36a7"
      },
      "additionalContracts": [],
      "isFixedGasLimit": false
    },
    {
      "hash": "0x801e353f1e25bd752765fe951308caa5fea6c1f2ed68742c9b4c4ded1e65ef78",
      "transactionType": "CALL",
      "contractName": "Dictionary",
      "contractAddress": "0x066f7592b0fa01631c7e48aabead714b7bde5030",
      "function": "setImplementation(bytes4,address)",
      "arguments": [
        "0x5cefc4ad00000000000000000000000000000000000000000000000000000000",
        "0x621e53b3b8D6ADe9Aa086270F32CC2353A3e93eB"
      ],
      "transaction": {
        "from": "0xff9179199903a10283e19d86de8c09f2718073da",
        "to": "0x066f7592b0fa01631c7e48aabead714b7bde5030",
        "gas": "0x1769a",
        "value": "0x0",
        "input": "0x0815f6fd5cefc4ad00000000000000000000000000000000000000000000000000000000000000000000000000000000621e53b3b8d6ade9aa086270f32cc2353a3e93eb",
        "nonce": "0x34",
        "chainId": "0xaa36a7"
      },
      "additionalContracts": [],
      "isFixedGasLimit": false
    },
    {
      "hash": "0x6cbe8df0dbe9e889c38e6c03d8f2620d81e44d24822ff77b5f1272889cec1195",
      "transactionType": "CALL",
      "contractName": "Dictionary",
      "contractAddress": "0x066f7592b0fa01631c7e48aabead714b7bde5030",
      "function": "setImplementation(bytes4,address)",
      "arguments": [
        "0x9f31e87b00000000000000000000000000000000000000000000000000000000",
        "0x9D37eE8942E8C24adBB41a77370eB4b1013c526f"
      ],
      "transaction": {
        "from": "0xff9179199903a10283e19d86de8c09f2718073da",
        "to": "0x066f7592b0fa01631c7e48aabead714b7bde5030",
        "gas": "0x179e4",
        "value": "0x0",
        "input": "0x0815f6fd9f31e87b000000000000000000000000000000000000000000000000000000000000000000000000000000009d37ee8942e8c24adbb41a77370eb4b1013c526f",
        "nonce": "0x35",
        "chainId": "0xaa36a7"
      },
      "additionalContracts": [],
      "isFixedGasLimit": false
    },
    {
      "hash": "0x8d8821273ce55f0355bcebc6312942e261af5371e47c1a8d917d01be8766e441",
      "transactionType": "CALL",
      "contractName": "Dictionary",
      "contractAddress": "0x066f7592b0fa01631c7e48aabead714b7bde5030",
      "function": "setImplementation(bytes4,address)",
      "arguments": [
        "0x9877696700000000000000000000000000000000000000000000000000000000",
        "0x3389774e280a511b7A73925C698b6EFE437d53B4"
      ],
      "transaction": {
        "from": "0xff9179199903a10283e19d86de8c09f2718073da",
        "to": "0x066f7592b0fa01631c7e48aabead714b7bde5030",
        "gas": "0x1939c",
        "value": "0x0",
        "input": "0x0815f6fd98776967000000000000000000000000000000000000000000000000000000000000000000000000000000003389774e280a511b7a73925c698b6efe437d53b4",
        "nonce": "0x36",
        "chainId": "0xaa36a7"
      },
      "additionalContracts": [],
      "isFixedGasLimit": false
    },
    {
      "hash": "0x1ad4b87580ea0bc5ab4560fe41895977f2f622cf639b52197bc4ccb75688ba6d",
      "transactionType": "CALL",
      "contractName": "Dictionary",
      "contractAddress": "0x066f7592b0fa01631c7e48aabead714b7bde5030",
      "function": "setImplementation(bytes4,address)",
      "arguments": [
        "0xc7f758a800000000000000000000000000000000000000000000000000000000",
        "0x28c707F619a5aF6Cf0bF3eE92f946787F32C8627"
      ],
      "transaction": {
        "from": "0xff9179199903a10283e19d86de8c09f2718073da",
        "to": "0x066f7592b0fa01631c7e48aabead714b7bde5030",
        "gas": "0x19717",
        "value": "0x0",
        "input": "0x0815f6fdc7f758a80000000000000000000000000000000000000000000000000000000000000000000000000000000028c707f619a5af6cf0bf3ee92f946787f32c8627",
        "nonce": "0x37",
        "chainId": "0xaa36a7"
      },
      "additionalContracts": [],
      "isFixedGasLimit": false
    },
    {
      "hash": "0x9f15551aa3f53fe08f004538017f6c71982a10083daadb0a77eb054b51c68759",
      "transactionType": "CALL",
      "contractName": "Dictionary",
      "contractAddress": "0x066f7592b0fa01631c7e48aabead714b7bde5030",
      "function": "setImplementation(bytes4,address)",
      "arguments": [
        "0x6c996f8800000000000000000000000000000000000000000000000000000000",
        "0x28c707F619a5aF6Cf0bF3eE92f946787F32C8627"
      ],
      "transaction": {
        "from": "0xff9179199903a10283e19d86de8c09f2718073da",
        "to": "0x066f7592b0fa01631c7e48aabead714b7bde5030",
        "gas": "0x183c4",
        "value": "0x0",
        "input": "0x0815f6fd6c996f880000000000000000000000000000000000000000000000000000000000000000000000000000000028c707f619a5af6cf0bf3ee92f946787f32c8627",
        "nonce": "0x38",
        "chainId": "0xaa36a7"
      },
      "additionalContracts": [],
      "isFixedGasLimit": false
    },
    {
      "hash": "0x5aa1554cf82952fe3720b279ca5a0561ac7472ca8987d9d6240f8b78b923b39d",
      "transactionType": "CALL",
      "contractName": "Dictionary",
      "contractAddress": "0x066f7592b0fa01631c7e48aabead714b7bde5030",
      "function": "setImplementation(bytes4,address)",
      "arguments": [
        "0xe810995300000000000000000000000000000000000000000000000000000000",
        "0x28c707F619a5aF6Cf0bF3eE92f946787F32C8627"
      ],
      "transaction": {
        "from": "0xff9179199903a10283e19d86de8c09f2718073da",
        "to": "0x066f7592b0fa01631c7e48aabead714b7bde5030",
        "gas": "0x1870e",
        "value": "0x0",
        "input": "0x0815f6fde81099530000000000000000000000000000000000000000000000000000000000000000000000000000000028c707f619a5af6cf0bf3ee92f946787f32c8627",
        "nonce": "0x39",
        "chainId": "0xaa36a7"
      },
      "additionalContracts": [],
      "isFixedGasLimit": false
    },
    {
      "hash": "0xc766f0f985208ee4c62604cd9ec3962a71f0cd45c9fc1066a5956f8cea01dd47",
      "transactionType": "CALL",
      "contractName": "Dictionary",
      "contractAddress": "0x066f7592b0fa01631c7e48aabead714b7bde5030",
      "function": "setImplementation(bytes4,address)",
      "arguments": [
        "0x787e0fe000000000000000000000000000000000000000000000000000000000",
        "0x28c707F619a5aF6Cf0bF3eE92f946787F32C8627"
      ],
      "transaction": {
        "from": "0xff9179199903a10283e19d86de8c09f2718073da",
        "to": "0x066f7592b0fa01631c7e48aabead714b7bde5030",
        "gas": "0x1a18c",
        "value": "0x0",
        "input": "0x0815f6fd787e0fe00000000000000000000000000000000000000000000000000000000000000000000000000000000028c707f619a5af6cf0bf3ee92f946787f32c8627",
        "nonce": "0x3a",
        "chainId": "0xaa36a7"
      },
      "additionalContracts": [],
      "isFixedGasLimit": false
    },
    {
      "hash": "0x7ad3e7c646080a957b3f954786c7946c88f3ba4561ac70b3628e6c121d4bdd02",
      "transactionType": "CALL",
      "contractName": "Dictionary",
      "contractAddress": "0x066f7592b0fa01631c7e48aabead714b7bde5030",
      "function": "setImplementation(bytes4,address)",
      "arguments": [
        "0xa4c5e9cb00000000000000000000000000000000000000000000000000000000",
        "0x28c707F619a5aF6Cf0bF3eE92f946787F32C8627"
      ],
      "transaction": {
        "from": "0xff9179199903a10283e19d86de8c09f2718073da",
        "to": "0x066f7592b0fa01631c7e48aabead714b7bde5030",
        "gas": "0x1f46c",
        "value": "0x0",
        "input": "0x0815f6fda4c5e9cb0000000000000000000000000000000000000000000000000000000000000000000000000000000028c707f619a5af6cf0bf3ee92f946787f32c8627",
        "nonce": "0x3b",
        "chainId": "0xaa36a7"
      },
      "additionalContracts": [],
      "isFixedGasLimit": false
    },
    {
      "hash": "0xd533c104980c1ce8c8b242149cb9094bd75729a88d80f004d1b63f8ee2453ccc",
      "transactionType": "CALL",
      "contractName": "Dictionary",
      "contractAddress": "0x066f7592b0fa01631c7e48aabead714b7bde5030",
      "function": "setImplementation(bytes4,address)",
      "arguments": [
        "0x7f4ef9d400000000000000000000000000000000000000000000000000000000",
        "0x28c707F619a5aF6Cf0bF3eE92f946787F32C8627"
      ],
      "transaction": {
        "from": "0xff9179199903a10283e19d86de8c09f2718073da",
        "to": "0x066f7592b0fa01631c7e48aabead714b7bde5030",
        "gas": "0x1b3a8",
        "value": "0x0",
        "input": "0x0815f6fd7f4ef9d40000000000000000000000000000000000000000000000000000000000000000000000000000000028c707f619a5af6cf0bf3ee92f946787f32c8627",
        "nonce": "0x3c",
        "chainId": "0xaa36a7"
      },
      "additionalContracts": [],
      "isFixedGasLimit": false
    },
    {
      "hash": "0x0dc01865be675c0b44835457340c6247f79d58a9ed217c7b6119f8e924ea6b93",
      "transactionType": "CALL",
      "contractName": "Dictionary",
      "contractAddress": "0x066f7592b0fa01631c7e48aabead714b7bde5030",
      "function": "setImplementation(bytes4,address)",
      "arguments": [
        "0x2b7efac100000000000000000000000000000000000000000000000000000000",
        "0x28c707F619a5aF6Cf0bF3eE92f946787F32C8627"
      ],
      "transaction": {
        "from": "0xff9179199903a10283e19d86de8c09f2718073da",
        "to": "0x066f7592b0fa01631c7e48aabead714b7bde5030",
        "gas": "0x19ebe",
        "value": "0x0",
        "input": "0x0815f6fd2b7efac10000000000000000000000000000000000000000000000000000000000000000000000000000000028c707f619a5af6cf0bf3ee92f946787f32c8627",
        "nonce": "0x3d",
        "chainId": "0xaa36a7"
      },
      "additionalContracts": [],
      "isFixedGasLimit": false
    },
    {
      "hash": "0xc6e8564e8224d81ee5c254f20628bc3cdead72a3312f4bf3cad4a2138b1c128c",
      "transactionType": "CALL",
      "contractName": "Dictionary",
      "contractAddress": "0x066f7592b0fa01631c7e48aabead714b7bde5030",
      "function": "setImplementation(bytes4,address)",
      "arguments": [
        "0xab3545e500000000000000000000000000000000000000000000000000000000",
        "0x28c707F619a5aF6Cf0bF3eE92f946787F32C8627"
      ],
      "transaction": {
        "from": "0xff9179199903a10283e19d86de8c09f2718073da",
        "to": "0x066f7592b0fa01631c7e48aabead714b7bde5030",
        "gas": "0x1a209",
        "value": "0x0",
        "input": "0x0815f6fdab3545e50000000000000000000000000000000000000000000000000000000000000000000000000000000028c707f619a5af6cf0bf3ee92f946787f32c8627",
        "nonce": "0x3e",
        "chainId": "0xaa36a7"
      },
      "additionalContracts": [],
      "isFixedGasLimit": false
    },
    {
      "hash": "0xec279f9b585fbdad09fe08b5a631290035f23715dbc3cc0b9954f48c202f51e3",
      "transactionType": "CALL",
      "contractName": "Dictionary",
      "contractAddress": "0x066f7592b0fa01631c7e48aabead714b7bde5030",
      "function": "setImplementation(bytes4,address)",
      "arguments": [
        "0xcb37be9e00000000000000000000000000000000000000000000000000000000",
        "0x28c707F619a5aF6Cf0bF3eE92f946787F32C8627"
      ],
      "transaction": {
        "from": "0xff9179199903a10283e19d86de8c09f2718073da",
        "to": "0x066f7592b0fa01631c7e48aabead714b7bde5030",
        "gas": "0x1be1d",
        "value": "0x0",
        "input": "0x0815f6fdcb37be9e0000000000000000000000000000000000000000000000000000000000000000000000000000000028c707f619a5af6cf0bf3ee92f946787f32c8627",
        "nonce": "0x3f",
        "chainId": "0xaa36a7"
      },
      "additionalContracts": [],
      "isFixedGasLimit": false
    },
    {
      "hash": "0xf4530ec0846db8552fd2cea54896b3f058fbf088be67ff961ecdcadbf5e6d960",
      "transactionType": "CALL",
      "contractName": "Dictionary",
      "contractAddress": "0x066f7592b0fa01631c7e48aabead714b7bde5030",
      "function": "setImplementation(bytes4,address)",
      "arguments": [
        "0xc1e582ba00000000000000000000000000000000000000000000000000000000",
        "0x28c707F619a5aF6Cf0bF3eE92f946787F32C8627"
      ],
      "transaction": {
        "from": "0xff9179199903a10283e19d86de8c09f2718073da",
        "to": "0x066f7592b0fa01631c7e48aabead714b7bde5030",
        "gas": "0x1c198",
        "value": "0x0",
        "input": "0x0815f6fdc1e582ba0000000000000000000000000000000000000000000000000000000000000000000000000000000028c707f619a5af6cf0bf3ee92f946787f32c8627",
        "nonce": "0x40",
        "chainId": "0xaa36a7"
      },
      "additionalContracts": [],
      "isFixedGasLimit": false
    },
    {
      "hash": "0x00ce02338012a6e78b82f9574ffc339b1a07357ddc9191ae18f3f530aa4410ff",
      "transactionType": "CALL",
      "contractName": "Dictionary",
      "contractAddress": "0x066f7592b0fa01631c7e48aabead714b7bde5030",
      "function": "setImplementation(bytes4,address)",
      "arguments": [
        "0x2a2c16a000000000000000000000000000000000000000000000000000000000",
        "0x28c707F619a5aF6Cf0bF3eE92f946787F32C8627"
      ],
      "transaction": {
        "from": "0xff9179199903a10283e19d86de8c09f2718073da",
        "to": "0x066f7592b0fa01631c7e48aabead714b7bde5030",
        "gas": "0x1abe8",
        "value": "0x0",
        "input": "0x0815f6fd2a2c16a00000000000000000000000000000000000000000000000000000000000000000000000000000000028c707f619a5af6cf0bf3ee92f946787f32c8627",
        "nonce": "0x41",
        "chainId": "0xaa36a7"
      },
      "additionalContracts": [],
      "isFixedGasLimit": false
    },
    {
      "hash": "0xfffbda1db6b61f80ba6d0602eb19345c0548f5be71ca67608b8ce49a4586a853",
      "transactionType": "CALL",
      "contractName": "Dictionary",
      "contractAddress": "0x066f7592b0fa01631c7e48aabead714b7bde5030",
      "function": "setImplementation(bytes4,address)",
      "arguments": [
        "0xde3d9fb700000000000000000000000000000000000000000000000000000000",
        "0x28c707F619a5aF6Cf0bF3eE92f946787F32C8627"
      ],
      "transaction": {
        "from": "0xff9179199903a10283e19d86de8c09f2718073da",
        "to": "0x066f7592b0fa01631c7e48aabead714b7bde5030",
        "gas": "0x1af32",
        "value": "0x0",
        "input": "0x0815f6fdde3d9fb70000000000000000000000000000000000000000000000000000000000000000000000000000000028c707f619a5af6cf0bf3ee92f946787f32c8627",
        "nonce": "0x42",
        "chainId": "0xaa36a7"
      },
      "additionalContracts": [],
      "isFixedGasLimit": false
    },
    {
      "hash": "0xc4fb9badbc11053134d1dbb73728a0a41b6349b51ff5f0cf6da2c22a2a5743fe",
      "transactionType": "CALL",
      "contractName": "Dictionary",
      "contractAddress": "0x066f7592b0fa01631c7e48aabead714b7bde5030",
      "function": "setImplementation(bytes4,address)",
      "arguments": [
        "0x9a5ea6a000000000000000000000000000000000000000000000000000000000",
        "0x28c707F619a5aF6Cf0bF3eE92f946787F32C8627"
      ],
      "transaction": {
        "from": "0xff9179199903a10283e19d86de8c09f2718073da",
        "to": "0x066f7592b0fa01631c7e48aabead714b7bde5030",
        "gas": "0x238e1",
        "value": "0x0",
        "input": "0x0815f6fd9a5ea6a00000000000000000000000000000000000000000000000000000000000000000000000000000000028c707f619a5af6cf0bf3ee92f946787f32c8627",
        "nonce": "0x43",
        "chainId": "0xaa36a7"
      },
      "additionalContracts": [],
      "isFixedGasLimit": false
    },
    {
      "hash": "0x1894350da0b92ec6d95609ec150f657e66044c61ed832c10f1f90c432d609345",
      "transactionType": "CALL",
      "contractName": "Dictionary",
      "contractAddress": "0x066f7592b0fa01631c7e48aabead714b7bde5030",
      "function": "setImplementation(bytes4,address)",
      "arguments": [
        "0x25be10bd00000000000000000000000000000000000000000000000000000000",
        "0x28c707F619a5aF6Cf0bF3eE92f946787F32C8627"
      ],
      "transaction": {
        "from": "0xff9179199903a10283e19d86de8c09f2718073da",
        "to": "0x066f7592b0fa01631c7e48aabead714b7bde5030",
        "gas": "0x1daad",
        "value": "0x0",
        "input": "0x0815f6fd25be10bd0000000000000000000000000000000000000000000000000000000000000000000000000000000028c707f619a5af6cf0bf3ee92f946787f32c8627",
        "nonce": "0x44",
        "chainId": "0xaa36a7"
      },
      "additionalContracts": [],
      "isFixedGasLimit": false
    },
    {
      "hash": "0xe154e0fd1e87b9f30decfa71044d1f4ca7abda3a78e1a55e175a2b809366ab25",
      "transactionType": "CALL",
      "contractName": "Dictionary",
      "contractAddress": "0x066f7592b0fa01631c7e48aabead714b7bde5030",
      "function": "upgradeFacade(address)",
      "arguments": [
        "0xf7Ee7c559d61dbD201ef370091E8d089402ae009"
      ],
      "transaction": {
        "from": "0xff9179199903a10283e19d86de8c09f2718073da",
        "to": "0x066f7592b0fa01631c7e48aabead714b7bde5030",
        "gas": "0xfeb1",
        "value": "0x0",
        "input": "0x651dc03d000000000000000000000000f7ee7c559d61dbd201ef370091e8d089402ae009",
        "nonce": "0x45",
        "chainId": "0xaa36a7"
      },
      "additionalContracts": [],
      "isFixedGasLimit": false
    },
    {
      "hash": "0xc051e3e3554b2958595cc0356e6f15c0f27a5463b70dfe4f7e2ece7656a3b180",
      "transactionType": "CREATE",
      "contractName": null,
      "contractAddress": "0x6772c6a4e5975567647a84d846b9fe5992c4a23f",
      "function": null,
      "arguments": null,
      "transaction": {
        "from": "0xff9179199903a10283e19d86de8c09f2718073da",
        "gas": "0x3dd06",
        "value": "0x0",
        "input": "0x60806040526040516105e03803806105e08339810160408190526100229161034b565b61002c828261003c565b6100358261011c565b5050610479565b61004582610160565b6040516001600160a01b03831681527fa657f2ad315cf3bb35cf1964158da75c3f334481df05a4a1644b2376b17a59b29060200160405180910390a18051156101105761010b6001600160a01b03831663dc9cc6456100a38461040b565b6040516001600160e01b031960e084901b81168252919091166004820152602401602060405180830381865afa1580156100e1573d6000803e3d6000fd5b505050506040513d601f19601f820116820180604052508101906101059190610442565b826101d5565b505050565b61011861024c565b5050565b807fa3f0ad74e5423aebfd80d3ef4346578335a9a72aeaee59ff6cb3582b35133d505b80546001600160a01b0319166001600160a01b039290921691909117905550565b806001600160a01b03163b6000036101ae5760405162461bcd60e51b815260206004820152600c60248201526b1393d397d0d3d395149050d560a21b60448201526064015b60405180910390fd5b807f267691be3525af8a813d30db0c9e2bad08f63baecf6dceb85e2cf3676cff56f461013f565b6060600080846001600160a01b0316846040516101f2919061045d565b600060405180830381855af49150503d806000811461022d576040519150601f19603f3d011682016040523d82523d6000602084013e610232565b606091505b50909250905061024385838361026d565b95945050505050565b341561026b5760405163b398979f60e01b815260040160405180910390fd5b565b6060826102825761027d826102cc565b6102c5565b815115801561029957506001600160a01b0384163b155b156102c257604051639996b31560e01b81526001600160a01b03851660048201526024016101a5565b50805b9392505050565b8051156102dc5780518082602001fd5b604051630a12f52160e11b815260040160405180910390fd5b80516001600160a01b038116811461030c57600080fd5b919050565b634e487b7160e01b600052604160045260246000fd5b60005b8381101561034257818101518382015260200161032a565b50506000910152565b6000806040838503121561035e57600080fd5b610367836102f5565b60208401519092506001600160401b038082111561038457600080fd5b818501915085601f83011261039857600080fd5b8151818111156103aa576103aa610311565b604051601f8201601f19908116603f011681019083821181831017156103d2576103d2610311565b816040528281528860208487010111156103eb57600080fd5b6103fc836020830160208801610327565b80955050505050509250929050565b805160208201516001600160e01b0319808216929190600483101561043a5780818460040360031b1b83161693505b505050919050565b60006020828403121561045457600080fd5b6102c5826102f5565b6000825161046f818460208701610327565b9190910192915050565b610158806104886000396000f3fe608060405261000c61000e565b005b61001e610019610020565b6100ce565b565b60006100537f267691be3525af8a813d30db0c9e2bad08f63baecf6dceb85e2cf3676cff56f4546001600160a01b031690565b60405163dc9cc64560e01b81526001600160e01b03196000351660048201526001600160a01b03919091169063dc9cc64590602401602060405180830381865afa1580156100a5573d6000803e3d6000fd5b505050506040513d601f19601f820116820180604052508101906100c991906100f2565b905090565b3660008037600080366000845af43d6000803e8080156100ed573d6000f35b3d6000fd5b60006020828403121561010457600080fd5b81516001600160a01b038116811461011b57600080fd5b939250505056fea2646970667358221220f44044b674b308a15d84dba03eab56a40e3d7e234997a20752299961fc174eae64736f6c63430008180033000000000000000000000000066f7592b0fa01631c7e48aabead714b7bde503000000000000000000000000000000000000000000000000000000000000000400000000000000000000000000000000000000000000000000000000000000000",
        "nonce": "0x46",
        "chainId": "0xaa36a7"
      },
      "additionalContracts": [],
      "isFixedGasLimit": false
    }
  ],
  "receipts": [
    {
      "status": "0x1",
      "cumulativeGasUsed": "0x1c5d238",
      "logs": [],
      "logsBloom": "0x00000000000000000000000000000000000000000000000000000000000000000000000000000000000000000000000000000000000000000000000000000000000000000000000000000000000000000000000000000000000000000000000000000000000000000000000000000000000000000000000000000000000000000000000000000000000000000000000000000000000000000000000000000000000000000000000000000000000000000000000000000000000000000000000000000000000000000000000000000000000000000000000000000000000000000000000000000000000000000000000000000000000000000000000000000000",
      "type": "0x2",
      "transactionHash": "0x27253b807569fb6183827d21db307544726fd4b09adb32c20197663bdbc072b9",
      "transactionIndex": "0xa8",
      "blockHash": "0xf87950e53ba37455dc04eee9cf11623f14eaaa3d87c145dc7a24217c01be9926",
      "blockNumber": "0x5cb85a",
      "gasUsed": "0x570dc",
      "effectiveGasPrice": "0x60d331",
      "from": "0xff9179199903a10283e19d86de8c09f2718073da",
      "to": null,
      "contractAddress": "0x8456f927d25585c7af2b43c070287510eb399ccc"
    },
    {
      "status": "0x1",
      "cumulativeGasUsed": "0xf63b99",
      "logs": [],
      "logsBloom": "0x00000000000000000000000000000000000000000000000000000000000000000000000000000000000000000000000000000000000000000000000000000000000000000000000000000000000000000000000000000000000000000000000000000000000000000000000000000000000000000000000000000000000000000000000000000000000000000000000000000000000000000000000000000000000000000000000000000000000000000000000000000000000000000000000000000000000000000000000000000000000000000000000000000000000000000000000000000000000000000000000000000000000000000000000000000000",
      "type": "0x2",
      "transactionHash": "0x65b297a6c792019f107e242e49c3bbe266528703bafe34b30d3ed57552944ad8",
      "transactionIndex": "0x61",
      "blockHash": "0x3847917eba49dea2212abda4bb52a8bc464096faf185b91d051c35a66ca1dd3c",
      "blockNumber": "0x5cb85b",
      "gasUsed": "0x7d28d",
      "effectiveGasPrice": "0x620a72",
      "from": "0xff9179199903a10283e19d86de8c09f2718073da",
      "to": null,
      "contractAddress": "0x6a2a2d6d65b803019a6bcb778b8dbe9733ead584"
    },
    {
      "status": "0x1",
      "cumulativeGasUsed": "0xfa1e47",
      "logs": [],
      "logsBloom": "0x00000000000000000000000000000000000000000000000000000000000000000000000000000000000000000000000000000000000000000000000000000000000000000000000000000000000000000000000000000000000000000000000000000000000000000000000000000000000000000000000000000000000000000000000000000000000000000000000000000000000000000000000000000000000000000000000000000000000000000000000000000000000000000000000000000000000000000000000000000000000000000000000000000000000000000000000000000000000000000000000000000000000000000000000000000000",
      "type": "0x2",
      "transactionHash": "0xa4509df7ccf6f348a983c8c980cd478b2f2e1cbfc565d8a69488a66179c53b32",
      "transactionIndex": "0x62",
      "blockHash": "0x3847917eba49dea2212abda4bb52a8bc464096faf185b91d051c35a66ca1dd3c",
      "blockNumber": "0x5cb85b",
      "gasUsed": "0x3e2ae",
      "effectiveGasPrice": "0x620a72",
      "from": "0xff9179199903a10283e19d86de8c09f2718073da",
      "to": null,
      "contractAddress": "0x3b22c377f244b89a7ada634b34eb428fe6f053d5"
    },
    {
      "status": "0x1",
      "cumulativeGasUsed": "0x108d2fa",
      "logs": [],
      "logsBloom": "0x00000000000000000000000000000000000000000000000000000000000000000000000000000000000000000000000000000000000000000000000000000000000000000000000000000000000000000000000000000000000000000000000000000000000000000000000000000000000000000000000000000000000000000000000000000000000000000000000000000000000000000000000000000000000000000000000000000000000000000000000000000000000000000000000000000000000000000000000000000000000000000000000000000000000000000000000000000000000000000000000000000000000000000000000000000000",
      "type": "0x2",
      "transactionHash": "0xaab42de77bb9cd0364d2f8686efc1669534a775291b470d1c3ea931939e875b7",
      "transactionIndex": "0x63",
      "blockHash": "0x3847917eba49dea2212abda4bb52a8bc464096faf185b91d051c35a66ca1dd3c",
      "blockNumber": "0x5cb85b",
      "gasUsed": "0xeb4b3",
      "effectiveGasPrice": "0x620a72",
      "from": "0xff9179199903a10283e19d86de8c09f2718073da",
      "to": null,
      "contractAddress": "0x71c911d96b8a77f00b89efb5a3ccced0d787665c"
    },
    {
      "status": "0x1",
      "cumulativeGasUsed": "0x111e382",
      "logs": [],
      "logsBloom": "0x00000000000000000000000000000000000000000000000000000000000000000000000000000000000000000000000000000000000000000000000000000000000000000000000000000000000000000000000000000000000000000000000000000000000000000000000000000000000000000000000000000000000000000000000000000000000000000000000000000000000000000000000000000000000000000000000000000000000000000000000000000000000000000000000000000000000000000000000000000000000000000000000000000000000000000000000000000000000000000000000000000000000000000000000000000000",
      "type": "0x2",
      "transactionHash": "0xb5c4ff15c322682b4ea7acc56bbf8b9b12ba08d355dacc587a61b41925b1e50d",
      "transactionIndex": "0x65",
      "blockHash": "0x3847917eba49dea2212abda4bb52a8bc464096faf185b91d051c35a66ca1dd3c",
      "blockNumber": "0x5cb85b",
      "gasUsed": "0x7a661",
      "effectiveGasPrice": "0x620a72",
      "from": "0xff9179199903a10283e19d86de8c09f2718073da",
      "to": null,
      "contractAddress": "0xcea57919682002dfe4d5aa8154f772ad1beba530"
    },
    {
      "status": "0x1",
      "cumulativeGasUsed": "0x12825f0",
      "logs": [],
      "logsBloom": "0x00000000000000000000000000000000000000000000000000000000000000000000000000000000000000000000000000000000000000000000000000000000000000000000000000000000000000000000000000000000000000000000000000000000000000000000000000000000000000000000000000000000000000000000000000000000000000000000000000000000000000000000000000000000000000000000000000000000000000000000000000000000000000000000000000000000000000000000000000000000000000000000000000000000000000000000000000000000000000000000000000000000000000000000000000000000",
      "type": "0x2",
      "transactionHash": "0xcf22b8e2ef18a3305926b6a7f2a8590d61173f179ee4e989ad02953f0a89e56b",
      "transactionIndex": "0x66",
      "blockHash": "0x3847917eba49dea2212abda4bb52a8bc464096faf185b91d051c35a66ca1dd3c",
      "blockNumber": "0x5cb85b",
      "gasUsed": "0x16426e",
      "effectiveGasPrice": "0x620a72",
      "from": "0xff9179199903a10283e19d86de8c09f2718073da",
      "to": null,
      "contractAddress": "0xd5a3ff0fcd55a95234bf37c2dc9bbda9ae908a6e"
    },
    {
      "status": "0x1",
      "cumulativeGasUsed": "0x131d41b",
      "logs": [],
      "logsBloom": "0x00000000000000000000000000000000000000000000000000000000000000000000000000000000000000000000000000000000000000000000000000000000000000000000000000000000000000000000000000000000000000000000000000000000000000000000000000000000000000000000000000000000000000000000000000000000000000000000000000000000000000000000000000000000000000000000000000000000000000000000000000000000000000000000000000000000000000000000000000000000000000000000000000000000000000000000000000000000000000000000000000000000000000000000000000000000",
      "type": "0x2",
      "transactionHash": "0xa9f8c2bc9ee51bb9fda305cf8f99690dc8ae71188b9c5fc34eca37a2f0114f0f",
      "transactionIndex": "0x67",
      "blockHash": "0x3847917eba49dea2212abda4bb52a8bc464096faf185b91d051c35a66ca1dd3c",
      "blockNumber": "0x5cb85b",
      "gasUsed": "0x9ae2b",
      "effectiveGasPrice": "0x620a72",
      "from": "0xff9179199903a10283e19d86de8c09f2718073da",
      "to": null,
      "contractAddress": "0x4c81223dc30759730799d94c2233797e7070b247"
    },
    {
      "status": "0x1",
      "cumulativeGasUsed": "0x136561e",
      "logs": [],
      "logsBloom": "0x00000000000000000000000000000000000000000000000000000000000000000000000000000000000000000000000000000000000000000000000000000000000000000000000000000000000000000000000000000000000000000000000000000000000000000000000000000000000000000000000000000000000000000000000000000000000000000000000000000000000000000000000000000000000000000000000000000000000000000000000000000000000000000000000000000000000000000000000000000000000000000000000000000000000000000000000000000000000000000000000000000000000000000000000000000000",
      "type": "0x2",
      "transactionHash": "0x5cad82a7cc52f091e28be6160b0a5b64c115eaa1fd0180728232469259fc5976",
      "transactionIndex": "0x68",
      "blockHash": "0x3847917eba49dea2212abda4bb52a8bc464096faf185b91d051c35a66ca1dd3c",
      "blockNumber": "0x5cb85b",
      "gasUsed": "0x48203",
      "effectiveGasPrice": "0x620a72",
      "from": "0xff9179199903a10283e19d86de8c09f2718073da",
      "to": null,
      "contractAddress": "0xf9b3d493caddb5274869d1c94ef831cfda8966bf"
    },
    {
      "status": "0x1",
      "cumulativeGasUsed": "0x13e609c",
      "logs": [],
      "logsBloom": "0x00000000000000000000000000000000000000000000000000000000000000000000000000000000000000000000000000000000000000000000000000000000000000000000000000000000000000000000000000000000000000000000000000000000000000000000000000000000000000000000000000000000000000000000000000000000000000000000000000000000000000000000000000000000000000000000000000000000000000000000000000000000000000000000000000000000000000000000000000000000000000000000000000000000000000000000000000000000000000000000000000000000000000000000000000000000",
      "type": "0x2",
      "transactionHash": "0xd4844a11d8d73879e166585aec9e9891f114c8c7f3fc32eb7231616f01bb221b",
      "transactionIndex": "0x69",
      "blockHash": "0x3847917eba49dea2212abda4bb52a8bc464096faf185b91d051c35a66ca1dd3c",
      "blockNumber": "0x5cb85b",
      "gasUsed": "0x80a7e",
      "effectiveGasPrice": "0x620a72",
      "from": "0xff9179199903a10283e19d86de8c09f2718073da",
      "to": null,
      "contractAddress": "0x621e53b3b8d6ade9aa086270f32cc2353a3e93eb"
    },
    {
      "status": "0x1",
      "cumulativeGasUsed": "0x1413209",
      "logs": [],
      "logsBloom": "0x00000000000000000000000000000000000000000000000000000000000000000000000000000000000000000000000000000000000000000000000000000000000000000000000000000000000000000000000000000000000000000000000000000000000000000000000000000000000000000000000000000000000000000000000000000000000000000000000000000000000000000000000000000000000000000000000000000000000000000000000000000000000000000000000000000000000000000000000000000000000000000000000000000000000000000000000000000000000000000000000000000000000000000000000000000000",
      "type": "0x2",
      "transactionHash": "0xf4d66ef9e87b337f6690ccd963b80b422fd5d75653df5b764bef90918d19f1c2",
      "transactionIndex": "0x6a",
      "blockHash": "0x3847917eba49dea2212abda4bb52a8bc464096faf185b91d051c35a66ca1dd3c",
      "blockNumber": "0x5cb85b",
      "gasUsed": "0x2d16d",
      "effectiveGasPrice": "0x620a72",
      "from": "0xff9179199903a10283e19d86de8c09f2718073da",
      "to": null,
      "contractAddress": "0x9d37ee8942e8c24adbb41a77370eb4b1013c526f"
    },
    {
      "status": "0x1",
      "cumulativeGasUsed": "0x1450237",
      "logs": [],
      "logsBloom": "0x00000000000000000000000000000000000000000000000000000000000000000000000000000000000000000000000000000000000000000000000000000000000000000000000000000000000000000000000000000000000000000000000000000000000000000000000000000000000000000000000000000000000000000000000000000000000000000000000000000000000000000000000000000000000000000000000000000000000000000000000000000000000000000000000000000000000000000000000000000000000000000000000000000000000000000000000000000000000000000000000000000000000000000000000000000000",
      "type": "0x2",
      "transactionHash": "0xe322b11c9dc7b3e48f0f3c52022aad1a0e4c5a28fa35571f2e04a1e7d22c0b86",
      "transactionIndex": "0x6b",
      "blockHash": "0x3847917eba49dea2212abda4bb52a8bc464096faf185b91d051c35a66ca1dd3c",
      "blockNumber": "0x5cb85b",
      "gasUsed": "0x3d02e",
      "effectiveGasPrice": "0x620a72",
      "from": "0xff9179199903a10283e19d86de8c09f2718073da",
      "to": null,
      "contractAddress": "0x3389774e280a511b7a73925c698b6efe437d53b4"
    },
    {
      "status": "0x1",
      "cumulativeGasUsed": "0x1535db4",
      "logs": [],
      "logsBloom": "0x00000000000000000000000000000000000000000000000000000000000000000000000000000000000000000000000000000000000000000000000000000000000000000000000000000000000000000000000000000000000000000000000000000000000000000000000000000000000000000000000000000000000000000000000000000000000000000000000000000000000000000000000000000000000000000000000000000000000000000000000000000000000000000000000000000000000000000000000000000000000000000000000000000000000000000000000000000000000000000000000000000000000000000000000000000000",
      "type": "0x2",
      "transactionHash": "0xa693a3c29b5a0c4ef517695894836dcf2404a7acc96f2978f15e44f094ef0de1",
      "transactionIndex": "0x6c",
      "blockHash": "0x3847917eba49dea2212abda4bb52a8bc464096faf185b91d051c35a66ca1dd3c",
      "blockNumber": "0x5cb85b",
      "gasUsed": "0xe5b7d",
      "effectiveGasPrice": "0x620a72",
      "from": "0xff9179199903a10283e19d86de8c09f2718073da",
      "to": null,
      "contractAddress": "0x28c707f619a5af6cf0bf3ee92f946787f32c8627"
    },
    {
      "status": "0x1",
      "cumulativeGasUsed": "0x15da604",
      "logs": [],
      "logsBloom": "0x00000000000000000000000000000000000000000000000000000000000000000000000000000000000000000000000000000000000000000000000000000000000000000000000000000000000000000000000000000000000000000000000000000000000000000000000000000000000000000000000000000000000000000000000000000000000000000000000000000000000000000000000000000000000000000000000000000000000000000000000000000000000000000000000000000000000000000000000000000000000000000000000000000000000000000000000000000000000000000000000000000000000000000000000000000000",
      "type": "0x2",
      "transactionHash": "0x7e3a683cc896cb02a08a3dde9ea240f8dee4e79096c5d940d788186a11a9a717",
      "transactionIndex": "0x6d",
      "blockHash": "0x3847917eba49dea2212abda4bb52a8bc464096faf185b91d051c35a66ca1dd3c",
      "blockNumber": "0x5cb85b",
      "gasUsed": "0xa4850",
      "effectiveGasPrice": "0x620a72",
      "from": "0xff9179199903a10283e19d86de8c09f2718073da",
      "to": null,
      "contractAddress": "0xf7ee7c559d61dbd201ef370091e8d089402ae009"
    },
    {
      "status": "0x1",
      "cumulativeGasUsed": "0x165b53c",
      "logs": [
        {
          "address": "0x066f7592b0fa01631c7e48aabead714b7bde5030",
          "topics": [
            "0x8be0079c531659141344cd1fd0a4f28419497f9722a3daafe3b4186f6b6457e0",
            "0x0000000000000000000000000000000000000000000000000000000000000000",
            "0x000000000000000000000000ff9179199903a10283e19d86de8c09f2718073da"
          ],
          "data": "0x",
          "blockHash": "0x3847917eba49dea2212abda4bb52a8bc464096faf185b91d051c35a66ca1dd3c",
          "blockNumber": "0x5cb85b",
          "transactionHash": "0x84c47bfa0b541d4a2c20057e72f9d835f2e639f2630484975a653503436cd7a1",
          "transactionIndex": "0x6e",
          "logIndex": "0xe8",
          "removed": false
        }
      ],
      "logsBloom": "0x00000000000000000000000004000000000000000000000000800000000000000000000000000000200000000000000000000000000000000000000000000000000000000000000000000000000000000001000000000000000000000000000000000000020000000000000000000800000000000000000000000000000000400000000000000000200000000000000000000000000000000000000000000000000000000000000000000000000000000000000000000000000000000000000000000000000000000002000000000000000000000000000000000000000020000001000000000000000000000000000000000000000000000200000000000000",
      "type": "0x2",
      "transactionHash": "0x84c47bfa0b541d4a2c20057e72f9d835f2e639f2630484975a653503436cd7a1",
      "transactionIndex": "0x6e",
      "blockHash": "0x3847917eba49dea2212abda4bb52a8bc464096faf185b91d051c35a66ca1dd3c",
      "blockNumber": "0x5cb85b",
      "gasUsed": "0x80f38",
      "effectiveGasPrice": "0x620a72",
      "from": "0xff9179199903a10283e19d86de8c09f2718073da",
      "to": null,
      "contractAddress": "0x066f7592b0fa01631c7e48aabead714b7bde5030"
    },
    {
      "status": "0x1",
      "cumulativeGasUsed": "0x1672cf9",
      "logs": [
        {
          "address": "0x066f7592b0fa01631c7e48aabead714b7bde5030",
          "topics": [
            "0xbe533f538959a17d76f1b09e966e741ee3b1183099682f96216c93d21feaecba"
          ],
          "data": "0x8ca89f7700000000000000000000000000000000000000000000000000000000",
          "blockHash": "0x3847917eba49dea2212abda4bb52a8bc464096faf185b91d051c35a66ca1dd3c",
          "blockNumber": "0x5cb85b",
          "transactionHash": "0x004fcdf20d30778a342676563fa1d4423c19e742126ef5d7fbdd85a61e4357d6",
          "transactionIndex": "0x6f",
          "logIndex": "0xe9",
          "removed": false
        },
        {
          "address": "0x066f7592b0fa01631c7e48aabead714b7bde5030",
          "topics": [
            "0xda3c8142b3c1d27633026f55bfcb4eeb0b5b8db0daa0a3e10c2213a441722ad1"
          ],
          "data": "0x8ca89f77000000000000000000000000000000000000000000000000000000000000000000000000000000006a2a2d6d65b803019a6bcb778b8dbe9733ead584",
          "blockHash": "0x3847917eba49dea2212abda4bb52a8bc464096faf185b91d051c35a66ca1dd3c",
          "blockNumber": "0x5cb85b",
          "transactionHash": "0x004fcdf20d30778a342676563fa1d4423c19e742126ef5d7fbdd85a61e4357d6",
          "transactionIndex": "0x6f",
          "logIndex": "0xea",
          "removed": false
        }
      ],
      "logsBloom": "0x00000000000000000000000000000000000000000000000000000000000000080000000000000000200000000000000000000000000000000000000000000000000000000000000000000000000000000000000000000000000000000000000000000000000000000000200000000000000000000000000010000000000000000000000000000000000000000000100000000000000000000000000000000000000000000000000000004000080000000000000000000000000000000000000000000000000000000002000000000000000000000000000000000000000000000001000000000000000000000000000000000000000000000000000000000000",
      "type": "0x2",
      "transactionHash": "0x004fcdf20d30778a342676563fa1d4423c19e742126ef5d7fbdd85a61e4357d6",
      "transactionIndex": "0x6f",
      "blockHash": "0x3847917eba49dea2212abda4bb52a8bc464096faf185b91d051c35a66ca1dd3c",
      "blockNumber": "0x5cb85b",
      "gasUsed": "0x177bd",
      "effectiveGasPrice": "0x620a72",
      "from": "0xff9179199903a10283e19d86de8c09f2718073da",
      "to": "0x066f7592b0fa01631c7e48aabead714b7bde5030",
      "contractAddress": null
    },
    {
      "status": "0x1",
      "cumulativeGasUsed": "0xf963ab",
      "logs": [
        {
          "address": "0x066f7592b0fa01631c7e48aabead714b7bde5030",
          "topics": [
            "0xbe533f538959a17d76f1b09e966e741ee3b1183099682f96216c93d21feaecba"
          ],
          "data": "0xdc1ec0e500000000000000000000000000000000000000000000000000000000",
          "blockHash": "0xa9683c4b72eefdd3d7dc8d9dc1feb1fbd0977f44bef356b8949803b2c385499e",
          "blockNumber": "0x5cb85c",
          "transactionHash": "0xdc932d443eed77d9e137016218cb58c0502a235d1ad38136667b7f7f67b2f69b",
          "transactionIndex": "0x78",
          "logIndex": "0xd9",
          "removed": false
        },
        {
          "address": "0x066f7592b0fa01631c7e48aabead714b7bde5030",
          "topics": [
            "0xda3c8142b3c1d27633026f55bfcb4eeb0b5b8db0daa0a3e10c2213a441722ad1"
          ],
          "data": "0xdc1ec0e5000000000000000000000000000000000000000000000000000000000000000000000000000000003b22c377f244b89a7ada634b34eb428fe6f053d5",
          "blockHash": "0xa9683c4b72eefdd3d7dc8d9dc1feb1fbd0977f44bef356b8949803b2c385499e",
          "blockNumber": "0x5cb85c",
          "transactionHash": "0xdc932d443eed77d9e137016218cb58c0502a235d1ad38136667b7f7f67b2f69b",
          "transactionIndex": "0x78",
          "logIndex": "0xda",
          "removed": false
        }
      ],
      "logsBloom": "0x00000000000000000000000000000000000000000000000000000000000000080000000000000000200000000000000000000000000000000000000000000000000000000000000000000000000000000000000000000000000000000000000000000000000000000000200000000000000000000000000010000000000000000000000000000000000000000000100000000000000000000000000000000000000000000000000000004000080000000000000000000000000000000000000000000000000000000002000000000000000000000000000000000000000000000001000000000000000000000000000000000000000000000000000000000000",
      "type": "0x2",
      "transactionHash": "0xdc932d443eed77d9e137016218cb58c0502a235d1ad38136667b7f7f67b2f69b",
      "transactionIndex": "0x78",
      "blockHash": "0xa9683c4b72eefdd3d7dc8d9dc1feb1fbd0977f44bef356b8949803b2c385499e",
      "blockNumber": "0x5cb85c",
      "gasUsed": "0xf487",
      "effectiveGasPrice": "0x63213a",
      "from": "0xff9179199903a10283e19d86de8c09f2718073da",
      "to": "0x066f7592b0fa01631c7e48aabead714b7bde5030",
      "contractAddress": null
    },
    {
      "status": "0x1",
      "cumulativeGasUsed": "0xfa5a94",
      "logs": [
        {
          "address": "0x066f7592b0fa01631c7e48aabead714b7bde5030",
          "topics": [
            "0xbe533f538959a17d76f1b09e966e741ee3b1183099682f96216c93d21feaecba"
          ],
          "data": "0x9f46786e00000000000000000000000000000000000000000000000000000000",
          "blockHash": "0xa9683c4b72eefdd3d7dc8d9dc1feb1fbd0977f44bef356b8949803b2c385499e",
          "blockNumber": "0x5cb85c",
          "transactionHash": "0x0eeab7222372065b4b6d808b259d34554d094522ff6354d9ed16c0df71c0dfa2",
          "transactionIndex": "0x79",
          "logIndex": "0xdb",
          "removed": false
        },
        {
          "address": "0x066f7592b0fa01631c7e48aabead714b7bde5030",
          "topics": [
            "0xda3c8142b3c1d27633026f55bfcb4eeb0b5b8db0daa0a3e10c2213a441722ad1"
          ],
          "data": "0x9f46786e0000000000000000000000000000000000000000000000000000000000000000000000000000000071c911d96b8a77f00b89efb5a3ccced0d787665c",
          "blockHash": "0xa9683c4b72eefdd3d7dc8d9dc1feb1fbd0977f44bef356b8949803b2c385499e",
          "blockNumber": "0x5cb85c",
          "transactionHash": "0x0eeab7222372065b4b6d808b259d34554d094522ff6354d9ed16c0df71c0dfa2",
          "transactionIndex": "0x79",
          "logIndex": "0xdc",
          "removed": false
        }
      ],
      "logsBloom": "0x00000000000000000000000000000000000000000000000000000000000000080000000000000000200000000000000000000000000000000000000000000000000000000000000000000000000000000000000000000000000000000000000000000000000000000000200000000000000000000000000010000000000000000000000000000000000000000000100000000000000000000000000000000000000000000000000000004000080000000000000000000000000000000000000000000000000000000002000000000000000000000000000000000000000000000001000000000000000000000000000000000000000000000000000000000000",
      "type": "0x2",
      "transactionHash": "0x0eeab7222372065b4b6d808b259d34554d094522ff6354d9ed16c0df71c0dfa2",
      "transactionIndex": "0x79",
      "blockHash": "0xa9683c4b72eefdd3d7dc8d9dc1feb1fbd0977f44bef356b8949803b2c385499e",
      "blockNumber": "0x5cb85c",
      "gasUsed": "0xf6e9",
      "effectiveGasPrice": "0x63213a",
      "from": "0xff9179199903a10283e19d86de8c09f2718073da",
      "to": "0x066f7592b0fa01631c7e48aabead714b7bde5030",
      "contractAddress": null
    },
    {
      "status": "0x1",
      "cumulativeGasUsed": "0xfb53df",
      "logs": [
        {
          "address": "0x066f7592b0fa01631c7e48aabead714b7bde5030",
          "topics": [
            "0xbe533f538959a17d76f1b09e966e741ee3b1183099682f96216c93d21feaecba"
          ],
          "data": "0x603d9eb700000000000000000000000000000000000000000000000000000000",
          "blockHash": "0xa9683c4b72eefdd3d7dc8d9dc1feb1fbd0977f44bef356b8949803b2c385499e",
          "blockNumber": "0x5cb85c",
          "transactionHash": "0x7e5df78908595b45dfa5779ccc560098ced7307bafc19ff5e4c2a8773f92b32c",
          "transactionIndex": "0x7a",
          "logIndex": "0xdd",
          "removed": false
        },
        {
          "address": "0x066f7592b0fa01631c7e48aabead714b7bde5030",
          "topics": [
            "0xda3c8142b3c1d27633026f55bfcb4eeb0b5b8db0daa0a3e10c2213a441722ad1"
          ],
          "data": "0x603d9eb700000000000000000000000000000000000000000000000000000000000000000000000000000000cea57919682002dfe4d5aa8154f772ad1beba530",
          "blockHash": "0xa9683c4b72eefdd3d7dc8d9dc1feb1fbd0977f44bef356b8949803b2c385499e",
          "blockNumber": "0x5cb85c",
          "transactionHash": "0x7e5df78908595b45dfa5779ccc560098ced7307bafc19ff5e4c2a8773f92b32c",
          "transactionIndex": "0x7a",
          "logIndex": "0xde",
          "removed": false
        }
      ],
      "logsBloom": "0x00000000000000000000000000000000000000000000000000000000000000080000000000000000200000000000000000000000000000000000000000000000000000000000000000000000000000000000000000000000000000000000000000000000000000000000200000000000000000000000000010000000000000000000000000000000000000000000100000000000000000000000000000000000000000000000000000004000080000000000000000000000000000000000000000000000000000000002000000000000000000000000000000000000000000000001000000000000000000000000000000000000000000000000000000000000",
      "type": "0x2",
      "transactionHash": "0x7e5df78908595b45dfa5779ccc560098ced7307bafc19ff5e4c2a8773f92b32c",
      "transactionIndex": "0x7a",
      "blockHash": "0xa9683c4b72eefdd3d7dc8d9dc1feb1fbd0977f44bef356b8949803b2c385499e",
      "blockNumber": "0x5cb85c",
      "gasUsed": "0xf94b",
      "effectiveGasPrice": "0x63213a",
      "from": "0xff9179199903a10283e19d86de8c09f2718073da",
      "to": "0x066f7592b0fa01631c7e48aabead714b7bde5030",
      "contractAddress": null
    },
    {
      "status": "0x1",
      "cumulativeGasUsed": "0xfc4f8c",
      "logs": [
        {
          "address": "0x066f7592b0fa01631c7e48aabead714b7bde5030",
          "topics": [
            "0xbe533f538959a17d76f1b09e966e741ee3b1183099682f96216c93d21feaecba"
          ],
          "data": "0xc5b3644100000000000000000000000000000000000000000000000000000000",
          "blockHash": "0xa9683c4b72eefdd3d7dc8d9dc1feb1fbd0977f44bef356b8949803b2c385499e",
          "blockNumber": "0x5cb85c",
          "transactionHash": "0x6541d9b49700b3a0c163a5744203f0ddd0cc6189a016792e1c8536081439b561",
          "transactionIndex": "0x7b",
          "logIndex": "0xdf",
          "removed": false
        },
        {
          "address": "0x066f7592b0fa01631c7e48aabead714b7bde5030",
          "topics": [
            "0xda3c8142b3c1d27633026f55bfcb4eeb0b5b8db0daa0a3e10c2213a441722ad1"
          ],
          "data": "0xc5b36441000000000000000000000000000000000000000000000000000000000000000000000000000000008456f927d25585c7af2b43c070287510eb399ccc",
          "blockHash": "0xa9683c4b72eefdd3d7dc8d9dc1feb1fbd0977f44bef356b8949803b2c385499e",
          "blockNumber": "0x5cb85c",
          "transactionHash": "0x6541d9b49700b3a0c163a5744203f0ddd0cc6189a016792e1c8536081439b561",
          "transactionIndex": "0x7b",
          "logIndex": "0xe0",
          "removed": false
        }
      ],
      "logsBloom": "0x00000000000000000000000000000000000000000000000000000000000000080000000000000000200000000000000000000000000000000000000000000000000000000000000000000000000000000000000000000000000000000000000000000000000000000000200000000000000000000000000010000000000000000000000000000000000000000000100000000000000000000000000000000000000000000000000000004000080000000000000000000000000000000000000000000000000000000002000000000000000000000000000000000000000000000001000000000000000000000000000000000000000000000000000000000000",
      "type": "0x2",
      "transactionHash": "0x6541d9b49700b3a0c163a5744203f0ddd0cc6189a016792e1c8536081439b561",
      "transactionIndex": "0x7b",
      "blockHash": "0xa9683c4b72eefdd3d7dc8d9dc1feb1fbd0977f44bef356b8949803b2c385499e",
      "blockNumber": "0x5cb85c",
      "gasUsed": "0xfbad",
      "effectiveGasPrice": "0x63213a",
      "from": "0xff9179199903a10283e19d86de8c09f2718073da",
      "to": "0x066f7592b0fa01631c7e48aabead714b7bde5030",
      "contractAddress": null
    },
    {
      "status": "0x1",
      "cumulativeGasUsed": "0xfd4d9b",
      "logs": [
        {
          "address": "0x066f7592b0fa01631c7e48aabead714b7bde5030",
          "topics": [
            "0xbe533f538959a17d76f1b09e966e741ee3b1183099682f96216c93d21feaecba"
          ],
          "data": "0xe69b9edc00000000000000000000000000000000000000000000000000000000",
          "blockHash": "0xa9683c4b72eefdd3d7dc8d9dc1feb1fbd0977f44bef356b8949803b2c385499e",
          "blockNumber": "0x5cb85c",
          "transactionHash": "0xb909a50e2ad1d6f533275e3bca1db46280b656b61c29250c1827ed7a6fc0f228",
          "transactionIndex": "0x7c",
          "logIndex": "0xe1",
          "removed": false
        },
        {
          "address": "0x066f7592b0fa01631c7e48aabead714b7bde5030",
          "topics": [
            "0xda3c8142b3c1d27633026f55bfcb4eeb0b5b8db0daa0a3e10c2213a441722ad1"
          ],
          "data": "0xe69b9edc000000000000000000000000000000000000000000000000000000000000000000000000000000008456f927d25585c7af2b43c070287510eb399ccc",
          "blockHash": "0xa9683c4b72eefdd3d7dc8d9dc1feb1fbd0977f44bef356b8949803b2c385499e",
          "blockNumber": "0x5cb85c",
          "transactionHash": "0xb909a50e2ad1d6f533275e3bca1db46280b656b61c29250c1827ed7a6fc0f228",
          "transactionIndex": "0x7c",
          "logIndex": "0xe2",
          "removed": false
        }
      ],
      "logsBloom": "0x00000000000000000000000000000000000000000000000000000000000000080000000000000000200000000000000000000000000000000000000000000000000000000000000000000000000000000000000000000000000000000000000000000000000000000000200000000000000000000000000010000000000000000000000000000000000000000000100000000000000000000000000000000000000000000000000000004000080000000000000000000000000000000000000000000000000000000002000000000000000000000000000000000000000000000001000000000000000000000000000000000000000000000000000000000000",
      "type": "0x2",
      "transactionHash": "0xb909a50e2ad1d6f533275e3bca1db46280b656b61c29250c1827ed7a6fc0f228",
      "transactionIndex": "0x7c",
      "blockHash": "0xa9683c4b72eefdd3d7dc8d9dc1feb1fbd0977f44bef356b8949803b2c385499e",
      "blockNumber": "0x5cb85c",
      "gasUsed": "0xfe0f",
      "effectiveGasPrice": "0x63213a",
      "from": "0xff9179199903a10283e19d86de8c09f2718073da",
      "to": "0x066f7592b0fa01631c7e48aabead714b7bde5030",
      "contractAddress": null
    },
    {
      "status": "0x1",
      "cumulativeGasUsed": "0xfe4e0c",
      "logs": [
        {
          "address": "0x066f7592b0fa01631c7e48aabead714b7bde5030",
          "topics": [
            "0xbe533f538959a17d76f1b09e966e741ee3b1183099682f96216c93d21feaecba"
          ],
          "data": "0xed8b6b3100000000000000000000000000000000000000000000000000000000",
          "blockHash": "0xa9683c4b72eefdd3d7dc8d9dc1feb1fbd0977f44bef356b8949803b2c385499e",
          "blockNumber": "0x5cb85c",
          "transactionHash": "0xb838f7c8c8008acefc2c39b642157f9c562a75e0fccd48fca42683fe2bd894c9",
          "transactionIndex": "0x7d",
          "logIndex": "0xe3",
          "removed": false
        },
        {
          "address": "0x066f7592b0fa01631c7e48aabead714b7bde5030",
          "topics": [
            "0xda3c8142b3c1d27633026f55bfcb4eeb0b5b8db0daa0a3e10c2213a441722ad1"
          ],
          "data": "0xed8b6b3100000000000000000000000000000000000000000000000000000000000000000000000000000000d5a3ff0fcd55a95234bf37c2dc9bbda9ae908a6e",
          "blockHash": "0xa9683c4b72eefdd3d7dc8d9dc1feb1fbd0977f44bef356b8949803b2c385499e",
          "blockNumber": "0x5cb85c",
          "transactionHash": "0xb838f7c8c8008acefc2c39b642157f9c562a75e0fccd48fca42683fe2bd894c9",
          "transactionIndex": "0x7d",
          "logIndex": "0xe4",
          "removed": false
        }
      ],
      "logsBloom": "0x00000000000000000000000000000000000000000000000000000000000000080000000000000000200000000000000000000000000000000000000000000000000000000000000000000000000000000000000000000000000000000000000000000000000000000000200000000000000000000000000010000000000000000000000000000000000000000000100000000000000000000000000000000000000000000000000000004000080000000000000000000000000000000000000000000000000000000002000000000000000000000000000000000000000000000001000000000000000000000000000000000000000000000000000000000000",
      "type": "0x2",
      "transactionHash": "0xb838f7c8c8008acefc2c39b642157f9c562a75e0fccd48fca42683fe2bd894c9",
      "transactionIndex": "0x7d",
      "blockHash": "0xa9683c4b72eefdd3d7dc8d9dc1feb1fbd0977f44bef356b8949803b2c385499e",
      "blockNumber": "0x5cb85c",
      "gasUsed": "0x10071",
      "effectiveGasPrice": "0x63213a",
      "from": "0xff9179199903a10283e19d86de8c09f2718073da",
      "to": "0x066f7592b0fa01631c7e48aabead714b7bde5030",
      "contractAddress": null
    },
    {
      "status": "0x1",
      "cumulativeGasUsed": "0xff50df",
      "logs": [
        {
          "address": "0x066f7592b0fa01631c7e48aabead714b7bde5030",
          "topics": [
            "0xbe533f538959a17d76f1b09e966e741ee3b1183099682f96216c93d21feaecba"
          ],
          "data": "0xfe0d94c100000000000000000000000000000000000000000000000000000000",
          "blockHash": "0xa9683c4b72eefdd3d7dc8d9dc1feb1fbd0977f44bef356b8949803b2c385499e",
          "blockNumber": "0x5cb85c",
          "transactionHash": "0xb7e92ad3b56a416da8a92bc1b5ecf908f6f80159550022e323aa367303dc3e16",
          "transactionIndex": "0x7e",
          "logIndex": "0xe5",
          "removed": false
        },
        {
          "address": "0x066f7592b0fa01631c7e48aabead714b7bde5030",
          "topics": [
            "0xda3c8142b3c1d27633026f55bfcb4eeb0b5b8db0daa0a3e10c2213a441722ad1"
          ],
          "data": "0xfe0d94c1000000000000000000000000000000000000000000000000000000000000000000000000000000004c81223dc30759730799d94c2233797e7070b247",
          "blockHash": "0xa9683c4b72eefdd3d7dc8d9dc1feb1fbd0977f44bef356b8949803b2c385499e",
          "blockNumber": "0x5cb85c",
          "transactionHash": "0xb7e92ad3b56a416da8a92bc1b5ecf908f6f80159550022e323aa367303dc3e16",
          "transactionIndex": "0x7e",
          "logIndex": "0xe6",
          "removed": false
        }
      ],
      "logsBloom": "0x00000000000000000000000000000000000000000000000000000000000000080000000000000000200000000000000000000000000000000000000000000000000000000000000000000000000000000000000000000000000000000000000000000000000000000000200000000000000000000000000010000000000000000000000000000000000000000000100000000000000000000000000000000000000000000000000000004000080000000000000000000000000000000000000000000000000000000002000000000000000000000000000000000000000000000001000000000000000000000000000000000000000000000000000000000000",
      "type": "0x2",
      "transactionHash": "0xb7e92ad3b56a416da8a92bc1b5ecf908f6f80159550022e323aa367303dc3e16",
      "transactionIndex": "0x7e",
      "blockHash": "0xa9683c4b72eefdd3d7dc8d9dc1feb1fbd0977f44bef356b8949803b2c385499e",
      "blockNumber": "0x5cb85c",
      "gasUsed": "0x102d3",
      "effectiveGasPrice": "0x63213a",
      "from": "0xff9179199903a10283e19d86de8c09f2718073da",
      "to": "0x066f7592b0fa01631c7e48aabead714b7bde5030",
      "contractAddress": null
    },
    {
      "status": "0x1",
      "cumulativeGasUsed": "0x100a07e",
      "logs": [
        {
          "address": "0x066f7592b0fa01631c7e48aabead714b7bde5030",
          "topics": [
            "0xbe533f538959a17d76f1b09e966e741ee3b1183099682f96216c93d21feaecba"
          ],
          "data": "0x06f7e36d00000000000000000000000000000000000000000000000000000000",
          "blockHash": "0xa9683c4b72eefdd3d7dc8d9dc1feb1fbd0977f44bef356b8949803b2c385499e",
          "blockNumber": "0x5cb85c",
          "transactionHash": "0xb8896d626734b6d7e2645d010d3ef562f57591639bba3850e89ff3df1bf07427",
          "transactionIndex": "0x7f",
          "logIndex": "0xe7",
          "removed": false
        },
        {
          "address": "0x066f7592b0fa01631c7e48aabead714b7bde5030",
          "topics": [
            "0xda3c8142b3c1d27633026f55bfcb4eeb0b5b8db0daa0a3e10c2213a441722ad1"
          ],
          "data": "0x06f7e36d00000000000000000000000000000000000000000000000000000000000000000000000000000000f9b3d493caddb5274869d1c94ef831cfda8966bf",
          "blockHash": "0xa9683c4b72eefdd3d7dc8d9dc1feb1fbd0977f44bef356b8949803b2c385499e",
          "blockNumber": "0x5cb85c",
          "transactionHash": "0xb8896d626734b6d7e2645d010d3ef562f57591639bba3850e89ff3df1bf07427",
          "transactionIndex": "0x7f",
          "logIndex": "0xe8",
          "removed": false
        }
      ],
      "logsBloom": "0x00000000000000000000000000000000000000000000000000000000000000080000000000000000200000000000000000000000000000000000000000000000000000000000000000000000000000000000000000000000000000000000000000000000000000000000200000000000000000000000000010000000000000000000000000000000000000000000100000000000000000000000000000000000000000000000000000004000080000000000000000000000000000000000000000000000000000000002000000000000000000000000000000000000000000000001000000000000000000000000000000000000000000000000000000000000",
      "type": "0x2",
      "transactionHash": "0xb8896d626734b6d7e2645d010d3ef562f57591639bba3850e89ff3df1bf07427",
      "transactionIndex": "0x7f",
      "blockHash": "0xa9683c4b72eefdd3d7dc8d9dc1feb1fbd0977f44bef356b8949803b2c385499e",
      "blockNumber": "0x5cb85c",
      "gasUsed": "0x14f9f",
      "effectiveGasPrice": "0x63213a",
      "from": "0xff9179199903a10283e19d86de8c09f2718073da",
      "to": "0x066f7592b0fa01631c7e48aabead714b7bde5030",
      "contractAddress": null
    },
    {
      "status": "0x1",
      "cumulativeGasUsed": "0x101afb3",
      "logs": [
        {
          "address": "0x066f7592b0fa01631c7e48aabead714b7bde5030",
          "topics": [
            "0xbe533f538959a17d76f1b09e966e741ee3b1183099682f96216c93d21feaecba"
          ],
          "data": "0x5cefc4ad00000000000000000000000000000000000000000000000000000000",
          "blockHash": "0xa9683c4b72eefdd3d7dc8d9dc1feb1fbd0977f44bef356b8949803b2c385499e",
          "blockNumber": "0x5cb85c",
          "transactionHash": "0x801e353f1e25bd752765fe951308caa5fea6c1f2ed68742c9b4c4ded1e65ef78",
          "transactionIndex": "0x80",
          "logIndex": "0xe9",
          "removed": false
        },
        {
          "address": "0x066f7592b0fa01631c7e48aabead714b7bde5030",
          "topics": [
            "0xda3c8142b3c1d27633026f55bfcb4eeb0b5b8db0daa0a3e10c2213a441722ad1"
          ],
          "data": "0x5cefc4ad00000000000000000000000000000000000000000000000000000000000000000000000000000000621e53b3b8d6ade9aa086270f32cc2353a3e93eb",
          "blockHash": "0xa9683c4b72eefdd3d7dc8d9dc1feb1fbd0977f44bef356b8949803b2c385499e",
          "blockNumber": "0x5cb85c",
          "transactionHash": "0x801e353f1e25bd752765fe951308caa5fea6c1f2ed68742c9b4c4ded1e65ef78",
          "transactionIndex": "0x80",
          "logIndex": "0xea",
          "removed": false
        }
      ],
      "logsBloom": "0x00000000000000000000000000000000000000000000000000000000000000080000000000000000200000000000000000000000000000000000000000000000000000000000000000000000000000000000000000000000000000000000000000000000000000000000200000000000000000000000000010000000000000000000000000000000000000000000100000000000000000000000000000000000000000000000000000004000080000000000000000000000000000000000000000000000000000000002000000000000000000000000000000000000000000000001000000000000000000000000000000000000000000000000000000000000",
      "type": "0x2",
      "transactionHash": "0x801e353f1e25bd752765fe951308caa5fea6c1f2ed68742c9b4c4ded1e65ef78",
      "transactionIndex": "0x80",
      "blockHash": "0xa9683c4b72eefdd3d7dc8d9dc1feb1fbd0977f44bef356b8949803b2c385499e",
      "blockNumber": "0x5cb85c",
      "gasUsed": "0x10f35",
      "effectiveGasPrice": "0x63213a",
      "from": "0xff9179199903a10283e19d86de8c09f2718073da",
      "to": "0x066f7592b0fa01631c7e48aabead714b7bde5030",
      "contractAddress": null
    },
    {
      "status": "0x1",
      "cumulativeGasUsed": "0x102c14a",
      "logs": [
        {
          "address": "0x066f7592b0fa01631c7e48aabead714b7bde5030",
          "topics": [
            "0xbe533f538959a17d76f1b09e966e741ee3b1183099682f96216c93d21feaecba"
          ],
          "data": "0x9f31e87b00000000000000000000000000000000000000000000000000000000",
          "blockHash": "0xa9683c4b72eefdd3d7dc8d9dc1feb1fbd0977f44bef356b8949803b2c385499e",
          "blockNumber": "0x5cb85c",
          "transactionHash": "0x6cbe8df0dbe9e889c38e6c03d8f2620d81e44d24822ff77b5f1272889cec1195",
          "transactionIndex": "0x81",
          "logIndex": "0xeb",
          "removed": false
        },
        {
          "address": "0x066f7592b0fa01631c7e48aabead714b7bde5030",
          "topics": [
            "0xda3c8142b3c1d27633026f55bfcb4eeb0b5b8db0daa0a3e10c2213a441722ad1"
          ],
          "data": "0x9f31e87b000000000000000000000000000000000000000000000000000000000000000000000000000000009d37ee8942e8c24adbb41a77370eb4b1013c526f",
          "blockHash": "0xa9683c4b72eefdd3d7dc8d9dc1feb1fbd0977f44bef356b8949803b2c385499e",
          "blockNumber": "0x5cb85c",
          "transactionHash": "0x6cbe8df0dbe9e889c38e6c03d8f2620d81e44d24822ff77b5f1272889cec1195",
          "transactionIndex": "0x81",
          "logIndex": "0xec",
          "removed": false
        }
      ],
      "logsBloom": "0x00000000000000000000000000000000000000000000000000000000000000080000000000000000200000000000000000000000000000000000000000000000000000000000000000000000000000000000000000000000000000000000000000000000000000000000200000000000000000000000000010000000000000000000000000000000000000000000100000000000000000000000000000000000000000000000000000004000080000000000000000000000000000000000000000000000000000000002000000000000000000000000000000000000000000000001000000000000000000000000000000000000000000000000000000000000",
      "type": "0x2",
      "transactionHash": "0x6cbe8df0dbe9e889c38e6c03d8f2620d81e44d24822ff77b5f1272889cec1195",
      "transactionIndex": "0x81",
      "blockHash": "0xa9683c4b72eefdd3d7dc8d9dc1feb1fbd0977f44bef356b8949803b2c385499e",
      "blockNumber": "0x5cb85c",
      "gasUsed": "0x11197",
      "effectiveGasPrice": "0x63213a",
      "from": "0xff9179199903a10283e19d86de8c09f2718073da",
      "to": "0x066f7592b0fa01631c7e48aabead714b7bde5030",
      "contractAddress": null
    },
    {
      "status": "0x1",
      "cumulativeGasUsed": "0x103d543",
      "logs": [
        {
          "address": "0x066f7592b0fa01631c7e48aabead714b7bde5030",
          "topics": [
            "0xbe533f538959a17d76f1b09e966e741ee3b1183099682f96216c93d21feaecba"
          ],
          "data": "0x9877696700000000000000000000000000000000000000000000000000000000",
          "blockHash": "0xa9683c4b72eefdd3d7dc8d9dc1feb1fbd0977f44bef356b8949803b2c385499e",
          "blockNumber": "0x5cb85c",
          "transactionHash": "0x8d8821273ce55f0355bcebc6312942e261af5371e47c1a8d917d01be8766e441",
          "transactionIndex": "0x82",
          "logIndex": "0xed",
          "removed": false
        },
        {
          "address": "0x066f7592b0fa01631c7e48aabead714b7bde5030",
          "topics": [
            "0xda3c8142b3c1d27633026f55bfcb4eeb0b5b8db0daa0a3e10c2213a441722ad1"
          ],
          "data": "0x98776967000000000000000000000000000000000000000000000000000000000000000000000000000000003389774e280a511b7a73925c698b6efe437d53b4",
          "blockHash": "0xa9683c4b72eefdd3d7dc8d9dc1feb1fbd0977f44bef356b8949803b2c385499e",
          "blockNumber": "0x5cb85c",
          "transactionHash": "0x8d8821273ce55f0355bcebc6312942e261af5371e47c1a8d917d01be8766e441",
          "transactionIndex": "0x82",
          "logIndex": "0xee",
          "removed": false
        }
      ],
      "logsBloom": "0x00000000000000000000000000000000000000000000000000000000000000080000000000000000200000000000000000000000000000000000000000000000000000000000000000000000000000000000000000000000000000000000000000000000000000000000200000000000000000000000000010000000000000000000000000000000000000000000100000000000000000000000000000000000000000000000000000004000080000000000000000000000000000000000000000000000000000000002000000000000000000000000000000000000000000000001000000000000000000000000000000000000000000000000000000000000",
      "type": "0x2",
      "transactionHash": "0x8d8821273ce55f0355bcebc6312942e261af5371e47c1a8d917d01be8766e441",
      "transactionIndex": "0x82",
      "blockHash": "0xa9683c4b72eefdd3d7dc8d9dc1feb1fbd0977f44bef356b8949803b2c385499e",
      "blockNumber": "0x5cb85c",
      "gasUsed": "0x113f9",
      "effectiveGasPrice": "0x63213a",
      "from": "0xff9179199903a10283e19d86de8c09f2718073da",
      "to": "0x066f7592b0fa01631c7e48aabead714b7bde5030",
      "contractAddress": null
    },
    {
      "status": "0x1",
      "cumulativeGasUsed": "0x104eb9e",
      "logs": [
        {
          "address": "0x066f7592b0fa01631c7e48aabead714b7bde5030",
          "topics": [
            "0xbe533f538959a17d76f1b09e966e741ee3b1183099682f96216c93d21feaecba"
          ],
          "data": "0xc7f758a800000000000000000000000000000000000000000000000000000000",
          "blockHash": "0xa9683c4b72eefdd3d7dc8d9dc1feb1fbd0977f44bef356b8949803b2c385499e",
          "blockNumber": "0x5cb85c",
          "transactionHash": "0x1ad4b87580ea0bc5ab4560fe41895977f2f622cf639b52197bc4ccb75688ba6d",
          "transactionIndex": "0x83",
          "logIndex": "0xef",
          "removed": false
        },
        {
          "address": "0x066f7592b0fa01631c7e48aabead714b7bde5030",
          "topics": [
            "0xda3c8142b3c1d27633026f55bfcb4eeb0b5b8db0daa0a3e10c2213a441722ad1"
          ],
          "data": "0xc7f758a80000000000000000000000000000000000000000000000000000000000000000000000000000000028c707f619a5af6cf0bf3ee92f946787f32c8627",
          "blockHash": "0xa9683c4b72eefdd3d7dc8d9dc1feb1fbd0977f44bef356b8949803b2c385499e",
          "blockNumber": "0x5cb85c",
          "transactionHash": "0x1ad4b87580ea0bc5ab4560fe41895977f2f622cf639b52197bc4ccb75688ba6d",
          "transactionIndex": "0x83",
          "logIndex": "0xf0",
          "removed": false
        }
      ],
      "logsBloom": "0x00000000000000000000000000000000000000000000000000000000000000080000000000000000200000000000000000000000000000000000000000000000000000000000000000000000000000000000000000000000000000000000000000000000000000000000200000000000000000000000000010000000000000000000000000000000000000000000100000000000000000000000000000000000000000000000000000004000080000000000000000000000000000000000000000000000000000000002000000000000000000000000000000000000000000000001000000000000000000000000000000000000000000000000000000000000",
      "type": "0x2",
      "transactionHash": "0x1ad4b87580ea0bc5ab4560fe41895977f2f622cf639b52197bc4ccb75688ba6d",
      "transactionIndex": "0x83",
      "blockHash": "0xa9683c4b72eefdd3d7dc8d9dc1feb1fbd0977f44bef356b8949803b2c385499e",
      "blockNumber": "0x5cb85c",
      "gasUsed": "0x1165b",
      "effectiveGasPrice": "0x63213a",
      "from": "0xff9179199903a10283e19d86de8c09f2718073da",
      "to": "0x066f7592b0fa01631c7e48aabead714b7bde5030",
      "contractAddress": null
    },
    {
      "status": "0x1",
      "cumulativeGasUsed": "0x106045b",
      "logs": [
        {
          "address": "0x066f7592b0fa01631c7e48aabead714b7bde5030",
          "topics": [
            "0xbe533f538959a17d76f1b09e966e741ee3b1183099682f96216c93d21feaecba"
          ],
          "data": "0x6c996f8800000000000000000000000000000000000000000000000000000000",
          "blockHash": "0xa9683c4b72eefdd3d7dc8d9dc1feb1fbd0977f44bef356b8949803b2c385499e",
          "blockNumber": "0x5cb85c",
          "transactionHash": "0x9f15551aa3f53fe08f004538017f6c71982a10083daadb0a77eb054b51c68759",
          "transactionIndex": "0x84",
          "logIndex": "0xf1",
          "removed": false
        },
        {
          "address": "0x066f7592b0fa01631c7e48aabead714b7bde5030",
          "topics": [
            "0xda3c8142b3c1d27633026f55bfcb4eeb0b5b8db0daa0a3e10c2213a441722ad1"
          ],
          "data": "0x6c996f880000000000000000000000000000000000000000000000000000000000000000000000000000000028c707f619a5af6cf0bf3ee92f946787f32c8627",
          "blockHash": "0xa9683c4b72eefdd3d7dc8d9dc1feb1fbd0977f44bef356b8949803b2c385499e",
          "blockNumber": "0x5cb85c",
          "transactionHash": "0x9f15551aa3f53fe08f004538017f6c71982a10083daadb0a77eb054b51c68759",
          "transactionIndex": "0x84",
          "logIndex": "0xf2",
          "removed": false
        }
      ],
      "logsBloom": "0x00000000000000000000000000000000000000000000000000000000000000080000000000000000200000000000000000000000000000000000000000000000000000000000000000000000000000000000000000000000000000000000000000000000000000000000200000000000000000000000000010000000000000000000000000000000000000000000100000000000000000000000000000000000000000000000000000004000080000000000000000000000000000000000000000000000000000000002000000000000000000000000000000000000000000000001000000000000000000000000000000000000000000000000000000000000",
      "type": "0x2",
      "transactionHash": "0x9f15551aa3f53fe08f004538017f6c71982a10083daadb0a77eb054b51c68759",
      "transactionIndex": "0x84",
      "blockHash": "0xa9683c4b72eefdd3d7dc8d9dc1feb1fbd0977f44bef356b8949803b2c385499e",
      "blockNumber": "0x5cb85c",
      "gasUsed": "0x118bd",
      "effectiveGasPrice": "0x63213a",
      "from": "0xff9179199903a10283e19d86de8c09f2718073da",
      "to": "0x066f7592b0fa01631c7e48aabead714b7bde5030",
      "contractAddress": null
    },
    {
      "status": "0x1",
      "cumulativeGasUsed": "0x1071f7a",
      "logs": [
        {
          "address": "0x066f7592b0fa01631c7e48aabead714b7bde5030",
          "topics": [
            "0xbe533f538959a17d76f1b09e966e741ee3b1183099682f96216c93d21feaecba"
          ],
          "data": "0xe810995300000000000000000000000000000000000000000000000000000000",
          "blockHash": "0xa9683c4b72eefdd3d7dc8d9dc1feb1fbd0977f44bef356b8949803b2c385499e",
          "blockNumber": "0x5cb85c",
          "transactionHash": "0x5aa1554cf82952fe3720b279ca5a0561ac7472ca8987d9d6240f8b78b923b39d",
          "transactionIndex": "0x85",
          "logIndex": "0xf3",
          "removed": false
        },
        {
          "address": "0x066f7592b0fa01631c7e48aabead714b7bde5030",
          "topics": [
            "0xda3c8142b3c1d27633026f55bfcb4eeb0b5b8db0daa0a3e10c2213a441722ad1"
          ],
          "data": "0xe81099530000000000000000000000000000000000000000000000000000000000000000000000000000000028c707f619a5af6cf0bf3ee92f946787f32c8627",
          "blockHash": "0xa9683c4b72eefdd3d7dc8d9dc1feb1fbd0977f44bef356b8949803b2c385499e",
          "blockNumber": "0x5cb85c",
          "transactionHash": "0x5aa1554cf82952fe3720b279ca5a0561ac7472ca8987d9d6240f8b78b923b39d",
          "transactionIndex": "0x85",
          "logIndex": "0xf4",
          "removed": false
        }
      ],
      "logsBloom": "0x00000000000000000000000000000000000000000000000000000000000000080000000000000000200000000000000000000000000000000000000000000000000000000000000000000000000000000000000000000000000000000000000000000000000000000000200000000000000000000000000010000000000000000000000000000000000000000000100000000000000000000000000000000000000000000000000000004000080000000000000000000000000000000000000000000000000000000002000000000000000000000000000000000000000000000001000000000000000000000000000000000000000000000000000000000000",
      "type": "0x2",
      "transactionHash": "0x5aa1554cf82952fe3720b279ca5a0561ac7472ca8987d9d6240f8b78b923b39d",
      "transactionIndex": "0x85",
      "blockHash": "0xa9683c4b72eefdd3d7dc8d9dc1feb1fbd0977f44bef356b8949803b2c385499e",
      "blockNumber": "0x5cb85c",
      "gasUsed": "0x11b1f",
      "effectiveGasPrice": "0x63213a",
      "from": "0xff9179199903a10283e19d86de8c09f2718073da",
      "to": "0x066f7592b0fa01631c7e48aabead714b7bde5030",
      "contractAddress": null
    },
    {
      "status": "0x1",
      "cumulativeGasUsed": "0x1083cfb",
      "logs": [
        {
          "address": "0x066f7592b0fa01631c7e48aabead714b7bde5030",
          "topics": [
            "0xbe533f538959a17d76f1b09e966e741ee3b1183099682f96216c93d21feaecba"
          ],
          "data": "0x787e0fe000000000000000000000000000000000000000000000000000000000",
          "blockHash": "0xa9683c4b72eefdd3d7dc8d9dc1feb1fbd0977f44bef356b8949803b2c385499e",
          "blockNumber": "0x5cb85c",
          "transactionHash": "0xc766f0f985208ee4c62604cd9ec3962a71f0cd45c9fc1066a5956f8cea01dd47",
          "transactionIndex": "0x86",
          "logIndex": "0xf5",
          "removed": false
        },
        {
          "address": "0x066f7592b0fa01631c7e48aabead714b7bde5030",
          "topics": [
            "0xda3c8142b3c1d27633026f55bfcb4eeb0b5b8db0daa0a3e10c2213a441722ad1"
          ],
          "data": "0x787e0fe00000000000000000000000000000000000000000000000000000000000000000000000000000000028c707f619a5af6cf0bf3ee92f946787f32c8627",
          "blockHash": "0xa9683c4b72eefdd3d7dc8d9dc1feb1fbd0977f44bef356b8949803b2c385499e",
          "blockNumber": "0x5cb85c",
          "transactionHash": "0xc766f0f985208ee4c62604cd9ec3962a71f0cd45c9fc1066a5956f8cea01dd47",
          "transactionIndex": "0x86",
          "logIndex": "0xf6",
          "removed": false
        }
      ],
      "logsBloom": "0x00000000000000000000000000000000000000000000000000000000000000080000000000000000200000000000000000000000000000000000000000000000000000000000000000000000000000000000000000000000000000000000000000000000000000000000200000000000000000000000000010000000000000000000000000000000000000000000100000000000000000000000000000000000000000000000000000004000080000000000000000000000000000000000000000000000000000000002000000000000000000000000000000000000000000000001000000000000000000000000000000000000000000000000000000000000",
      "type": "0x2",
      "transactionHash": "0xc766f0f985208ee4c62604cd9ec3962a71f0cd45c9fc1066a5956f8cea01dd47",
      "transactionIndex": "0x86",
      "blockHash": "0xa9683c4b72eefdd3d7dc8d9dc1feb1fbd0977f44bef356b8949803b2c385499e",
      "blockNumber": "0x5cb85c",
      "gasUsed": "0x11d81",
      "effectiveGasPrice": "0x63213a",
      "from": "0xff9179199903a10283e19d86de8c09f2718073da",
      "to": "0x066f7592b0fa01631c7e48aabead714b7bde5030",
      "contractAddress": null
    },
    {
      "status": "0x1",
      "cumulativeGasUsed": "0x109a748",
      "logs": [
        {
          "address": "0x066f7592b0fa01631c7e48aabead714b7bde5030",
          "topics": [
            "0xbe533f538959a17d76f1b09e966e741ee3b1183099682f96216c93d21feaecba"
          ],
          "data": "0xa4c5e9cb00000000000000000000000000000000000000000000000000000000",
          "blockHash": "0xa9683c4b72eefdd3d7dc8d9dc1feb1fbd0977f44bef356b8949803b2c385499e",
          "blockNumber": "0x5cb85c",
          "transactionHash": "0x7ad3e7c646080a957b3f954786c7946c88f3ba4561ac70b3628e6c121d4bdd02",
          "transactionIndex": "0x87",
          "logIndex": "0xf7",
          "removed": false
        },
        {
          "address": "0x066f7592b0fa01631c7e48aabead714b7bde5030",
          "topics": [
            "0xda3c8142b3c1d27633026f55bfcb4eeb0b5b8db0daa0a3e10c2213a441722ad1"
          ],
          "data": "0xa4c5e9cb0000000000000000000000000000000000000000000000000000000000000000000000000000000028c707f619a5af6cf0bf3ee92f946787f32c8627",
          "blockHash": "0xa9683c4b72eefdd3d7dc8d9dc1feb1fbd0977f44bef356b8949803b2c385499e",
          "blockNumber": "0x5cb85c",
          "transactionHash": "0x7ad3e7c646080a957b3f954786c7946c88f3ba4561ac70b3628e6c121d4bdd02",
          "transactionIndex": "0x87",
          "logIndex": "0xf8",
          "removed": false
        }
      ],
      "logsBloom": "0x00000000000000000000000000000000000000000000000000000000000000080000000000000000200000000000000000000000000000000000000000000000000000000000000000000000000000000000000000000000000000000000000000000000000000000000200000000000000000000000000010000000000000000000000000000000000000000000100000000000000000000000000000000000000000000000000000004000080000000000000000000000000000000000000000000000000000000002000000000000000000000000000000000000000000000001000000000000000000000000000000000000000000000000000000000000",
      "type": "0x2",
      "transactionHash": "0x7ad3e7c646080a957b3f954786c7946c88f3ba4561ac70b3628e6c121d4bdd02",
      "transactionIndex": "0x87",
      "blockHash": "0xa9683c4b72eefdd3d7dc8d9dc1feb1fbd0977f44bef356b8949803b2c385499e",
      "blockNumber": "0x5cb85c",
      "gasUsed": "0x16a4d",
      "effectiveGasPrice": "0x63213a",
      "from": "0xff9179199903a10283e19d86de8c09f2718073da",
      "to": "0x066f7592b0fa01631c7e48aabead714b7bde5030",
      "contractAddress": null
    },
    {
      "status": "0x1",
      "cumulativeGasUsed": "0x10ad12b",
      "logs": [
        {
          "address": "0x066f7592b0fa01631c7e48aabead714b7bde5030",
          "topics": [
            "0xbe533f538959a17d76f1b09e966e741ee3b1183099682f96216c93d21feaecba"
          ],
          "data": "0x7f4ef9d400000000000000000000000000000000000000000000000000000000",
          "blockHash": "0xa9683c4b72eefdd3d7dc8d9dc1feb1fbd0977f44bef356b8949803b2c385499e",
          "blockNumber": "0x5cb85c",
          "transactionHash": "0xd533c104980c1ce8c8b242149cb9094bd75729a88d80f004d1b63f8ee2453ccc",
          "transactionIndex": "0x88",
          "logIndex": "0xf9",
          "removed": false
        },
        {
          "address": "0x066f7592b0fa01631c7e48aabead714b7bde5030",
          "topics": [
            "0xda3c8142b3c1d27633026f55bfcb4eeb0b5b8db0daa0a3e10c2213a441722ad1"
          ],
          "data": "0x7f4ef9d40000000000000000000000000000000000000000000000000000000000000000000000000000000028c707f619a5af6cf0bf3ee92f946787f32c8627",
          "blockHash": "0xa9683c4b72eefdd3d7dc8d9dc1feb1fbd0977f44bef356b8949803b2c385499e",
          "blockNumber": "0x5cb85c",
          "transactionHash": "0xd533c104980c1ce8c8b242149cb9094bd75729a88d80f004d1b63f8ee2453ccc",
          "transactionIndex": "0x88",
          "logIndex": "0xfa",
          "removed": false
        }
      ],
      "logsBloom": "0x00000000000000000000000000000000000000000000000000000000000000080000000000000000200000000000000000000000000000000000000000000000000000000000000000000000000000000000000000000000000000000000000000000000000000000000200000000000000000000000000010000000000000000000000000000000000000000000100000000000000000000000000000000000000000000000000000004000080000000000000000000000000000000000000000000000000000000002000000000000000000000000000000000000000000000001000000000000000000000000000000000000000000000000000000000000",
      "type": "0x2",
      "transactionHash": "0xd533c104980c1ce8c8b242149cb9094bd75729a88d80f004d1b63f8ee2453ccc",
      "transactionIndex": "0x88",
      "blockHash": "0xa9683c4b72eefdd3d7dc8d9dc1feb1fbd0977f44bef356b8949803b2c385499e",
      "blockNumber": "0x5cb85c",
      "gasUsed": "0x129e3",
      "effectiveGasPrice": "0x63213a",
      "from": "0xff9179199903a10283e19d86de8c09f2718073da",
      "to": "0x066f7592b0fa01631c7e48aabead714b7bde5030",
      "contractAddress": null
    },
    {
      "status": "0x1",
      "cumulativeGasUsed": "0x10bfd70",
      "logs": [
        {
          "address": "0x066f7592b0fa01631c7e48aabead714b7bde5030",
          "topics": [
            "0xbe533f538959a17d76f1b09e966e741ee3b1183099682f96216c93d21feaecba"
          ],
          "data": "0x2b7efac100000000000000000000000000000000000000000000000000000000",
          "blockHash": "0xa9683c4b72eefdd3d7dc8d9dc1feb1fbd0977f44bef356b8949803b2c385499e",
          "blockNumber": "0x5cb85c",
          "transactionHash": "0x0dc01865be675c0b44835457340c6247f79d58a9ed217c7b6119f8e924ea6b93",
          "transactionIndex": "0x89",
          "logIndex": "0xfb",
          "removed": false
        },
        {
          "address": "0x066f7592b0fa01631c7e48aabead714b7bde5030",
          "topics": [
            "0xda3c8142b3c1d27633026f55bfcb4eeb0b5b8db0daa0a3e10c2213a441722ad1"
          ],
          "data": "0x2b7efac10000000000000000000000000000000000000000000000000000000000000000000000000000000028c707f619a5af6cf0bf3ee92f946787f32c8627",
          "blockHash": "0xa9683c4b72eefdd3d7dc8d9dc1feb1fbd0977f44bef356b8949803b2c385499e",
          "blockNumber": "0x5cb85c",
          "transactionHash": "0x0dc01865be675c0b44835457340c6247f79d58a9ed217c7b6119f8e924ea6b93",
          "transactionIndex": "0x89",
          "logIndex": "0xfc",
          "removed": false
        }
      ],
      "logsBloom": "0x00000000000000000000000000000000000000000000000000000000000000080000000000000000200000000000000000000000000000000000000000000000000000000000000000000000000000000000000000000000000000000000000000000000000000000000200000000000000000000000000010000000000000000000000000000000000000000000100000000000000000000000000000000000000000000000000000004000080000000000000000000000000000000000000000000000000000000002000000000000000000000000000000000000000000000001000000000000000000000000000000000000000000000000000000000000",
      "type": "0x2",
      "transactionHash": "0x0dc01865be675c0b44835457340c6247f79d58a9ed217c7b6119f8e924ea6b93",
      "transactionIndex": "0x89",
      "blockHash": "0xa9683c4b72eefdd3d7dc8d9dc1feb1fbd0977f44bef356b8949803b2c385499e",
      "blockNumber": "0x5cb85c",
      "gasUsed": "0x12c45",
      "effectiveGasPrice": "0x63213a",
      "from": "0xff9179199903a10283e19d86de8c09f2718073da",
      "to": "0x066f7592b0fa01631c7e48aabead714b7bde5030",
      "contractAddress": null
    },
    {
      "status": "0x1",
      "cumulativeGasUsed": "0x10d2c17",
      "logs": [
        {
          "address": "0x066f7592b0fa01631c7e48aabead714b7bde5030",
          "topics": [
            "0xbe533f538959a17d76f1b09e966e741ee3b1183099682f96216c93d21feaecba"
          ],
          "data": "0xab3545e500000000000000000000000000000000000000000000000000000000",
          "blockHash": "0xa9683c4b72eefdd3d7dc8d9dc1feb1fbd0977f44bef356b8949803b2c385499e",
          "blockNumber": "0x5cb85c",
          "transactionHash": "0xc6e8564e8224d81ee5c254f20628bc3cdead72a3312f4bf3cad4a2138b1c128c",
          "transactionIndex": "0x8a",
          "logIndex": "0xfd",
          "removed": false
        },
        {
          "address": "0x066f7592b0fa01631c7e48aabead714b7bde5030",
          "topics": [
            "0xda3c8142b3c1d27633026f55bfcb4eeb0b5b8db0daa0a3e10c2213a441722ad1"
          ],
          "data": "0xab3545e50000000000000000000000000000000000000000000000000000000000000000000000000000000028c707f619a5af6cf0bf3ee92f946787f32c8627",
          "blockHash": "0xa9683c4b72eefdd3d7dc8d9dc1feb1fbd0977f44bef356b8949803b2c385499e",
          "blockNumber": "0x5cb85c",
          "transactionHash": "0xc6e8564e8224d81ee5c254f20628bc3cdead72a3312f4bf3cad4a2138b1c128c",
          "transactionIndex": "0x8a",
          "logIndex": "0xfe",
          "removed": false
        }
      ],
      "logsBloom": "0x00000000000000000000000000000000000000000000000000000000000000080000000000000000200000000000000000000000000000000000000000000000000000000000000000000000000000000000000000000000000000000000000000000000000000000000200000000000000000000000000010000000000000000000000000000000000000000000100000000000000000000000000000000000000000000000000000004000080000000000000000000000000000000000000000000000000000000002000000000000000000000000000000000000000000000001000000000000000000000000000000000000000000000000000000000000",
      "type": "0x2",
      "transactionHash": "0xc6e8564e8224d81ee5c254f20628bc3cdead72a3312f4bf3cad4a2138b1c128c",
      "transactionIndex": "0x8a",
      "blockHash": "0xa9683c4b72eefdd3d7dc8d9dc1feb1fbd0977f44bef356b8949803b2c385499e",
      "blockNumber": "0x5cb85c",
      "gasUsed": "0x12ea7",
      "effectiveGasPrice": "0x63213a",
      "from": "0xff9179199903a10283e19d86de8c09f2718073da",
      "to": "0x066f7592b0fa01631c7e48aabead714b7bde5030",
      "contractAddress": null
    },
    {
      "status": "0x1",
      "cumulativeGasUsed": "0x10e5d20",
      "logs": [
        {
          "address": "0x066f7592b0fa01631c7e48aabead714b7bde5030",
          "topics": [
            "0xbe533f538959a17d76f1b09e966e741ee3b1183099682f96216c93d21feaecba"
          ],
          "data": "0xcb37be9e00000000000000000000000000000000000000000000000000000000",
          "blockHash": "0xa9683c4b72eefdd3d7dc8d9dc1feb1fbd0977f44bef356b8949803b2c385499e",
          "blockNumber": "0x5cb85c",
          "transactionHash": "0xec279f9b585fbdad09fe08b5a631290035f23715dbc3cc0b9954f48c202f51e3",
          "transactionIndex": "0x8b",
          "logIndex": "0xff",
          "removed": false
        },
        {
          "address": "0x066f7592b0fa01631c7e48aabead714b7bde5030",
          "topics": [
            "0xda3c8142b3c1d27633026f55bfcb4eeb0b5b8db0daa0a3e10c2213a441722ad1"
          ],
          "data": "0xcb37be9e0000000000000000000000000000000000000000000000000000000000000000000000000000000028c707f619a5af6cf0bf3ee92f946787f32c8627",
          "blockHash": "0xa9683c4b72eefdd3d7dc8d9dc1feb1fbd0977f44bef356b8949803b2c385499e",
          "blockNumber": "0x5cb85c",
          "transactionHash": "0xec279f9b585fbdad09fe08b5a631290035f23715dbc3cc0b9954f48c202f51e3",
          "transactionIndex": "0x8b",
          "logIndex": "0x100",
          "removed": false
        }
      ],
      "logsBloom": "0x00000000000000000000000000000000000000000000000000000000000000080000000000000000200000000000000000000000000000000000000000000000000000000000000000000000000000000000000000000000000000000000000000000000000000000000200000000000000000000000000010000000000000000000000000000000000000000000100000000000000000000000000000000000000000000000000000004000080000000000000000000000000000000000000000000000000000000002000000000000000000000000000000000000000000000001000000000000000000000000000000000000000000000000000000000000",
      "type": "0x2",
      "transactionHash": "0xec279f9b585fbdad09fe08b5a631290035f23715dbc3cc0b9954f48c202f51e3",
      "transactionIndex": "0x8b",
      "blockHash": "0xa9683c4b72eefdd3d7dc8d9dc1feb1fbd0977f44bef356b8949803b2c385499e",
      "blockNumber": "0x5cb85c",
      "gasUsed": "0x13109",
      "effectiveGasPrice": "0x63213a",
      "from": "0xff9179199903a10283e19d86de8c09f2718073da",
      "to": "0x066f7592b0fa01631c7e48aabead714b7bde5030",
      "contractAddress": null
    },
    {
      "status": "0x1",
      "cumulativeGasUsed": "0x10f908b",
      "logs": [
        {
          "address": "0x066f7592b0fa01631c7e48aabead714b7bde5030",
          "topics": [
            "0xbe533f538959a17d76f1b09e966e741ee3b1183099682f96216c93d21feaecba"
          ],
          "data": "0xc1e582ba00000000000000000000000000000000000000000000000000000000",
          "blockHash": "0xa9683c4b72eefdd3d7dc8d9dc1feb1fbd0977f44bef356b8949803b2c385499e",
          "blockNumber": "0x5cb85c",
          "transactionHash": "0xf4530ec0846db8552fd2cea54896b3f058fbf088be67ff961ecdcadbf5e6d960",
          "transactionIndex": "0x8c",
          "logIndex": "0x101",
          "removed": false
        },
        {
          "address": "0x066f7592b0fa01631c7e48aabead714b7bde5030",
          "topics": [
            "0xda3c8142b3c1d27633026f55bfcb4eeb0b5b8db0daa0a3e10c2213a441722ad1"
          ],
          "data": "0xc1e582ba0000000000000000000000000000000000000000000000000000000000000000000000000000000028c707f619a5af6cf0bf3ee92f946787f32c8627",
          "blockHash": "0xa9683c4b72eefdd3d7dc8d9dc1feb1fbd0977f44bef356b8949803b2c385499e",
          "blockNumber": "0x5cb85c",
          "transactionHash": "0xf4530ec0846db8552fd2cea54896b3f058fbf088be67ff961ecdcadbf5e6d960",
          "transactionIndex": "0x8c",
          "logIndex": "0x102",
          "removed": false
        }
      ],
      "logsBloom": "0x00000000000000000000000000000000000000000000000000000000000000080000000000000000200000000000000000000000000000000000000000000000000000000000000000000000000000000000000000000000000000000000000000000000000000000000200000000000000000000000000010000000000000000000000000000000000000000000100000000000000000000000000000000000000000000000000000004000080000000000000000000000000000000000000000000000000000000002000000000000000000000000000000000000000000000001000000000000000000000000000000000000000000000000000000000000",
      "type": "0x2",
      "transactionHash": "0xf4530ec0846db8552fd2cea54896b3f058fbf088be67ff961ecdcadbf5e6d960",
      "transactionIndex": "0x8c",
      "blockHash": "0xa9683c4b72eefdd3d7dc8d9dc1feb1fbd0977f44bef356b8949803b2c385499e",
      "blockNumber": "0x5cb85c",
      "gasUsed": "0x1336b",
      "effectiveGasPrice": "0x63213a",
      "from": "0xff9179199903a10283e19d86de8c09f2718073da",
      "to": "0x066f7592b0fa01631c7e48aabead714b7bde5030",
      "contractAddress": null
    },
    {
      "status": "0x1",
      "cumulativeGasUsed": "0x110c658",
      "logs": [
        {
          "address": "0x066f7592b0fa01631c7e48aabead714b7bde5030",
          "topics": [
            "0xbe533f538959a17d76f1b09e966e741ee3b1183099682f96216c93d21feaecba"
          ],
          "data": "0x2a2c16a000000000000000000000000000000000000000000000000000000000",
          "blockHash": "0xa9683c4b72eefdd3d7dc8d9dc1feb1fbd0977f44bef356b8949803b2c385499e",
          "blockNumber": "0x5cb85c",
          "transactionHash": "0x00ce02338012a6e78b82f9574ffc339b1a07357ddc9191ae18f3f530aa4410ff",
          "transactionIndex": "0x8d",
          "logIndex": "0x103",
          "removed": false
        },
        {
          "address": "0x066f7592b0fa01631c7e48aabead714b7bde5030",
          "topics": [
            "0xda3c8142b3c1d27633026f55bfcb4eeb0b5b8db0daa0a3e10c2213a441722ad1"
          ],
          "data": "0x2a2c16a00000000000000000000000000000000000000000000000000000000000000000000000000000000028c707f619a5af6cf0bf3ee92f946787f32c8627",
          "blockHash": "0xa9683c4b72eefdd3d7dc8d9dc1feb1fbd0977f44bef356b8949803b2c385499e",
          "blockNumber": "0x5cb85c",
          "transactionHash": "0x00ce02338012a6e78b82f9574ffc339b1a07357ddc9191ae18f3f530aa4410ff",
          "transactionIndex": "0x8d",
          "logIndex": "0x104",
          "removed": false
        }
      ],
      "logsBloom": "0x00000000000000000000000000000000000000000000000000000000000000080000000000000000200000000000000000000000000000000000000000000000000000000000000000000000000000000000000000000000000000000000000000000000000000000000200000000000000000000000000010000000000000000000000000000000000000000000100000000000000000000000000000000000000000000000000000004000080000000000000000000000000000000000000000000000000000000002000000000000000000000000000000000000000000000001000000000000000000000000000000000000000000000000000000000000",
      "type": "0x2",
      "transactionHash": "0x00ce02338012a6e78b82f9574ffc339b1a07357ddc9191ae18f3f530aa4410ff",
      "transactionIndex": "0x8d",
      "blockHash": "0xa9683c4b72eefdd3d7dc8d9dc1feb1fbd0977f44bef356b8949803b2c385499e",
      "blockNumber": "0x5cb85c",
      "gasUsed": "0x135cd",
      "effectiveGasPrice": "0x63213a",
      "from": "0xff9179199903a10283e19d86de8c09f2718073da",
      "to": "0x066f7592b0fa01631c7e48aabead714b7bde5030",
      "contractAddress": null
    },
    {
      "status": "0x1",
      "cumulativeGasUsed": "0x111fe87",
      "logs": [
        {
          "address": "0x066f7592b0fa01631c7e48aabead714b7bde5030",
          "topics": [
            "0xbe533f538959a17d76f1b09e966e741ee3b1183099682f96216c93d21feaecba"
          ],
          "data": "0xde3d9fb700000000000000000000000000000000000000000000000000000000",
          "blockHash": "0xa9683c4b72eefdd3d7dc8d9dc1feb1fbd0977f44bef356b8949803b2c385499e",
          "blockNumber": "0x5cb85c",
          "transactionHash": "0xfffbda1db6b61f80ba6d0602eb19345c0548f5be71ca67608b8ce49a4586a853",
          "transactionIndex": "0x8e",
          "logIndex": "0x105",
          "removed": false
        },
        {
          "address": "0x066f7592b0fa01631c7e48aabead714b7bde5030",
          "topics": [
            "0xda3c8142b3c1d27633026f55bfcb4eeb0b5b8db0daa0a3e10c2213a441722ad1"
          ],
          "data": "0xde3d9fb70000000000000000000000000000000000000000000000000000000000000000000000000000000028c707f619a5af6cf0bf3ee92f946787f32c8627",
          "blockHash": "0xa9683c4b72eefdd3d7dc8d9dc1feb1fbd0977f44bef356b8949803b2c385499e",
          "blockNumber": "0x5cb85c",
          "transactionHash": "0xfffbda1db6b61f80ba6d0602eb19345c0548f5be71ca67608b8ce49a4586a853",
          "transactionIndex": "0x8e",
          "logIndex": "0x106",
          "removed": false
        }
      ],
      "logsBloom": "0x00000000000000000000000000000000000000000000000000000000000000080000000000000000200000000000000000000000000000000000000000000000000000000000000000000000000000000000000000000000000000000000000000000000000000000000200000000000000000000000000010000000000000000000000000000000000000000000100000000000000000000000000000000000000000000000000000004000080000000000000000000000000000000000000000000000000000000002000000000000000000000000000000000000000000000001000000000000000000000000000000000000000000000000000000000000",
      "type": "0x2",
      "transactionHash": "0xfffbda1db6b61f80ba6d0602eb19345c0548f5be71ca67608b8ce49a4586a853",
      "transactionIndex": "0x8e",
      "blockHash": "0xa9683c4b72eefdd3d7dc8d9dc1feb1fbd0977f44bef356b8949803b2c385499e",
      "blockNumber": "0x5cb85c",
      "gasUsed": "0x1382f",
      "effectiveGasPrice": "0x63213a",
      "from": "0xff9179199903a10283e19d86de8c09f2718073da",
      "to": "0x066f7592b0fa01631c7e48aabead714b7bde5030",
      "contractAddress": null
    },
    {
      "status": "0x1",
      "cumulativeGasUsed": "0x1138382",
      "logs": [
        {
          "address": "0x066f7592b0fa01631c7e48aabead714b7bde5030",
          "topics": [
            "0xbe533f538959a17d76f1b09e966e741ee3b1183099682f96216c93d21feaecba"
          ],
          "data": "0x9a5ea6a000000000000000000000000000000000000000000000000000000000",
          "blockHash": "0xa9683c4b72eefdd3d7dc8d9dc1feb1fbd0977f44bef356b8949803b2c385499e",
          "blockNumber": "0x5cb85c",
          "transactionHash": "0xc4fb9badbc11053134d1dbb73728a0a41b6349b51ff5f0cf6da2c22a2a5743fe",
          "transactionIndex": "0x8f",
          "logIndex": "0x107",
          "removed": false
        },
        {
          "address": "0x066f7592b0fa01631c7e48aabead714b7bde5030",
          "topics": [
            "0xda3c8142b3c1d27633026f55bfcb4eeb0b5b8db0daa0a3e10c2213a441722ad1"
          ],
          "data": "0x9a5ea6a00000000000000000000000000000000000000000000000000000000000000000000000000000000028c707f619a5af6cf0bf3ee92f946787f32c8627",
          "blockHash": "0xa9683c4b72eefdd3d7dc8d9dc1feb1fbd0977f44bef356b8949803b2c385499e",
          "blockNumber": "0x5cb85c",
          "transactionHash": "0xc4fb9badbc11053134d1dbb73728a0a41b6349b51ff5f0cf6da2c22a2a5743fe",
          "transactionIndex": "0x8f",
          "logIndex": "0x108",
          "removed": false
        }
      ],
      "logsBloom": "0x00000000000000000000000000000000000000000000000000000000000000080000000000000000200000000000000000000000000000000000000000000000000000000000000000000000000000000000000000000000000000000000000000000000000000000000200000000000000000000000000010000000000000000000000000000000000000000000100000000000000000000000000000000000000000000000000000004000080000000000000000000000000000000000000000000000000000000002000000000000000000000000000000000000000000000001000000000000000000000000000000000000000000000000000000000000",
      "type": "0x2",
      "transactionHash": "0xc4fb9badbc11053134d1dbb73728a0a41b6349b51ff5f0cf6da2c22a2a5743fe",
      "transactionIndex": "0x8f",
      "blockHash": "0xa9683c4b72eefdd3d7dc8d9dc1feb1fbd0977f44bef356b8949803b2c385499e",
      "blockNumber": "0x5cb85c",
      "gasUsed": "0x184fb",
      "effectiveGasPrice": "0x63213a",
      "from": "0xff9179199903a10283e19d86de8c09f2718073da",
      "to": "0x066f7592b0fa01631c7e48aabead714b7bde5030",
      "contractAddress": null
    },
    {
      "status": "0x1",
      "cumulativeGasUsed": "0x114c813",
      "logs": [
        {
          "address": "0x066f7592b0fa01631c7e48aabead714b7bde5030",
          "topics": [
            "0xbe533f538959a17d76f1b09e966e741ee3b1183099682f96216c93d21feaecba"
          ],
          "data": "0x25be10bd00000000000000000000000000000000000000000000000000000000",
          "blockHash": "0xa9683c4b72eefdd3d7dc8d9dc1feb1fbd0977f44bef356b8949803b2c385499e",
          "blockNumber": "0x5cb85c",
          "transactionHash": "0x1894350da0b92ec6d95609ec150f657e66044c61ed832c10f1f90c432d609345",
          "transactionIndex": "0x90",
          "logIndex": "0x109",
          "removed": false
        },
        {
          "address": "0x066f7592b0fa01631c7e48aabead714b7bde5030",
          "topics": [
            "0xda3c8142b3c1d27633026f55bfcb4eeb0b5b8db0daa0a3e10c2213a441722ad1"
          ],
          "data": "0x25be10bd0000000000000000000000000000000000000000000000000000000000000000000000000000000028c707f619a5af6cf0bf3ee92f946787f32c8627",
          "blockHash": "0xa9683c4b72eefdd3d7dc8d9dc1feb1fbd0977f44bef356b8949803b2c385499e",
          "blockNumber": "0x5cb85c",
          "transactionHash": "0x1894350da0b92ec6d95609ec150f657e66044c61ed832c10f1f90c432d609345",
          "transactionIndex": "0x90",
          "logIndex": "0x10a",
          "removed": false
        }
      ],
      "logsBloom": "0x00000000000000000000000000000000000000000000000000000000000000080000000000000000200000000000000000000000000000000000000000000000000000000000000000000000000000000000000000000000000000000000000000000000000000000000200000000000000000000000000010000000000000000000000000000000000000000000100000000000000000000000000000000000000000000000000000004000080000000000000000000000000000000000000000000000000000000002000000000000000000000000000000000000000000000001000000000000000000000000000000000000000000000000000000000000",
      "type": "0x2",
      "transactionHash": "0x1894350da0b92ec6d95609ec150f657e66044c61ed832c10f1f90c432d609345",
      "transactionIndex": "0x90",
      "blockHash": "0xa9683c4b72eefdd3d7dc8d9dc1feb1fbd0977f44bef356b8949803b2c385499e",
      "blockNumber": "0x5cb85c",
      "gasUsed": "0x14491",
      "effectiveGasPrice": "0x63213a",
      "from": "0xff9179199903a10283e19d86de8c09f2718073da",
      "to": "0x066f7592b0fa01631c7e48aabead714b7bde5030",
      "contractAddress": null
    },
    {
      "status": "0x1",
      "cumulativeGasUsed": "0x1158078",
      "logs": [
        {
          "address": "0x066f7592b0fa01631c7e48aabead714b7bde5030",
          "topics": [
            "0x159f10d3da077d18f228d52be447d552e7d1892d10f7af8f615658160e374729"
          ],
          "data": "0x000000000000000000000000f7ee7c559d61dbd201ef370091e8d089402ae009",
          "blockHash": "0xa9683c4b72eefdd3d7dc8d9dc1feb1fbd0977f44bef356b8949803b2c385499e",
          "blockNumber": "0x5cb85c",
          "transactionHash": "0xe154e0fd1e87b9f30decfa71044d1f4ca7abda3a78e1a55e175a2b809366ab25",
          "transactionIndex": "0x91",
          "logIndex": "0x10b",
          "removed": false
        }
      ],
      "logsBloom": "0x00000000000000080000000000000000000000000000000000000000000000000000000000000000200000000200000000000000000000000000000000000000000000000000000000000000000000000000000000000000000000000000000000000000000000000000000000000000000000000000000000000000000000000000000000000000000000000000000000000000000000000000000000000000000000000000000000000000000000000000000000000000000000000000000000000000000000000002000000000000000000000000000000000000000000000001000000000000000000000010000000000000000000000000000000000000",
      "type": "0x2",
      "transactionHash": "0xe154e0fd1e87b9f30decfa71044d1f4ca7abda3a78e1a55e175a2b809366ab25",
      "transactionIndex": "0x91",
      "blockHash": "0xa9683c4b72eefdd3d7dc8d9dc1feb1fbd0977f44bef356b8949803b2c385499e",
      "blockNumber": "0x5cb85c",
      "gasUsed": "0xb865",
      "effectiveGasPrice": "0x63213a",
      "from": "0xff9179199903a10283e19d86de8c09f2718073da",
      "to": "0x066f7592b0fa01631c7e48aabead714b7bde5030",
      "contractAddress": null
    },
    {
      "status": "0x1",
      "cumulativeGasUsed": "0x11879a6",
      "logs": [
        {
          "address": "0x6772c6a4e5975567647a84d846b9fe5992c4a23f",
          "topics": [
            "0xa657f2ad315cf3bb35cf1964158da75c3f334481df05a4a1644b2376b17a59b2"
          ],
          "data": "0x000000000000000000000000066f7592b0fa01631c7e48aabead714b7bde5030",
          "blockHash": "0xa9683c4b72eefdd3d7dc8d9dc1feb1fbd0977f44bef356b8949803b2c385499e",
          "blockNumber": "0x5cb85c",
          "transactionHash": "0xc051e3e3554b2958595cc0356e6f15c0f27a5463b70dfe4f7e2ece7656a3b180",
          "transactionIndex": "0x92",
          "logIndex": "0x10c",
          "removed": false
        }
      ],
      "logsBloom": "0x00000800000000000000000000000000000000000000000000000000000000000000000000000000000000000000000000000000000000200000000000000000000000000000000000004000000000000000000000000000000000000000000000000000000000000000000000000000000040000000000000000000000000000000000000000000000000000000000000000000000000000000000000000000000000000000000000000000000000000000000000000000000000000000000000000000000000000000000000000000400000000000000000000000000000000000000000000000000000000000000000000000000008000000000000000000",
      "type": "0x2",
      "transactionHash": "0xc051e3e3554b2958595cc0356e6f15c0f27a5463b70dfe4f7e2ece7656a3b180",
      "transactionIndex": "0x92",
      "blockHash": "0xa9683c4b72eefdd3d7dc8d9dc1feb1fbd0977f44bef356b8949803b2c385499e",
      "blockNumber": "0x5cb85c",
      "gasUsed": "0x2f92e",
      "effectiveGasPrice": "0x63213a",
      "from": "0xff9179199903a10283e19d86de8c09f2718073da",
      "to": null,
      "contractAddress": "0x6772c6a4e5975567647a84d846b9fe5992c4a23f"
    }
  ],
  "libraries": [],
  "pending": [],
  "returns": {},
  "timestamp": 1717996838,
  "chain": 11155111,
  "commit": "9e0c025"
}