{
  "transactions": [
    {
      "hash": "0xd12eca21434f4b3171731ee4c3499883b406b77c5c7efe2f52d4835e2c492bca",
      "transactionType": "CREATE",
      "contractName": "SweetsDAOFacade",
      "contractAddress": "0x2dfca47c17a1d85c01af195d038b66982e0f46a2",
      "function": null,
      "arguments": null,
      "transaction": {
        "from": "0xff9179199903a10283e19d86de8c09f2718073da",
        "gas": "0x67f95",
        "value": "0x0",
        "input": "0x608060405234801561001057600080fd5b506104f8806100206000396000f3fe608060405234801561001057600080fd5b50600436106100935760003560e01c80638124b78e116100665780638124b78e146100e55780638e5ed9c4146100f3578063d13da0bd14610101578063ed8b6b311461012b578063fe0d94c11461012b57600080fd5b80630c68678c146100985780634f4a9536146100ac5780636f4d469b146100bf57806371cb2ee5146100d0575b600080fd5b6100aa6100a6366004610139565b5050565b005b6100aa6100ba3660046101ba565b505050565b6100aa6100cd366004610238565b50565b6100aa6100de366004610342565b5050505050565b6100aa6100cd3660046103bc565b6100aa6100ba3660046103de565b61011961010f36600461043d565b6000949350505050565b60405190815260200160405180910390f35b6100aa6100cd3660046104a9565b60008082840360e081121561014d57600080fd5b8335925060c0601f198201121561016357600080fd5b506020830190509250929050565b60008083601f84011261018357600080fd5b50813567ffffffffffffffff81111561019b57600080fd5b6020830191508360208285010111156101b357600080fd5b9250929050565b6000806000604084860312156101cf57600080fd5b83359250602084013567ffffffffffffffff8111156101ed57600080fd5b6101f986828701610171565b9497909650939450505050565b634e487b7160e01b600052604160045260246000fd5b80356001600160a01b038116811461023357600080fd5b919050565b6000602080838503121561024b57600080fd5b823567ffffffffffffffff8082111561026357600080fd5b818501915085601f83011261027757600080fd5b81358181111561028957610289610206565b8060051b604051601f19603f830116810181811085821117156102ae576102ae610206565b6040529182528482019250838101850191888311156102cc57600080fd5b938501935b828510156102f1576102e28561021c565b845293850193928501926102d1565b98975050505050505050565b60008083601f84011261030f57600080fd5b50813567ffffffffffffffff81111561032757600080fd5b6020830191508360208260051b85010111156101b357600080fd5b60008060008060006060868803121561035a57600080fd5b85359450602086013567ffffffffffffffff8082111561037957600080fd5b61038589838a01610171565b9096509450604088013591508082111561039e57600080fd5b506103ab888289016102fd565b969995985093965092949392505050565b6000602082840312156103ce57600080fd5b6103d78261021c565b9392505050565b600080600083850360a08112156103f457600080fd5b843567ffffffffffffffff81111561040b57600080fd5b610417878288016102fd565b9095509350506080601f198201121561042f57600080fd5b506020840190509250925092565b6000806000806040858703121561045357600080fd5b843567ffffffffffffffff8082111561046b57600080fd5b61047788838901610171565b9096509450602087013591508082111561049057600080fd5b5061049d878288016102fd565b95989497509550505050565b6000602082840312156104bb57600080fd5b503591905056fea26469706673582212208100f6911bb2804c61639f0f7c56e7a6a483aee215885e6c81ce4f3029deddea64736f6c63430008180033",
        "nonce": "0x61",
        "chainId": "0xaa36a7"
      },
      "additionalContracts": [],
      "isFixedGasLimit": false
    },
    {
      "hash": "0x572e8b8e38aece2e5c5da067146dee028286a5a389ca52c651a8c2e25b34783e",
      "transactionType": "CALL",
      "contractName": null,
      "contractAddress": "0x96f7d1bc89bfe12b1292ef4f986feb0dd9935b69",
      "function": "upgradeFacade(address)",
      "arguments": [
        "0x2DfCa47C17a1d85C01AF195D038b66982E0f46a2"
      ],
      "transaction": {
        "from": "0xff9179199903a10283e19d86de8c09f2718073da",
        "to": "0x96f7d1bc89bfe12b1292ef4f986feb0dd9935b69",
        "gas": "0xa27e",
        "value": "0x0",
        "input": "0x651dc03d0000000000000000000000002dfca47c17a1d85c01af195d038b66982e0f46a2",
        "nonce": "0x62",
        "chainId": "0xaa36a7"
      },
      "additionalContracts": [],
      "isFixedGasLimit": false
    }
  ],
  "receipts": [
    {
      "status": "0x1",
      "cumulativeGasUsed": "0x10c19d1",
      "logs": [],
      "logsBloom": "0x00000000000000000000000000000000000000000000000000000000000000000000000000000000000000000000000000000000000000000000000000000000000000000000000000000000000000000000000000000000000000000000000000000000000000000000000000000000000000000000000000000000000000000000000000000000000000000000000000000000000000000000000000000000000000000000000000000000000000000000000000000000000000000000000000000000000000000000000000000000000000000000000000000000000000000000000000000000000000000000000000000000000000000000000000000000",
      "type": "0x2",
      "transactionHash": "0xd12eca21434f4b3171731ee4c3499883b406b77c5c7efe2f52d4835e2c492bca",
      "transactionIndex": "0x69",
      "blockHash": "0x8cbcc4ec3dd948fa44653bedc8fbdbbb0d7a99595970547f37e75ba137401c32",
      "blockNumber": "0x60f5c4",
      "gasUsed": "0x50000",
      "effectiveGasPrice": "0x2128d27",
      "from": "0xff9179199903a10283e19d86de8c09f2718073da",
      "to": null,
      "contractAddress": "0x2dfca47c17a1d85c01af195d038b66982e0f46a2"
    },
    {
      "status": "0x1",
      "cumulativeGasUsed": "0x10c8f76",
      "logs": [
        {
          "address": "0x96f7d1bc89bfe12b1292ef4f986feb0dd9935b69",
          "topics": [
            "0x159f10d3da077d18f228d52be447d552e7d1892d10f7af8f615658160e374729"
          ],
          "data": "0x0000000000000000000000002dfca47c17a1d85c01af195d038b66982e0f46a2",
          "blockHash": "0x8cbcc4ec3dd948fa44653bedc8fbdbbb0d7a99595970547f37e75ba137401c32",
          "blockNumber": "0x60f5c4",
          "transactionHash": "0x572e8b8e38aece2e5c5da067146dee028286a5a389ca52c651a8c2e25b34783e",
          "transactionIndex": "0x6a",
          "logIndex": "0x84",
          "removed": false
        }
      ],
      "logsBloom": "0x00000000000000080000000400000000000000000000000000000000000000000000000000000000000000000200000000000000000000000000000000000000000000000000000000000000000100000000000000000000000000000000000000000000000000000000000000000000000000000000000000000000000000000000000000000000000000000000000000000000020000000000000000000000000000000000000000000000000000000000000000000000000000000000000000000000000000000000000000000000000000000000000000000000000000000000000000000000000000000010000000000000000000000000000000000000",
      "type": "0x2",
      "transactionHash": "0x572e8b8e38aece2e5c5da067146dee028286a5a389ca52c651a8c2e25b34783e",
      "transactionIndex": "0x6a",
      "blockHash": "0x8cbcc4ec3dd948fa44653bedc8fbdbbb0d7a99595970547f37e75ba137401c32",
      "blockNumber": "0x60f5c4",
      "gasUsed": "0x75a5",
      "effectiveGasPrice": "0x2128d27",
      "from": "0xff9179199903a10283e19d86de8c09f2718073da",
      "to": "0x96f7d1bc89bfe12b1292ef4f986feb0dd9935b69",
      "contractAddress": null
    }
  ],
  "libraries": [],
  "pending": [],
  "returns": {},
  "timestamp": 1721624654,
  "chain": 11155111,
  "commit": "a7c3f40"
}